{
  "_format": "hh-sol-artifact-1",
  "contractName": "Validate",
  "sourceName": "contracts/Validate.sol",
  "abi": [
    {
      "constant": true,
      "inputs": [],
      "name": "getStoredNumber",
      "outputs": [
        {
          "internalType": "uint256",
          "name": "",
          "type": "uint256"
        }
      ],
      "payable": false,
      "stateMutability": "view",
      "type": "function"
    },
    {
      "constant": false,
      "inputs": [
        {
          "internalType": "uint256",
          "name": "_num",
          "type": "uint256"
        }
      ],
      "name": "setStoredNumber",
      "outputs": [
        {
          "internalType": "uint256",
          "name": "",
          "type": "uint256"
        }
      ],
      "payable": false,
      "stateMutability": "nonpayable",
      "type": "function"
    },
    {
      "constant": true,
      "inputs": [],
      "name": "storedNumber",
      "outputs": [
        {
          "internalType": "uint256",
          "name": "",
          "type": "uint256"
        }
      ],
      "payable": false,
      "stateMutability": "view",
      "type": "function"
    },
    {
      "constant": false,
      "inputs": [],
      "name": "validate",
      "outputs": [
        {
          "internalType": "uint256",
          "name": "",
          "type": "uint256"
        }
      ],
      "payable": false,
      "stateMutability": "nonpayable",
      "type": "function"
    }
  ],
  "bytecode": "0x608060405234801561001057600080fd5b5061037c806100206000396000f3fe608060405234801561001057600080fd5b506004361061004c5760003560e01c806309ce9ccb146100515780636901f6681461006f578063b92f9c061461008d578063fc412ba1146100cf575b600080fd5b6100596100ed565b6040518082815260200191505060405180910390f35b6100776100f3565b6040518082815260200191505060405180910390f35b6100b9600480360360208110156100a357600080fd5b810190808035906020019092919050505061025e565b6040518082815260200191505060405180910390f35b6100d761033e565b6040518082815260200191505060405180910390f35b60005481565b600080600160003373ffffffffffffffffffffffffffffffffffffffff1673ffffffffffffffffffffffffffffffffffffffff1681526020019081526020016000206000015414156101a6576040518060200160405280600f4201815250600160003373ffffffffffffffffffffffffffffffffffffffff1673ffffffffffffffffffffffffffffffffffffffff168152602001908152602001600020600082015181600001559050506000905061025b565b42600160003373ffffffffffffffffffffffffffffffffffffffff1673ffffffffffffffffffffffffffffffffffffffff16815260200190815260200160002060000154106101f8576001905061025b565b6040518060200160405280600a4201815250600160003373ffffffffffffffffffffffffffffffffffffffff1673ffffffffffffffffffffffffffffffffffffffff16815260200190815260200160002060008201518160000155905050600290505b90565b60008042600160003373ffffffffffffffffffffffffffffffffffffffff1673ffffffffffffffffffffffffffffffffffffffff1681526020019081526020016000206000015411156102b457600190506102b9565b600090505b8061032c576040517f08c379a000000000000000000000000000000000000000000000000000000000815260040180806020018281038252601f8152602001807f75736572206973206e6f742063757272656e746c792076616c6964617465640081525060200191505060405180910390fd5b82600081905550600054915050919050565b6000805490509056fea265627a7a72315820482315be64a155df7e0cab56f3078afd60062bc4896a47482cb8a747cba769f264736f6c63430005100032",
  "linkReferences": {},
  "deployedLinkReferences": {}
}