{
  "_format": "hh-sol-artifact-1",
  "contractName": "GovernorAlpha",
  "sourceName": "contracts/GovernorAlpha.sol",
  "abi": [
    {
      "inputs": [
        {
          "internalType": "address",
          "name": "timelock_",
          "type": "address"
        },
        {
          "internalType": "address",
          "name": "taro_",
          "type": "address"
        },
        {
          "internalType": "address",
          "name": "guardian_",
          "type": "address"
        }
      ],
      "payable": false,
      "stateMutability": "nonpayable",
      "type": "constructor"
    },
    {
      "anonymous": false,
      "inputs": [
        {
          "indexed": false,
          "internalType": "uint256",
          "name": "id",
          "type": "uint256"
        }
      ],
      "name": "ProposalCreated",
      "type": "event"
    },
    {
      "anonymous": false,
      "inputs": [
        {
          "indexed": false,
          "internalType": "uint256",
          "name": "timestamp",
          "type": "uint256"
        }
      ],
      "name": "ValidityStatus",
      "type": "event"
    },
    {
      "anonymous": false,
      "inputs": [
        {
          "indexed": false,
          "internalType": "address",
          "name": "voter",
          "type": "address"
        },
        {
          "indexed": false,
          "internalType": "uint256",
          "name": "proposalId",
          "type": "uint256"
        },
        {
          "indexed": false,
          "internalType": "bool",
          "name": "support",
          "type": "bool"
        },
        {
          "indexed": false,
          "internalType": "uint256",
          "name": "votes",
          "type": "uint256"
        }
      ],
      "name": "VoteCast",
      "type": "event"
    },
    {
      "constant": false,
      "inputs": [
        {
          "internalType": "uint256",
          "name": "proposalId",
          "type": "uint256"
        },
        {
          "internalType": "bool",
          "name": "support",
          "type": "bool"
        }
      ],
      "name": "castVote",
      "outputs": [],
      "payable": false,
      "stateMutability": "nonpayable",
      "type": "function"
    },
    {
      "constant": true,
      "inputs": [
        {
          "internalType": "address",
          "name": "_user",
          "type": "address"
        },
        {
          "internalType": "uint256",
          "name": "proposalId",
          "type": "uint256"
        }
      ],
      "name": "checkHasVoted",
      "outputs": [
        {
          "internalType": "bool",
          "name": "",
          "type": "bool"
        }
      ],
      "payable": false,
      "stateMutability": "view",
      "type": "function"
    },
    {
      "constant": true,
      "inputs": [],
      "name": "getValidityStatus",
      "outputs": [
        {
          "internalType": "uint256",
          "name": "",
          "type": "uint256"
        },
        {
          "internalType": "uint256",
          "name": "",
          "type": "uint256"
        }
      ],
      "payable": false,
      "stateMutability": "view",
      "type": "function"
    },
    {
      "constant": true,
      "inputs": [],
      "name": "guardian",
      "outputs": [
        {
          "internalType": "address",
          "name": "",
          "type": "address"
        }
      ],
      "payable": false,
      "stateMutability": "view",
      "type": "function"
    },
    {
      "constant": true,
      "inputs": [
        {
          "internalType": "uint256",
          "name": "",
          "type": "uint256"
        }
      ],
      "name": "isProposalActive",
      "outputs": [
        {
          "internalType": "bool",
          "name": "",
          "type": "bool"
        }
      ],
      "payable": false,
      "stateMutability": "view",
      "type": "function"
    },
    {
      "constant": true,
      "inputs": [
        {
          "internalType": "address",
          "name": "",
          "type": "address"
        }
      ],
      "name": "latestProposalIds",
      "outputs": [
        {
          "internalType": "uint256",
          "name": "",
          "type": "uint256"
        }
      ],
      "payable": false,
      "stateMutability": "view",
      "type": "function"
    },
    {
      "constant": true,
      "inputs": [],
      "name": "name",
      "outputs": [
        {
          "internalType": "string",
          "name": "",
          "type": "string"
        }
      ],
      "payable": false,
      "stateMutability": "view",
      "type": "function"
    },
    {
      "constant": true,
      "inputs": [],
      "name": "proposalCount",
      "outputs": [
        {
          "internalType": "uint256",
          "name": "",
          "type": "uint256"
        }
      ],
      "payable": false,
      "stateMutability": "view",
      "type": "function"
    },
    {
      "constant": true,
      "inputs": [],
      "name": "proposalThreshold",
      "outputs": [
        {
          "internalType": "uint256",
          "name": "",
          "type": "uint256"
        }
      ],
      "payable": false,
      "stateMutability": "pure",
      "type": "function"
    },
    {
      "constant": true,
      "inputs": [
        {
          "internalType": "uint256",
          "name": "",
          "type": "uint256"
        }
      ],
      "name": "proposals",
      "outputs": [
        {
          "internalType": "uint256",
          "name": "id",
          "type": "uint256"
        },
        {
          "internalType": "address",
          "name": "proposer",
          "type": "address"
        },
        {
          "internalType": "uint256",
          "name": "eta",
          "type": "uint256"
        },
        {
          "internalType": "uint256",
          "name": "startBlock",
          "type": "uint256"
        },
        {
          "internalType": "uint256",
          "name": "endBlock",
          "type": "uint256"
        },
        {
          "internalType": "uint256",
          "name": "forVotes",
          "type": "uint256"
        },
        {
          "internalType": "uint256",
          "name": "againstVotes",
          "type": "uint256"
        },
        {
          "internalType": "bool",
          "name": "canceled",
          "type": "bool"
        },
        {
          "internalType": "bool",
          "name": "executed",
          "type": "bool"
        },
        {
          "components": [
            {
              "internalType": "string",
              "name": "title",
              "type": "string"
            },
            {
              "internalType": "string",
              "name": "typeOfAction",
              "type": "string"
            },
            {
              "internalType": "string",
              "name": "neighborhood",
              "type": "string"
            },
            {
              "internalType": "string",
              "name": "personInCharge",
              "type": "string"
            },
            {
              "internalType": "string",
              "name": "description",
              "type": "string"
            },
            {
              "internalType": "uint256",
              "name": "expiration",
              "type": "uint256"
            },
            {
              "internalType": "uint256",
              "name": "budget",
              "type": "uint256"
            },
            {
              "internalType": "uint256",
              "name": "requiredTaroToVote",
              "type": "uint256"
            },
            {
              "internalType": "uint256",
              "name": "proposalTime",
              "type": "uint256"
            },
            {
              "internalType": "address",
              "name": "proposer",
              "type": "address"
            }
          ],
          "internalType": "struct GovernorAlpha.UserInputFields",
          "name": "userInputFields",
          "type": "tuple"
        }
      ],
      "payable": false,
      "stateMutability": "view",
      "type": "function"
    },
    {
      "constant": false,
      "inputs": [
        {
          "components": [
            {
              "internalType": "string",
              "name": "title",
              "type": "string"
            },
            {
              "internalType": "string",
              "name": "typeOfAction",
              "type": "string"
            },
            {
              "internalType": "string",
              "name": "neighborhood",
              "type": "string"
            },
            {
              "internalType": "string",
              "name": "personInCharge",
              "type": "string"
            },
            {
              "internalType": "string",
              "name": "description",
              "type": "string"
            },
            {
              "internalType": "uint256",
              "name": "expiration",
              "type": "uint256"
            },
            {
              "internalType": "uint256",
              "name": "budget",
              "type": "uint256"
            },
            {
              "internalType": "uint256",
              "name": "requiredTaroToVote",
              "type": "uint256"
            },
            {
              "internalType": "uint256",
              "name": "proposalTime",
              "type": "uint256"
            },
            {
              "internalType": "address",
              "name": "proposer",
              "type": "address"
            }
          ],
          "internalType": "struct GovernorAlpha.UserInputFields",
          "name": "_userInputFields",
          "type": "tuple"
        }
      ],
      "name": "propose",
      "outputs": [
        {
          "internalType": "uint256",
          "name": "",
          "type": "uint256"
        }
      ],
      "payable": false,
      "stateMutability": "nonpayable",
      "type": "function"
    },
    {
      "constant": true,
      "inputs": [],
      "name": "taro",
      "outputs": [
        {
          "internalType": "contract TaroInterface",
          "name": "",
          "type": "address"
        }
      ],
      "payable": false,
      "stateMutability": "view",
      "type": "function"
    },
    {
      "constant": true,
      "inputs": [],
      "name": "timelock",
      "outputs": [
        {
          "internalType": "contract TimelockInterface",
          "name": "",
          "type": "address"
        }
      ],
      "payable": false,
      "stateMutability": "view",
      "type": "function"
    },
    {
      "constant": true,
      "inputs": [
        {
          "internalType": "address",
          "name": "",
          "type": "address"
        }
      ],
      "name": "userProposals",
      "outputs": [
        {
          "internalType": "uint256",
          "name": "count",
          "type": "uint256"
        }
      ],
      "payable": false,
      "stateMutability": "view",
      "type": "function"
    },
    {
      "constant": false,
      "inputs": [
        {
          "internalType": "uint256",
          "name": "_rewardedTokens",
          "type": "uint256"
        }
      ],
      "name": "validate",
      "outputs": [
        {
          "internalType": "uint256",
          "name": "",
          "type": "uint256"
        }
      ],
      "payable": false,
      "stateMutability": "nonpayable",
      "type": "function"
    },
    {
      "constant": true,
      "inputs": [
        {
          "internalType": "address",
          "name": "",
          "type": "address"
        }
      ],
      "name": "validations",
      "outputs": [
        {
          "internalType": "uint256",
          "name": "expirationTime",
          "type": "uint256"
        }
      ],
      "payable": false,
      "stateMutability": "view",
      "type": "function"
    },
    {
      "constant": true,
      "inputs": [],
      "name": "votingDelay",
      "outputs": [
        {
          "internalType": "uint256",
          "name": "",
          "type": "uint256"
        }
      ],
      "payable": false,
      "stateMutability": "pure",
      "type": "function"
    },
    {
      "constant": true,
      "inputs": [],
      "name": "votingPeriod",
      "outputs": [
        {
          "internalType": "uint256",
          "name": "",
          "type": "uint256"
        }
      ],
      "payable": false,
      "stateMutability": "pure",
      "type": "function"
    }
  ],
  "bytecode": "0x60806040523480156200001157600080fd5b50604051620024ce380380620024ce833981810160405262000037919081019062000119565b826000806101000a81548173ffffffffffffffffffffffffffffffffffffffff021916908373ffffffffffffffffffffffffffffffffffffffff16021790555081600160006101000a81548173ffffffffffffffffffffffffffffffffffffffff021916908373ffffffffffffffffffffffffffffffffffffffff16021790555080600260006101000a81548173ffffffffffffffffffffffffffffffffffffffff021916908373ffffffffffffffffffffffffffffffffffffffff160217905550505050620001bd565b6000815190506200011381620001a3565b92915050565b6000806000606084860312156200012f57600080fd5b60006200013f8682870162000102565b9350506020620001528682870162000102565b9250506040620001658682870162000102565b9150509250925092565b60006200017c8262000183565b9050919050565b600073ffffffffffffffffffffffffffffffffffffffff82169050919050565b620001ae816200016f565b8114620001ba57600080fd5b50565b61230180620001cd6000396000f3fe608060405234801561001057600080fd5b50600436106101165760003560e01c8063452a9320116100a2578063b58131b011610071578063b58131b014610315578063ce4d01a314610333578063d33219b414610363578063da35c66414610381578063f71553451461039f57610116565b8063452a9320146102675780635d129b85146102855780639b44388c146102b5578063b55643e1146102e557610116565b8063164b3d2f116100e9578063164b3d2f146101ac57806317977c61146101dc57806331bfb4ca1461020c57806337d4e3861461022b5780633932abb11461024957610116565b8063013cf08b1461011b57806302a251a31461015457806306fdde031461017257806315373e3d14610190575b600080fd5b6101356004803603610130919081019061197d565b6103cf565b60405161014b9a99989796959493929190611fd2565b60405180910390f35b61015c610810565b6040516101699190611fb7565b60405180910390f35b61017a61081a565b6040516101879190611ef5565b60405180910390f35b6101aa60048036036101a591908101906119cf565b610853565b005b6101c660048036036101c1919081019061197d565b610862565b6040516101d39190611ea4565b60405180910390f35b6101f660048036036101f191908101906118ae565b610882565b6040516102039190611fb7565b60405180910390f35b61021461089a565b604051610222929190612075565b60405180910390f35b6102336108e9565b6040516102409190611ebf565b60405180910390f35b61025161090f565b60405161025e9190611fb7565b60405180910390f35b61026f610918565b60405161027c9190611dbb565b60405180910390f35b61029f600480360361029a91908101906118d7565b61093e565b6040516102ac9190611ea4565b60405180910390f35b6102cf60048036036102ca919081019061193c565b6109b7565b6040516102dc9190611fb7565b60405180910390f35b6102ff60048036036102fa91908101906118ae565b610efc565b60405161030c9190611fb7565b60405180910390f35b61031d610f1a565b60405161032a9190611fb7565b60405180910390f35b61034d6004803603610348919081019061197d565b610f2c565b60405161035a9190611fb7565b60405180910390f35b61036b611193565b6040516103789190611eda565b60405180910390f35b6103896111b8565b6040516103969190611fb7565b60405180910390f35b6103b960048036036103b491908101906118ae565b6111be565b6040516103c69190611fb7565b60405180910390f35b60046020528060005260406000206000915090508060000154908060010160009054906101000a900473ffffffffffffffffffffffffffffffffffffffff16908060020154908060030154908060040154908060050154908060060154908060070160009054906101000a900460ff16908060070160019054906101000a900460ff16908060080160405180610140016040529081600082018054600181600116156101000203166002900480601f0160208091040260200160405190810160405280929190818152602001828054600181600116156101000203166002900480156104fc5780601f106104d1576101008083540402835291602001916104fc565b820191906000526020600020905b8154815290600101906020018083116104df57829003601f168201915b50505050508152602001600182018054600181600116156101000203166002900480601f01602080910402602001604051908101604052809291908181526020018280546001816001161561010002031660029004801561059e5780601f106105735761010080835404028352916020019161059e565b820191906000526020600020905b81548152906001019060200180831161058157829003601f168201915b50505050508152602001600282018054600181600116156101000203166002900480601f0160208091040260200160405190810160405280929190818152602001828054600181600116156101000203166002900480156106405780601f1061061557610100808354040283529160200191610640565b820191906000526020600020905b81548152906001019060200180831161062357829003601f168201915b50505050508152602001600382018054600181600116156101000203166002900480601f0160208091040260200160405190810160405280929190818152602001828054600181600116156101000203166002900480156106e25780601f106106b7576101008083540402835291602001916106e2565b820191906000526020600020905b8154815290600101906020018083116106c557829003601f168201915b50505050508152602001600482018054600181600116156101000203166002900480601f0160208091040260200160405190810160405280929190818152602001828054600181600116156101000203166002900480156107845780601f1061075957610100808354040283529160200191610784565b820191906000526020600020905b81548152906001019060200180831161076757829003601f168201915b50505050508152602001600582015481526020016006820154815260200160078201548152602001600882015481526020016009820160009054906101000a900473ffffffffffffffffffffffffffffffffffffffff1673ffffffffffffffffffffffffffffffffffffffff1673ffffffffffffffffffffffffffffffffffffffff168152505090508a565b6000614380905090565b6040518060400160405280601581526020017f566f5461726f20476f7665726e6f7220416c706861000000000000000000000081525081565b61085e3383836111dc565b5050565b60066020528060005260406000206000915054906101000a900460ff1681565b60056020528060005260406000206000915090505481565b600080600760003373ffffffffffffffffffffffffffffffffffffffff1673ffffffffffffffffffffffffffffffffffffffff1681526020019081526020016000206000015442915091509091565b600160009054906101000a900473ffffffffffffffffffffffffffffffffffffffff1681565b60006001905090565b600260009054906101000a900473ffffffffffffffffffffffffffffffffffffffff1681565b60008060046000848152602001908152602001600020905060008160120160008673ffffffffffffffffffffffffffffffffffffffff1673ffffffffffffffffffffffffffffffffffffffff16815260200190815260200160002090508060000160009054906101000a900460ff169250505092915050565b60008042600760003373ffffffffffffffffffffffffffffffffffffffff1673ffffffffffffffffffffffffffffffffffffffff168152602001908152602001600020600001541115610a0d5760019050610a12565b600090505b80610a52576040517f08c379a0000000000000000000000000000000000000000000000000000000008152600401610a4990611f17565b60405180910390fd5b6005600860003373ffffffffffffffffffffffffffffffffffffffff1673ffffffffffffffffffffffffffffffffffffffff168152602001908152602001600020600001541015610be7576000600160009054906101000a900473ffffffffffffffffffffffffffffffffffffffff1673ffffffffffffffffffffffffffffffffffffffff166323b872dd303360146040518463ffffffff1660e01b8152600401610aff93929190611df1565b602060405180830381600087803b158015610b1957600080fd5b505af1158015610b2d573d6000803e3d6000fd5b505050506040513d601f19601f82011682018060405250610b519190810190611913565b905080610b93576040517f08c379a0000000000000000000000000000000000000000000000000000000008152600401610b8a90611f77565b60405180910390fd5b600860003373ffffffffffffffffffffffffffffffffffffffff1673ffffffffffffffffffffffffffffffffffffffff16815260200190815260200160002060000160008154809291906001019190505550505b6000610bfa43610bf561090f565b6114b1565b90506000610c0f82610c0a610810565b6114b1565b9050600360008154809291906001019190505550610c2b611506565b60405180610140016040528060035481526020013373ffffffffffffffffffffffffffffffffffffffff1681526020016000815260200184815260200183815260200160008152602001600081526020016000151581526020016000151581526020018781525090508060046000836000015181526020019081526020016000206000820151816000015560208201518160010160006101000a81548173ffffffffffffffffffffffffffffffffffffffff021916908373ffffffffffffffffffffffffffffffffffffffff16021790555060408201518160020155606082015181600301556080820151816004015560a0820151816005015560c0820151816006015560e08201518160070160006101000a81548160ff0219169083151502179055506101008201518160070160016101000a81548160ff021916908315150217905550610120820151816008016000820151816000019080519060200190610d96929190611579565b506020820151816001019080519060200190610db3929190611579565b506040820151816002019080519060200190610dd0929190611579565b506060820151816003019080519060200190610ded929190611579565b506080820151816004019080519060200190610e0a929190611579565b5060a0820151816005015560c0820151816006015560e0820151816007015561010082015181600801556101208201518160090160006101000a81548173ffffffffffffffffffffffffffffffffffffffff021916908373ffffffffffffffffffffffffffffffffffffffff16021790555050509050506001600660008360000151815260200190815260200160002060006101000a81548160ff0219169083151502179055507fc2c021f5d73c63c481d336fbbafec58f694fc45095f00b02d2deb8cca59afe078160000151604051610ee49190611fb7565b60405180910390a18060000151945050505050919050565b60086020528060005260406000206000915090508060000154905081565b600069152d02c7e14af6800000905090565b600080600760003373ffffffffffffffffffffffffffffffffffffffff1673ffffffffffffffffffffffffffffffffffffffff1681526020019081526020016000206000015414156110d757604051806020016040528062f0c8a04201815250600760003373ffffffffffffffffffffffffffffffffffffffff1673ffffffffffffffffffffffffffffffffffffffff168152602001908152602001600020600082015181600001559050506000600160009054906101000a900473ffffffffffffffffffffffffffffffffffffffff1673ffffffffffffffffffffffffffffffffffffffff166323b872dd3033866040518463ffffffff1660e01b815260040161103993929190611e28565b602060405180830381600087803b15801561105357600080fd5b505af1158015611067573d6000803e3d6000fd5b505050506040513d601f19601f8201168201806040525061108b9190810190611913565b9050806110cd576040517f08c379a00000000000000000000000000000000000000000000000000000000081526004016110c490611f77565b60405180910390fd5b600091505061118e565b42600760003373ffffffffffffffffffffffffffffffffffffffff1673ffffffffffffffffffffffffffffffffffffffff1681526020019081526020016000206000015410611129576001905061118e565b604051806020016040528062f0c8a04201815250600760003373ffffffffffffffffffffffffffffffffffffffff1673ffffffffffffffffffffffffffffffffffffffff16815260200190815260200160002060008201518160000155905050600290505b919050565b6000809054906101000a900473ffffffffffffffffffffffffffffffffffffffff1681565b60035481565b60076020528060005260406000206000915090508060000154905081565b600115156006600084815260200190815260200160002060009054906101000a900460ff16151514611243576040517f08c379a000000000000000000000000000000000000000000000000000000000815260040161123a90611f97565b60405180910390fd5b600060046000848152602001908152602001600020905060008160120160008673ffffffffffffffffffffffffffffffffffffffff1673ffffffffffffffffffffffffffffffffffffffff16815260200190815260200160002090506000600160009054906101000a900473ffffffffffffffffffffffffffffffffffffffff1673ffffffffffffffffffffffffffffffffffffffff166370a08231336040518263ffffffff1660e01b81526004016112fc9190611dd6565b60206040518083038186803b15801561131457600080fd5b505afa158015611328573d6000803e3d6000fd5b505050506040513d601f19601f8201168201806040525061134c91908101906119a6565b90506000819050600015158360000160009054906101000a900460ff161515146113ab576040517f08c379a00000000000000000000000000000000000000000000000000000000081526004016113a290611f37565b60405180910390fd5b84156113da576113cd8460050154826bffffffffffffffffffffffff166114b1565b84600501819055506113ff565b6113f68460060154826bffffffffffffffffffffffff166114b1565b84600601819055505b60018360000160006101000a81548160ff021916908315150217905550848360000160016101000a81548160ff021916908315150217905550808360000160026101000a8154816bffffffffffffffffffffffff02191690836bffffffffffffffffffffffff1602179055507f877856338e13f63d0c36822ff0ef736b80934cd90574a3a5bc9262c39d217c46878787846040516114a09493929190611e5f565b60405180910390a150505050505050565b6000808284019050838110156114fc576040517f08c379a00000000000000000000000000000000000000000000000000000000081526004016114f390611f57565b60405180910390fd5b8091505092915050565b60405180610140016040528060008152602001600073ffffffffffffffffffffffffffffffffffffffff16815260200160008152602001600081526020016000815260200160008152602001600081526020016000151581526020016000151581526020016115736115f9565b81525090565b828054600181600116156101000203166002900490600052602060002090601f016020900481019282601f106115ba57805160ff19168380011785556115e8565b828001600101855582156115e8579182015b828111156115e75782518255916020019190600101906115cc565b5b5090506115f59190611662565b5090565b604051806101400160405280606081526020016060815260200160608152602001606081526020016060815260200160008152602001600081526020016000815260200160008152602001600073ffffffffffffffffffffffffffffffffffffffff1681525090565b61168491905b80821115611680576000816000905550600101611668565b5090565b90565b60008135905061169681612279565b92915050565b6000813590506116ab81612290565b92915050565b6000815190506116c081612290565b92915050565b600082601f8301126116d757600080fd5b81356116ea6116e5826120cb565b61209e565b9150808252602083016020830185838301111561170657600080fd5b611711838284612226565b50505092915050565b6000610140828403121561172d57600080fd5b61173861014061209e565b9050600082013567ffffffffffffffff81111561175457600080fd5b611760848285016116c6565b600083015250602082013567ffffffffffffffff81111561178057600080fd5b61178c848285016116c6565b602083015250604082013567ffffffffffffffff8111156117ac57600080fd5b6117b8848285016116c6565b604083015250606082013567ffffffffffffffff8111156117d857600080fd5b6117e4848285016116c6565b606083015250608082013567ffffffffffffffff81111561180457600080fd5b611810848285016116c6565b60808301525060a061182484828501611884565b60a08301525060c061183884828501611884565b60c08301525060e061184c84828501611884565b60e08301525061010061186184828501611884565b6101008301525061012061187784828501611687565b6101208301525092915050565b600081359050611893816122a7565b92915050565b6000815190506118a8816122a7565b92915050565b6000602082840312156118c057600080fd5b60006118ce84828501611687565b91505092915050565b600080604083850312156118ea57600080fd5b60006118f885828601611687565b925050602061190985828601611884565b9150509250929050565b60006020828403121561192557600080fd5b6000611933848285016116b1565b91505092915050565b60006020828403121561194e57600080fd5b600082013567ffffffffffffffff81111561196857600080fd5b6119748482850161171a565b91505092915050565b60006020828403121561198f57600080fd5b600061199d84828501611884565b91505092915050565b6000602082840312156119b857600080fd5b60006119c684828501611899565b91505092915050565b600080604083850312156119e257600080fd5b60006119f085828601611884565b9250506020611a018582860161169c565b9150509250929050565b611a1481612184565b82525050565b611a2381612124565b82525050565b611a3281612124565b82525050565b611a4181612136565b82525050565b611a5081612196565b82525050565b611a5f816121ba565b82525050565b611a6e816121de565b82525050565b6000611a7f826120f7565b611a898185612102565b9350611a99818560208601612235565b611aa281612268565b840191505092915050565b6000611ab8826120f7565b611ac28185612113565b9350611ad2818560208601612235565b611adb81612268565b840191505092915050565b6000611af3601f83612113565b91507f75736572206973206e6f742063757272656e746c792076616c696461746564006000830152602082019050919050565b6000611b33602d83612113565b91507f476f7665726e6f72416c7068613a3a5f63617374566f74653a20766f7465722060008301527f616c726561647920766f746564000000000000000000000000000000000000006020830152604082019050919050565b6000611b99601183612113565b91507f6164646974696f6e206f766572666c6f770000000000000000000000000000006000830152602082019050919050565b6000611bd9602483612113565b91507f546f6b656e73206e6f74207472616e7366657272656420746f206d73672e736560008301527f6e646572000000000000000000000000000000000000000000000000000000006020830152604082019050919050565b6000611c3f602a83612113565b91507f476f7665726e6f72416c7068613a3a5f63617374566f74653a20766f74696e6760008301527f20697320636c6f736564000000000000000000000000000000000000000000006020830152604082019050919050565b6000610140830160008301518482036000860152611cb68282611a74565b91505060208301518482036020860152611cd08282611a74565b91505060408301518482036040860152611cea8282611a74565b91505060608301518482036060860152611d048282611a74565b91505060808301518482036080860152611d1e8282611a74565b91505060a0830151611d3360a0860182611d8e565b5060c0830151611d4660c0860182611d8e565b5060e0830151611d5960e0860182611d8e565b50610100830151611d6e610100860182611d8e565b50610120830151611d83610120860182611a1a565b508091505092915050565b611d9781612162565b82525050565b611da681612162565b82525050565b611db581612214565b82525050565b6000602082019050611dd06000830184611a29565b92915050565b6000602082019050611deb6000830184611a0b565b92915050565b6000606082019050611e066000830186611a29565b611e136020830185611a0b565b611e206040830184611a65565b949350505050565b6000606082019050611e3d6000830186611a29565b611e4a6020830185611a0b565b611e576040830184611d9d565b949350505050565b6000608082019050611e746000830187611a29565b611e816020830186611d9d565b611e8e6040830185611a38565b611e9b6060830184611dac565b95945050505050565b6000602082019050611eb96000830184611a38565b92915050565b6000602082019050611ed46000830184611a47565b92915050565b6000602082019050611eef6000830184611a56565b92915050565b60006020820190508181036000830152611f0f8184611aad565b905092915050565b60006020820190508181036000830152611f3081611ae6565b9050919050565b60006020820190508181036000830152611f5081611b26565b9050919050565b60006020820190508181036000830152611f7081611b8c565b9050919050565b60006020820190508181036000830152611f9081611bcc565b9050919050565b60006020820190508181036000830152611fb081611c32565b9050919050565b6000602082019050611fcc6000830184611d9d565b92915050565b600061014082019050611fe8600083018d611d9d565b611ff5602083018c611a29565b612002604083018b611d9d565b61200f606083018a611d9d565b61201c6080830189611d9d565b61202960a0830188611d9d565b61203660c0830187611d9d565b61204360e0830186611a38565b612051610100830185611a38565b8181036101208301526120648184611c98565b90509b9a5050505050505050505050565b600060408201905061208a6000830185611d9d565b6120976020830184611d9d565b9392505050565b6000604051905081810181811067ffffffffffffffff821117156120c157600080fd5b8060405250919050565b600067ffffffffffffffff8211156120e257600080fd5b601f19601f8301169050602081019050919050565b600081519050919050565b600082825260208201905092915050565b600082825260208201905092915050565b600061212f82612142565b9050919050565b60008115159050919050565b600073ffffffffffffffffffffffffffffffffffffffff82169050919050565b6000819050919050565b60006bffffffffffffffffffffffff82169050919050565b600061218f826121f0565b9050919050565b60006121a1826121a8565b9050919050565b60006121b382612142565b9050919050565b60006121c5826121cc565b9050919050565b60006121d782612142565b9050919050565b60006121e982612162565b9050919050565b60006121fb82612202565b9050919050565b600061220d82612142565b9050919050565b600061221f8261216c565b9050919050565b82818337600083830152505050565b60005b83811015612253578082015181840152602081019050612238565b83811115612262576000848401525b50505050565b6000601f19601f8301169050919050565b61228281612124565b811461228d57600080fd5b50565b61229981612136565b81146122a457600080fd5b50565b6122b081612162565b81146122bb57600080fd5b5056fea365627a7a72315820d4b0f99ba9fdedef744f42ffd8a2b2b9b6990ef1a7c534fead06f28d8e5266b76c6578706572696d656e74616cf564736f6c63430005100040",
  "linkReferences": {},
  "deployedLinkReferences": {}
}