{
  "_format": "hh-sol-artifact-1",
  "contractName": "GovernorAlpha",
  "sourceName": "contracts/GovernorAlpha.sol",
  "abi": [
    {
      "inputs": [
        {
          "internalType": "address",
          "name": "timelock_",
          "type": "address"
        },
        {
          "internalType": "address",
          "name": "comp_",
          "type": "address"
        },
        {
          "internalType": "address",
          "name": "guardian_",
          "type": "address"
        }
      ],
      "payable": false,
      "stateMutability": "nonpayable",
      "type": "constructor"
    },
    {
      "anonymous": false,
      "inputs": [
        {
          "indexed": false,
          "internalType": "uint256",
          "name": "id",
          "type": "uint256"
        }
      ],
      "name": "ProposalCanceled",
      "type": "event"
    },
    {
      "anonymous": false,
      "inputs": [
        {
          "indexed": false,
          "internalType": "uint256",
          "name": "id",
          "type": "uint256"
        },
        {
          "indexed": false,
          "internalType": "address",
          "name": "proposer",
          "type": "address"
        },
        {
          "indexed": false,
          "internalType": "address[]",
          "name": "targets",
          "type": "address[]"
        },
        {
          "indexed": false,
          "internalType": "uint256[]",
          "name": "values",
          "type": "uint256[]"
        },
        {
          "indexed": false,
          "internalType": "string[]",
          "name": "signatures",
          "type": "string[]"
        },
        {
          "indexed": false,
          "internalType": "bytes[]",
          "name": "calldatas",
          "type": "bytes[]"
        },
        {
          "indexed": false,
          "internalType": "uint256",
          "name": "startBlock",
          "type": "uint256"
        },
        {
          "indexed": false,
          "internalType": "uint256",
          "name": "endBlock",
          "type": "uint256"
        },
        {
          "indexed": false,
          "internalType": "string",
          "name": "description",
          "type": "string"
        }
      ],
      "name": "ProposalCreated",
      "type": "event"
    },
    {
      "anonymous": false,
      "inputs": [
        {
          "indexed": false,
          "internalType": "uint256",
          "name": "id",
          "type": "uint256"
        }
      ],
      "name": "ProposalExecuted",
      "type": "event"
    },
    {
      "anonymous": false,
      "inputs": [
        {
          "indexed": false,
          "internalType": "uint256",
          "name": "id",
          "type": "uint256"
        },
        {
          "indexed": false,
          "internalType": "uint256",
          "name": "eta",
          "type": "uint256"
        }
      ],
      "name": "ProposalQueued",
      "type": "event"
    },
    {
      "anonymous": false,
      "inputs": [
        {
          "indexed": false,
          "internalType": "address",
          "name": "voter",
          "type": "address"
        },
        {
          "indexed": false,
          "internalType": "uint256",
          "name": "proposalId",
          "type": "uint256"
        },
        {
          "indexed": false,
          "internalType": "bool",
          "name": "support",
          "type": "bool"
        },
        {
          "indexed": false,
          "internalType": "uint256",
          "name": "votes",
          "type": "uint256"
        }
      ],
      "name": "VoteCast",
      "type": "event"
    },
    {
      "constant": true,
      "inputs": [],
      "name": "BALLOT_TYPEHASH",
      "outputs": [
        {
          "internalType": "bytes32",
          "name": "",
          "type": "bytes32"
        }
      ],
      "payable": false,
      "stateMutability": "view",
      "type": "function"
    },
    {
      "constant": true,
      "inputs": [],
      "name": "DOMAIN_TYPEHASH",
      "outputs": [
        {
          "internalType": "bytes32",
          "name": "",
          "type": "bytes32"
        }
      ],
      "payable": false,
      "stateMutability": "view",
      "type": "function"
    },
    {
      "constant": false,
      "inputs": [],
      "name": "__abdicate",
      "outputs": [],
      "payable": false,
      "stateMutability": "nonpayable",
      "type": "function"
    },
    {
      "constant": false,
      "inputs": [],
      "name": "__acceptAdmin",
      "outputs": [],
      "payable": false,
      "stateMutability": "nonpayable",
      "type": "function"
    },
    {
      "constant": false,
      "inputs": [
        {
          "internalType": "address",
          "name": "newPendingAdmin",
          "type": "address"
        },
        {
          "internalType": "uint256",
          "name": "eta",
          "type": "uint256"
        }
      ],
      "name": "__executeSetTimelockPendingAdmin",
      "outputs": [],
      "payable": false,
      "stateMutability": "nonpayable",
      "type": "function"
    },
    {
      "constant": false,
      "inputs": [
        {
          "internalType": "address",
          "name": "newPendingAdmin",
          "type": "address"
        },
        {
          "internalType": "uint256",
          "name": "eta",
          "type": "uint256"
        }
      ],
      "name": "__queueSetTimelockPendingAdmin",
      "outputs": [],
      "payable": false,
      "stateMutability": "nonpayable",
      "type": "function"
    },
    {
      "constant": false,
      "inputs": [
        {
          "internalType": "uint256",
          "name": "proposalId",
          "type": "uint256"
        }
      ],
      "name": "cancel",
      "outputs": [],
      "payable": false,
      "stateMutability": "nonpayable",
      "type": "function"
    },
    {
      "constant": false,
      "inputs": [
        {
          "internalType": "uint256",
          "name": "proposalId",
          "type": "uint256"
        },
        {
          "internalType": "bool",
          "name": "support",
          "type": "bool"
        }
      ],
      "name": "castVote",
      "outputs": [],
      "payable": false,
      "stateMutability": "nonpayable",
      "type": "function"
    },
    {
      "constant": false,
      "inputs": [
        {
          "internalType": "uint256",
          "name": "proposalId",
          "type": "uint256"
        },
        {
          "internalType": "bool",
          "name": "support",
          "type": "bool"
        },
        {
          "internalType": "uint8",
          "name": "v",
          "type": "uint8"
        },
        {
          "internalType": "bytes32",
          "name": "r",
          "type": "bytes32"
        },
        {
          "internalType": "bytes32",
          "name": "s",
          "type": "bytes32"
        }
      ],
      "name": "castVoteBySig",
      "outputs": [],
      "payable": false,
      "stateMutability": "nonpayable",
      "type": "function"
    },
    {
      "constant": true,
      "inputs": [],
      "name": "comp",
      "outputs": [
        {
          "internalType": "contract CompInterface",
          "name": "",
          "type": "address"
        }
      ],
      "payable": false,
      "stateMutability": "view",
      "type": "function"
    },
    {
      "constant": false,
      "inputs": [
        {
          "internalType": "uint256",
          "name": "proposalId",
          "type": "uint256"
        }
      ],
      "name": "execute",
      "outputs": [],
      "payable": true,
      "stateMutability": "payable",
      "type": "function"
    },
    {
      "constant": true,
      "inputs": [
        {
          "internalType": "uint256",
          "name": "proposalId",
          "type": "uint256"
        }
      ],
      "name": "getActions",
      "outputs": [
        {
          "internalType": "address[]",
          "name": "targets",
          "type": "address[]"
        },
        {
          "internalType": "uint256[]",
          "name": "values",
          "type": "uint256[]"
        },
        {
          "internalType": "string[]",
          "name": "signatures",
          "type": "string[]"
        },
        {
          "internalType": "bytes[]",
          "name": "calldatas",
          "type": "bytes[]"
        }
      ],
      "payable": false,
      "stateMutability": "view",
      "type": "function"
    },
    {
      "constant": true,
      "inputs": [
        {
          "internalType": "uint256",
          "name": "proposalId",
          "type": "uint256"
        },
        {
          "internalType": "address",
          "name": "voter",
          "type": "address"
        }
      ],
      "name": "getReceipt",
      "outputs": [
        {
          "components": [
            {
              "internalType": "bool",
              "name": "hasVoted",
              "type": "bool"
            },
            {
              "internalType": "bool",
              "name": "support",
              "type": "bool"
            },
            {
              "internalType": "uint96",
              "name": "votes",
              "type": "uint96"
            }
          ],
          "internalType": "struct GovernorAlpha.Receipt",
          "name": "",
          "type": "tuple"
        }
      ],
      "payable": false,
      "stateMutability": "view",
      "type": "function"
    },
    {
      "constant": true,
      "inputs": [],
      "name": "guardian",
      "outputs": [
        {
          "internalType": "address",
          "name": "",
          "type": "address"
        }
      ],
      "payable": false,
      "stateMutability": "view",
      "type": "function"
    },
    {
      "constant": true,
      "inputs": [
        {
          "internalType": "address",
          "name": "",
          "type": "address"
        }
      ],
      "name": "latestProposalIds",
      "outputs": [
        {
          "internalType": "uint256",
          "name": "",
          "type": "uint256"
        }
      ],
      "payable": false,
      "stateMutability": "view",
      "type": "function"
    },
    {
      "constant": true,
      "inputs": [],
      "name": "name",
      "outputs": [
        {
          "internalType": "string",
          "name": "",
          "type": "string"
        }
      ],
      "payable": false,
      "stateMutability": "view",
      "type": "function"
    },
    {
      "constant": true,
      "inputs": [],
      "name": "proposalCount",
      "outputs": [
        {
          "internalType": "uint256",
          "name": "",
          "type": "uint256"
        }
      ],
      "payable": false,
      "stateMutability": "view",
      "type": "function"
    },
    {
      "constant": true,
      "inputs": [],
      "name": "proposalMaxOperations",
      "outputs": [
        {
          "internalType": "uint256",
          "name": "",
          "type": "uint256"
        }
      ],
      "payable": false,
      "stateMutability": "pure",
      "type": "function"
    },
    {
      "constant": true,
      "inputs": [],
      "name": "proposalThreshold",
      "outputs": [
        {
          "internalType": "uint256",
          "name": "",
          "type": "uint256"
        }
      ],
      "payable": false,
      "stateMutability": "pure",
      "type": "function"
    },
    {
      "constant": true,
      "inputs": [
        {
          "internalType": "uint256",
          "name": "",
          "type": "uint256"
        }
      ],
      "name": "proposals",
      "outputs": [
        {
          "internalType": "uint256",
          "name": "id",
          "type": "uint256"
        },
        {
          "internalType": "address",
          "name": "proposer",
          "type": "address"
        },
        {
          "internalType": "uint256",
          "name": "eta",
          "type": "uint256"
        },
        {
          "internalType": "uint256",
          "name": "startBlock",
          "type": "uint256"
        },
        {
          "internalType": "uint256",
          "name": "endBlock",
          "type": "uint256"
        },
        {
          "internalType": "uint256",
          "name": "forVotes",
          "type": "uint256"
        },
        {
          "internalType": "uint256",
          "name": "againstVotes",
          "type": "uint256"
        },
        {
          "internalType": "bool",
          "name": "canceled",
          "type": "bool"
        },
        {
          "internalType": "bool",
          "name": "executed",
          "type": "bool"
        }
      ],
      "payable": false,
      "stateMutability": "view",
      "type": "function"
    },
    {
      "constant": false,
      "inputs": [
        {
          "internalType": "address[]",
          "name": "targets",
          "type": "address[]"
        },
        {
          "internalType": "uint256[]",
          "name": "values",
          "type": "uint256[]"
        },
        {
          "internalType": "string[]",
          "name": "signatures",
          "type": "string[]"
        },
        {
          "internalType": "bytes[]",
          "name": "calldatas",
          "type": "bytes[]"
        },
        {
          "internalType": "string",
          "name": "description",
          "type": "string"
        }
      ],
      "name": "propose",
      "outputs": [
        {
          "internalType": "uint256",
          "name": "",
          "type": "uint256"
        }
      ],
      "payable": false,
      "stateMutability": "nonpayable",
      "type": "function"
    },
    {
      "constant": false,
      "inputs": [
        {
          "internalType": "uint256",
          "name": "proposalId",
          "type": "uint256"
        }
      ],
      "name": "queue",
      "outputs": [],
      "payable": false,
      "stateMutability": "nonpayable",
      "type": "function"
    },
    {
      "constant": true,
      "inputs": [],
      "name": "quorumVotes",
      "outputs": [
        {
          "internalType": "uint256",
          "name": "",
          "type": "uint256"
        }
      ],
      "payable": false,
      "stateMutability": "pure",
      "type": "function"
    },
    {
      "constant": true,
      "inputs": [
        {
          "internalType": "uint256",
          "name": "proposalId",
          "type": "uint256"
        }
      ],
      "name": "state",
      "outputs": [
        {
          "internalType": "enum GovernorAlpha.ProposalState",
          "name": "",
          "type": "uint8"
        }
      ],
      "payable": false,
      "stateMutability": "view",
      "type": "function"
    },
    {
      "constant": true,
      "inputs": [],
      "name": "timelock",
      "outputs": [
        {
          "internalType": "contract TimelockInterface",
          "name": "",
          "type": "address"
        }
      ],
      "payable": false,
      "stateMutability": "view",
      "type": "function"
    },
    {
      "constant": true,
      "inputs": [],
      "name": "votingDelay",
      "outputs": [
        {
          "internalType": "uint256",
          "name": "",
          "type": "uint256"
        }
      ],
      "payable": false,
      "stateMutability": "pure",
      "type": "function"
    },
    {
      "constant": true,
      "inputs": [],
      "name": "votingPeriod",
      "outputs": [
        {
          "internalType": "uint256",
          "name": "",
          "type": "uint256"
        }
      ],
      "payable": false,
      "stateMutability": "pure",
      "type": "function"
    }
  ],
  "bytecode": "0x60806040523480156200001157600080fd5b506040516200541638038062005416833981810160405262000037919081019062000119565b826000806101000a81548173ffffffffffffffffffffffffffffffffffffffff021916908373ffffffffffffffffffffffffffffffffffffffff16021790555081600160006101000a81548173ffffffffffffffffffffffffffffffffffffffff021916908373ffffffffffffffffffffffffffffffffffffffff16021790555080600260006101000a81548173ffffffffffffffffffffffffffffffffffffffff021916908373ffffffffffffffffffffffffffffffffffffffff160217905550505050620001bd565b6000815190506200011381620001a3565b92915050565b6000806000606084860312156200012f57600080fd5b60006200013f8682870162000102565b9350506020620001528682870162000102565b9250506040620001658682870162000102565b9150509250925092565b60006200017c8262000183565b9050919050565b600073ffffffffffffffffffffffffffffffffffffffff82169050919050565b620001ae816200016f565b8114620001ba57600080fd5b50565b61524980620001cd6000396000f3fe60806040526004361061019c5760003560e01c8063452a9320116100ec578063d33219b41161008a578063ddf0b00911610064578063ddf0b009146105b1578063deaaa7cc146105da578063e23a9a5214610605578063fe0d94c1146106425761019c565b8063d33219b41461051e578063da35c66414610549578063da95691a146105745761019c565b80637bdbe4d0116100c65780637bdbe4d01461048857806391500671146104b3578063b58131b0146104dc578063b9a61961146105075761019c565b8063452a93201461041d5780634634c61f14610448578063760fbc13146104715761019c565b806320606b7011610159578063328dd98211610133578063328dd9821461034c5780633932abb11461038c5780633e4f49e6146103b757806340e58ee5146103f45761019c565b806320606b70146102cd57806321f43e42146102f857806324bc1a64146103215761019c565b8063013cf08b146101a157806302a251a3146101e657806306fdde0314610211578063109d0af81461023c57806315373e3d1461026757806317977c6114610290575b600080fd5b3480156101ad57600080fd5b506101c860048036036101c3919081019061339c565b61065e565b6040516101dd99989796959493929190614c18565b60405180910390f35b3480156101f257600080fd5b506101fb6106e6565b6040516102089190614b4d565b60405180910390f35b34801561021d57600080fd5b506102266106f0565b6040516102339190614860565b60405180910390f35b34801561024857600080fd5b50610251610729565b60405161025e919061480f565b60405180910390f35b34801561027357600080fd5b5061028e6004803603610289919081019061342a565b61074f565b005b34801561029c57600080fd5b506102b760048036036102b291908101906131b5565b6107d3565b6040516102c49190614b4d565b60405180910390f35b3480156102d957600080fd5b506102e26107eb565b6040516102ef9190614733565b60405180910390f35b34801561030457600080fd5b5061031f600480360361031a91908101906131de565b610802565b005b34801561032d57600080fd5b5061033661098f565b6040516103439190614b4d565b60405180910390f35b34801561035857600080fd5b50610373600480360361036e919081019061339c565b61099f565b60405161038394939291906146d2565b60405180910390f35b34801561039857600080fd5b506103a1610c7c565b6040516103ae9190614b4d565b60405180910390f35b3480156103c357600080fd5b506103de60048036036103d9919081019061339c565b610c85565b6040516103eb9190614845565b60405180910390f35b34801561040057600080fd5b5061041b6004803603610416919081019061339c565b610e69565b005b34801561042957600080fd5b50610432611205565b60405161043f9190614528565b60405180910390f35b34801561045457600080fd5b5061046f600480360361046a9190810190613466565b61122b565b005b34801561047d57600080fd5b506104866113fa565b005b34801561049457600080fd5b5061049d6114ce565b6040516104aa9190614b4d565b60405180910390f35b3480156104bf57600080fd5b506104da60048036036104d591908101906131de565b6114d7565b005b3480156104e857600080fd5b506104f161165f565b6040516104fe9190614b4d565b60405180910390f35b34801561051357600080fd5b5061051c611671565b005b34801561052a57600080fd5b50610533611784565b604051610540919061482a565b60405180910390f35b34801561055557600080fd5b5061055e6117a9565b60405161056b9190614b4d565b60405180910390f35b34801561058057600080fd5b5061059b6004803603610596919081019061321a565b6117af565b6040516105a89190614b4d565b60405180910390f35b3480156105bd57600080fd5b506105d860048036036105d3919081019061339c565b611c6f565b005b3480156105e657600080fd5b506105ef611fbe565b6040516105fc9190614733565b60405180910390f35b34801561061157600080fd5b5061062c600480360361062791908101906133ee565b611fd5565b6040516106399190614b32565b60405180910390f35b61065c6004803603610657919081019061339c565b6120b7565b005b60046020528060005260406000206000915090508060000154908060010160009054906101000a900473ffffffffffffffffffffffffffffffffffffffff169080600201549080600701549080600801549080600901549080600a01549080600b0160009054906101000a900460ff169080600b0160019054906101000a900460ff16905089565b6000614380905090565b6040518060400160405280601781526020017f436f6d706f756e6420476f7665726e6f7220416c70686100000000000000000081525081565b600160009054906101000a900473ffffffffffffffffffffffffffffffffffffffff1681565b6107c46040518060400160405280600a81526020017f70726f706f7365723a20000000000000000000000000000000000000000000008152506004600085815260200190815260200160002060010160009054906101000a900473ffffffffffffffffffffffffffffffffffffffff16612304565b6107cf3383836123a0565b5050565b60056020528060005260406000206000915090505481565b6040516107f7906144fe565b604051809103902081565b600260009054906101000a900473ffffffffffffffffffffffffffffffffffffffff1673ffffffffffffffffffffffffffffffffffffffff163373ffffffffffffffffffffffffffffffffffffffff1614610892576040517f08c379a000000000000000000000000000000000000000000000000000000000815260040161088990614912565b60405180910390fd5b6000809054906101000a900473ffffffffffffffffffffffffffffffffffffffff1673ffffffffffffffffffffffffffffffffffffffff16630825f38f6000809054906101000a900473ffffffffffffffffffffffffffffffffffffffff166000856040516020016109049190614528565b604051602081830303815290604052856040518563ffffffff1660e01b81526004016109339493929190614543565b600060405180830381600087803b15801561094d57600080fd5b505af1158015610961573d6000803e3d6000fd5b505050506040513d6000823e3d601f19601f8201168201806040525061098a919081019061335b565b505050565b6000670de0b6b3a7640000905090565b60608060608060006004600087815260200190815260200160002090508060030181600401826005018360060183805480602002602001604051908101604052809291908181526020018280548015610a4d57602002820191906000526020600020905b8160009054906101000a900473ffffffffffffffffffffffffffffffffffffffff1673ffffffffffffffffffffffffffffffffffffffff1681526020019060010190808311610a03575b5050505050935082805480602002602001604051908101604052809291908181526020018280548015610a9f57602002820191906000526020600020905b815481526020019060010190808311610a8b575b5050505050925081805480602002602001604051908101604052809291908181526020016000905b82821015610b83578382906000526020600020018054600181600116156101000203166002900480601f016020809104026020016040519081016040528092919081815260200182805460018160011615610100020316600290048015610b6f5780601f10610b4457610100808354040283529160200191610b6f565b820191906000526020600020905b815481529060010190602001808311610b5257829003601f168201915b505050505081526020019060010190610ac7565b50505050915080805480602002602001604051908101604052809291908181526020016000905b82821015610c66578382906000526020600020018054600181600116156101000203166002900480601f016020809104026020016040519081016040528092919081815260200182805460018160011615610100020316600290048015610c525780601f10610c2757610100808354040283529160200191610c52565b820191906000526020600020905b815481529060010190602001808311610c3557829003601f168201915b505050505081526020019060010190610baa565b5050505090509450945094509450509193509193565b60006001905090565b60008160035410158015610c995750600082115b610cd8576040517f08c379a0000000000000000000000000000000000000000000000000000000008152600401610ccf90614932565b60405180910390fd5b600060046000848152602001908152602001600020905080600b0160009054906101000a900460ff1615610d10576002915050610e64565b80600701544311610d25576000915050610e64565b80600801544311610d3a576001915050610e64565b80600a01548160090154111580610d5b5750610d5461098f565b8160090154105b15610d6a576003915050610e64565b600081600201541415610d81576004915050610e64565b80600b0160019054906101000a900460ff1615610da2576007915050610e64565b610e4e81600201546000809054906101000a900473ffffffffffffffffffffffffffffffffffffffff1673ffffffffffffffffffffffffffffffffffffffff1663c1a287e26040518163ffffffff1660e01b815260040160206040518083038186803b158015610e1157600080fd5b505afa158015610e25573d6000803e3d6000fd5b505050506040513d601f19601f82011682018060405250610e4991908101906133c5565b61266f565b4210610e5e576006915050610e64565b60059150505b919050565b6000610e7482610c85565b9050600780811115610e8257fe5b816007811115610e8e57fe5b1415610ecf576040517f08c379a0000000000000000000000000000000000000000000000000000000008152600401610ec690614ab2565b60405180910390fd5b6000600460008481526020019081526020016000209050600260009054906101000a900473ffffffffffffffffffffffffffffffffffffffff1673ffffffffffffffffffffffffffffffffffffffff163373ffffffffffffffffffffffffffffffffffffffff1614806110305750610f4561165f565b600160009054906101000a900473ffffffffffffffffffffffffffffffffffffffff1673ffffffffffffffffffffffffffffffffffffffff1663782d6fe18360010160009054906101000a900473ffffffffffffffffffffffffffffffffffffffff16610fb34360016126c4565b6040518363ffffffff1660e01b8152600401610fd09291906145a2565b60206040518083038186803b158015610fe857600080fd5b505afa158015610ffc573d6000803e3d6000fd5b505050506040513d601f19601f8201168201806040525061102091908101906134dd565b6bffffffffffffffffffffffff16105b61106f576040517f08c379a000000000000000000000000000000000000000000000000000000000815260040161106690614a12565b60405180910390fd5b600181600b0160006101000a81548160ff02191690831515021790555060008090505b81600301805490508110156111c8576000809054906101000a900473ffffffffffffffffffffffffffffffffffffffff1673ffffffffffffffffffffffffffffffffffffffff1663591fcdfe8360030183815481106110ed57fe5b9060005260206000200160009054906101000a900473ffffffffffffffffffffffffffffffffffffffff1684600401848154811061112757fe5b906000526020600020015485600501858154811061114157fe5b9060005260206000200186600601868154811061115a57fe5b9060005260206000200187600201546040518663ffffffff1660e01b8152600401611189959493929190614671565b600060405180830381600087803b1580156111a357600080fd5b505af11580156111b7573d6000803e3d6000fd5b505050508080600101915050611092565b507f789cf55be980739dad1d0699b93b58e806b51c9d96619bfa8fe0a28abaa7b30c836040516111f89190614b4d565b60405180910390a1505050565b600260009054906101000a900473ffffffffffffffffffffffffffffffffffffffff1681565b6000604051611239906144fe565b60405180910390206040518060400160405280601781526020017f436f6d706f756e6420476f7665726e6f7220416c70686100000000000000000081525080519060200120611286612714565b3060405160200161129a949392919061474e565b60405160208183030381529060405280519060200120905060006040516112c090614513565b604051809103902087876040516020016112dc93929190614793565b604051602081830303815290604052805190602001209050600082826040516020016113099291906144c7565b60405160208183030381529060405280519060200120905060006001828888886040516000815260200160405260405161134694939291906147ca565b6020604051602081039080840390855afa158015611368573d6000803e3d6000fd5b505050602060405103519050600073ffffffffffffffffffffffffffffffffffffffff168173ffffffffffffffffffffffffffffffffffffffff1614156113e4576040517f08c379a00000000000000000000000000000000000000000000000000000000081526004016113db90614a72565b60405180910390fd5b6113ef818a8a6123a0565b505050505050505050565b600260009054906101000a900473ffffffffffffffffffffffffffffffffffffffff1673ffffffffffffffffffffffffffffffffffffffff163373ffffffffffffffffffffffffffffffffffffffff161461148a576040517f08c379a000000000000000000000000000000000000000000000000000000000815260040161148190614b12565b60405180910390fd5b6000600260006101000a81548173ffffffffffffffffffffffffffffffffffffffff021916908373ffffffffffffffffffffffffffffffffffffffff160217905550565b6000600a905090565b600260009054906101000a900473ffffffffffffffffffffffffffffffffffffffff1673ffffffffffffffffffffffffffffffffffffffff163373ffffffffffffffffffffffffffffffffffffffff1614611567576040517f08c379a000000000000000000000000000000000000000000000000000000000815260040161155e90614992565b60405180910390fd5b6000809054906101000a900473ffffffffffffffffffffffffffffffffffffffff1673ffffffffffffffffffffffffffffffffffffffff16633a66f9016000809054906101000a900473ffffffffffffffffffffffffffffffffffffffff166000856040516020016115d99190614528565b604051602081830303815290604052856040518563ffffffff1660e01b81526004016116089493929190614543565b602060405180830381600087803b15801561162257600080fd5b505af1158015611636573d6000803e3d6000fd5b505050506040513d601f19601f8201168201806040525061165a9190810190613332565b505050565b600069152d02c7e14af6800000905090565b600260009054906101000a900473ffffffffffffffffffffffffffffffffffffffff1673ffffffffffffffffffffffffffffffffffffffff163373ffffffffffffffffffffffffffffffffffffffff1614611701576040517f08c379a00000000000000000000000000000000000000000000000000000000081526004016116f8906148b2565b60405180910390fd5b6000809054906101000a900473ffffffffffffffffffffffffffffffffffffffff1673ffffffffffffffffffffffffffffffffffffffff16630e18b6816040518163ffffffff1660e01b8152600401600060405180830381600087803b15801561176a57600080fd5b505af115801561177e573d6000803e3d6000fd5b50505050565b6000809054906101000a900473ffffffffffffffffffffffffffffffffffffffff1681565b60035481565b6000845186511480156117c3575083518651145b80156117d0575082518651145b61180f576040517f08c379a0000000000000000000000000000000000000000000000000000000008152600401611806906149f2565b60405180910390fd5b600086511415611854576040517f08c379a000000000000000000000000000000000000000000000000000000000815260040161184b90614a52565b60405180910390fd5b61185c6114ce565b8651111561189f576040517f08c379a0000000000000000000000000000000000000000000000000000000008152600401611896906149b2565b60405180910390fd5b6000600560003373ffffffffffffffffffffffffffffffffffffffff1673ffffffffffffffffffffffffffffffffffffffff168152602001908152602001600020549050600081146119ae5760006118f682610c85565b90506001600781111561190557fe5b81600781111561191157fe5b1415611952576040517f08c379a000000000000000000000000000000000000000000000000000000000815260040161194990614a92565b60405180910390fd5b6000600781111561195f57fe5b81600781111561196b57fe5b14156119ac576040517f08c379a00000000000000000000000000000000000000000000000000000000081526004016119a390614972565b60405180910390fd5b505b60006119c1436119bc610c7c565b61266f565b905060006119d6826119d16106e6565b61266f565b90506003600081548092919060010191905055506119f261291e565b604051806101a0016040528060035481526020013373ffffffffffffffffffffffffffffffffffffffff168152602001600081526020018b81526020018a815260200189815260200188815260200184815260200183815260200160008152602001600081526020016000151581526020016000151581525090508060046000836000015181526020019081526020016000206000820151816000015560208201518160010160006101000a81548173ffffffffffffffffffffffffffffffffffffffff021916908373ffffffffffffffffffffffffffffffffffffffff160217905550604082015181600201556060820151816003019080519060200190611afc9291906129a0565b506080820151816004019080519060200190611b19929190612a2a565b5060a0820151816005019080519060200190611b36929190612a77565b5060c0820151816006019080519060200190611b53929190612ad7565b5060e082015181600701556101008201518160080155610120820151816009015561014082015181600a015561016082015181600b0160006101000a81548160ff02191690831515021790555061018082015181600b0160016101000a81548160ff021916908315150217905550905050806000015160056000836020015173ffffffffffffffffffffffffffffffffffffffff1673ffffffffffffffffffffffffffffffffffffffff168152602001908152602001600020819055507f7d84a6263ae0d98d3329bd7b46bb4e8d6f98cd35a7adb45c274c8b7fd5ebd5e08160000151338c8c8c8c89898e604051611c5399989796959493929190614b68565b60405180910390a1806000015194505050505095945050505050565b60046007811115611c7c57fe5b611c8582610c85565b6007811115611c9057fe5b14611cd0576040517f08c379a0000000000000000000000000000000000000000000000000000000008152600401611cc7906148d2565b60405180910390fd5b60006004600083815260200190815260200160002090506000611d91426000809054906101000a900473ffffffffffffffffffffffffffffffffffffffff1673ffffffffffffffffffffffffffffffffffffffff16636a42b8f86040518163ffffffff1660e01b815260040160206040518083038186803b158015611d5457600080fd5b505afa158015611d68573d6000803e3d6000fd5b505050506040513d601f19601f82011682018060405250611d8c91908101906133c5565b61266f565b905060008090505b8260030180549050811015611f7657611f69836003018281548110611dba57fe5b9060005260206000200160009054906101000a900473ffffffffffffffffffffffffffffffffffffffff16846004018381548110611df457fe5b9060005260206000200154856005018481548110611e0e57fe5b906000526020600020018054600181600116156101000203166002900480601f016020809104026020016040519081016040528092919081815260200182805460018160011615610100020316600290048015611eac5780601f10611e8157610100808354040283529160200191611eac565b820191906000526020600020905b815481529060010190602001808311611e8f57829003601f168201915b5050505050866006018581548110611ec057fe5b906000526020600020018054600181600116156101000203166002900480601f016020809104026020016040519081016040528092919081815260200182805460018160011615610100020316600290048015611f5e5780601f10611f3357610100808354040283529160200191611f5e565b820191906000526020600020905b815481529060010190602001808311611f4157829003601f168201915b505050505086612721565b8080600101915050611d99565b508082600201819055507f9a2e42fd6722813d69113e7d0079d3d940171428df7373df9c7f7617cfda28928382604051611fb1929190614ca5565b60405180910390a1505050565b604051611fca90614513565b604051809103902081565b611fdd612b37565b60046000848152602001908152602001600020600c0160008373ffffffffffffffffffffffffffffffffffffffff1673ffffffffffffffffffffffffffffffffffffffff1681526020019081526020016000206040518060600160405290816000820160009054906101000a900460ff161515151581526020016000820160019054906101000a900460ff161515151581526020016000820160029054906101000a90046bffffffffffffffffffffffff166bffffffffffffffffffffffff166bffffffffffffffffffffffff1681525050905092915050565b600560078111156120c457fe5b6120cd82610c85565b60078111156120d857fe5b14612118576040517f08c379a000000000000000000000000000000000000000000000000000000000815260040161210f906148f2565b60405180910390fd5b6000600460008381526020019081526020016000209050600181600b0160016101000a81548160ff02191690831515021790555060008090505b81600301805490508110156122c8576000809054906101000a900473ffffffffffffffffffffffffffffffffffffffff1673ffffffffffffffffffffffffffffffffffffffff16630825f38f8360040183815481106121ad57fe5b90600052602060002001548460030184815481106121c757fe5b9060005260206000200160009054906101000a900473ffffffffffffffffffffffffffffffffffffffff1685600401858154811061220157fe5b906000526020600020015486600501868154811061221b57fe5b9060005260206000200187600601878154811061223457fe5b9060005260206000200188600201546040518763ffffffff1660e01b8152600401612263959493929190614671565b6000604051808303818588803b15801561227c57600080fd5b505af1158015612290573d6000803e3d6000fd5b50505050506040513d6000823e3d601f19601f820116820180604052506122ba919081019061335b565b508080600101915050612152565b507f712ae1383f79ac853f8d882153778e0260ef8f03b504e2866e0593e04d2b291f826040516122f89190614b4d565b60405180910390a15050565b61239c828260405160240161231a929190614882565b6040516020818303038152906040527f319af333000000000000000000000000000000000000000000000000000000007bffffffffffffffffffffffffffffffffffffffffffffffffffffffff19166020820180517bffffffffffffffffffffffffffffffffffffffffffffffffffffffff83818316178352505050506128f5565b5050565b600160078111156123ad57fe5b6123b683610c85565b60078111156123c157fe5b14612401576040517f08c379a00000000000000000000000000000000000000000000000000000000081526004016123f890614ad2565b60405180910390fd5b6000600460008481526020019081526020016000209050600081600c0160008673ffffffffffffffffffffffffffffffffffffffff1673ffffffffffffffffffffffffffffffffffffffff1681526020019081526020016000209050600015158160000160009054906101000a900460ff161515146124b5576040517f08c379a00000000000000000000000000000000000000000000000000000000081526004016124ac90614952565b60405180910390fd5b6000600160009054906101000a900473ffffffffffffffffffffffffffffffffffffffff1673ffffffffffffffffffffffffffffffffffffffff1663782d6fe18785600701546040518363ffffffff1660e01b81526004016125189291906145a2565b60206040518083038186803b15801561253057600080fd5b505afa158015612544573d6000803e3d6000fd5b505050506040513d601f19601f8201168201806040525061256891908101906134dd565b905083156125995761258c8360090154826bffffffffffffffffffffffff1661266f565b83600901819055506125be565b6125b583600a0154826bffffffffffffffffffffffff1661266f565b83600a01819055505b60018260000160006101000a81548160ff021916908315150217905550838260000160016101000a81548160ff021916908315150217905550808260000160026101000a8154816bffffffffffffffffffffffff02191690836bffffffffffffffffffffffff1602179055507f877856338e13f63d0c36822ff0ef736b80934cd90574a3a5bc9262c39d217c468686868460405161265f94939291906145cb565b60405180910390a1505050505050565b6000808284019050838110156126ba576040517f08c379a00000000000000000000000000000000000000000000000000000000081526004016126b1906149d2565b60405180910390fd5b8091505092915050565b600082821115612709576040517f08c379a000000000000000000000000000000000000000000000000000000000815260040161270090614af2565b60405180910390fd5b818303905092915050565b6000804690508091505090565b6000809054906101000a900473ffffffffffffffffffffffffffffffffffffffff1673ffffffffffffffffffffffffffffffffffffffff1663f2b065378686868686604051602001612777959493929190614610565b604051602081830303815290604052805190602001206040518263ffffffff1660e01b81526004016127a99190614733565b60206040518083038186803b1580156127c157600080fd5b505afa1580156127d5573d6000803e3d6000fd5b505050506040513d601f19601f820116820180604052506127f99190810190613309565b15612839576040517f08c379a000000000000000000000000000000000000000000000000000000000815260040161283090614a32565b60405180910390fd5b6000809054906101000a900473ffffffffffffffffffffffffffffffffffffffff1673ffffffffffffffffffffffffffffffffffffffff16633a66f90186868686866040518663ffffffff1660e01b815260040161289b959493929190614610565b602060405180830381600087803b1580156128b557600080fd5b505af11580156128c9573d6000803e3d6000fd5b505050506040513d601f19601f820116820180604052506128ed9190810190613332565b505050505050565b60008151905060006a636f6e736f6c652e6c6f679050602083016000808483855afa5050505050565b604051806101a0016040528060008152602001600073ffffffffffffffffffffffffffffffffffffffff1681526020016000815260200160608152602001606081526020016060815260200160608152602001600081526020016000815260200160008152602001600081526020016000151581526020016000151581525090565b828054828255906000526020600020908101928215612a19579160200282015b82811115612a185782518260006101000a81548173ffffffffffffffffffffffffffffffffffffffff021916908373ffffffffffffffffffffffffffffffffffffffff160217905550916020019190600101906129c0565b5b509050612a269190612b6a565b5090565b828054828255906000526020600020908101928215612a66579160200282015b82811115612a65578251825591602001919060010190612a4a565b5b509050612a739190612bad565b5090565b828054828255906000526020600020908101928215612ac6579160200282015b82811115612ac5578251829080519060200190612ab5929190612bd2565b5091602001919060010190612a97565b5b509050612ad39190612c52565b5090565b828054828255906000526020600020908101928215612b26579160200282015b82811115612b25578251829080519060200190612b15929190612c7e565b5091602001919060010190612af7565b5b509050612b339190612cfe565b5090565b604051806060016040528060001515815260200160001515815260200160006bffffffffffffffffffffffff1681525090565b612baa91905b80821115612ba657600081816101000a81549073ffffffffffffffffffffffffffffffffffffffff021916905550600101612b70565b5090565b90565b612bcf91905b80821115612bcb576000816000905550600101612bb3565b5090565b90565b828054600181600116156101000203166002900490600052602060002090601f016020900481019282601f10612c1357805160ff1916838001178555612c41565b82800160010185558215612c41579182015b82811115612c40578251825591602001919060010190612c25565b5b509050612c4e9190612bad565b5090565b612c7b91905b80821115612c775760008181612c6e9190612d2a565b50600101612c58565b5090565b90565b828054600181600116156101000203166002900490600052602060002090601f016020900481019282601f10612cbf57805160ff1916838001178555612ced565b82800160010185558215612ced579182015b82811115612cec578251825591602001919060010190612cd1565b5b509050612cfa9190612bad565b5090565b612d2791905b80821115612d235760008181612d1a9190612d72565b50600101612d04565b5090565b90565b50805460018160011615610100020316600290046000825580601f10612d505750612d6f565b601f016020900490600052602060002090810190612d6e9190612bad565b5b50565b50805460018160011615610100020316600290046000825580601f10612d985750612db7565b601f016020900490600052602060002090810190612db69190612bad565b5b50565b600081359050612dc98161517c565b92915050565b600082601f830112612de057600080fd5b8135612df3612dee82614cfb565b614cce565b91508181835260208401935060208101905083856020840282011115612e1857600080fd5b60005b83811015612e485781612e2e8882612dba565b845260208401935060208301925050600181019050612e1b565b5050505092915050565b600082601f830112612e6357600080fd5b8135612e76612e7182614d23565b614cce565b9150818183526020840193506020810190508360005b83811015612ebc5781358601612ea28882613011565b845260208401935060208301925050600181019050612e8c565b5050505092915050565b600082601f830112612ed757600080fd5b8135612eea612ee582614d4b565b614cce565b9150818183526020840193506020810190508360005b83811015612f305781358601612f1688826130b9565b845260208401935060208301925050600181019050612f00565b5050505092915050565b600082601f830112612f4b57600080fd5b8135612f5e612f5982614d73565b614cce565b91508181835260208401935060208101905083856020840282011115612f8357600080fd5b60005b83811015612fb35781612f998882613161565b845260208401935060208301925050600181019050612f86565b5050505092915050565b600081359050612fcc81615193565b92915050565b600081519050612fe181615193565b92915050565b600081359050612ff6816151aa565b92915050565b60008151905061300b816151aa565b92915050565b600082601f83011261302257600080fd5b813561303561303082614d9b565b614cce565b9150808252602083016020830185838301111561305157600080fd5b61305c838284615112565b50505092915050565b600082601f83011261307657600080fd5b815161308961308482614dc7565b614cce565b915080825260208301602083018583830111156130a557600080fd5b6130b0838284615121565b50505092915050565b600082601f8301126130ca57600080fd5b81356130dd6130d882614df3565b614cce565b915080825260208301602083018583830111156130f957600080fd5b613104838284615112565b50505092915050565b600082601f83011261311e57600080fd5b813561313161312c82614e1f565b614cce565b9150808252602083016020830185838301111561314d57600080fd5b613158838284615112565b50505092915050565b600081359050613170816151c1565b92915050565b600081519050613185816151c1565b92915050565b60008135905061319a816151d8565b92915050565b6000815190506131af816151ef565b92915050565b6000602082840312156131c757600080fd5b60006131d584828501612dba565b91505092915050565b600080604083850312156131f157600080fd5b60006131ff85828601612dba565b925050602061321085828601613161565b9150509250929050565b600080600080600060a0868803121561323257600080fd5b600086013567ffffffffffffffff81111561324c57600080fd5b61325888828901612dcf565b955050602086013567ffffffffffffffff81111561327557600080fd5b61328188828901612f3a565b945050604086013567ffffffffffffffff81111561329e57600080fd5b6132aa88828901612ec6565b935050606086013567ffffffffffffffff8111156132c757600080fd5b6132d388828901612e52565b925050608086013567ffffffffffffffff8111156132f057600080fd5b6132fc8882890161310d565b9150509295509295909350565b60006020828403121561331b57600080fd5b600061332984828501612fd2565b91505092915050565b60006020828403121561334457600080fd5b600061335284828501612ffc565b91505092915050565b60006020828403121561336d57600080fd5b600082015167ffffffffffffffff81111561338757600080fd5b61339384828501613065565b91505092915050565b6000602082840312156133ae57600080fd5b60006133bc84828501613161565b91505092915050565b6000602082840312156133d757600080fd5b60006133e584828501613176565b91505092915050565b6000806040838503121561340157600080fd5b600061340f85828601613161565b925050602061342085828601612dba565b9150509250929050565b6000806040838503121561343d57600080fd5b600061344b85828601613161565b925050602061345c85828601612fbd565b9150509250929050565b600080600080600060a0868803121561347e57600080fd5b600061348c88828901613161565b955050602061349d88828901612fbd565b94505060406134ae8882890161318b565b93505060606134bf88828901612fe7565b92505060806134d088828901612fe7565b9150509295509295909350565b6000602082840312156134ef57600080fd5b60006134fd848285016131a0565b91505092915050565b6000613512838361356d565b60208301905092915050565b600061352a83836137ae565b905092915050565b600061353e83836138eb565b905092915050565b6000613552838361447c565b60208301905092915050565b6135678161505e565b82525050565b61357681614fd4565b82525050565b61358581614fd4565b82525050565b600061359682614eb5565b6135a08185614f41565b93506135ab83614e4b565b8060005b838110156135dc5781516135c38882613506565b97506135ce83614f0d565b9250506001810190506135af565b5085935050505092915050565b60006135f482614ec0565b6135fe8185614f52565b93508360208202850161361085614e5b565b8060005b8581101561364c578484038952815161362d858261351e565b945061363883614f1a565b925060208a01995050600181019050613614565b50829750879550505050505092915050565b600061366982614ecb565b6136738185614f63565b93508360208202850161368585614e6b565b8060005b858110156136c157848403895281516136a28582613532565b94506136ad83614f27565b925060208a01995050600181019050613689565b50829750879550505050505092915050565b60006136de82614ed6565b6136e88185614f74565b93506136f383614e7b565b8060005b8381101561372457815161370b8882613546565b975061371683614f34565b9250506001810190506136f7565b5085935050505092915050565b61373a81614fe6565b82525050565b61374981614fe6565b82525050565b61375881614ff2565b82525050565b61376f61376a82614ff2565b615154565b82525050565b600061378082614eec565b61378a8185614f96565b935061379a818560208601615121565b6137a38161515e565b840191505092915050565b60006137b982614ee1565b6137c38185614f85565b93506137d3818560208601615121565b6137dc8161515e565b840191505092915050565b600081546001811660008114613804576001811461382a5761386e565b607f60028304166138158187614f96565b955060ff19831686526020860193505061386e565b600282046138388187614f96565b955061384385614e8b565b60005b8281101561386557815481890152600182019150602081019050613846565b80880195505050505b505092915050565b61387f81615070565b82525050565b61388e81615094565b82525050565b61389d816150b8565b82525050565b6138ac816150ca565b82525050565b60006138bd82614f02565b6138c78185614fb8565b93506138d7818560208601615121565b6138e08161515e565b840191505092915050565b60006138f682614ef7565b6139008185614fa7565b9350613910818560208601615121565b6139198161515e565b840191505092915050565b600061392f82614ef7565b6139398185614fb8565b9350613949818560208601615121565b6139528161515e565b840191505092915050565b60008154600181166000811461397a57600181146139a0576139e4565b607f600283041661398b8187614fb8565b955060ff1983168652602086019350506139e4565b600282046139ae8187614fb8565b95506139b985614ea0565b60005b828110156139db578154818901526001820191506020810190506139bc565b80880195505050505b505092915050565b60006139f9603983614fb8565b91507f476f7665726e6f72416c7068613a3a5f5f61636365707441646d696e3a20736560008301527f6e646572206d75737420626520676f7620677561726469616e000000000000006020830152604082019050919050565b6000613a5f604483614fb8565b91507f476f7665726e6f72416c7068613a3a71756575653a2070726f706f73616c206360008301527f616e206f6e6c792062652071756575656420696620697420697320737563636560208301527f65646564000000000000000000000000000000000000000000000000000000006040830152606082019050919050565b6000613aeb604583614fb8565b91507f476f7665726e6f72416c7068613a3a657865637574653a2070726f706f73616c60008301527f2063616e206f6e6c79206265206578656375746564206966206974206973207160208301527f75657565640000000000000000000000000000000000000000000000000000006040830152606082019050919050565b6000613b77600283614fc9565b91507f19010000000000000000000000000000000000000000000000000000000000006000830152600282019050919050565b6000613bb7604c83614fb8565b91507f476f7665726e6f72416c7068613a3a5f5f6578656375746553657454696d656c60008301527f6f636b50656e64696e6741646d696e3a2073656e646572206d7573742062652060208301527f676f7620677561726469616e00000000000000000000000000000000000000006040830152606082019050919050565b6000613c43601883614fb8565b91507f73657450656e64696e6741646d696e28616464726573732900000000000000006000830152602082019050919050565b6000613c83602983614fb8565b91507f476f7665726e6f72416c7068613a3a73746174653a20696e76616c696420707260008301527f6f706f73616c20696400000000000000000000000000000000000000000000006020830152604082019050919050565b6000613ce9602d83614fb8565b91507f476f7665726e6f72416c7068613a3a5f63617374566f74653a20766f7465722060008301527f616c726561647920766f746564000000000000000000000000000000000000006020830152604082019050919050565b6000613d4f605983614fb8565b91507f476f7665726e6f72416c7068613a3a70726f706f73653a206f6e65206c69766560008301527f2070726f706f73616c207065722070726f706f7365722c20666f756e6420616e60208301527f20616c72656164792070656e64696e672070726f706f73616c000000000000006040830152606082019050919050565b6000613ddb604a83614fb8565b91507f476f7665726e6f72416c7068613a3a5f5f717565756553657454696d656c6f6360008301527f6b50656e64696e6741646d696e3a2073656e646572206d75737420626520676f60208301527f7620677561726469616e000000000000000000000000000000000000000000006040830152606082019050919050565b6000613e67602883614fb8565b91507f476f7665726e6f72416c7068613a3a70726f706f73653a20746f6f206d616e7960008301527f20616374696f6e730000000000000000000000000000000000000000000000006020830152604082019050919050565b6000613ecd601183614fb8565b91507f6164646974696f6e206f766572666c6f770000000000000000000000000000006000830152602082019050919050565b6000613f0d604383614fc9565b91507f454950373132446f6d61696e28737472696e67206e616d652c75696e7432353660008301527f20636861696e49642c6164647265737320766572696679696e67436f6e74726160208301527f63742900000000000000000000000000000000000000000000000000000000006040830152604382019050919050565b6000613f99602783614fc9565b91507f42616c6c6f742875696e743235362070726f706f73616c49642c626f6f6c207360008301527f7570706f727429000000000000000000000000000000000000000000000000006020830152602782019050919050565b6000613fff604483614fb8565b91507f476f7665726e6f72416c7068613a3a70726f706f73653a2070726f706f73616c60008301527f2066756e6374696f6e20696e666f726d6174696f6e206172697479206d69736d60208301527f61746368000000000000000000000000000000000000000000000000000000006040830152606082019050919050565b600061408b602f83614fb8565b91507f476f7665726e6f72416c7068613a3a63616e63656c3a2070726f706f7365722060008301527f61626f7665207468726573686f6c6400000000000000000000000000000000006020830152604082019050919050565b60006140f1604483614fb8565b91507f476f7665726e6f72416c7068613a3a5f71756575654f725265766572743a207060008301527f726f706f73616c20616374696f6e20616c72656164792071756575656420617460208301527f20657461000000000000000000000000000000000000000000000000000000006040830152606082019050919050565b600061417d602c83614fb8565b91507f476f7665726e6f72416c7068613a3a70726f706f73653a206d7573742070726f60008301527f7669646520616374696f6e7300000000000000000000000000000000000000006020830152604082019050919050565b60006141e3602f83614fb8565b91507f476f7665726e6f72416c7068613a3a63617374566f746542795369673a20696e60008301527f76616c6964207369676e617475726500000000000000000000000000000000006020830152604082019050919050565b6000614249605883614fb8565b91507f476f7665726e6f72416c7068613a3a70726f706f73653a206f6e65206c69766560008301527f2070726f706f73616c207065722070726f706f7365722c20666f756e6420616e60208301527f20616c7265616479206163746976652070726f706f73616c00000000000000006040830152606082019050919050565b60006142d5603683614fb8565b91507f476f7665726e6f72416c7068613a3a63616e63656c3a2063616e6e6f7420636160008301527f6e63656c2065786563757465642070726f706f73616c000000000000000000006020830152604082019050919050565b600061433b602a83614fb8565b91507f476f7665726e6f72416c7068613a3a5f63617374566f74653a20766f74696e6760008301527f20697320636c6f736564000000000000000000000000000000000000000000006020830152604082019050919050565b60006143a1601583614fb8565b91507f7375627472616374696f6e20756e646572666c6f7700000000000000000000006000830152602082019050919050565b60006143e1603683614fb8565b91507f476f7665726e6f72416c7068613a3a5f5f61626469636174653a2073656e646560008301527f72206d75737420626520676f7620677561726469616e000000000000000000006020830152604082019050919050565b6060820160008201516144506000850182613731565b5060208201516144636020850182613731565b50604082015161447660408501826144b8565b50505050565b6144858161502f565b82525050565b6144948161502f565b82525050565b6144a381615039565b82525050565b6144b281615100565b82525050565b6144c181615046565b82525050565b60006144d282613b6a565b91506144de828561375e565b6020820191506144ee828461375e565b6020820191508190509392505050565b600061450982613f00565b9150819050919050565b600061451e82613f8c565b9150819050919050565b600060208201905061453d600083018461357c565b92915050565b600060a082019050614558600083018761357c565b61456560208301866138a3565b818103604083015261457681613c36565b9050818103606083015261458a8185613775565b9050614599608083018461448b565b95945050505050565b60006040820190506145b7600083018561357c565b6145c4602083018461448b565b9392505050565b60006080820190506145e0600083018761357c565b6145ed602083018661448b565b6145fa6040830185613740565b61460760608301846144a9565b95945050505050565b600060a082019050614625600083018861357c565b614632602083018761448b565b818103604083015261464481866138b2565b905081810360608301526146588185613775565b9050614667608083018461448b565b9695505050505050565b600060a082019050614686600083018861357c565b614693602083018761448b565b81810360408301526146a5818661395d565b905081810360608301526146b981856137e7565b90506146c8608083018461448b565b9695505050505050565b600060808201905081810360008301526146ec818761358b565b9050818103602083015261470081866136d3565b90508181036040830152614714818561365e565b9050818103606083015261472881846135e9565b905095945050505050565b6000602082019050614748600083018461374f565b92915050565b6000608082019050614763600083018761374f565b614770602083018661374f565b61477d604083018561448b565b61478a606083018461357c565b95945050505050565b60006060820190506147a8600083018661374f565b6147b5602083018561448b565b6147c26040830184613740565b949350505050565b60006080820190506147df600083018761374f565b6147ec602083018661449a565b6147f9604083018561374f565b614806606083018461374f565b95945050505050565b60006020820190506148246000830184613876565b92915050565b600060208201905061483f6000830184613885565b92915050565b600060208201905061485a6000830184613894565b92915050565b6000602082019050818103600083015261487a8184613924565b905092915050565b6000604082019050818103600083015261489c81856138b2565b90506148ab602083018461357c565b9392505050565b600060208201905081810360008301526148cb816139ec565b9050919050565b600060208201905081810360008301526148eb81613a52565b9050919050565b6000602082019050818103600083015261490b81613ade565b9050919050565b6000602082019050818103600083015261492b81613baa565b9050919050565b6000602082019050818103600083015261494b81613c76565b9050919050565b6000602082019050818103600083015261496b81613cdc565b9050919050565b6000602082019050818103600083015261498b81613d42565b9050919050565b600060208201905081810360008301526149ab81613dce565b9050919050565b600060208201905081810360008301526149cb81613e5a565b9050919050565b600060208201905081810360008301526149eb81613ec0565b9050919050565b60006020820190508181036000830152614a0b81613ff2565b9050919050565b60006020820190508181036000830152614a2b8161407e565b9050919050565b60006020820190508181036000830152614a4b816140e4565b9050919050565b60006020820190508181036000830152614a6b81614170565b9050919050565b60006020820190508181036000830152614a8b816141d6565b9050919050565b60006020820190508181036000830152614aab8161423c565b9050919050565b60006020820190508181036000830152614acb816142c8565b9050919050565b60006020820190508181036000830152614aeb8161432e565b9050919050565b60006020820190508181036000830152614b0b81614394565b9050919050565b60006020820190508181036000830152614b2b816143d4565b9050919050565b6000606082019050614b47600083018461443a565b92915050565b6000602082019050614b62600083018461448b565b92915050565b600061012082019050614b7e600083018c61448b565b614b8b602083018b61355e565b8181036040830152614b9d818a61358b565b90508181036060830152614bb181896136d3565b90508181036080830152614bc5818861365e565b905081810360a0830152614bd981876135e9565b9050614be860c083018661448b565b614bf560e083018561448b565b818103610100830152614c0881846138b2565b90509a9950505050505050505050565b600061012082019050614c2e600083018c61448b565b614c3b602083018b61357c565b614c48604083018a61448b565b614c55606083018961448b565b614c62608083018861448b565b614c6f60a083018761448b565b614c7c60c083018661448b565b614c8960e0830185613740565b614c97610100830184613740565b9a9950505050505050505050565b6000604082019050614cba600083018561448b565b614cc7602083018461448b565b9392505050565b6000604051905081810181811067ffffffffffffffff82111715614cf157600080fd5b8060405250919050565b600067ffffffffffffffff821115614d1257600080fd5b602082029050602081019050919050565b600067ffffffffffffffff821115614d3a57600080fd5b602082029050602081019050919050565b600067ffffffffffffffff821115614d6257600080fd5b602082029050602081019050919050565b600067ffffffffffffffff821115614d8a57600080fd5b602082029050602081019050919050565b600067ffffffffffffffff821115614db257600080fd5b601f19601f8301169050602081019050919050565b600067ffffffffffffffff821115614dde57600080fd5b601f19601f8301169050602081019050919050565b600067ffffffffffffffff821115614e0a57600080fd5b601f19601f8301169050602081019050919050565b600067ffffffffffffffff821115614e3657600080fd5b601f19601f8301169050602081019050919050565b6000819050602082019050919050565b6000819050602082019050919050565b6000819050602082019050919050565b6000819050602082019050919050565b60008190508160005260206000209050919050565b60008190508160005260206000209050919050565b600081519050919050565b600081519050919050565b600081519050919050565b600081519050919050565b600081519050919050565b600081519050919050565b600081519050919050565b600081519050919050565b6000602082019050919050565b6000602082019050919050565b6000602082019050919050565b6000602082019050919050565b600082825260208201905092915050565b600082825260208201905092915050565b600082825260208201905092915050565b600082825260208201905092915050565b600082825260208201905092915050565b600082825260208201905092915050565b600082825260208201905092915050565b600082825260208201905092915050565b600081905092915050565b6000614fdf8261500f565b9050919050565b60008115159050919050565b6000819050919050565b600081905061500a8261516f565b919050565b600073ffffffffffffffffffffffffffffffffffffffff82169050919050565b6000819050919050565b600060ff82169050919050565b60006bffffffffffffffffffffffff82169050919050565b6000615069826150dc565b9050919050565b600061507b82615082565b9050919050565b600061508d8261500f565b9050919050565b600061509f826150a6565b9050919050565b60006150b18261500f565b9050919050565b60006150c382614ffc565b9050919050565b60006150d58261502f565b9050919050565b60006150e7826150ee565b9050919050565b60006150f98261500f565b9050919050565b600061510b82615046565b9050919050565b82818337600083830152505050565b60005b8381101561513f578082015181840152602081019050615124565b8381111561514e576000848401525b50505050565b6000819050919050565b6000601f19601f8301169050919050565b6008811061517957fe5b50565b61518581614fd4565b811461519057600080fd5b50565b61519c81614fe6565b81146151a757600080fd5b50565b6151b381614ff2565b81146151be57600080fd5b50565b6151ca8161502f565b81146151d557600080fd5b50565b6151e181615039565b81146151ec57600080fd5b50565b6151f881615046565b811461520357600080fd5b5056fea365627a7a72315820226c4e46cf1b7e5947783bf2f668b0fa80fe9fb41addb4eb385a99169d89f9bf6c6578706572696d656e74616cf564736f6c63430005100040",
  "linkReferences": {},
  "deployedLinkReferences": {}
}