{
  "_format": "hh-sol-artifact-1",
  "contractName": "GovernorAlpha",
  "sourceName": "contracts/GovernorAlpha.sol",
  "abi": [
    {
      "inputs": [
        {
          "internalType": "address",
          "name": "timelock_",
          "type": "address"
        },
        {
          "internalType": "address",
          "name": "taro_",
          "type": "address"
        },
        {
          "internalType": "address",
          "name": "guardian_",
          "type": "address"
        }
      ],
      "payable": false,
      "stateMutability": "nonpayable",
      "type": "constructor"
    },
    {
      "anonymous": false,
      "inputs": [
        {
          "indexed": false,
          "internalType": "uint256",
          "name": "id",
          "type": "uint256"
        }
      ],
      "name": "ProposalCreated",
      "type": "event"
    },
    {
      "anonymous": false,
      "inputs": [
        {
          "indexed": false,
          "internalType": "address",
          "name": "voter",
          "type": "address"
        },
        {
          "indexed": false,
          "internalType": "uint256",
          "name": "proposalId",
          "type": "uint256"
        },
        {
          "indexed": false,
          "internalType": "bool",
          "name": "support",
          "type": "bool"
        },
        {
          "indexed": false,
          "internalType": "uint256",
          "name": "votes",
          "type": "uint256"
        }
      ],
      "name": "VoteCast",
      "type": "event"
    },
    {
      "constant": false,
      "inputs": [
        {
          "internalType": "uint256",
          "name": "proposalId",
          "type": "uint256"
        },
        {
          "internalType": "bool",
          "name": "support",
          "type": "bool"
        }
      ],
      "name": "castVote",
      "outputs": [],
      "payable": false,
      "stateMutability": "nonpayable",
      "type": "function"
    },
    {
      "constant": true,
      "inputs": [
        {
          "internalType": "uint256",
          "name": "proposalId",
          "type": "uint256"
        },
        {
          "internalType": "address",
          "name": "voter",
          "type": "address"
        }
      ],
      "name": "getReceipt",
      "outputs": [
        {
          "components": [
            {
              "internalType": "bool",
              "name": "hasVoted",
              "type": "bool"
            },
            {
              "internalType": "bool",
              "name": "support",
              "type": "bool"
            },
            {
              "internalType": "uint96",
              "name": "votes",
              "type": "uint96"
            }
          ],
          "internalType": "struct GovernorAlpha.Receipt",
          "name": "",
          "type": "tuple"
        }
      ],
      "payable": false,
      "stateMutability": "view",
      "type": "function"
    },
    {
      "constant": true,
      "inputs": [],
      "name": "getValidityStatus",
      "outputs": [
        {
          "internalType": "uint256",
          "name": "",
          "type": "uint256"
        }
      ],
      "payable": false,
      "stateMutability": "view",
      "type": "function"
    },
    {
      "constant": true,
      "inputs": [],
      "name": "guardian",
      "outputs": [
        {
          "internalType": "address",
          "name": "",
          "type": "address"
        }
      ],
      "payable": false,
      "stateMutability": "view",
      "type": "function"
    },
    {
      "constant": true,
      "inputs": [
        {
          "internalType": "uint256",
          "name": "",
          "type": "uint256"
        }
      ],
      "name": "isProposalActive",
      "outputs": [
        {
          "internalType": "bool",
          "name": "",
          "type": "bool"
        }
      ],
      "payable": false,
      "stateMutability": "view",
      "type": "function"
    },
    {
      "constant": true,
      "inputs": [
        {
          "internalType": "address",
          "name": "",
          "type": "address"
        }
      ],
      "name": "latestProposalIds",
      "outputs": [
        {
          "internalType": "uint256",
          "name": "",
          "type": "uint256"
        }
      ],
      "payable": false,
      "stateMutability": "view",
      "type": "function"
    },
    {
      "constant": true,
      "inputs": [],
      "name": "name",
      "outputs": [
        {
          "internalType": "string",
          "name": "",
          "type": "string"
        }
      ],
      "payable": false,
      "stateMutability": "view",
      "type": "function"
    },
    {
      "constant": true,
      "inputs": [],
      "name": "proposalCount",
      "outputs": [
        {
          "internalType": "uint256",
          "name": "",
          "type": "uint256"
        }
      ],
      "payable": false,
      "stateMutability": "view",
      "type": "function"
    },
    {
      "constant": true,
      "inputs": [],
      "name": "proposalThreshold",
      "outputs": [
        {
          "internalType": "uint256",
          "name": "",
          "type": "uint256"
        }
      ],
      "payable": false,
      "stateMutability": "pure",
      "type": "function"
    },
    {
      "constant": true,
      "inputs": [
        {
          "internalType": "uint256",
          "name": "",
          "type": "uint256"
        }
      ],
      "name": "proposals",
      "outputs": [
        {
          "internalType": "uint256",
          "name": "id",
          "type": "uint256"
        },
        {
          "internalType": "address",
          "name": "proposer",
          "type": "address"
        },
        {
          "internalType": "uint256",
          "name": "eta",
          "type": "uint256"
        },
        {
          "internalType": "uint256",
          "name": "startBlock",
          "type": "uint256"
        },
        {
          "internalType": "uint256",
          "name": "endBlock",
          "type": "uint256"
        },
        {
          "internalType": "uint256",
          "name": "forVotes",
          "type": "uint256"
        },
        {
          "internalType": "uint256",
          "name": "againstVotes",
          "type": "uint256"
        },
        {
          "internalType": "bool",
          "name": "canceled",
          "type": "bool"
        },
        {
          "internalType": "bool",
          "name": "executed",
          "type": "bool"
        },
        {
          "components": [
            {
              "internalType": "string",
              "name": "title",
              "type": "string"
            },
            {
              "internalType": "string",
              "name": "typeOfAction",
              "type": "string"
            },
            {
              "internalType": "string",
              "name": "neighborhood",
              "type": "string"
            },
            {
              "internalType": "string",
              "name": "personInCharge",
              "type": "string"
            },
            {
              "internalType": "string",
              "name": "description",
              "type": "string"
            },
            {
              "internalType": "uint256",
              "name": "expiration",
              "type": "uint256"
            },
            {
              "internalType": "uint256",
              "name": "budget",
              "type": "uint256"
            },
            {
              "internalType": "uint256",
              "name": "requiredTaroToVote",
              "type": "uint256"
            }
          ],
          "internalType": "struct GovernorAlpha.UserInputFields",
          "name": "userInputFields",
          "type": "tuple"
        }
      ],
      "payable": false,
      "stateMutability": "view",
      "type": "function"
    },
    {
      "constant": false,
      "inputs": [
        {
          "components": [
            {
              "internalType": "string",
              "name": "title",
              "type": "string"
            },
            {
              "internalType": "string",
              "name": "typeOfAction",
              "type": "string"
            },
            {
              "internalType": "string",
              "name": "neighborhood",
              "type": "string"
            },
            {
              "internalType": "string",
              "name": "personInCharge",
              "type": "string"
            },
            {
              "internalType": "string",
              "name": "description",
              "type": "string"
            },
            {
              "internalType": "uint256",
              "name": "expiration",
              "type": "uint256"
            },
            {
              "internalType": "uint256",
              "name": "budget",
              "type": "uint256"
            },
            {
              "internalType": "uint256",
              "name": "requiredTaroToVote",
              "type": "uint256"
            }
          ],
          "internalType": "struct GovernorAlpha.UserInputFields",
          "name": "_userInputFields",
          "type": "tuple"
        }
      ],
      "name": "propose",
      "outputs": [
        {
          "internalType": "uint256",
          "name": "",
          "type": "uint256"
        }
      ],
      "payable": false,
      "stateMutability": "nonpayable",
      "type": "function"
    },
    {
      "constant": true,
      "inputs": [],
      "name": "taro",
      "outputs": [
        {
          "internalType": "contract TaroInterface",
          "name": "",
          "type": "address"
        }
      ],
      "payable": false,
      "stateMutability": "view",
      "type": "function"
    },
    {
      "constant": true,
      "inputs": [],
      "name": "timelock",
      "outputs": [
        {
          "internalType": "contract TimelockInterface",
          "name": "",
          "type": "address"
        }
      ],
      "payable": false,
      "stateMutability": "view",
      "type": "function"
    },
    {
      "constant": true,
      "inputs": [
        {
          "internalType": "address",
          "name": "",
          "type": "address"
        }
      ],
      "name": "userProposals",
      "outputs": [
        {
          "internalType": "uint256",
          "name": "count",
          "type": "uint256"
        }
      ],
      "payable": false,
      "stateMutability": "view",
      "type": "function"
    },
    {
      "constant": false,
      "inputs": [
        {
          "internalType": "uint256",
          "name": "_rewardedTokens",
          "type": "uint256"
        }
      ],
      "name": "validate",
      "outputs": [
        {
          "internalType": "uint256",
          "name": "",
          "type": "uint256"
        }
      ],
      "payable": false,
      "stateMutability": "nonpayable",
      "type": "function"
    },
    {
      "constant": true,
      "inputs": [
        {
          "internalType": "address",
          "name": "",
          "type": "address"
        }
      ],
      "name": "validations",
      "outputs": [
        {
          "internalType": "uint256",
          "name": "expirationTime",
          "type": "uint256"
        }
      ],
      "payable": false,
      "stateMutability": "view",
      "type": "function"
    },
    {
      "constant": true,
      "inputs": [],
      "name": "votingDelay",
      "outputs": [
        {
          "internalType": "uint256",
          "name": "",
          "type": "uint256"
        }
      ],
      "payable": false,
      "stateMutability": "pure",
      "type": "function"
    },
    {
      "constant": true,
      "inputs": [],
      "name": "votingPeriod",
      "outputs": [
        {
          "internalType": "uint256",
          "name": "",
          "type": "uint256"
        }
      ],
      "payable": false,
      "stateMutability": "pure",
      "type": "function"
    }
  ],
  "bytecode": "0x60806040523480156200001157600080fd5b50604051620024b2380380620024b2833981810160405262000037919081019062000119565b826000806101000a81548173ffffffffffffffffffffffffffffffffffffffff021916908373ffffffffffffffffffffffffffffffffffffffff16021790555081600160006101000a81548173ffffffffffffffffffffffffffffffffffffffff021916908373ffffffffffffffffffffffffffffffffffffffff16021790555080600260006101000a81548173ffffffffffffffffffffffffffffffffffffffff021916908373ffffffffffffffffffffffffffffffffffffffff160217905550505050620001bd565b6000815190506200011381620001a3565b92915050565b6000806000606084860312156200012f57600080fd5b60006200013f8682870162000102565b9350506020620001528682870162000102565b9250506040620001658682870162000102565b9150509250925092565b60006200017c8262000183565b9050919050565b600073ffffffffffffffffffffffffffffffffffffffff82169050919050565b620001ae816200016f565b8114620001ba57600080fd5b50565b6122e580620001cd6000396000f3fe608060405234801561001057600080fd5b50600436106101165760003560e01c8063452a9320116100a2578063ce4d01a311610071578063ce4d01a314610302578063d33219b414610332578063da35c66414610350578063e23a9a521461036e578063f71553451461039e57610116565b8063452a932014610266578063ab0fbf1614610284578063b55643e1146102b4578063b58131b0146102e457610116565b8063164b3d2f116100e9578063164b3d2f146101ac57806317977c61146101dc57806331bfb4ca1461020c57806337d4e3861461022a5780633932abb11461024857610116565b8063013cf08b1461011b57806302a251a31461015457806306fdde031461017257806315373e3d14610190575b600080fd5b610135600480360361013091908101906118e7565b6103ce565b60405161014b9a99989796959493929190611fc8565b60405180910390f35b61015c6107af565b6040516101699190611fad565b60405180910390f35b61017a6107b9565b6040516101879190611ed0565b60405180910390f35b6101aa60048036036101a5919081019061194c565b6107f2565b005b6101c660048036036101c191908101906118e7565b610801565b6040516101d39190611e7f565b60405180910390f35b6101f660048036036101f19190810190611854565b610821565b6040516102039190611fad565b60405180910390f35b610214610839565b6040516102219190611fad565b60405180910390f35b610232610896565b60405161023f9190611e9a565b60405180910390f35b6102506108bc565b60405161025d9190611fad565b60405180910390f35b61026e6108c5565b60405161027b9190611d88565b60405180910390f35b61029e600480360361029991908101906118a6565b6108eb565b6040516102ab9190611fad565b60405180910390f35b6102ce60048036036102c99190810190611854565b610ddd565b6040516102db9190611fad565b60405180910390f35b6102ec610dfb565b6040516102f99190611fad565b60405180910390f35b61031c600480360361031791908101906118e7565b610e0d565b6040516103299190611fad565b60405180910390f35b61033a611074565b6040516103479190611eb5565b60405180910390f35b610358611099565b6040516103659190611fad565b60405180910390f35b61038860048036036103839190810190611910565b61109f565b6040516103959190611f92565b60405180910390f35b6103b860048036036103b39190810190611854565b611181565b6040516103c59190611fad565b60405180910390f35b60046020528060005260406000206000915090508060000154908060010160009054906101000a900473ffffffffffffffffffffffffffffffffffffffff16908060020154908060030154908060040154908060050154908060060154908060070160009054906101000a900460ff16908060070160019054906101000a900460ff16908060080160405180610100016040529081600082018054600181600116156101000203166002900480601f0160208091040260200160405190810160405280929190818152602001828054600181600116156101000203166002900480156104fb5780601f106104d0576101008083540402835291602001916104fb565b820191906000526020600020905b8154815290600101906020018083116104de57829003601f168201915b50505050508152602001600182018054600181600116156101000203166002900480601f01602080910402602001604051908101604052809291908181526020018280546001816001161561010002031660029004801561059d5780601f106105725761010080835404028352916020019161059d565b820191906000526020600020905b81548152906001019060200180831161058057829003601f168201915b50505050508152602001600282018054600181600116156101000203166002900480601f01602080910402602001604051908101604052809291908181526020018280546001816001161561010002031660029004801561063f5780601f106106145761010080835404028352916020019161063f565b820191906000526020600020905b81548152906001019060200180831161062257829003601f168201915b50505050508152602001600382018054600181600116156101000203166002900480601f0160208091040260200160405190810160405280929190818152602001828054600181600116156101000203166002900480156106e15780601f106106b6576101008083540402835291602001916106e1565b820191906000526020600020905b8154815290600101906020018083116106c457829003601f168201915b50505050508152602001600482018054600181600116156101000203166002900480601f0160208091040260200160405190810160405280929190818152602001828054600181600116156101000203166002900480156107835780601f1061075857610100808354040283529160200191610783565b820191906000526020600020905b81548152906001019060200180831161076657829003601f168201915b50505050508152602001600582015481526020016006820154815260200160078201548152505090508a565b6000614380905090565b6040518060400160405280601581526020017f566f5461726f20476f7665726e6f7220416c706861000000000000000000000081525081565b6107fd33838361119f565b5050565b60066020528060005260406000206000915054906101000a900460ff1681565b60056020528060005260406000206000915090505481565b600042600760003373ffffffffffffffffffffffffffffffffffffffff1673ffffffffffffffffffffffffffffffffffffffff16815260200190815260200160002060000154111561088e5760019050610893565b600090505b90565b600160009054906101000a900473ffffffffffffffffffffffffffffffffffffffff1681565b60006001905090565b600260009054906101000a900473ffffffffffffffffffffffffffffffffffffffff1681565b60008042600760003373ffffffffffffffffffffffffffffffffffffffff1673ffffffffffffffffffffffffffffffffffffffff1681526020019081526020016000206000015411156109415760019050610946565b600090505b80610986576040517f08c379a000000000000000000000000000000000000000000000000000000000815260040161097d90611ef2565b60405180910390fd5b6005600860003373ffffffffffffffffffffffffffffffffffffffff1673ffffffffffffffffffffffffffffffffffffffff168152602001908152602001600020600001541015610b1b576000600160009054906101000a900473ffffffffffffffffffffffffffffffffffffffff1673ffffffffffffffffffffffffffffffffffffffff166323b872dd303360146040518463ffffffff1660e01b8152600401610a3393929190611da3565b602060405180830381600087803b158015610a4d57600080fd5b505af1158015610a61573d6000803e3d6000fd5b505050506040513d601f19601f82011682018060405250610a85919081019061187d565b905080610ac7576040517f08c379a0000000000000000000000000000000000000000000000000000000008152600401610abe90611f52565b60405180910390fd5b600860003373ffffffffffffffffffffffffffffffffffffffff1673ffffffffffffffffffffffffffffffffffffffff16815260200190815260200160002060000160008154809291906001019190505550505b6000610b2e43610b296108bc565b611474565b90506000610b4382610b3e6107af565b611474565b9050600360008154809291906001019190505550610b5f6114c9565b60405180610140016040528060035481526020013373ffffffffffffffffffffffffffffffffffffffff1681526020016000815260200184815260200183815260200160008152602001600081526020016000151581526020016000151581526020018781525090508060046000836000015181526020019081526020016000206000820151816000015560208201518160010160006101000a81548173ffffffffffffffffffffffffffffffffffffffff021916908373ffffffffffffffffffffffffffffffffffffffff16021790555060408201518160020155606082015181600301556080820151816004015560a0820151816005015560c0820151816006015560e08201518160070160006101000a81548160ff0219169083151502179055506101008201518160070160016101000a81548160ff021916908315150217905550610120820151816008016000820151816000019080519060200190610cca92919061153c565b506020820151816001019080519060200190610ce792919061153c565b506040820151816002019080519060200190610d0492919061153c565b506060820151816003019080519060200190610d2192919061153c565b506080820151816004019080519060200190610d3e92919061153c565b5060a0820151816005015560c0820151816006015560e0820151816007015550509050506001600660008360000151815260200190815260200160002060006101000a81548160ff0219169083151502179055507fc2c021f5d73c63c481d336fbbafec58f694fc45095f00b02d2deb8cca59afe078160000151604051610dc59190611fad565b60405180910390a18060000151945050505050919050565b60086020528060005260406000206000915090508060000154905081565b600069152d02c7e14af6800000905090565b600080600760003373ffffffffffffffffffffffffffffffffffffffff1673ffffffffffffffffffffffffffffffffffffffff168152602001908152602001600020600001541415610fb857604051806020016040528062f0c8a04201815250600760003373ffffffffffffffffffffffffffffffffffffffff1673ffffffffffffffffffffffffffffffffffffffff168152602001908152602001600020600082015181600001559050506000600160009054906101000a900473ffffffffffffffffffffffffffffffffffffffff1673ffffffffffffffffffffffffffffffffffffffff166323b872dd3033866040518463ffffffff1660e01b8152600401610f1a93929190611dda565b602060405180830381600087803b158015610f3457600080fd5b505af1158015610f48573d6000803e3d6000fd5b505050506040513d601f19601f82011682018060405250610f6c919081019061187d565b905080610fae576040517f08c379a0000000000000000000000000000000000000000000000000000000008152600401610fa590611f52565b60405180910390fd5b600091505061106f565b42600760003373ffffffffffffffffffffffffffffffffffffffff1673ffffffffffffffffffffffffffffffffffffffff168152602001908152602001600020600001541061100a576001905061106f565b604051806020016040528062f0c8a04201815250600760003373ffffffffffffffffffffffffffffffffffffffff1673ffffffffffffffffffffffffffffffffffffffff16815260200190815260200160002060008201518160000155905050600290505b919050565b6000809054906101000a900473ffffffffffffffffffffffffffffffffffffffff1681565b60035481565b6110a76115bc565b6004600084815260200190815260200160002060100160008373ffffffffffffffffffffffffffffffffffffffff1673ffffffffffffffffffffffffffffffffffffffff1681526020019081526020016000206040518060600160405290816000820160009054906101000a900460ff161515151581526020016000820160019054906101000a900460ff161515151581526020016000820160029054906101000a90046bffffffffffffffffffffffff166bffffffffffffffffffffffff166bffffffffffffffffffffffff1681525050905092915050565b60076020528060005260406000206000915090508060000154905081565b600115156006600084815260200190815260200160002060009054906101000a900460ff16151514611206576040517f08c379a00000000000000000000000000000000000000000000000000000000081526004016111fd90611f72565b60405180910390fd5b600060046000848152602001908152602001600020905060008160100160008673ffffffffffffffffffffffffffffffffffffffff1673ffffffffffffffffffffffffffffffffffffffff1681526020019081526020016000209050600015158160000160009054906101000a900460ff161515146112ba576040517f08c379a00000000000000000000000000000000000000000000000000000000081526004016112b190611f12565b60405180910390fd5b6000600160009054906101000a900473ffffffffffffffffffffffffffffffffffffffff1673ffffffffffffffffffffffffffffffffffffffff1663782d6fe18785600301546040518363ffffffff1660e01b815260040161131d929190611e11565b60206040518083038186803b15801561133557600080fd5b505afa158015611349573d6000803e3d6000fd5b505050506040513d601f19601f8201168201806040525061136d9190810190611988565b9050831561139e576113918360050154826bffffffffffffffffffffffff16611474565b83600501819055506113c3565b6113ba8360060154826bffffffffffffffffffffffff16611474565b83600601819055505b60018260000160006101000a81548160ff021916908315150217905550838260000160016101000a81548160ff021916908315150217905550808260000160026101000a8154816bffffffffffffffffffffffff02191690836bffffffffffffffffffffffff1602179055507f877856338e13f63d0c36822ff0ef736b80934cd90574a3a5bc9262c39d217c46868686846040516114649493929190611e3a565b60405180910390a1505050505050565b6000808284019050838110156114bf576040517f08c379a00000000000000000000000000000000000000000000000000000000081526004016114b690611f32565b60405180910390fd5b8091505092915050565b60405180610140016040528060008152602001600073ffffffffffffffffffffffffffffffffffffffff16815260200160008152602001600081526020016000815260200160008152602001600081526020016000151581526020016000151581526020016115366115ef565b81525090565b828054600181600116156101000203166002900490600052602060002090601f016020900481019282601f1061157d57805160ff19168380011785556115ab565b828001600101855582156115ab579182015b828111156115aa57825182559160200191906001019061158f565b5b5090506115b89190611634565b5090565b604051806060016040528060001515815260200160001515815260200160006bffffffffffffffffffffffff1681525090565b60405180610100016040528060608152602001606081526020016060815260200160608152602001606081526020016000815260200160008152602001600081525090565b61165691905b8082111561165257600081600090555060010161163a565b5090565b90565b60008135905061166881612246565b92915050565b60008135905061167d8161225d565b92915050565b6000815190506116928161225d565b92915050565b600082601f8301126116a957600080fd5b81356116bc6116b782612098565b61206b565b915080825260208301602083018583830111156116d857600080fd5b6116e38382846121f3565b50505092915050565b600061010082840312156116ff57600080fd5b61170a61010061206b565b9050600082013567ffffffffffffffff81111561172657600080fd5b61173284828501611698565b600083015250602082013567ffffffffffffffff81111561175257600080fd5b61175e84828501611698565b602083015250604082013567ffffffffffffffff81111561177e57600080fd5b61178a84828501611698565b604083015250606082013567ffffffffffffffff8111156117aa57600080fd5b6117b684828501611698565b606083015250608082013567ffffffffffffffff8111156117d657600080fd5b6117e284828501611698565b60808301525060a06117f68482850161182a565b60a08301525060c061180a8482850161182a565b60c08301525060e061181e8482850161182a565b60e08301525092915050565b60008135905061183981612274565b92915050565b60008151905061184e8161228b565b92915050565b60006020828403121561186657600080fd5b600061187484828501611659565b91505092915050565b60006020828403121561188f57600080fd5b600061189d84828501611683565b91505092915050565b6000602082840312156118b857600080fd5b600082013567ffffffffffffffff8111156118d257600080fd5b6118de848285016116ec565b91505092915050565b6000602082840312156118f957600080fd5b60006119078482850161182a565b91505092915050565b6000806040838503121561192357600080fd5b60006119318582860161182a565b925050602061194285828601611659565b9150509250929050565b6000806040838503121561195f57600080fd5b600061196d8582860161182a565b925050602061197e8582860161166e565b9150509250929050565b60006020828403121561199a57600080fd5b60006119a88482850161183f565b91505092915050565b6119ba81612151565b82525050565b6119c9816120f1565b82525050565b6119d881612103565b82525050565b6119e781612103565b82525050565b6119f681612163565b82525050565b611a0581612187565b82525050565b611a14816121ab565b82525050565b6000611a25826120c4565b611a2f81856120cf565b9350611a3f818560208601612202565b611a4881612235565b840191505092915050565b6000611a5e826120c4565b611a6881856120e0565b9350611a78818560208601612202565b611a8181612235565b840191505092915050565b6000611a99601f836120e0565b91507f75736572206973206e6f742063757272656e746c792076616c696461746564006000830152602082019050919050565b6000611ad9602d836120e0565b91507f476f7665726e6f72416c7068613a3a5f63617374566f74653a20766f7465722060008301527f616c726561647920766f746564000000000000000000000000000000000000006020830152604082019050919050565b6000611b3f6011836120e0565b91507f6164646974696f6e206f766572666c6f770000000000000000000000000000006000830152602082019050919050565b6000611b7f6024836120e0565b91507f546f6b656e73206e6f74207472616e7366657272656420746f206d73672e736560008301527f6e646572000000000000000000000000000000000000000000000000000000006020830152604082019050919050565b6000611be5602a836120e0565b91507f476f7665726e6f72416c7068613a3a5f63617374566f74653a20766f74696e6760008301527f20697320636c6f736564000000000000000000000000000000000000000000006020830152604082019050919050565b606082016000820151611c5460008501826119cf565b506020820151611c6760208501826119cf565b506040820151611c7a6040850182611d79565b50505050565b6000610100830160008301518482036000860152611c9e8282611a1a565b91505060208301518482036020860152611cb88282611a1a565b91505060408301518482036040860152611cd28282611a1a565b91505060608301518482036060860152611cec8282611a1a565b91505060808301518482036080860152611d068282611a1a565b91505060a0830151611d1b60a0860182611d4c565b5060c0830151611d2e60c0860182611d4c565b5060e0830151611d4160e0860182611d4c565b508091505092915050565b611d558161212f565b82525050565b611d648161212f565b82525050565b611d73816121e1565b82525050565b611d8281612139565b82525050565b6000602082019050611d9d60008301846119c0565b92915050565b6000606082019050611db860008301866119c0565b611dc560208301856119b1565b611dd26040830184611a0b565b949350505050565b6000606082019050611def60008301866119c0565b611dfc60208301856119b1565b611e096040830184611d5b565b949350505050565b6000604082019050611e2660008301856119c0565b611e336020830184611d5b565b9392505050565b6000608082019050611e4f60008301876119c0565b611e5c6020830186611d5b565b611e6960408301856119de565b611e766060830184611d6a565b95945050505050565b6000602082019050611e9460008301846119de565b92915050565b6000602082019050611eaf60008301846119ed565b92915050565b6000602082019050611eca60008301846119fc565b92915050565b60006020820190508181036000830152611eea8184611a53565b905092915050565b60006020820190508181036000830152611f0b81611a8c565b9050919050565b60006020820190508181036000830152611f2b81611acc565b9050919050565b60006020820190508181036000830152611f4b81611b32565b9050919050565b60006020820190508181036000830152611f6b81611b72565b9050919050565b60006020820190508181036000830152611f8b81611bd8565b9050919050565b6000606082019050611fa76000830184611c3e565b92915050565b6000602082019050611fc26000830184611d5b565b92915050565b600061014082019050611fde600083018d611d5b565b611feb602083018c6119c0565b611ff8604083018b611d5b565b612005606083018a611d5b565b6120126080830189611d5b565b61201f60a0830188611d5b565b61202c60c0830187611d5b565b61203960e08301866119de565b6120476101008301856119de565b81810361012083015261205a8184611c80565b90509b9a5050505050505050505050565b6000604051905081810181811067ffffffffffffffff8211171561208e57600080fd5b8060405250919050565b600067ffffffffffffffff8211156120af57600080fd5b601f19601f8301169050602081019050919050565b600081519050919050565b600082825260208201905092915050565b600082825260208201905092915050565b60006120fc8261210f565b9050919050565b60008115159050919050565b600073ffffffffffffffffffffffffffffffffffffffff82169050919050565b6000819050919050565b60006bffffffffffffffffffffffff82169050919050565b600061215c826121bd565b9050919050565b600061216e82612175565b9050919050565b60006121808261210f565b9050919050565b600061219282612199565b9050919050565b60006121a48261210f565b9050919050565b60006121b68261212f565b9050919050565b60006121c8826121cf565b9050919050565b60006121da8261210f565b9050919050565b60006121ec82612139565b9050919050565b82818337600083830152505050565b60005b83811015612220578082015181840152602081019050612205565b8381111561222f576000848401525b50505050565b6000601f19601f8301169050919050565b61224f816120f1565b811461225a57600080fd5b50565b61226681612103565b811461227157600080fd5b50565b61227d8161212f565b811461228857600080fd5b50565b61229481612139565b811461229f57600080fd5b5056fea365627a7a723158201a769610fb1b3cfbf05d92b6a71c84f0da3cbb45821b7dcf8150ca1ba6df10e76c6578706572696d656e74616cf564736f6c63430005100040",
  "linkReferences": {},
  "deployedLinkReferences": {}
}