{
  "_format": "hh-sol-artifact-1",
  "contractName": "GovernorAlpha",
  "sourceName": "contracts/GovernorAlpha.sol",
  "abi": [
    {
      "inputs": [
        {
          "internalType": "address",
          "name": "timelock_",
          "type": "address"
        },
        {
          "internalType": "address",
          "name": "taro_",
          "type": "address"
        },
        {
          "internalType": "address",
          "name": "guardian_",
          "type": "address"
        }
      ],
      "payable": false,
      "stateMutability": "nonpayable",
      "type": "constructor"
    },
    {
      "anonymous": false,
      "inputs": [
        {
          "indexed": false,
          "internalType": "uint256",
          "name": "id",
          "type": "uint256"
        }
      ],
      "name": "ProposalCreated",
      "type": "event"
    },
    {
      "anonymous": false,
      "inputs": [
        {
          "indexed": false,
          "internalType": "address",
          "name": "voter",
          "type": "address"
        },
        {
          "indexed": false,
          "internalType": "uint256",
          "name": "proposalId",
          "type": "uint256"
        },
        {
          "indexed": false,
          "internalType": "bool",
          "name": "support",
          "type": "bool"
        },
        {
          "indexed": false,
          "internalType": "uint256",
          "name": "votes",
          "type": "uint256"
        }
      ],
      "name": "VoteCast",
      "type": "event"
    },
    {
      "constant": false,
      "inputs": [
        {
          "internalType": "uint256",
          "name": "proposalId",
          "type": "uint256"
        },
        {
          "internalType": "bool",
          "name": "support",
          "type": "bool"
        }
      ],
      "name": "castVote",
      "outputs": [],
      "payable": false,
      "stateMutability": "nonpayable",
      "type": "function"
    },
    {
      "constant": true,
      "inputs": [
        {
          "internalType": "uint256",
          "name": "proposalId",
          "type": "uint256"
        },
        {
          "internalType": "address",
          "name": "voter",
          "type": "address"
        }
      ],
      "name": "getReceipt",
      "outputs": [
        {
          "components": [
            {
              "internalType": "bool",
              "name": "hasVoted",
              "type": "bool"
            },
            {
              "internalType": "bool",
              "name": "support",
              "type": "bool"
            },
            {
              "internalType": "uint96",
              "name": "votes",
              "type": "uint96"
            }
          ],
          "internalType": "struct GovernorAlpha.Receipt",
          "name": "",
          "type": "tuple"
        }
      ],
      "payable": false,
      "stateMutability": "view",
      "type": "function"
    },
    {
      "constant": true,
      "inputs": [],
      "name": "getValidityStatus",
      "outputs": [
        {
          "internalType": "uint256",
          "name": "",
          "type": "uint256"
        }
      ],
      "payable": false,
      "stateMutability": "view",
      "type": "function"
    },
    {
      "constant": true,
      "inputs": [],
      "name": "guardian",
      "outputs": [
        {
          "internalType": "address",
          "name": "",
          "type": "address"
        }
      ],
      "payable": false,
      "stateMutability": "view",
      "type": "function"
    },
    {
      "constant": true,
      "inputs": [
        {
          "internalType": "uint256",
          "name": "",
          "type": "uint256"
        }
      ],
      "name": "isProposalActive",
      "outputs": [
        {
          "internalType": "bool",
          "name": "",
          "type": "bool"
        }
      ],
      "payable": false,
      "stateMutability": "view",
      "type": "function"
    },
    {
      "constant": true,
      "inputs": [
        {
          "internalType": "address",
          "name": "",
          "type": "address"
        }
      ],
      "name": "latestProposalIds",
      "outputs": [
        {
          "internalType": "uint256",
          "name": "",
          "type": "uint256"
        }
      ],
      "payable": false,
      "stateMutability": "view",
      "type": "function"
    },
    {
      "constant": true,
      "inputs": [],
      "name": "name",
      "outputs": [
        {
          "internalType": "string",
          "name": "",
          "type": "string"
        }
      ],
      "payable": false,
      "stateMutability": "view",
      "type": "function"
    },
    {
      "constant": true,
      "inputs": [],
      "name": "proposalCount",
      "outputs": [
        {
          "internalType": "uint256",
          "name": "",
          "type": "uint256"
        }
      ],
      "payable": false,
      "stateMutability": "view",
      "type": "function"
    },
    {
      "constant": true,
      "inputs": [],
      "name": "proposalThreshold",
      "outputs": [
        {
          "internalType": "uint256",
          "name": "",
          "type": "uint256"
        }
      ],
      "payable": false,
      "stateMutability": "pure",
      "type": "function"
    },
    {
      "constant": true,
      "inputs": [
        {
          "internalType": "uint256",
          "name": "",
          "type": "uint256"
        }
      ],
      "name": "proposals",
      "outputs": [
        {
          "internalType": "uint256",
          "name": "id",
          "type": "uint256"
        },
        {
          "internalType": "address",
          "name": "proposer",
          "type": "address"
        },
        {
          "internalType": "uint256",
          "name": "eta",
          "type": "uint256"
        },
        {
          "internalType": "uint256",
          "name": "startBlock",
          "type": "uint256"
        },
        {
          "internalType": "uint256",
          "name": "endBlock",
          "type": "uint256"
        },
        {
          "internalType": "uint256",
          "name": "forVotes",
          "type": "uint256"
        },
        {
          "internalType": "uint256",
          "name": "againstVotes",
          "type": "uint256"
        },
        {
          "internalType": "bool",
          "name": "canceled",
          "type": "bool"
        },
        {
          "internalType": "bool",
          "name": "executed",
          "type": "bool"
        },
        {
          "components": [
            {
              "internalType": "string",
              "name": "title",
              "type": "string"
            },
            {
              "internalType": "string",
              "name": "typeOfAction",
              "type": "string"
            },
            {
              "internalType": "string",
              "name": "neighborhood",
              "type": "string"
            },
            {
              "internalType": "string",
              "name": "personInCharge",
              "type": "string"
            },
            {
              "internalType": "string",
              "name": "description",
              "type": "string"
            },
            {
              "internalType": "uint256",
              "name": "expiration",
              "type": "uint256"
            },
            {
              "internalType": "uint256",
              "name": "budget",
              "type": "uint256"
            },
            {
              "internalType": "uint256",
              "name": "requiredTaroToVote",
              "type": "uint256"
            }
          ],
          "internalType": "struct GovernorAlpha.UserInputFields",
          "name": "userInputFields",
          "type": "tuple"
        }
      ],
      "payable": false,
      "stateMutability": "view",
      "type": "function"
    },
    {
      "constant": false,
      "inputs": [
        {
          "components": [
            {
              "internalType": "string",
              "name": "title",
              "type": "string"
            },
            {
              "internalType": "string",
              "name": "typeOfAction",
              "type": "string"
            },
            {
              "internalType": "string",
              "name": "neighborhood",
              "type": "string"
            },
            {
              "internalType": "string",
              "name": "personInCharge",
              "type": "string"
            },
            {
              "internalType": "string",
              "name": "description",
              "type": "string"
            },
            {
              "internalType": "uint256",
              "name": "expiration",
              "type": "uint256"
            },
            {
              "internalType": "uint256",
              "name": "budget",
              "type": "uint256"
            },
            {
              "internalType": "uint256",
              "name": "requiredTaroToVote",
              "type": "uint256"
            }
          ],
          "internalType": "struct GovernorAlpha.UserInputFields",
          "name": "_userInputFields",
          "type": "tuple"
        }
      ],
      "name": "propose",
      "outputs": [
        {
          "internalType": "uint256",
          "name": "",
          "type": "uint256"
        }
      ],
      "payable": false,
      "stateMutability": "nonpayable",
      "type": "function"
    },
    {
      "constant": true,
      "inputs": [],
      "name": "taro",
      "outputs": [
        {
          "internalType": "contract TaroInterface",
          "name": "",
          "type": "address"
        }
      ],
      "payable": false,
      "stateMutability": "view",
      "type": "function"
    },
    {
      "constant": true,
      "inputs": [],
      "name": "timelock",
      "outputs": [
        {
          "internalType": "contract TimelockInterface",
          "name": "",
          "type": "address"
        }
      ],
      "payable": false,
      "stateMutability": "view",
      "type": "function"
    },
    {
      "constant": false,
      "inputs": [
        {
          "internalType": "uint256",
          "name": "_rewardedTokens",
          "type": "uint256"
        }
      ],
      "name": "validate",
      "outputs": [
        {
          "internalType": "uint256",
          "name": "",
          "type": "uint256"
        }
      ],
      "payable": false,
      "stateMutability": "nonpayable",
      "type": "function"
    },
    {
      "constant": true,
      "inputs": [
        {
          "internalType": "address",
          "name": "",
          "type": "address"
        }
      ],
      "name": "validations",
      "outputs": [
        {
          "internalType": "uint256",
          "name": "expirationTime",
          "type": "uint256"
        }
      ],
      "payable": false,
      "stateMutability": "view",
      "type": "function"
    },
    {
      "constant": true,
      "inputs": [],
      "name": "votingDelay",
      "outputs": [
        {
          "internalType": "uint256",
          "name": "",
          "type": "uint256"
        }
      ],
      "payable": false,
      "stateMutability": "pure",
      "type": "function"
    },
    {
      "constant": true,
      "inputs": [],
      "name": "votingPeriod",
      "outputs": [
        {
          "internalType": "uint256",
          "name": "",
          "type": "uint256"
        }
      ],
      "payable": false,
      "stateMutability": "pure",
      "type": "function"
    }
  ],
  "bytecode": "0x60806040523480156200001157600080fd5b506040516200226c3803806200226c833981810160405262000037919081019062000119565b826000806101000a81548173ffffffffffffffffffffffffffffffffffffffff021916908373ffffffffffffffffffffffffffffffffffffffff16021790555081600160006101000a81548173ffffffffffffffffffffffffffffffffffffffff021916908373ffffffffffffffffffffffffffffffffffffffff16021790555080600260006101000a81548173ffffffffffffffffffffffffffffffffffffffff021916908373ffffffffffffffffffffffffffffffffffffffff160217905550505050620001bd565b6000815190506200011381620001a3565b92915050565b6000806000606084860312156200012f57600080fd5b60006200013f8682870162000102565b9350506020620001528682870162000102565b9250506040620001658682870162000102565b9150509250925092565b60006200017c8262000183565b9050919050565b600073ffffffffffffffffffffffffffffffffffffffff82169050919050565b620001ae816200016f565b8114620001ba57600080fd5b50565b61209f80620001cd6000396000f3fe608060405234801561001057600080fd5b506004361061010b5760003560e01c80633932abb1116100a2578063ce4d01a311610071578063ce4d01a3146102c7578063d33219b4146102f7578063da35c66414610315578063e23a9a5214610333578063f7155345146103635761010b565b80633932abb11461023d578063452a93201461025b578063ab0fbf1614610279578063b58131b0146102a95761010b565b8063164b3d2f116100de578063164b3d2f146101a157806317977c61146101d157806331bfb4ca1461020157806337d4e3861461021f5761010b565b8063013cf08b1461011057806302a251a31461014957806306fdde031461016757806315373e3d14610185575b600080fd5b61012a600480360361012591908101906116f9565b610393565b6040516101409a99989796959493929190611d94565b60405180910390f35b610151610774565b60405161015e9190611d79565b60405180910390f35b61016f61077e565b60405161017c9190611c9c565b60405180910390f35b61019f600480360361019a919081019061175e565b6107b7565b005b6101bb60048036036101b691908101906116f9565b6107c6565b6040516101c89190611c4b565b60405180910390f35b6101eb60048036036101e69190810190611666565b6107e6565b6040516101f89190611d79565b60405180910390f35b6102096107fe565b6040516102169190611d79565b60405180910390f35b61022761085b565b6040516102349190611c66565b60405180910390f35b610245610881565b6040516102529190611d79565b60405180910390f35b61026361088a565b6040516102709190611b8b565b60405180910390f35b610293600480360361028e91908101906116b8565b6108b0565b6040516102a09190611d79565b60405180910390f35b6102b1610c0d565b6040516102be9190611d79565b60405180910390f35b6102e160048036036102dc91908101906116f9565b610c1f565b6040516102ee9190611d79565b60405180910390f35b6102ff610e86565b60405161030c9190611c81565b60405180910390f35b61031d610eab565b60405161032a9190611d79565b60405180910390f35b61034d60048036036103489190810190611722565b610eb1565b60405161035a9190611d5e565b60405180910390f35b61037d60048036036103789190810190611666565b610f93565b60405161038a9190611d79565b60405180910390f35b60046020528060005260406000206000915090508060000154908060010160009054906101000a900473ffffffffffffffffffffffffffffffffffffffff16908060020154908060030154908060040154908060050154908060060154908060070160009054906101000a900460ff16908060070160019054906101000a900460ff16908060080160405180610100016040529081600082018054600181600116156101000203166002900480601f0160208091040260200160405190810160405280929190818152602001828054600181600116156101000203166002900480156104c05780601f10610495576101008083540402835291602001916104c0565b820191906000526020600020905b8154815290600101906020018083116104a357829003601f168201915b50505050508152602001600182018054600181600116156101000203166002900480601f0160208091040260200160405190810160405280929190818152602001828054600181600116156101000203166002900480156105625780601f1061053757610100808354040283529160200191610562565b820191906000526020600020905b81548152906001019060200180831161054557829003601f168201915b50505050508152602001600282018054600181600116156101000203166002900480601f0160208091040260200160405190810160405280929190818152602001828054600181600116156101000203166002900480156106045780601f106105d957610100808354040283529160200191610604565b820191906000526020600020905b8154815290600101906020018083116105e757829003601f168201915b50505050508152602001600382018054600181600116156101000203166002900480601f0160208091040260200160405190810160405280929190818152602001828054600181600116156101000203166002900480156106a65780601f1061067b576101008083540402835291602001916106a6565b820191906000526020600020905b81548152906001019060200180831161068957829003601f168201915b50505050508152602001600482018054600181600116156101000203166002900480601f0160208091040260200160405190810160405280929190818152602001828054600181600116156101000203166002900480156107485780601f1061071d57610100808354040283529160200191610748565b820191906000526020600020905b81548152906001019060200180831161072b57829003601f168201915b50505050508152602001600582015481526020016006820154815260200160078201548152505090508a565b6000614380905090565b6040518060400160405280601581526020017f566f5461726f20476f7665726e6f7220416c706861000000000000000000000081525081565b6107c2338383610fb1565b5050565b60066020528060005260406000206000915054906101000a900460ff1681565b60056020528060005260406000206000915090505481565b600042600760003373ffffffffffffffffffffffffffffffffffffffff1673ffffffffffffffffffffffffffffffffffffffff1681526020019081526020016000206000015411156108535760019050610858565b600090505b90565b600160009054906101000a900473ffffffffffffffffffffffffffffffffffffffff1681565b60006001905090565b600260009054906101000a900473ffffffffffffffffffffffffffffffffffffffff1681565b60008042600760003373ffffffffffffffffffffffffffffffffffffffff1673ffffffffffffffffffffffffffffffffffffffff168152602001908152602001600020600001541115610906576001905061090b565b600090505b8061094b576040517f08c379a000000000000000000000000000000000000000000000000000000000815260040161094290611cbe565b60405180910390fd5b600061095e43610959610881565b611286565b905060006109738261096e610774565b611286565b905060036000815480929190600101919050555061098f6112db565b60405180610140016040528060035481526020013373ffffffffffffffffffffffffffffffffffffffff1681526020016000815260200184815260200183815260200160008152602001600081526020016000151581526020016000151581526020018781525090508060046000836000015181526020019081526020016000206000820151816000015560208201518160010160006101000a81548173ffffffffffffffffffffffffffffffffffffffff021916908373ffffffffffffffffffffffffffffffffffffffff16021790555060408201518160020155606082015181600301556080820151816004015560a0820151816005015560c0820151816006015560e08201518160070160006101000a81548160ff0219169083151502179055506101008201518160070160016101000a81548160ff021916908315150217905550610120820151816008016000820151816000019080519060200190610afa92919061134e565b506020820151816001019080519060200190610b1792919061134e565b506040820151816002019080519060200190610b3492919061134e565b506060820151816003019080519060200190610b5192919061134e565b506080820151816004019080519060200190610b6e92919061134e565b5060a0820151816005015560c0820151816006015560e0820151816007015550509050506001600660008360000151815260200190815260200160002060006101000a81548160ff0219169083151502179055507fc2c021f5d73c63c481d336fbbafec58f694fc45095f00b02d2deb8cca59afe078160000151604051610bf59190611d79565b60405180910390a18060000151945050505050919050565b600069152d02c7e14af6800000905090565b600080600760003373ffffffffffffffffffffffffffffffffffffffff1673ffffffffffffffffffffffffffffffffffffffff168152602001908152602001600020600001541415610dca57604051806020016040528062f0c8a04201815250600760003373ffffffffffffffffffffffffffffffffffffffff1673ffffffffffffffffffffffffffffffffffffffff168152602001908152602001600020600082015181600001559050506000600160009054906101000a900473ffffffffffffffffffffffffffffffffffffffff1673ffffffffffffffffffffffffffffffffffffffff166323b872dd3033866040518463ffffffff1660e01b8152600401610d2c93929190611ba6565b602060405180830381600087803b158015610d4657600080fd5b505af1158015610d5a573d6000803e3d6000fd5b505050506040513d601f19601f82011682018060405250610d7e919081019061168f565b905080610dc0576040517f08c379a0000000000000000000000000000000000000000000000000000000008152600401610db790611d1e565b60405180910390fd5b6000915050610e81565b42600760003373ffffffffffffffffffffffffffffffffffffffff1673ffffffffffffffffffffffffffffffffffffffff1681526020019081526020016000206000015410610e1c5760019050610e81565b604051806020016040528062f0c8a04201815250600760003373ffffffffffffffffffffffffffffffffffffffff1673ffffffffffffffffffffffffffffffffffffffff16815260200190815260200160002060008201518160000155905050600290505b919050565b6000809054906101000a900473ffffffffffffffffffffffffffffffffffffffff1681565b60035481565b610eb96113ce565b6004600084815260200190815260200160002060100160008373ffffffffffffffffffffffffffffffffffffffff1673ffffffffffffffffffffffffffffffffffffffff1681526020019081526020016000206040518060600160405290816000820160009054906101000a900460ff161515151581526020016000820160019054906101000a900460ff161515151581526020016000820160029054906101000a90046bffffffffffffffffffffffff166bffffffffffffffffffffffff166bffffffffffffffffffffffff1681525050905092915050565b60076020528060005260406000206000915090508060000154905081565b600115156006600084815260200190815260200160002060009054906101000a900460ff16151514611018576040517f08c379a000000000000000000000000000000000000000000000000000000000815260040161100f90611d3e565b60405180910390fd5b600060046000848152602001908152602001600020905060008160100160008673ffffffffffffffffffffffffffffffffffffffff1673ffffffffffffffffffffffffffffffffffffffff1681526020019081526020016000209050600015158160000160009054906101000a900460ff161515146110cc576040517f08c379a00000000000000000000000000000000000000000000000000000000081526004016110c390611cde565b60405180910390fd5b6000600160009054906101000a900473ffffffffffffffffffffffffffffffffffffffff1673ffffffffffffffffffffffffffffffffffffffff1663782d6fe18785600301546040518363ffffffff1660e01b815260040161112f929190611bdd565b60206040518083038186803b15801561114757600080fd5b505afa15801561115b573d6000803e3d6000fd5b505050506040513d601f19601f8201168201806040525061117f919081019061179a565b905083156111b0576111a38360050154826bffffffffffffffffffffffff16611286565b83600501819055506111d5565b6111cc8360060154826bffffffffffffffffffffffff16611286565b83600601819055505b60018260000160006101000a81548160ff021916908315150217905550838260000160016101000a81548160ff021916908315150217905550808260000160026101000a8154816bffffffffffffffffffffffff02191690836bffffffffffffffffffffffff1602179055507f877856338e13f63d0c36822ff0ef736b80934cd90574a3a5bc9262c39d217c46868686846040516112769493929190611c06565b60405180910390a1505050505050565b6000808284019050838110156112d1576040517f08c379a00000000000000000000000000000000000000000000000000000000081526004016112c890611cfe565b60405180910390fd5b8091505092915050565b60405180610140016040528060008152602001600073ffffffffffffffffffffffffffffffffffffffff1681526020016000815260200160008152602001600081526020016000815260200160008152602001600015158152602001600015158152602001611348611401565b81525090565b828054600181600116156101000203166002900490600052602060002090601f016020900481019282601f1061138f57805160ff19168380011785556113bd565b828001600101855582156113bd579182015b828111156113bc5782518255916020019190600101906113a1565b5b5090506113ca9190611446565b5090565b604051806060016040528060001515815260200160001515815260200160006bffffffffffffffffffffffff1681525090565b60405180610100016040528060608152602001606081526020016060815260200160608152602001606081526020016000815260200160008152602001600081525090565b61146891905b8082111561146457600081600090555060010161144c565b5090565b90565b60008135905061147a81612000565b92915050565b60008135905061148f81612017565b92915050565b6000815190506114a481612017565b92915050565b600082601f8301126114bb57600080fd5b81356114ce6114c982611e64565b611e37565b915080825260208301602083018583830111156114ea57600080fd5b6114f5838284611fad565b50505092915050565b6000610100828403121561151157600080fd5b61151c610100611e37565b9050600082013567ffffffffffffffff81111561153857600080fd5b611544848285016114aa565b600083015250602082013567ffffffffffffffff81111561156457600080fd5b611570848285016114aa565b602083015250604082013567ffffffffffffffff81111561159057600080fd5b61159c848285016114aa565b604083015250606082013567ffffffffffffffff8111156115bc57600080fd5b6115c8848285016114aa565b606083015250608082013567ffffffffffffffff8111156115e857600080fd5b6115f4848285016114aa565b60808301525060a06116088482850161163c565b60a08301525060c061161c8482850161163c565b60c08301525060e06116308482850161163c565b60e08301525092915050565b60008135905061164b8161202e565b92915050565b60008151905061166081612045565b92915050565b60006020828403121561167857600080fd5b60006116868482850161146b565b91505092915050565b6000602082840312156116a157600080fd5b60006116af84828501611495565b91505092915050565b6000602082840312156116ca57600080fd5b600082013567ffffffffffffffff8111156116e457600080fd5b6116f0848285016114fe565b91505092915050565b60006020828403121561170b57600080fd5b60006117198482850161163c565b91505092915050565b6000806040838503121561173557600080fd5b60006117438582860161163c565b92505060206117548582860161146b565b9150509250929050565b6000806040838503121561177157600080fd5b600061177f8582860161163c565b925050602061179085828601611480565b9150509250929050565b6000602082840312156117ac57600080fd5b60006117ba84828501611651565b91505092915050565b6117cc81611f1d565b82525050565b6117db81611ebd565b82525050565b6117ea81611ecf565b82525050565b6117f981611ecf565b82525050565b61180881611f2f565b82525050565b61181781611f53565b82525050565b600061182882611e90565b6118328185611e9b565b9350611842818560208601611fbc565b61184b81611fef565b840191505092915050565b600061186182611e90565b61186b8185611eac565b935061187b818560208601611fbc565b61188481611fef565b840191505092915050565b600061189c601f83611eac565b91507f75736572206973206e6f742063757272656e746c792076616c696461746564006000830152602082019050919050565b60006118dc602d83611eac565b91507f476f7665726e6f72416c7068613a3a5f63617374566f74653a20766f7465722060008301527f616c726561647920766f746564000000000000000000000000000000000000006020830152604082019050919050565b6000611942601183611eac565b91507f6164646974696f6e206f766572666c6f770000000000000000000000000000006000830152602082019050919050565b6000611982602483611eac565b91507f546f6b656e73206e6f74207472616e7366657272656420746f206d73672e736560008301527f6e646572000000000000000000000000000000000000000000000000000000006020830152604082019050919050565b60006119e8602a83611eac565b91507f476f7665726e6f72416c7068613a3a5f63617374566f74653a20766f74696e6760008301527f20697320636c6f736564000000000000000000000000000000000000000000006020830152604082019050919050565b606082016000820151611a5760008501826117e1565b506020820151611a6a60208501826117e1565b506040820151611a7d6040850182611b7c565b50505050565b6000610100830160008301518482036000860152611aa1828261181d565b91505060208301518482036020860152611abb828261181d565b91505060408301518482036040860152611ad5828261181d565b91505060608301518482036060860152611aef828261181d565b91505060808301518482036080860152611b09828261181d565b91505060a0830151611b1e60a0860182611b4f565b5060c0830151611b3160c0860182611b4f565b5060e0830151611b4460e0860182611b4f565b508091505092915050565b611b5881611efb565b82525050565b611b6781611efb565b82525050565b611b7681611f9b565b82525050565b611b8581611f05565b82525050565b6000602082019050611ba060008301846117d2565b92915050565b6000606082019050611bbb60008301866117d2565b611bc860208301856117c3565b611bd56040830184611b5e565b949350505050565b6000604082019050611bf260008301856117d2565b611bff6020830184611b5e565b9392505050565b6000608082019050611c1b60008301876117d2565b611c286020830186611b5e565b611c3560408301856117f0565b611c426060830184611b6d565b95945050505050565b6000602082019050611c6060008301846117f0565b92915050565b6000602082019050611c7b60008301846117ff565b92915050565b6000602082019050611c96600083018461180e565b92915050565b60006020820190508181036000830152611cb68184611856565b905092915050565b60006020820190508181036000830152611cd78161188f565b9050919050565b60006020820190508181036000830152611cf7816118cf565b9050919050565b60006020820190508181036000830152611d1781611935565b9050919050565b60006020820190508181036000830152611d3781611975565b9050919050565b60006020820190508181036000830152611d57816119db565b9050919050565b6000606082019050611d736000830184611a41565b92915050565b6000602082019050611d8e6000830184611b5e565b92915050565b600061014082019050611daa600083018d611b5e565b611db7602083018c6117d2565b611dc4604083018b611b5e565b611dd1606083018a611b5e565b611dde6080830189611b5e565b611deb60a0830188611b5e565b611df860c0830187611b5e565b611e0560e08301866117f0565b611e136101008301856117f0565b818103610120830152611e268184611a83565b90509b9a5050505050505050505050565b6000604051905081810181811067ffffffffffffffff82111715611e5a57600080fd5b8060405250919050565b600067ffffffffffffffff821115611e7b57600080fd5b601f19601f8301169050602081019050919050565b600081519050919050565b600082825260208201905092915050565b600082825260208201905092915050565b6000611ec882611edb565b9050919050565b60008115159050919050565b600073ffffffffffffffffffffffffffffffffffffffff82169050919050565b6000819050919050565b60006bffffffffffffffffffffffff82169050919050565b6000611f2882611f77565b9050919050565b6000611f3a82611f41565b9050919050565b6000611f4c82611edb565b9050919050565b6000611f5e82611f65565b9050919050565b6000611f7082611edb565b9050919050565b6000611f8282611f89565b9050919050565b6000611f9482611edb565b9050919050565b6000611fa682611f05565b9050919050565b82818337600083830152505050565b60005b83811015611fda578082015181840152602081019050611fbf565b83811115611fe9576000848401525b50505050565b6000601f19601f8301169050919050565b61200981611ebd565b811461201457600080fd5b50565b61202081611ecf565b811461202b57600080fd5b50565b61203781611efb565b811461204257600080fd5b50565b61204e81611f05565b811461205957600080fd5b5056fea365627a7a72315820023039e0e091ab0a92f4c7149513568bc01ce38b49f6e2e634bc04592d6298376c6578706572696d656e74616cf564736f6c63430005100040",
  "linkReferences": {},
  "deployedLinkReferences": {}
}