{
  "_format": "hh-sol-artifact-1",
  "contractName": "GovernorAlpha",
  "sourceName": "contracts/GovernorAlpha.sol",
  "abi": [
    {
      "inputs": [
        {
          "internalType": "address",
          "name": "timelock_",
          "type": "address"
        },
        {
          "internalType": "address",
          "name": "taro_",
          "type": "address"
        },
        {
          "internalType": "address",
          "name": "guardian_",
          "type": "address"
        }
      ],
      "payable": false,
      "stateMutability": "nonpayable",
      "type": "constructor"
    },
    {
      "anonymous": false,
      "inputs": [
        {
          "indexed": false,
          "internalType": "uint256",
          "name": "id",
          "type": "uint256"
        }
      ],
      "name": "ProposalCreated",
      "type": "event"
    },
    {
      "anonymous": false,
      "inputs": [
        {
          "indexed": false,
          "internalType": "address",
          "name": "voter",
          "type": "address"
        },
        {
          "indexed": false,
          "internalType": "uint256",
          "name": "proposalId",
          "type": "uint256"
        },
        {
          "indexed": false,
          "internalType": "bool",
          "name": "support",
          "type": "bool"
        },
        {
          "indexed": false,
          "internalType": "uint256",
          "name": "votes",
          "type": "uint256"
        }
      ],
      "name": "VoteCast",
      "type": "event"
    },
    {
      "constant": false,
      "inputs": [
        {
          "internalType": "uint256",
          "name": "proposalId",
          "type": "uint256"
        },
        {
          "internalType": "bool",
          "name": "support",
          "type": "bool"
        }
      ],
      "name": "castVote",
      "outputs": [],
      "payable": false,
      "stateMutability": "nonpayable",
      "type": "function"
    },
    {
      "constant": true,
      "inputs": [
        {
          "internalType": "uint256",
          "name": "proposalId",
          "type": "uint256"
        },
        {
          "internalType": "address",
          "name": "voter",
          "type": "address"
        }
      ],
      "name": "getReceipt",
      "outputs": [
        {
          "components": [
            {
              "internalType": "bool",
              "name": "hasVoted",
              "type": "bool"
            },
            {
              "internalType": "bool",
              "name": "support",
              "type": "bool"
            },
            {
              "internalType": "uint96",
              "name": "votes",
              "type": "uint96"
            }
          ],
          "internalType": "struct GovernorAlpha.Receipt",
          "name": "",
          "type": "tuple"
        }
      ],
      "payable": false,
      "stateMutability": "view",
      "type": "function"
    },
    {
      "constant": true,
      "inputs": [],
      "name": "getValidityStatus",
      "outputs": [
        {
          "internalType": "uint256",
          "name": "",
          "type": "uint256"
        }
      ],
      "payable": false,
      "stateMutability": "view",
      "type": "function"
    },
    {
      "constant": true,
      "inputs": [],
      "name": "guardian",
      "outputs": [
        {
          "internalType": "address",
          "name": "",
          "type": "address"
        }
      ],
      "payable": false,
      "stateMutability": "view",
      "type": "function"
    },
    {
      "constant": true,
      "inputs": [
        {
          "internalType": "uint256",
          "name": "",
          "type": "uint256"
        }
      ],
      "name": "isProposalActive",
      "outputs": [
        {
          "internalType": "bool",
          "name": "",
          "type": "bool"
        }
      ],
      "payable": false,
      "stateMutability": "view",
      "type": "function"
    },
    {
      "constant": true,
      "inputs": [
        {
          "internalType": "address",
          "name": "",
          "type": "address"
        }
      ],
      "name": "latestProposalIds",
      "outputs": [
        {
          "internalType": "uint256",
          "name": "",
          "type": "uint256"
        }
      ],
      "payable": false,
      "stateMutability": "view",
      "type": "function"
    },
    {
      "constant": true,
      "inputs": [],
      "name": "name",
      "outputs": [
        {
          "internalType": "string",
          "name": "",
          "type": "string"
        }
      ],
      "payable": false,
      "stateMutability": "view",
      "type": "function"
    },
    {
      "constant": true,
      "inputs": [],
      "name": "proposalCount",
      "outputs": [
        {
          "internalType": "uint256",
          "name": "",
          "type": "uint256"
        }
      ],
      "payable": false,
      "stateMutability": "view",
      "type": "function"
    },
    {
      "constant": true,
      "inputs": [],
      "name": "proposalThreshold",
      "outputs": [
        {
          "internalType": "uint256",
          "name": "",
          "type": "uint256"
        }
      ],
      "payable": false,
      "stateMutability": "pure",
      "type": "function"
    },
    {
      "constant": true,
      "inputs": [
        {
          "internalType": "uint256",
          "name": "",
          "type": "uint256"
        }
      ],
      "name": "proposals",
      "outputs": [
        {
          "internalType": "uint256",
          "name": "id",
          "type": "uint256"
        },
        {
          "internalType": "address",
          "name": "proposer",
          "type": "address"
        },
        {
          "internalType": "uint256",
          "name": "eta",
          "type": "uint256"
        },
        {
          "internalType": "uint256",
          "name": "startBlock",
          "type": "uint256"
        },
        {
          "internalType": "uint256",
          "name": "endBlock",
          "type": "uint256"
        },
        {
          "internalType": "uint256",
          "name": "forVotes",
          "type": "uint256"
        },
        {
          "internalType": "uint256",
          "name": "againstVotes",
          "type": "uint256"
        },
        {
          "internalType": "bool",
          "name": "canceled",
          "type": "bool"
        },
        {
          "internalType": "bool",
          "name": "executed",
          "type": "bool"
        },
        {
          "components": [
            {
              "internalType": "string",
              "name": "title",
              "type": "string"
            },
            {
              "internalType": "string",
              "name": "typeOfAction",
              "type": "string"
            },
            {
              "internalType": "string",
              "name": "neighborhood",
              "type": "string"
            },
            {
              "internalType": "string",
              "name": "personInCharge",
              "type": "string"
            },
            {
              "internalType": "string",
              "name": "description",
              "type": "string"
            },
            {
              "internalType": "uint256",
              "name": "expiration",
              "type": "uint256"
            },
            {
              "internalType": "uint256",
              "name": "budget",
              "type": "uint256"
            },
            {
              "internalType": "uint256",
              "name": "requiredTaroToVote",
              "type": "uint256"
            }
          ],
          "internalType": "struct GovernorAlpha.UserInputFields",
          "name": "userInputFields",
          "type": "tuple"
        }
      ],
      "payable": false,
      "stateMutability": "view",
      "type": "function"
    },
    {
      "constant": false,
      "inputs": [
        {
          "components": [
            {
              "internalType": "string",
              "name": "title",
              "type": "string"
            },
            {
              "internalType": "string",
              "name": "typeOfAction",
              "type": "string"
            },
            {
              "internalType": "string",
              "name": "neighborhood",
              "type": "string"
            },
            {
              "internalType": "string",
              "name": "personInCharge",
              "type": "string"
            },
            {
              "internalType": "string",
              "name": "description",
              "type": "string"
            },
            {
              "internalType": "uint256",
              "name": "expiration",
              "type": "uint256"
            },
            {
              "internalType": "uint256",
              "name": "budget",
              "type": "uint256"
            },
            {
              "internalType": "uint256",
              "name": "requiredTaroToVote",
              "type": "uint256"
            }
          ],
          "internalType": "struct GovernorAlpha.UserInputFields",
          "name": "_userInputFields",
          "type": "tuple"
        }
      ],
      "name": "propose",
      "outputs": [
        {
          "internalType": "uint256",
          "name": "",
          "type": "uint256"
        }
      ],
      "payable": false,
      "stateMutability": "nonpayable",
      "type": "function"
    },
    {
      "constant": true,
      "inputs": [],
      "name": "taro",
      "outputs": [
        {
          "internalType": "contract TaroInterface",
          "name": "",
          "type": "address"
        }
      ],
      "payable": false,
      "stateMutability": "view",
      "type": "function"
    },
    {
      "constant": true,
      "inputs": [],
      "name": "timelock",
      "outputs": [
        {
          "internalType": "contract TimelockInterface",
          "name": "",
          "type": "address"
        }
      ],
      "payable": false,
      "stateMutability": "view",
      "type": "function"
    },
    {
      "constant": true,
      "inputs": [
        {
          "internalType": "address",
          "name": "",
          "type": "address"
        }
      ],
      "name": "userProposals",
      "outputs": [
        {
          "internalType": "uint256",
          "name": "count",
          "type": "uint256"
        }
      ],
      "payable": false,
      "stateMutability": "view",
      "type": "function"
    },
    {
      "constant": false,
      "inputs": [
        {
          "internalType": "uint256",
          "name": "_rewardedTokens",
          "type": "uint256"
        }
      ],
      "name": "validate",
      "outputs": [
        {
          "internalType": "uint256",
          "name": "",
          "type": "uint256"
        }
      ],
      "payable": false,
      "stateMutability": "nonpayable",
      "type": "function"
    },
    {
      "constant": true,
      "inputs": [
        {
          "internalType": "address",
          "name": "",
          "type": "address"
        }
      ],
      "name": "validations",
      "outputs": [
        {
          "internalType": "uint256",
          "name": "expirationTime",
          "type": "uint256"
        }
      ],
      "payable": false,
      "stateMutability": "view",
      "type": "function"
    },
    {
      "constant": true,
      "inputs": [],
      "name": "votingDelay",
      "outputs": [
        {
          "internalType": "uint256",
          "name": "",
          "type": "uint256"
        }
      ],
      "payable": false,
      "stateMutability": "pure",
      "type": "function"
    },
    {
      "constant": true,
      "inputs": [],
      "name": "votingPeriod",
      "outputs": [
        {
          "internalType": "uint256",
          "name": "",
          "type": "uint256"
        }
      ],
      "payable": false,
      "stateMutability": "pure",
      "type": "function"
    }
  ],
  "bytecode": "0x60806040523480156200001157600080fd5b50604051620024ba380380620024ba833981810160405262000037919081019062000119565b826000806101000a81548173ffffffffffffffffffffffffffffffffffffffff021916908373ffffffffffffffffffffffffffffffffffffffff16021790555081600160006101000a81548173ffffffffffffffffffffffffffffffffffffffff021916908373ffffffffffffffffffffffffffffffffffffffff16021790555080600260006101000a81548173ffffffffffffffffffffffffffffffffffffffff021916908373ffffffffffffffffffffffffffffffffffffffff160217905550505050620001bd565b6000815190506200011381620001a3565b92915050565b6000806000606084860312156200012f57600080fd5b60006200013f8682870162000102565b9350506020620001528682870162000102565b9250506040620001658682870162000102565b9150509250925092565b60006200017c8262000183565b9050919050565b600073ffffffffffffffffffffffffffffffffffffffff82169050919050565b620001ae816200016f565b8114620001ba57600080fd5b50565b6122ed80620001cd6000396000f3fe608060405234801561001057600080fd5b50600436106101165760003560e01c8063452a9320116100a2578063ce4d01a311610071578063ce4d01a314610302578063d33219b414610332578063da35c66414610350578063e23a9a521461036e578063f71553451461039e57610116565b8063452a932014610266578063ab0fbf1614610284578063b55643e1146102b4578063b58131b0146102e457610116565b8063164b3d2f116100e9578063164b3d2f146101ac57806317977c61146101dc57806331bfb4ca1461020c57806337d4e3861461022a5780633932abb11461024857610116565b8063013cf08b1461011b57806302a251a31461015457806306fdde031461017257806315373e3d14610190575b600080fd5b610135600480360361013091908101906118ef565b6103ce565b60405161014b9a99989796959493929190611fd0565b60405180910390f35b61015c6107af565b6040516101699190611fb5565b60405180910390f35b61017a6107b9565b6040516101879190611ed8565b60405180910390f35b6101aa60048036036101a59190810190611954565b6107f2565b005b6101c660048036036101c191908101906118ef565b610801565b6040516101d39190611e87565b60405180910390f35b6101f660048036036101f1919081019061185c565b610821565b6040516102039190611fb5565b60405180910390f35b610214610839565b6040516102219190611fb5565b60405180910390f35b610232610896565b60405161023f9190611ea2565b60405180910390f35b6102506108bc565b60405161025d9190611fb5565b60405180910390f35b61026e6108c5565b60405161027b9190611d90565b60405180910390f35b61029e600480360361029991908101906118ae565b6108eb565b6040516102ab9190611fb5565b60405180910390f35b6102ce60048036036102c9919081019061185c565b610de5565b6040516102db9190611fb5565b60405180910390f35b6102ec610e03565b6040516102f99190611fb5565b60405180910390f35b61031c600480360361031791908101906118ef565b610e15565b6040516103299190611fb5565b60405180910390f35b61033a61107c565b6040516103479190611ebd565b60405180910390f35b6103586110a1565b6040516103659190611fb5565b60405180910390f35b61038860048036036103839190810190611918565b6110a7565b6040516103959190611f9a565b60405180910390f35b6103b860048036036103b3919081019061185c565b611189565b6040516103c59190611fb5565b60405180910390f35b60046020528060005260406000206000915090508060000154908060010160009054906101000a900473ffffffffffffffffffffffffffffffffffffffff16908060020154908060030154908060040154908060050154908060060154908060070160009054906101000a900460ff16908060070160019054906101000a900460ff16908060080160405180610100016040529081600082018054600181600116156101000203166002900480601f0160208091040260200160405190810160405280929190818152602001828054600181600116156101000203166002900480156104fb5780601f106104d0576101008083540402835291602001916104fb565b820191906000526020600020905b8154815290600101906020018083116104de57829003601f168201915b50505050508152602001600182018054600181600116156101000203166002900480601f01602080910402602001604051908101604052809291908181526020018280546001816001161561010002031660029004801561059d5780601f106105725761010080835404028352916020019161059d565b820191906000526020600020905b81548152906001019060200180831161058057829003601f168201915b50505050508152602001600282018054600181600116156101000203166002900480601f01602080910402602001604051908101604052809291908181526020018280546001816001161561010002031660029004801561063f5780601f106106145761010080835404028352916020019161063f565b820191906000526020600020905b81548152906001019060200180831161062257829003601f168201915b50505050508152602001600382018054600181600116156101000203166002900480601f0160208091040260200160405190810160405280929190818152602001828054600181600116156101000203166002900480156106e15780601f106106b6576101008083540402835291602001916106e1565b820191906000526020600020905b8154815290600101906020018083116106c457829003601f168201915b50505050508152602001600482018054600181600116156101000203166002900480601f0160208091040260200160405190810160405280929190818152602001828054600181600116156101000203166002900480156107835780601f1061075857610100808354040283529160200191610783565b820191906000526020600020905b81548152906001019060200180831161076657829003601f168201915b50505050508152602001600582015481526020016006820154815260200160078201548152505090508a565b6000614380905090565b6040518060400160405280601581526020017f566f5461726f20476f7665726e6f7220416c706861000000000000000000000081525081565b6107fd3383836111a7565b5050565b60066020528060005260406000206000915054906101000a900460ff1681565b60056020528060005260406000206000915090505481565b600042600760003373ffffffffffffffffffffffffffffffffffffffff1673ffffffffffffffffffffffffffffffffffffffff16815260200190815260200160002060000154111561088e5760019050610893565b600090505b90565b600160009054906101000a900473ffffffffffffffffffffffffffffffffffffffff1681565b60006001905090565b600260009054906101000a900473ffffffffffffffffffffffffffffffffffffffff1681565b60008042600760003373ffffffffffffffffffffffffffffffffffffffff1673ffffffffffffffffffffffffffffffffffffffff1681526020019081526020016000206000015411156109415760019050610946565b600090505b80610986576040517f08c379a000000000000000000000000000000000000000000000000000000000815260040161097d90611efa565b60405180910390fd5b6005600860003373ffffffffffffffffffffffffffffffffffffffff1673ffffffffffffffffffffffffffffffffffffffff168152602001908152602001600020600001541015610b23576000600160009054906101000a900473ffffffffffffffffffffffffffffffffffffffff1673ffffffffffffffffffffffffffffffffffffffff166323b872dd30336801158e460913d000006040518463ffffffff1660e01b8152600401610a3b93929190611dab565b602060405180830381600087803b158015610a5557600080fd5b505af1158015610a69573d6000803e3d6000fd5b505050506040513d601f19601f82011682018060405250610a8d9190810190611885565b905080610acf576040517f08c379a0000000000000000000000000000000000000000000000000000000008152600401610ac690611f5a565b60405180910390fd5b600860003373ffffffffffffffffffffffffffffffffffffffff1673ffffffffffffffffffffffffffffffffffffffff16815260200190815260200160002060000160008154809291906001019190505550505b6000610b3643610b316108bc565b61147c565b90506000610b4b82610b466107af565b61147c565b9050600360008154809291906001019190505550610b676114d1565b60405180610140016040528060035481526020013373ffffffffffffffffffffffffffffffffffffffff1681526020016000815260200184815260200183815260200160008152602001600081526020016000151581526020016000151581526020018781525090508060046000836000015181526020019081526020016000206000820151816000015560208201518160010160006101000a81548173ffffffffffffffffffffffffffffffffffffffff021916908373ffffffffffffffffffffffffffffffffffffffff16021790555060408201518160020155606082015181600301556080820151816004015560a0820151816005015560c0820151816006015560e08201518160070160006101000a81548160ff0219169083151502179055506101008201518160070160016101000a81548160ff021916908315150217905550610120820151816008016000820151816000019080519060200190610cd2929190611544565b506020820151816001019080519060200190610cef929190611544565b506040820151816002019080519060200190610d0c929190611544565b506060820151816003019080519060200190610d29929190611544565b506080820151816004019080519060200190610d46929190611544565b5060a0820151816005015560c0820151816006015560e0820151816007015550509050506001600660008360000151815260200190815260200160002060006101000a81548160ff0219169083151502179055507fc2c021f5d73c63c481d336fbbafec58f694fc45095f00b02d2deb8cca59afe078160000151604051610dcd9190611fb5565b60405180910390a18060000151945050505050919050565b60086020528060005260406000206000915090508060000154905081565b600069152d02c7e14af6800000905090565b600080600760003373ffffffffffffffffffffffffffffffffffffffff1673ffffffffffffffffffffffffffffffffffffffff168152602001908152602001600020600001541415610fc057604051806020016040528062f0c8a04201815250600760003373ffffffffffffffffffffffffffffffffffffffff1673ffffffffffffffffffffffffffffffffffffffff168152602001908152602001600020600082015181600001559050506000600160009054906101000a900473ffffffffffffffffffffffffffffffffffffffff1673ffffffffffffffffffffffffffffffffffffffff166323b872dd3033866040518463ffffffff1660e01b8152600401610f2293929190611de2565b602060405180830381600087803b158015610f3c57600080fd5b505af1158015610f50573d6000803e3d6000fd5b505050506040513d601f19601f82011682018060405250610f749190810190611885565b905080610fb6576040517f08c379a0000000000000000000000000000000000000000000000000000000008152600401610fad90611f5a565b60405180910390fd5b6000915050611077565b42600760003373ffffffffffffffffffffffffffffffffffffffff1673ffffffffffffffffffffffffffffffffffffffff16815260200190815260200160002060000154106110125760019050611077565b604051806020016040528062f0c8a04201815250600760003373ffffffffffffffffffffffffffffffffffffffff1673ffffffffffffffffffffffffffffffffffffffff16815260200190815260200160002060008201518160000155905050600290505b919050565b6000809054906101000a900473ffffffffffffffffffffffffffffffffffffffff1681565b60035481565b6110af6115c4565b6004600084815260200190815260200160002060100160008373ffffffffffffffffffffffffffffffffffffffff1673ffffffffffffffffffffffffffffffffffffffff1681526020019081526020016000206040518060600160405290816000820160009054906101000a900460ff161515151581526020016000820160019054906101000a900460ff161515151581526020016000820160029054906101000a90046bffffffffffffffffffffffff166bffffffffffffffffffffffff166bffffffffffffffffffffffff1681525050905092915050565b60076020528060005260406000206000915090508060000154905081565b600115156006600084815260200190815260200160002060009054906101000a900460ff1615151461120e576040517f08c379a000000000000000000000000000000000000000000000000000000000815260040161120590611f7a565b60405180910390fd5b600060046000848152602001908152602001600020905060008160100160008673ffffffffffffffffffffffffffffffffffffffff1673ffffffffffffffffffffffffffffffffffffffff1681526020019081526020016000209050600015158160000160009054906101000a900460ff161515146112c2576040517f08c379a00000000000000000000000000000000000000000000000000000000081526004016112b990611f1a565b60405180910390fd5b6000600160009054906101000a900473ffffffffffffffffffffffffffffffffffffffff1673ffffffffffffffffffffffffffffffffffffffff1663782d6fe18785600301546040518363ffffffff1660e01b8152600401611325929190611e19565b60206040518083038186803b15801561133d57600080fd5b505afa158015611351573d6000803e3d6000fd5b505050506040513d601f19601f820116820180604052506113759190810190611990565b905083156113a6576113998360050154826bffffffffffffffffffffffff1661147c565b83600501819055506113cb565b6113c28360060154826bffffffffffffffffffffffff1661147c565b83600601819055505b60018260000160006101000a81548160ff021916908315150217905550838260000160016101000a81548160ff021916908315150217905550808260000160026101000a8154816bffffffffffffffffffffffff02191690836bffffffffffffffffffffffff1602179055507f877856338e13f63d0c36822ff0ef736b80934cd90574a3a5bc9262c39d217c468686868460405161146c9493929190611e42565b60405180910390a1505050505050565b6000808284019050838110156114c7576040517f08c379a00000000000000000000000000000000000000000000000000000000081526004016114be90611f3a565b60405180910390fd5b8091505092915050565b60405180610140016040528060008152602001600073ffffffffffffffffffffffffffffffffffffffff168152602001600081526020016000815260200160008152602001600081526020016000815260200160001515815260200160001515815260200161153e6115f7565b81525090565b828054600181600116156101000203166002900490600052602060002090601f016020900481019282601f1061158557805160ff19168380011785556115b3565b828001600101855582156115b3579182015b828111156115b2578251825591602001919060010190611597565b5b5090506115c0919061163c565b5090565b604051806060016040528060001515815260200160001515815260200160006bffffffffffffffffffffffff1681525090565b60405180610100016040528060608152602001606081526020016060815260200160608152602001606081526020016000815260200160008152602001600081525090565b61165e91905b8082111561165a576000816000905550600101611642565b5090565b90565b6000813590506116708161224e565b92915050565b60008135905061168581612265565b92915050565b60008151905061169a81612265565b92915050565b600082601f8301126116b157600080fd5b81356116c46116bf826120a0565b612073565b915080825260208301602083018583830111156116e057600080fd5b6116eb8382846121fb565b50505092915050565b6000610100828403121561170757600080fd5b611712610100612073565b9050600082013567ffffffffffffffff81111561172e57600080fd5b61173a848285016116a0565b600083015250602082013567ffffffffffffffff81111561175a57600080fd5b611766848285016116a0565b602083015250604082013567ffffffffffffffff81111561178657600080fd5b611792848285016116a0565b604083015250606082013567ffffffffffffffff8111156117b257600080fd5b6117be848285016116a0565b606083015250608082013567ffffffffffffffff8111156117de57600080fd5b6117ea848285016116a0565b60808301525060a06117fe84828501611832565b60a08301525060c061181284828501611832565b60c08301525060e061182684828501611832565b60e08301525092915050565b6000813590506118418161227c565b92915050565b60008151905061185681612293565b92915050565b60006020828403121561186e57600080fd5b600061187c84828501611661565b91505092915050565b60006020828403121561189757600080fd5b60006118a58482850161168b565b91505092915050565b6000602082840312156118c057600080fd5b600082013567ffffffffffffffff8111156118da57600080fd5b6118e6848285016116f4565b91505092915050565b60006020828403121561190157600080fd5b600061190f84828501611832565b91505092915050565b6000806040838503121561192b57600080fd5b600061193985828601611832565b925050602061194a85828601611661565b9150509250929050565b6000806040838503121561196757600080fd5b600061197585828601611832565b925050602061198685828601611676565b9150509250929050565b6000602082840312156119a257600080fd5b60006119b084828501611847565b91505092915050565b6119c281612159565b82525050565b6119d1816120f9565b82525050565b6119e08161210b565b82525050565b6119ef8161210b565b82525050565b6119fe8161216b565b82525050565b611a0d8161218f565b82525050565b611a1c816121b3565b82525050565b6000611a2d826120cc565b611a3781856120d7565b9350611a4781856020860161220a565b611a508161223d565b840191505092915050565b6000611a66826120cc565b611a7081856120e8565b9350611a8081856020860161220a565b611a898161223d565b840191505092915050565b6000611aa1601f836120e8565b91507f75736572206973206e6f742063757272656e746c792076616c696461746564006000830152602082019050919050565b6000611ae1602d836120e8565b91507f476f7665726e6f72416c7068613a3a5f63617374566f74653a20766f7465722060008301527f616c726561647920766f746564000000000000000000000000000000000000006020830152604082019050919050565b6000611b476011836120e8565b91507f6164646974696f6e206f766572666c6f770000000000000000000000000000006000830152602082019050919050565b6000611b876024836120e8565b91507f546f6b656e73206e6f74207472616e7366657272656420746f206d73672e736560008301527f6e646572000000000000000000000000000000000000000000000000000000006020830152604082019050919050565b6000611bed602a836120e8565b91507f476f7665726e6f72416c7068613a3a5f63617374566f74653a20766f74696e6760008301527f20697320636c6f736564000000000000000000000000000000000000000000006020830152604082019050919050565b606082016000820151611c5c60008501826119d7565b506020820151611c6f60208501826119d7565b506040820151611c826040850182611d81565b50505050565b6000610100830160008301518482036000860152611ca68282611a22565b91505060208301518482036020860152611cc08282611a22565b91505060408301518482036040860152611cda8282611a22565b91505060608301518482036060860152611cf48282611a22565b91505060808301518482036080860152611d0e8282611a22565b91505060a0830151611d2360a0860182611d54565b5060c0830151611d3660c0860182611d54565b5060e0830151611d4960e0860182611d54565b508091505092915050565b611d5d81612137565b82525050565b611d6c81612137565b82525050565b611d7b816121e9565b82525050565b611d8a81612141565b82525050565b6000602082019050611da560008301846119c8565b92915050565b6000606082019050611dc060008301866119c8565b611dcd60208301856119b9565b611dda6040830184611a13565b949350505050565b6000606082019050611df760008301866119c8565b611e0460208301856119b9565b611e116040830184611d63565b949350505050565b6000604082019050611e2e60008301856119c8565b611e3b6020830184611d63565b9392505050565b6000608082019050611e5760008301876119c8565b611e646020830186611d63565b611e7160408301856119e6565b611e7e6060830184611d72565b95945050505050565b6000602082019050611e9c60008301846119e6565b92915050565b6000602082019050611eb760008301846119f5565b92915050565b6000602082019050611ed26000830184611a04565b92915050565b60006020820190508181036000830152611ef28184611a5b565b905092915050565b60006020820190508181036000830152611f1381611a94565b9050919050565b60006020820190508181036000830152611f3381611ad4565b9050919050565b60006020820190508181036000830152611f5381611b3a565b9050919050565b60006020820190508181036000830152611f7381611b7a565b9050919050565b60006020820190508181036000830152611f9381611be0565b9050919050565b6000606082019050611faf6000830184611c46565b92915050565b6000602082019050611fca6000830184611d63565b92915050565b600061014082019050611fe6600083018d611d63565b611ff3602083018c6119c8565b612000604083018b611d63565b61200d606083018a611d63565b61201a6080830189611d63565b61202760a0830188611d63565b61203460c0830187611d63565b61204160e08301866119e6565b61204f6101008301856119e6565b8181036101208301526120628184611c88565b90509b9a5050505050505050505050565b6000604051905081810181811067ffffffffffffffff8211171561209657600080fd5b8060405250919050565b600067ffffffffffffffff8211156120b757600080fd5b601f19601f8301169050602081019050919050565b600081519050919050565b600082825260208201905092915050565b600082825260208201905092915050565b600061210482612117565b9050919050565b60008115159050919050565b600073ffffffffffffffffffffffffffffffffffffffff82169050919050565b6000819050919050565b60006bffffffffffffffffffffffff82169050919050565b6000612164826121c5565b9050919050565b60006121768261217d565b9050919050565b600061218882612117565b9050919050565b600061219a826121a1565b9050919050565b60006121ac82612117565b9050919050565b60006121be82612137565b9050919050565b60006121d0826121d7565b9050919050565b60006121e282612117565b9050919050565b60006121f482612141565b9050919050565b82818337600083830152505050565b60005b8381101561222857808201518184015260208101905061220d565b83811115612237576000848401525b50505050565b6000601f19601f8301169050919050565b612257816120f9565b811461226257600080fd5b50565b61226e8161210b565b811461227957600080fd5b50565b61228581612137565b811461229057600080fd5b50565b61229c81612141565b81146122a757600080fd5b5056fea365627a7a723158200956f83840163dc756bce6cfbe832edab45699cb5d23dbe79238fb36138a46a56c6578706572696d656e74616cf564736f6c63430005100040",
  "linkReferences": {},
  "deployedLinkReferences": {}
}