{
  "_format": "hh-sol-artifact-1",
  "contractName": "GovernorAlpha",
  "sourceName": "contracts/GovernorAlpha.sol",
  "abi": [
    {
      "inputs": [
        {
          "internalType": "address",
          "name": "taro_",
          "type": "address"
        }
      ],
      "payable": false,
      "stateMutability": "nonpayable",
      "type": "constructor"
    },
    {
      "anonymous": false,
      "inputs": [
        {
          "indexed": false,
          "internalType": "uint256",
          "name": "id",
          "type": "uint256"
        }
      ],
      "name": "ProposalCreated",
      "type": "event"
    },
    {
      "anonymous": false,
      "inputs": [
        {
          "indexed": false,
          "internalType": "uint256",
          "name": "timestamp",
          "type": "uint256"
        }
      ],
      "name": "ValidityStatus",
      "type": "event"
    },
    {
      "anonymous": false,
      "inputs": [
        {
          "indexed": false,
          "internalType": "address",
          "name": "voter",
          "type": "address"
        },
        {
          "indexed": false,
          "internalType": "uint256",
          "name": "proposalId",
          "type": "uint256"
        },
        {
          "indexed": false,
          "internalType": "bool",
          "name": "support",
          "type": "bool"
        },
        {
          "indexed": false,
          "internalType": "uint256",
          "name": "votes",
          "type": "uint256"
        }
      ],
      "name": "VoteCast",
      "type": "event"
    },
    {
      "constant": false,
      "inputs": [
        {
          "internalType": "uint256",
          "name": "proposalId",
          "type": "uint256"
        },
        {
          "internalType": "bool",
          "name": "support",
          "type": "bool"
        }
      ],
      "name": "castVote",
      "outputs": [],
      "payable": false,
      "stateMutability": "nonpayable",
      "type": "function"
    },
    {
      "constant": true,
      "inputs": [
        {
          "internalType": "address",
          "name": "_user",
          "type": "address"
        },
        {
          "internalType": "uint256",
          "name": "proposalId",
          "type": "uint256"
        }
      ],
      "name": "checkHasVoted",
      "outputs": [
        {
          "internalType": "bool",
          "name": "",
          "type": "bool"
        }
      ],
      "payable": false,
      "stateMutability": "view",
      "type": "function"
    },
    {
      "constant": true,
      "inputs": [],
      "name": "getValidityStatus",
      "outputs": [
        {
          "internalType": "uint256",
          "name": "",
          "type": "uint256"
        },
        {
          "internalType": "uint256",
          "name": "",
          "type": "uint256"
        }
      ],
      "payable": false,
      "stateMutability": "view",
      "type": "function"
    },
    {
      "constant": true,
      "inputs": [
        {
          "internalType": "uint256",
          "name": "",
          "type": "uint256"
        }
      ],
      "name": "isProposalActive",
      "outputs": [
        {
          "internalType": "bool",
          "name": "",
          "type": "bool"
        }
      ],
      "payable": false,
      "stateMutability": "view",
      "type": "function"
    },
    {
      "constant": true,
      "inputs": [
        {
          "internalType": "address",
          "name": "",
          "type": "address"
        }
      ],
      "name": "latestProposalIds",
      "outputs": [
        {
          "internalType": "uint256",
          "name": "",
          "type": "uint256"
        }
      ],
      "payable": false,
      "stateMutability": "view",
      "type": "function"
    },
    {
      "constant": true,
      "inputs": [],
      "name": "name",
      "outputs": [
        {
          "internalType": "string",
          "name": "",
          "type": "string"
        }
      ],
      "payable": false,
      "stateMutability": "view",
      "type": "function"
    },
    {
      "constant": true,
      "inputs": [],
      "name": "proposalCount",
      "outputs": [
        {
          "internalType": "uint256",
          "name": "",
          "type": "uint256"
        }
      ],
      "payable": false,
      "stateMutability": "view",
      "type": "function"
    },
    {
      "constant": true,
      "inputs": [
        {
          "internalType": "uint256",
          "name": "",
          "type": "uint256"
        }
      ],
      "name": "proposals",
      "outputs": [
        {
          "internalType": "uint256",
          "name": "id",
          "type": "uint256"
        },
        {
          "internalType": "address",
          "name": "proposer",
          "type": "address"
        },
        {
          "internalType": "uint256",
          "name": "eta",
          "type": "uint256"
        },
        {
          "internalType": "uint256",
          "name": "startBlock",
          "type": "uint256"
        },
        {
          "internalType": "uint256",
          "name": "endBlock",
          "type": "uint256"
        },
        {
          "internalType": "uint256",
          "name": "forVotes",
          "type": "uint256"
        },
        {
          "internalType": "uint256",
          "name": "againstVotes",
          "type": "uint256"
        },
        {
          "internalType": "bool",
          "name": "canceled",
          "type": "bool"
        },
        {
          "internalType": "bool",
          "name": "executed",
          "type": "bool"
        },
        {
          "components": [
            {
              "internalType": "string",
              "name": "title",
              "type": "string"
            },
            {
              "internalType": "string",
              "name": "typeOfAction",
              "type": "string"
            },
            {
              "internalType": "string",
              "name": "neighborhood",
              "type": "string"
            },
            {
              "internalType": "string",
              "name": "personInCharge",
              "type": "string"
            },
            {
              "internalType": "string",
              "name": "description",
              "type": "string"
            },
            {
              "internalType": "uint256",
              "name": "expiration",
              "type": "uint256"
            },
            {
              "internalType": "uint256",
              "name": "budget",
              "type": "uint256"
            },
            {
              "internalType": "uint256",
              "name": "requiredTaroToVote",
              "type": "uint256"
            },
            {
              "internalType": "uint256",
              "name": "proposalTime",
              "type": "uint256"
            },
            {
              "internalType": "address",
              "name": "proposer",
              "type": "address"
            }
          ],
          "internalType": "struct GovernorAlpha.UserInputFields",
          "name": "userInputFields",
          "type": "tuple"
        }
      ],
      "payable": false,
      "stateMutability": "view",
      "type": "function"
    },
    {
      "constant": false,
      "inputs": [
        {
          "components": [
            {
              "internalType": "string",
              "name": "title",
              "type": "string"
            },
            {
              "internalType": "string",
              "name": "typeOfAction",
              "type": "string"
            },
            {
              "internalType": "string",
              "name": "neighborhood",
              "type": "string"
            },
            {
              "internalType": "string",
              "name": "personInCharge",
              "type": "string"
            },
            {
              "internalType": "string",
              "name": "description",
              "type": "string"
            },
            {
              "internalType": "uint256",
              "name": "expiration",
              "type": "uint256"
            },
            {
              "internalType": "uint256",
              "name": "budget",
              "type": "uint256"
            },
            {
              "internalType": "uint256",
              "name": "requiredTaroToVote",
              "type": "uint256"
            },
            {
              "internalType": "uint256",
              "name": "proposalTime",
              "type": "uint256"
            },
            {
              "internalType": "address",
              "name": "proposer",
              "type": "address"
            }
          ],
          "internalType": "struct GovernorAlpha.UserInputFields",
          "name": "_userInputFields",
          "type": "tuple"
        }
      ],
      "name": "propose",
      "outputs": [
        {
          "internalType": "uint256",
          "name": "",
          "type": "uint256"
        }
      ],
      "payable": false,
      "stateMutability": "nonpayable",
      "type": "function"
    },
    {
      "constant": true,
      "inputs": [],
      "name": "taro",
      "outputs": [
        {
          "internalType": "contract TaroInterface",
          "name": "",
          "type": "address"
        }
      ],
      "payable": false,
      "stateMutability": "view",
      "type": "function"
    },
    {
      "constant": true,
      "inputs": [
        {
          "internalType": "address",
          "name": "",
          "type": "address"
        }
      ],
      "name": "userProposals",
      "outputs": [
        {
          "internalType": "uint256",
          "name": "count",
          "type": "uint256"
        }
      ],
      "payable": false,
      "stateMutability": "view",
      "type": "function"
    },
    {
      "constant": false,
      "inputs": [
        {
          "internalType": "uint256",
          "name": "_rewardedTokens",
          "type": "uint256"
        }
      ],
      "name": "validate",
      "outputs": [
        {
          "internalType": "uint256",
          "name": "",
          "type": "uint256"
        }
      ],
      "payable": false,
      "stateMutability": "nonpayable",
      "type": "function"
    },
    {
      "constant": true,
      "inputs": [
        {
          "internalType": "address",
          "name": "",
          "type": "address"
        }
      ],
      "name": "validations",
      "outputs": [
        {
          "internalType": "uint256",
          "name": "expirationTime",
          "type": "uint256"
        }
      ],
      "payable": false,
      "stateMutability": "view",
      "type": "function"
    },
    {
      "constant": true,
      "inputs": [],
      "name": "votingDelay",
      "outputs": [
        {
          "internalType": "uint256",
          "name": "",
          "type": "uint256"
        }
      ],
      "payable": false,
      "stateMutability": "pure",
      "type": "function"
    },
    {
      "constant": true,
      "inputs": [],
      "name": "votingPeriod",
      "outputs": [
        {
          "internalType": "uint256",
          "name": "",
          "type": "uint256"
        }
      ],
      "payable": false,
      "stateMutability": "pure",
      "type": "function"
    }
  ],
  "bytecode": "0x60806040523480156200001157600080fd5b506040516200231538038062002315833981810160405262000037919081019062000095565b806000806101000a81548173ffffffffffffffffffffffffffffffffffffffff021916908373ffffffffffffffffffffffffffffffffffffffff160217905550506200010f565b6000815190506200008f81620000f5565b92915050565b600060208284031215620000a857600080fd5b6000620000b8848285016200007e565b91505092915050565b6000620000ce82620000d5565b9050919050565b600073ffffffffffffffffffffffffffffffffffffffff82169050919050565b6200010081620000c1565b81146200010c57600080fd5b50565b6121f6806200011f6000396000f3fe608060405234801561001057600080fd5b50600436106100f55760003560e01c806337d4e38611610097578063b55643e111610066578063b55643e1146102a6578063ce4d01a3146102d6578063da35c66414610306578063f715534514610324576100f5565b806337d4e3861461020a5780633932abb1146102285780635d129b85146102465780639b44388c14610276576100f5565b806315373e3d116100d357806315373e3d1461016f578063164b3d2f1461018b57806317977c61146101bb57806331bfb4ca146101eb576100f5565b8063013cf08b146100fa57806302a251a31461013357806306fdde0314610151575b600080fd5b610114600480360361010f91908101906118db565b610354565b60405161012a9a99989796959493929190611eeb565b60405180910390f35b61013b610795565b6040516101489190611ed0565b60405180910390f35b6101596107a0565b6040516101669190611e0e565b60405180910390f35b6101896004803603610184919081019061192d565b6107d9565b005b6101a560048036036101a091908101906118db565b6107e8565b6040516101b29190611dd8565b60405180910390f35b6101d560048036036101d0919081019061180c565b610808565b6040516101e29190611ed0565b60405180910390f35b6101f3610820565b604051610201929190611f8e565b60405180910390f35b61021261086f565b60405161021f9190611df3565b60405180910390f35b610230610894565b60405161023d9190611ed0565b60405180910390f35b610260600480360361025b9190810190611835565b61089d565b60405161026d9190611dd8565b60405180910390f35b610290600480360361028b919081019061189a565b610916565b60405161029d9190611ed0565b60405180910390f35b6102c060048036036102bb919081019061180c565b610e5a565b6040516102cd9190611ed0565b60405180910390f35b6102f060048036036102eb91908101906118db565b610e78565b6040516102fd9190611ed0565b60405180910390f35b61030e6110de565b60405161031b9190611ed0565b60405180910390f35b61033e6004803603610339919081019061180c565b6110e4565b60405161034b9190611ed0565b60405180910390f35b60026020528060005260406000206000915090508060000154908060010160009054906101000a900473ffffffffffffffffffffffffffffffffffffffff16908060020154908060030154908060040154908060050154908060060154908060070160009054906101000a900460ff16908060070160019054906101000a900460ff16908060080160405180610140016040529081600082018054600181600116156101000203166002900480601f0160208091040260200160405190810160405280929190818152602001828054600181600116156101000203166002900480156104815780601f1061045657610100808354040283529160200191610481565b820191906000526020600020905b81548152906001019060200180831161046457829003601f168201915b50505050508152602001600182018054600181600116156101000203166002900480601f0160208091040260200160405190810160405280929190818152602001828054600181600116156101000203166002900480156105235780601f106104f857610100808354040283529160200191610523565b820191906000526020600020905b81548152906001019060200180831161050657829003601f168201915b50505050508152602001600282018054600181600116156101000203166002900480601f0160208091040260200160405190810160405280929190818152602001828054600181600116156101000203166002900480156105c55780601f1061059a576101008083540402835291602001916105c5565b820191906000526020600020905b8154815290600101906020018083116105a857829003601f168201915b50505050508152602001600382018054600181600116156101000203166002900480601f0160208091040260200160405190810160405280929190818152602001828054600181600116156101000203166002900480156106675780601f1061063c57610100808354040283529160200191610667565b820191906000526020600020905b81548152906001019060200180831161064a57829003601f168201915b50505050508152602001600482018054600181600116156101000203166002900480601f0160208091040260200160405190810160405280929190818152602001828054600181600116156101000203166002900480156107095780601f106106de57610100808354040283529160200191610709565b820191906000526020600020905b8154815290600101906020018083116106ec57829003601f168201915b50505050508152602001600582015481526020016006820154815260200160078201548152602001600882015481526020016009820160009054906101000a900473ffffffffffffffffffffffffffffffffffffffff1673ffffffffffffffffffffffffffffffffffffffff1673ffffffffffffffffffffffffffffffffffffffff168152505090508a565b600062093a80905090565b6040518060400160405280601581526020017f566f5461726f20476f7665726e6f7220416c706861000000000000000000000081525081565b6107e4338383611102565b5050565b60046020528060005260406000206000915054906101000a900460ff1681565b60036020528060005260406000206000915090505481565b600080600560003373ffffffffffffffffffffffffffffffffffffffff1673ffffffffffffffffffffffffffffffffffffffff1681526020019081526020016000206000015442915091509091565b6000809054906101000a900473ffffffffffffffffffffffffffffffffffffffff1681565b60006001905090565b60008060026000848152602001908152602001600020905060008160120160008673ffffffffffffffffffffffffffffffffffffffff1673ffffffffffffffffffffffffffffffffffffffff16815260200190815260200160002090508060000160009054906101000a900460ff169250505092915050565b60008042600560003373ffffffffffffffffffffffffffffffffffffffff1673ffffffffffffffffffffffffffffffffffffffff16815260200190815260200160002060000154111561096c5760019050610971565b600090505b806109b1576040517f08c379a00000000000000000000000000000000000000000000000000000000081526004016109a890611e30565b60405180910390fd5b6005600660003373ffffffffffffffffffffffffffffffffffffffff1673ffffffffffffffffffffffffffffffffffffffff168152602001908152602001600020600001541015610b455760008060009054906101000a900473ffffffffffffffffffffffffffffffffffffffff1673ffffffffffffffffffffffffffffffffffffffff166323b872dd303360146040518463ffffffff1660e01b8152600401610a5d93929190611d25565b602060405180830381600087803b158015610a7757600080fd5b505af1158015610a8b573d6000803e3d6000fd5b505050506040513d601f19601f82011682018060405250610aaf9190810190611871565b905080610af1576040517f08c379a0000000000000000000000000000000000000000000000000000000008152600401610ae890611e90565b60405180910390fd5b600660003373ffffffffffffffffffffffffffffffffffffffff1673ffffffffffffffffffffffffffffffffffffffff16815260200190815260200160002060000160008154809291906001019190505550505b6000610b5842610b53610894565b61140f565b90506000610b6d82610b68610795565b61140f565b9050600160008154809291906001019190505550610b89611464565b60405180610140016040528060015481526020013373ffffffffffffffffffffffffffffffffffffffff1681526020016000815260200184815260200183815260200160008152602001600081526020016000151581526020016000151581526020018781525090508060026000836000015181526020019081526020016000206000820151816000015560208201518160010160006101000a81548173ffffffffffffffffffffffffffffffffffffffff021916908373ffffffffffffffffffffffffffffffffffffffff16021790555060408201518160020155606082015181600301556080820151816004015560a0820151816005015560c0820151816006015560e08201518160070160006101000a81548160ff0219169083151502179055506101008201518160070160016101000a81548160ff021916908315150217905550610120820151816008016000820151816000019080519060200190610cf49291906114d7565b506020820151816001019080519060200190610d119291906114d7565b506040820151816002019080519060200190610d2e9291906114d7565b506060820151816003019080519060200190610d4b9291906114d7565b506080820151816004019080519060200190610d689291906114d7565b5060a0820151816005015560c0820151816006015560e0820151816007015561010082015181600801556101208201518160090160006101000a81548173ffffffffffffffffffffffffffffffffffffffff021916908373ffffffffffffffffffffffffffffffffffffffff16021790555050509050506001600460008360000151815260200190815260200160002060006101000a81548160ff0219169083151502179055507fc2c021f5d73c63c481d336fbbafec58f694fc45095f00b02d2deb8cca59afe078160000151604051610e429190611ed0565b60405180910390a18060000151945050505050919050565b60066020528060005260406000206000915090508060000154905081565b600080600560003373ffffffffffffffffffffffffffffffffffffffff1673ffffffffffffffffffffffffffffffffffffffff16815260200190815260200160002060000154141561102257604051806020016040528062f0c8a04201815250600560003373ffffffffffffffffffffffffffffffffffffffff1673ffffffffffffffffffffffffffffffffffffffff1681526020019081526020016000206000820151816000015590505060008060009054906101000a900473ffffffffffffffffffffffffffffffffffffffff1673ffffffffffffffffffffffffffffffffffffffff166323b872dd3033866040518463ffffffff1660e01b8152600401610f8493929190611d5c565b602060405180830381600087803b158015610f9e57600080fd5b505af1158015610fb2573d6000803e3d6000fd5b505050506040513d601f19601f82011682018060405250610fd69190810190611871565b905080611018576040517f08c379a000000000000000000000000000000000000000000000000000000000815260040161100f90611e90565b60405180910390fd5b60009150506110d9565b42600560003373ffffffffffffffffffffffffffffffffffffffff1673ffffffffffffffffffffffffffffffffffffffff168152602001908152602001600020600001541061107457600190506110d9565b604051806020016040528062f0c8a04201815250600560003373ffffffffffffffffffffffffffffffffffffffff1673ffffffffffffffffffffffffffffffffffffffff16815260200190815260200160002060008201518160000155905050600290505b919050565b60015481565b60056020528060005260406000206000915090508060000154905081565b600060026000848152602001908152602001600020905060008160120160008673ffffffffffffffffffffffffffffffffffffffff1673ffffffffffffffffffffffffffffffffffffffff168152602001908152602001600020905081600401544211156111975760006004600086815260200190815260200160002060006101000a81548160ff0219169083151502179055505b600115156004600086815260200190815260200160002060009054906101000a900460ff161515146111fe576040517f08c379a00000000000000000000000000000000000000000000000000000000081526004016111f590611eb0565b60405180910390fd5b60008060009054906101000a900473ffffffffffffffffffffffffffffffffffffffff1673ffffffffffffffffffffffffffffffffffffffff166370a08231336040518263ffffffff1660e01b815260040161125a9190611d0a565b60206040518083038186803b15801561127257600080fd5b505afa158015611286573d6000803e3d6000fd5b505050506040513d601f19601f820116820180604052506112aa9190810190611904565b90506000819050600015158360000160009054906101000a900460ff16151514611309576040517f08c379a000000000000000000000000000000000000000000000000000000000815260040161130090611e50565b60405180910390fd5b84156113385761132b8460050154826bffffffffffffffffffffffff1661140f565b846005018190555061135d565b6113548460060154826bffffffffffffffffffffffff1661140f565b84600601819055505b60018360000160006101000a81548160ff021916908315150217905550848360000160016101000a81548160ff021916908315150217905550808360000160026101000a8154816bffffffffffffffffffffffff02191690836bffffffffffffffffffffffff1602179055507f877856338e13f63d0c36822ff0ef736b80934cd90574a3a5bc9262c39d217c46878787846040516113fe9493929190611d93565b60405180910390a150505050505050565b60008082840190508381101561145a576040517f08c379a000000000000000000000000000000000000000000000000000000000815260040161145190611e70565b60405180910390fd5b8091505092915050565b60405180610140016040528060008152602001600073ffffffffffffffffffffffffffffffffffffffff16815260200160008152602001600081526020016000815260200160008152602001600081526020016000151581526020016000151581526020016114d1611557565b81525090565b828054600181600116156101000203166002900490600052602060002090601f016020900481019282601f1061151857805160ff1916838001178555611546565b82800160010185558215611546579182015b8281111561154557825182559160200191906001019061152a565b5b50905061155391906115c0565b5090565b604051806101400160405280606081526020016060815260200160608152602001606081526020016060815260200160008152602001600081526020016000815260200160008152602001600073ffffffffffffffffffffffffffffffffffffffff1681525090565b6115e291905b808211156115de5760008160009055506001016115c6565b5090565b90565b6000813590506115f48161216e565b92915050565b60008135905061160981612185565b92915050565b60008151905061161e81612185565b92915050565b600082601f83011261163557600080fd5b813561164861164382611fe4565b611fb7565b9150808252602083016020830185838301111561166457600080fd5b61166f83828461211b565b50505092915050565b6000610140828403121561168b57600080fd5b611696610140611fb7565b9050600082013567ffffffffffffffff8111156116b257600080fd5b6116be84828501611624565b600083015250602082013567ffffffffffffffff8111156116de57600080fd5b6116ea84828501611624565b602083015250604082013567ffffffffffffffff81111561170a57600080fd5b61171684828501611624565b604083015250606082013567ffffffffffffffff81111561173657600080fd5b61174284828501611624565b606083015250608082013567ffffffffffffffff81111561176257600080fd5b61176e84828501611624565b60808301525060a0611782848285016117e2565b60a08301525060c0611796848285016117e2565b60c08301525060e06117aa848285016117e2565b60e0830152506101006117bf848285016117e2565b610100830152506101206117d5848285016115e5565b6101208301525092915050565b6000813590506117f18161219c565b92915050565b6000815190506118068161219c565b92915050565b60006020828403121561181e57600080fd5b600061182c848285016115e5565b91505092915050565b6000806040838503121561184857600080fd5b6000611856858286016115e5565b9250506020611867858286016117e2565b9150509250929050565b60006020828403121561188357600080fd5b60006118918482850161160f565b91505092915050565b6000602082840312156118ac57600080fd5b600082013567ffffffffffffffff8111156118c657600080fd5b6118d284828501611678565b91505092915050565b6000602082840312156118ed57600080fd5b60006118fb848285016117e2565b91505092915050565b60006020828403121561191657600080fd5b6000611924848285016117f7565b91505092915050565b6000806040838503121561194057600080fd5b600061194e858286016117e2565b925050602061195f858286016115fa565b9150509250929050565b6119728161209d565b82525050565b6119818161203d565b82525050565b6119908161203d565b82525050565b61199f8161204f565b82525050565b6119ae816120af565b82525050565b6119bd816120d3565b82525050565b60006119ce82612010565b6119d8818561201b565b93506119e881856020860161212a565b6119f18161215d565b840191505092915050565b6000611a0782612010565b611a11818561202c565b9350611a2181856020860161212a565b611a2a8161215d565b840191505092915050565b6000611a42601f8361202c565b91507f75736572206973206e6f742063757272656e746c792076616c696461746564006000830152602082019050919050565b6000611a82602d8361202c565b91507f476f7665726e6f72416c7068613a3a5f63617374566f74653a20766f7465722060008301527f616c726561647920766f746564000000000000000000000000000000000000006020830152604082019050919050565b6000611ae860118361202c565b91507f6164646974696f6e206f766572666c6f770000000000000000000000000000006000830152602082019050919050565b6000611b2860248361202c565b91507f546f6b656e73206e6f74207472616e7366657272656420746f206d73672e736560008301527f6e646572000000000000000000000000000000000000000000000000000000006020830152604082019050919050565b6000611b8e602a8361202c565b91507f476f7665726e6f72416c7068613a3a5f63617374566f74653a20766f74696e6760008301527f20697320636c6f736564000000000000000000000000000000000000000000006020830152604082019050919050565b6000610140830160008301518482036000860152611c0582826119c3565b91505060208301518482036020860152611c1f82826119c3565b91505060408301518482036040860152611c3982826119c3565b91505060608301518482036060860152611c5382826119c3565b91505060808301518482036080860152611c6d82826119c3565b91505060a0830151611c8260a0860182611cdd565b5060c0830151611c9560c0860182611cdd565b5060e0830151611ca860e0860182611cdd565b50610100830151611cbd610100860182611cdd565b50610120830151611cd2610120860182611978565b508091505092915050565b611ce68161207b565b82525050565b611cf58161207b565b82525050565b611d0481612109565b82525050565b6000602082019050611d1f6000830184611969565b92915050565b6000606082019050611d3a6000830186611987565b611d476020830185611969565b611d5460408301846119b4565b949350505050565b6000606082019050611d716000830186611987565b611d7e6020830185611969565b611d8b6040830184611cec565b949350505050565b6000608082019050611da86000830187611987565b611db56020830186611cec565b611dc26040830185611996565b611dcf6060830184611cfb565b95945050505050565b6000602082019050611ded6000830184611996565b92915050565b6000602082019050611e0860008301846119a5565b92915050565b60006020820190508181036000830152611e2881846119fc565b905092915050565b60006020820190508181036000830152611e4981611a35565b9050919050565b60006020820190508181036000830152611e6981611a75565b9050919050565b60006020820190508181036000830152611e8981611adb565b9050919050565b60006020820190508181036000830152611ea981611b1b565b9050919050565b60006020820190508181036000830152611ec981611b81565b9050919050565b6000602082019050611ee56000830184611cec565b92915050565b600061014082019050611f01600083018d611cec565b611f0e602083018c611987565b611f1b604083018b611cec565b611f28606083018a611cec565b611f356080830189611cec565b611f4260a0830188611cec565b611f4f60c0830187611cec565b611f5c60e0830186611996565b611f6a610100830185611996565b818103610120830152611f7d8184611be7565b90509b9a5050505050505050505050565b6000604082019050611fa36000830185611cec565b611fb06020830184611cec565b9392505050565b6000604051905081810181811067ffffffffffffffff82111715611fda57600080fd5b8060405250919050565b600067ffffffffffffffff821115611ffb57600080fd5b601f19601f8301169050602081019050919050565b600081519050919050565b600082825260208201905092915050565b600082825260208201905092915050565b60006120488261205b565b9050919050565b60008115159050919050565b600073ffffffffffffffffffffffffffffffffffffffff82169050919050565b6000819050919050565b60006bffffffffffffffffffffffff82169050919050565b60006120a8826120e5565b9050919050565b60006120ba826120c1565b9050919050565b60006120cc8261205b565b9050919050565b60006120de8261207b565b9050919050565b60006120f0826120f7565b9050919050565b60006121028261205b565b9050919050565b600061211482612085565b9050919050565b82818337600083830152505050565b60005b8381101561214857808201518184015260208101905061212d565b83811115612157576000848401525b50505050565b6000601f19601f8301169050919050565b6121778161203d565b811461218257600080fd5b50565b61218e8161204f565b811461219957600080fd5b50565b6121a58161207b565b81146121b057600080fd5b5056fea365627a7a723158201678119577d75715b19abf612fd66756c874dedab3ab989e6e2bf2fe48d1901c6c6578706572696d656e74616cf564736f6c63430005100040",
  "linkReferences": {},
  "deployedLinkReferences": {}
}