{
  "_format": "hh-sol-artifact-1",
  "contractName": "GovernorAlpha",
  "sourceName": "contracts/GovernorAlpha.sol",
  "abi": [
    {
      "inputs": [
        {
          "internalType": "address",
          "name": "timelock_",
          "type": "address"
        },
        {
          "internalType": "address",
          "name": "taro_",
          "type": "address"
        },
        {
          "internalType": "address",
          "name": "guardian_",
          "type": "address"
        }
      ],
      "payable": false,
      "stateMutability": "nonpayable",
      "type": "constructor"
    },
    {
      "anonymous": false,
      "inputs": [
        {
          "indexed": false,
          "internalType": "uint256",
          "name": "id",
          "type": "uint256"
        }
      ],
      "name": "ProposalCreated",
      "type": "event"
    },
    {
      "anonymous": false,
      "inputs": [
        {
          "indexed": false,
          "internalType": "uint256",
          "name": "timestamp",
          "type": "uint256"
        }
      ],
      "name": "ValidityStatus",
      "type": "event"
    },
    {
      "anonymous": false,
      "inputs": [
        {
          "indexed": false,
          "internalType": "address",
          "name": "voter",
          "type": "address"
        },
        {
          "indexed": false,
          "internalType": "uint256",
          "name": "proposalId",
          "type": "uint256"
        },
        {
          "indexed": false,
          "internalType": "bool",
          "name": "support",
          "type": "bool"
        },
        {
          "indexed": false,
          "internalType": "uint256",
          "name": "votes",
          "type": "uint256"
        }
      ],
      "name": "VoteCast",
      "type": "event"
    },
    {
      "constant": false,
      "inputs": [
        {
          "internalType": "uint256",
          "name": "proposalId",
          "type": "uint256"
        },
        {
          "internalType": "bool",
          "name": "support",
          "type": "bool"
        }
      ],
      "name": "castVote",
      "outputs": [],
      "payable": false,
      "stateMutability": "nonpayable",
      "type": "function"
    },
    {
      "constant": true,
      "inputs": [
        {
          "internalType": "address",
          "name": "_user",
          "type": "address"
        },
        {
          "internalType": "uint256",
          "name": "proposalId",
          "type": "uint256"
        }
      ],
      "name": "checkHasVoted",
      "outputs": [
        {
          "internalType": "bool",
          "name": "",
          "type": "bool"
        }
      ],
      "payable": false,
      "stateMutability": "view",
      "type": "function"
    },
    {
      "constant": true,
      "inputs": [],
      "name": "getValidityStatus",
      "outputs": [
        {
          "internalType": "uint256",
          "name": "",
          "type": "uint256"
        },
        {
          "internalType": "uint256",
          "name": "",
          "type": "uint256"
        }
      ],
      "payable": false,
      "stateMutability": "view",
      "type": "function"
    },
    {
      "constant": true,
      "inputs": [],
      "name": "guardian",
      "outputs": [
        {
          "internalType": "address",
          "name": "",
          "type": "address"
        }
      ],
      "payable": false,
      "stateMutability": "view",
      "type": "function"
    },
    {
      "constant": true,
      "inputs": [
        {
          "internalType": "uint256",
          "name": "",
          "type": "uint256"
        }
      ],
      "name": "isProposalActive",
      "outputs": [
        {
          "internalType": "bool",
          "name": "",
          "type": "bool"
        }
      ],
      "payable": false,
      "stateMutability": "view",
      "type": "function"
    },
    {
      "constant": true,
      "inputs": [
        {
          "internalType": "address",
          "name": "",
          "type": "address"
        }
      ],
      "name": "latestProposalIds",
      "outputs": [
        {
          "internalType": "uint256",
          "name": "",
          "type": "uint256"
        }
      ],
      "payable": false,
      "stateMutability": "view",
      "type": "function"
    },
    {
      "constant": true,
      "inputs": [],
      "name": "name",
      "outputs": [
        {
          "internalType": "string",
          "name": "",
          "type": "string"
        }
      ],
      "payable": false,
      "stateMutability": "view",
      "type": "function"
    },
    {
      "constant": true,
      "inputs": [],
      "name": "proposalCount",
      "outputs": [
        {
          "internalType": "uint256",
          "name": "",
          "type": "uint256"
        }
      ],
      "payable": false,
      "stateMutability": "view",
      "type": "function"
    },
    {
      "constant": true,
      "inputs": [],
      "name": "proposalThreshold",
      "outputs": [
        {
          "internalType": "uint256",
          "name": "",
          "type": "uint256"
        }
      ],
      "payable": false,
      "stateMutability": "pure",
      "type": "function"
    },
    {
      "constant": true,
      "inputs": [
        {
          "internalType": "uint256",
          "name": "",
          "type": "uint256"
        }
      ],
      "name": "proposals",
      "outputs": [
        {
          "internalType": "uint256",
          "name": "id",
          "type": "uint256"
        },
        {
          "internalType": "address",
          "name": "proposer",
          "type": "address"
        },
        {
          "internalType": "uint256",
          "name": "eta",
          "type": "uint256"
        },
        {
          "internalType": "uint256",
          "name": "startBlock",
          "type": "uint256"
        },
        {
          "internalType": "uint256",
          "name": "endBlock",
          "type": "uint256"
        },
        {
          "internalType": "uint256",
          "name": "forVotes",
          "type": "uint256"
        },
        {
          "internalType": "uint256",
          "name": "againstVotes",
          "type": "uint256"
        },
        {
          "internalType": "bool",
          "name": "canceled",
          "type": "bool"
        },
        {
          "internalType": "bool",
          "name": "executed",
          "type": "bool"
        },
        {
          "components": [
            {
              "internalType": "string",
              "name": "title",
              "type": "string"
            },
            {
              "internalType": "string",
              "name": "typeOfAction",
              "type": "string"
            },
            {
              "internalType": "string",
              "name": "neighborhood",
              "type": "string"
            },
            {
              "internalType": "string",
              "name": "personInCharge",
              "type": "string"
            },
            {
              "internalType": "string",
              "name": "description",
              "type": "string"
            },
            {
              "internalType": "uint256",
              "name": "expiration",
              "type": "uint256"
            },
            {
              "internalType": "uint256",
              "name": "budget",
              "type": "uint256"
            },
            {
              "internalType": "uint256",
              "name": "requiredTaroToVote",
              "type": "uint256"
            },
            {
              "internalType": "uint256",
              "name": "proposalTime",
              "type": "uint256"
            },
            {
              "internalType": "address",
              "name": "proposer",
              "type": "address"
            }
          ],
          "internalType": "struct GovernorAlpha.UserInputFields",
          "name": "userInputFields",
          "type": "tuple"
        }
      ],
      "payable": false,
      "stateMutability": "view",
      "type": "function"
    },
    {
      "constant": false,
      "inputs": [
        {
          "components": [
            {
              "internalType": "string",
              "name": "title",
              "type": "string"
            },
            {
              "internalType": "string",
              "name": "typeOfAction",
              "type": "string"
            },
            {
              "internalType": "string",
              "name": "neighborhood",
              "type": "string"
            },
            {
              "internalType": "string",
              "name": "personInCharge",
              "type": "string"
            },
            {
              "internalType": "string",
              "name": "description",
              "type": "string"
            },
            {
              "internalType": "uint256",
              "name": "expiration",
              "type": "uint256"
            },
            {
              "internalType": "uint256",
              "name": "budget",
              "type": "uint256"
            },
            {
              "internalType": "uint256",
              "name": "requiredTaroToVote",
              "type": "uint256"
            },
            {
              "internalType": "uint256",
              "name": "proposalTime",
              "type": "uint256"
            },
            {
              "internalType": "address",
              "name": "proposer",
              "type": "address"
            }
          ],
          "internalType": "struct GovernorAlpha.UserInputFields",
          "name": "_userInputFields",
          "type": "tuple"
        }
      ],
      "name": "propose",
      "outputs": [
        {
          "internalType": "uint256",
          "name": "",
          "type": "uint256"
        }
      ],
      "payable": false,
      "stateMutability": "nonpayable",
      "type": "function"
    },
    {
      "constant": true,
      "inputs": [],
      "name": "taro",
      "outputs": [
        {
          "internalType": "contract TaroInterface",
          "name": "",
          "type": "address"
        }
      ],
      "payable": false,
      "stateMutability": "view",
      "type": "function"
    },
    {
      "constant": true,
      "inputs": [],
      "name": "timelock",
      "outputs": [
        {
          "internalType": "contract TimelockInterface",
          "name": "",
          "type": "address"
        }
      ],
      "payable": false,
      "stateMutability": "view",
      "type": "function"
    },
    {
      "constant": true,
      "inputs": [
        {
          "internalType": "address",
          "name": "",
          "type": "address"
        }
      ],
      "name": "userProposals",
      "outputs": [
        {
          "internalType": "uint256",
          "name": "count",
          "type": "uint256"
        }
      ],
      "payable": false,
      "stateMutability": "view",
      "type": "function"
    },
    {
      "constant": false,
      "inputs": [
        {
          "internalType": "uint256",
          "name": "_rewardedTokens",
          "type": "uint256"
        }
      ],
      "name": "validate",
      "outputs": [
        {
          "internalType": "uint256",
          "name": "",
          "type": "uint256"
        }
      ],
      "payable": false,
      "stateMutability": "nonpayable",
      "type": "function"
    },
    {
      "constant": true,
      "inputs": [
        {
          "internalType": "address",
          "name": "",
          "type": "address"
        }
      ],
      "name": "validations",
      "outputs": [
        {
          "internalType": "uint256",
          "name": "expirationTime",
          "type": "uint256"
        }
      ],
      "payable": false,
      "stateMutability": "view",
      "type": "function"
    },
    {
      "constant": true,
      "inputs": [],
      "name": "votingDelay",
      "outputs": [
        {
          "internalType": "uint256",
          "name": "",
          "type": "uint256"
        }
      ],
      "payable": false,
      "stateMutability": "pure",
      "type": "function"
    },
    {
      "constant": true,
      "inputs": [],
      "name": "votingPeriod",
      "outputs": [
        {
          "internalType": "uint256",
          "name": "",
          "type": "uint256"
        }
      ],
      "payable": false,
      "stateMutability": "pure",
      "type": "function"
    }
  ],
  "bytecode": "0x60806040523480156200001157600080fd5b50604051620024cd380380620024cd833981810160405262000037919081019062000119565b826000806101000a81548173ffffffffffffffffffffffffffffffffffffffff021916908373ffffffffffffffffffffffffffffffffffffffff16021790555081600160006101000a81548173ffffffffffffffffffffffffffffffffffffffff021916908373ffffffffffffffffffffffffffffffffffffffff16021790555080600260006101000a81548173ffffffffffffffffffffffffffffffffffffffff021916908373ffffffffffffffffffffffffffffffffffffffff160217905550505050620001bd565b6000815190506200011381620001a3565b92915050565b6000806000606084860312156200012f57600080fd5b60006200013f8682870162000102565b9350506020620001528682870162000102565b9250506040620001658682870162000102565b9150509250925092565b60006200017c8262000183565b9050919050565b600073ffffffffffffffffffffffffffffffffffffffff82169050919050565b620001ae816200016f565b8114620001ba57600080fd5b50565b61230080620001cd6000396000f3fe608060405234801561001057600080fd5b50600436106101165760003560e01c8063452a9320116100a2578063b58131b011610071578063b58131b014610315578063ce4d01a314610333578063d33219b414610363578063da35c66414610381578063f71553451461039f57610116565b8063452a9320146102675780635d129b85146102855780639b44388c146102b5578063b55643e1146102e557610116565b8063164b3d2f116100e9578063164b3d2f146101ac57806317977c61146101dc57806331bfb4ca1461020c57806337d4e3861461022b5780633932abb11461024957610116565b8063013cf08b1461011b57806302a251a31461015457806306fdde031461017257806315373e3d14610190575b600080fd5b6101356004803603610130919081019061197c565b6103cf565b60405161014b9a99989796959493929190611fd1565b60405180910390f35b61015c610810565b6040516101699190611fb6565b60405180910390f35b61017a610819565b6040516101879190611ef4565b60405180910390f35b6101aa60048036036101a591908101906119ce565b610852565b005b6101c660048036036101c1919081019061197c565b610861565b6040516101d39190611ea3565b60405180910390f35b6101f660048036036101f191908101906118ad565b610881565b6040516102039190611fb6565b60405180910390f35b610214610899565b604051610222929190612074565b60405180910390f35b6102336108e8565b6040516102409190611ebe565b60405180910390f35b61025161090e565b60405161025e9190611fb6565b60405180910390f35b61026f610917565b60405161027c9190611dba565b60405180910390f35b61029f600480360361029a91908101906118d6565b61093d565b6040516102ac9190611ea3565b60405180910390f35b6102cf60048036036102ca919081019061193b565b6109b6565b6040516102dc9190611fb6565b60405180910390f35b6102ff60048036036102fa91908101906118ad565b610efb565b60405161030c9190611fb6565b60405180910390f35b61031d610f19565b60405161032a9190611fb6565b60405180910390f35b61034d6004803603610348919081019061197c565b610f2b565b60405161035a9190611fb6565b60405180910390f35b61036b611192565b6040516103789190611ed9565b60405180910390f35b6103896111b7565b6040516103969190611fb6565b60405180910390f35b6103b960048036036103b491908101906118ad565b6111bd565b6040516103c69190611fb6565b60405180910390f35b60046020528060005260406000206000915090508060000154908060010160009054906101000a900473ffffffffffffffffffffffffffffffffffffffff16908060020154908060030154908060040154908060050154908060060154908060070160009054906101000a900460ff16908060070160019054906101000a900460ff16908060080160405180610140016040529081600082018054600181600116156101000203166002900480601f0160208091040260200160405190810160405280929190818152602001828054600181600116156101000203166002900480156104fc5780601f106104d1576101008083540402835291602001916104fc565b820191906000526020600020905b8154815290600101906020018083116104df57829003601f168201915b50505050508152602001600182018054600181600116156101000203166002900480601f01602080910402602001604051908101604052809291908181526020018280546001816001161561010002031660029004801561059e5780601f106105735761010080835404028352916020019161059e565b820191906000526020600020905b81548152906001019060200180831161058157829003601f168201915b50505050508152602001600282018054600181600116156101000203166002900480601f0160208091040260200160405190810160405280929190818152602001828054600181600116156101000203166002900480156106405780601f1061061557610100808354040283529160200191610640565b820191906000526020600020905b81548152906001019060200180831161062357829003601f168201915b50505050508152602001600382018054600181600116156101000203166002900480601f0160208091040260200160405190810160405280929190818152602001828054600181600116156101000203166002900480156106e25780601f106106b7576101008083540402835291602001916106e2565b820191906000526020600020905b8154815290600101906020018083116106c557829003601f168201915b50505050508152602001600482018054600181600116156101000203166002900480601f0160208091040260200160405190810160405280929190818152602001828054600181600116156101000203166002900480156107845780601f1061075957610100808354040283529160200191610784565b820191906000526020600020905b81548152906001019060200180831161076757829003601f168201915b50505050508152602001600582015481526020016006820154815260200160078201548152602001600882015481526020016009820160009054906101000a900473ffffffffffffffffffffffffffffffffffffffff1673ffffffffffffffffffffffffffffffffffffffff1673ffffffffffffffffffffffffffffffffffffffff168152505090508a565b60006008905090565b6040518060400160405280601581526020017f566f5461726f20476f7665726e6f7220416c706861000000000000000000000081525081565b61085d3383836111db565b5050565b60066020528060005260406000206000915054906101000a900460ff1681565b60056020528060005260406000206000915090505481565b600080600760003373ffffffffffffffffffffffffffffffffffffffff1673ffffffffffffffffffffffffffffffffffffffff1681526020019081526020016000206000015442915091509091565b600160009054906101000a900473ffffffffffffffffffffffffffffffffffffffff1681565b60006001905090565b600260009054906101000a900473ffffffffffffffffffffffffffffffffffffffff1681565b60008060046000848152602001908152602001600020905060008160120160008673ffffffffffffffffffffffffffffffffffffffff1673ffffffffffffffffffffffffffffffffffffffff16815260200190815260200160002090508060000160009054906101000a900460ff169250505092915050565b60008042600760003373ffffffffffffffffffffffffffffffffffffffff1673ffffffffffffffffffffffffffffffffffffffff168152602001908152602001600020600001541115610a0c5760019050610a11565b600090505b80610a51576040517f08c379a0000000000000000000000000000000000000000000000000000000008152600401610a4890611f16565b60405180910390fd5b6005600860003373ffffffffffffffffffffffffffffffffffffffff1673ffffffffffffffffffffffffffffffffffffffff168152602001908152602001600020600001541015610be6576000600160009054906101000a900473ffffffffffffffffffffffffffffffffffffffff1673ffffffffffffffffffffffffffffffffffffffff166323b872dd303360146040518463ffffffff1660e01b8152600401610afe93929190611df0565b602060405180830381600087803b158015610b1857600080fd5b505af1158015610b2c573d6000803e3d6000fd5b505050506040513d601f19601f82011682018060405250610b509190810190611912565b905080610b92576040517f08c379a0000000000000000000000000000000000000000000000000000000008152600401610b8990611f76565b60405180910390fd5b600860003373ffffffffffffffffffffffffffffffffffffffff1673ffffffffffffffffffffffffffffffffffffffff16815260200190815260200160002060000160008154809291906001019190505550505b6000610bf943610bf461090e565b6114b0565b90506000610c0e82610c09610810565b6114b0565b9050600360008154809291906001019190505550610c2a611505565b60405180610140016040528060035481526020013373ffffffffffffffffffffffffffffffffffffffff1681526020016000815260200184815260200183815260200160008152602001600081526020016000151581526020016000151581526020018781525090508060046000836000015181526020019081526020016000206000820151816000015560208201518160010160006101000a81548173ffffffffffffffffffffffffffffffffffffffff021916908373ffffffffffffffffffffffffffffffffffffffff16021790555060408201518160020155606082015181600301556080820151816004015560a0820151816005015560c0820151816006015560e08201518160070160006101000a81548160ff0219169083151502179055506101008201518160070160016101000a81548160ff021916908315150217905550610120820151816008016000820151816000019080519060200190610d95929190611578565b506020820151816001019080519060200190610db2929190611578565b506040820151816002019080519060200190610dcf929190611578565b506060820151816003019080519060200190610dec929190611578565b506080820151816004019080519060200190610e09929190611578565b5060a0820151816005015560c0820151816006015560e0820151816007015561010082015181600801556101208201518160090160006101000a81548173ffffffffffffffffffffffffffffffffffffffff021916908373ffffffffffffffffffffffffffffffffffffffff16021790555050509050506001600660008360000151815260200190815260200160002060006101000a81548160ff0219169083151502179055507fc2c021f5d73c63c481d336fbbafec58f694fc45095f00b02d2deb8cca59afe078160000151604051610ee39190611fb6565b60405180910390a18060000151945050505050919050565b60086020528060005260406000206000915090508060000154905081565b600069152d02c7e14af6800000905090565b600080600760003373ffffffffffffffffffffffffffffffffffffffff1673ffffffffffffffffffffffffffffffffffffffff1681526020019081526020016000206000015414156110d657604051806020016040528062f0c8a04201815250600760003373ffffffffffffffffffffffffffffffffffffffff1673ffffffffffffffffffffffffffffffffffffffff168152602001908152602001600020600082015181600001559050506000600160009054906101000a900473ffffffffffffffffffffffffffffffffffffffff1673ffffffffffffffffffffffffffffffffffffffff166323b872dd3033866040518463ffffffff1660e01b815260040161103893929190611e27565b602060405180830381600087803b15801561105257600080fd5b505af1158015611066573d6000803e3d6000fd5b505050506040513d601f19601f8201168201806040525061108a9190810190611912565b9050806110cc576040517f08c379a00000000000000000000000000000000000000000000000000000000081526004016110c390611f76565b60405180910390fd5b600091505061118d565b42600760003373ffffffffffffffffffffffffffffffffffffffff1673ffffffffffffffffffffffffffffffffffffffff1681526020019081526020016000206000015410611128576001905061118d565b604051806020016040528062f0c8a04201815250600760003373ffffffffffffffffffffffffffffffffffffffff1673ffffffffffffffffffffffffffffffffffffffff16815260200190815260200160002060008201518160000155905050600290505b919050565b6000809054906101000a900473ffffffffffffffffffffffffffffffffffffffff1681565b60035481565b60076020528060005260406000206000915090508060000154905081565b600115156006600084815260200190815260200160002060009054906101000a900460ff16151514611242576040517f08c379a000000000000000000000000000000000000000000000000000000000815260040161123990611f96565b60405180910390fd5b600060046000848152602001908152602001600020905060008160120160008673ffffffffffffffffffffffffffffffffffffffff1673ffffffffffffffffffffffffffffffffffffffff16815260200190815260200160002090506000600160009054906101000a900473ffffffffffffffffffffffffffffffffffffffff1673ffffffffffffffffffffffffffffffffffffffff166370a08231336040518263ffffffff1660e01b81526004016112fb9190611dd5565b60206040518083038186803b15801561131357600080fd5b505afa158015611327573d6000803e3d6000fd5b505050506040513d601f19601f8201168201806040525061134b91908101906119a5565b90506000819050600015158360000160009054906101000a900460ff161515146113aa576040517f08c379a00000000000000000000000000000000000000000000000000000000081526004016113a190611f36565b60405180910390fd5b84156113d9576113cc8460050154826bffffffffffffffffffffffff166114b0565b84600501819055506113fe565b6113f58460060154826bffffffffffffffffffffffff166114b0565b84600601819055505b60018360000160006101000a81548160ff021916908315150217905550848360000160016101000a81548160ff021916908315150217905550808360000160026101000a8154816bffffffffffffffffffffffff02191690836bffffffffffffffffffffffff1602179055507f877856338e13f63d0c36822ff0ef736b80934cd90574a3a5bc9262c39d217c468787878460405161149f9493929190611e5e565b60405180910390a150505050505050565b6000808284019050838110156114fb576040517f08c379a00000000000000000000000000000000000000000000000000000000081526004016114f290611f56565b60405180910390fd5b8091505092915050565b60405180610140016040528060008152602001600073ffffffffffffffffffffffffffffffffffffffff16815260200160008152602001600081526020016000815260200160008152602001600081526020016000151581526020016000151581526020016115726115f8565b81525090565b828054600181600116156101000203166002900490600052602060002090601f016020900481019282601f106115b957805160ff19168380011785556115e7565b828001600101855582156115e7579182015b828111156115e65782518255916020019190600101906115cb565b5b5090506115f49190611661565b5090565b604051806101400160405280606081526020016060815260200160608152602001606081526020016060815260200160008152602001600081526020016000815260200160008152602001600073ffffffffffffffffffffffffffffffffffffffff1681525090565b61168391905b8082111561167f576000816000905550600101611667565b5090565b90565b60008135905061169581612278565b92915050565b6000813590506116aa8161228f565b92915050565b6000815190506116bf8161228f565b92915050565b600082601f8301126116d657600080fd5b81356116e96116e4826120ca565b61209d565b9150808252602083016020830185838301111561170557600080fd5b611710838284612225565b50505092915050565b6000610140828403121561172c57600080fd5b61173761014061209d565b9050600082013567ffffffffffffffff81111561175357600080fd5b61175f848285016116c5565b600083015250602082013567ffffffffffffffff81111561177f57600080fd5b61178b848285016116c5565b602083015250604082013567ffffffffffffffff8111156117ab57600080fd5b6117b7848285016116c5565b604083015250606082013567ffffffffffffffff8111156117d757600080fd5b6117e3848285016116c5565b606083015250608082013567ffffffffffffffff81111561180357600080fd5b61180f848285016116c5565b60808301525060a061182384828501611883565b60a08301525060c061183784828501611883565b60c08301525060e061184b84828501611883565b60e08301525061010061186084828501611883565b6101008301525061012061187684828501611686565b6101208301525092915050565b600081359050611892816122a6565b92915050565b6000815190506118a7816122a6565b92915050565b6000602082840312156118bf57600080fd5b60006118cd84828501611686565b91505092915050565b600080604083850312156118e957600080fd5b60006118f785828601611686565b925050602061190885828601611883565b9150509250929050565b60006020828403121561192457600080fd5b6000611932848285016116b0565b91505092915050565b60006020828403121561194d57600080fd5b600082013567ffffffffffffffff81111561196757600080fd5b61197384828501611719565b91505092915050565b60006020828403121561198e57600080fd5b600061199c84828501611883565b91505092915050565b6000602082840312156119b757600080fd5b60006119c584828501611898565b91505092915050565b600080604083850312156119e157600080fd5b60006119ef85828601611883565b9250506020611a008582860161169b565b9150509250929050565b611a1381612183565b82525050565b611a2281612123565b82525050565b611a3181612123565b82525050565b611a4081612135565b82525050565b611a4f81612195565b82525050565b611a5e816121b9565b82525050565b611a6d816121dd565b82525050565b6000611a7e826120f6565b611a888185612101565b9350611a98818560208601612234565b611aa181612267565b840191505092915050565b6000611ab7826120f6565b611ac18185612112565b9350611ad1818560208601612234565b611ada81612267565b840191505092915050565b6000611af2601f83612112565b91507f75736572206973206e6f742063757272656e746c792076616c696461746564006000830152602082019050919050565b6000611b32602d83612112565b91507f476f7665726e6f72416c7068613a3a5f63617374566f74653a20766f7465722060008301527f616c726561647920766f746564000000000000000000000000000000000000006020830152604082019050919050565b6000611b98601183612112565b91507f6164646974696f6e206f766572666c6f770000000000000000000000000000006000830152602082019050919050565b6000611bd8602483612112565b91507f546f6b656e73206e6f74207472616e7366657272656420746f206d73672e736560008301527f6e646572000000000000000000000000000000000000000000000000000000006020830152604082019050919050565b6000611c3e602a83612112565b91507f476f7665726e6f72416c7068613a3a5f63617374566f74653a20766f74696e6760008301527f20697320636c6f736564000000000000000000000000000000000000000000006020830152604082019050919050565b6000610140830160008301518482036000860152611cb58282611a73565b91505060208301518482036020860152611ccf8282611a73565b91505060408301518482036040860152611ce98282611a73565b91505060608301518482036060860152611d038282611a73565b91505060808301518482036080860152611d1d8282611a73565b91505060a0830151611d3260a0860182611d8d565b5060c0830151611d4560c0860182611d8d565b5060e0830151611d5860e0860182611d8d565b50610100830151611d6d610100860182611d8d565b50610120830151611d82610120860182611a19565b508091505092915050565b611d9681612161565b82525050565b611da581612161565b82525050565b611db481612213565b82525050565b6000602082019050611dcf6000830184611a28565b92915050565b6000602082019050611dea6000830184611a0a565b92915050565b6000606082019050611e056000830186611a28565b611e126020830185611a0a565b611e1f6040830184611a64565b949350505050565b6000606082019050611e3c6000830186611a28565b611e496020830185611a0a565b611e566040830184611d9c565b949350505050565b6000608082019050611e736000830187611a28565b611e806020830186611d9c565b611e8d6040830185611a37565b611e9a6060830184611dab565b95945050505050565b6000602082019050611eb86000830184611a37565b92915050565b6000602082019050611ed36000830184611a46565b92915050565b6000602082019050611eee6000830184611a55565b92915050565b60006020820190508181036000830152611f0e8184611aac565b905092915050565b60006020820190508181036000830152611f2f81611ae5565b9050919050565b60006020820190508181036000830152611f4f81611b25565b9050919050565b60006020820190508181036000830152611f6f81611b8b565b9050919050565b60006020820190508181036000830152611f8f81611bcb565b9050919050565b60006020820190508181036000830152611faf81611c31565b9050919050565b6000602082019050611fcb6000830184611d9c565b92915050565b600061014082019050611fe7600083018d611d9c565b611ff4602083018c611a28565b612001604083018b611d9c565b61200e606083018a611d9c565b61201b6080830189611d9c565b61202860a0830188611d9c565b61203560c0830187611d9c565b61204260e0830186611a37565b612050610100830185611a37565b8181036101208301526120638184611c97565b90509b9a5050505050505050505050565b60006040820190506120896000830185611d9c565b6120966020830184611d9c565b9392505050565b6000604051905081810181811067ffffffffffffffff821117156120c057600080fd5b8060405250919050565b600067ffffffffffffffff8211156120e157600080fd5b601f19601f8301169050602081019050919050565b600081519050919050565b600082825260208201905092915050565b600082825260208201905092915050565b600061212e82612141565b9050919050565b60008115159050919050565b600073ffffffffffffffffffffffffffffffffffffffff82169050919050565b6000819050919050565b60006bffffffffffffffffffffffff82169050919050565b600061218e826121ef565b9050919050565b60006121a0826121a7565b9050919050565b60006121b282612141565b9050919050565b60006121c4826121cb565b9050919050565b60006121d682612141565b9050919050565b60006121e882612161565b9050919050565b60006121fa82612201565b9050919050565b600061220c82612141565b9050919050565b600061221e8261216b565b9050919050565b82818337600083830152505050565b60005b83811015612252578082015181840152602081019050612237565b83811115612261576000848401525b50505050565b6000601f19601f8301169050919050565b61228181612123565b811461228c57600080fd5b50565b61229881612135565b81146122a357600080fd5b50565b6122af81612161565b81146122ba57600080fd5b5056fea365627a7a72315820a5b73d98bba8bbd6c9e35483c68ff5bf907adc60ceb52f77d12c1d731aa5a5366c6578706572696d656e74616cf564736f6c63430005100040",
  "linkReferences": {},
  "deployedLinkReferences": {}
}