{
  "_format": "hh-sol-artifact-1",
  "contractName": "GovernorAlpha",
  "sourceName": "contracts/GovernorAlpha.sol",
  "abi": [
    {
      "inputs": [
        {
          "internalType": "address",
          "name": "timelock_",
          "type": "address"
        },
        {
          "internalType": "address",
          "name": "taro_",
          "type": "address"
        },
        {
          "internalType": "address",
          "name": "guardian_",
          "type": "address"
        }
      ],
      "payable": false,
      "stateMutability": "nonpayable",
      "type": "constructor"
    },
    {
      "anonymous": false,
      "inputs": [
        {
          "indexed": false,
          "internalType": "uint256",
          "name": "id",
          "type": "uint256"
        }
      ],
      "name": "ProposalCreated",
      "type": "event"
    },
    {
      "anonymous": false,
      "inputs": [
        {
          "indexed": false,
          "internalType": "uint256",
          "name": "timestamp",
          "type": "uint256"
        }
      ],
      "name": "ValidityStatus",
      "type": "event"
    },
    {
      "anonymous": false,
      "inputs": [
        {
          "indexed": false,
          "internalType": "address",
          "name": "voter",
          "type": "address"
        },
        {
          "indexed": false,
          "internalType": "uint256",
          "name": "proposalId",
          "type": "uint256"
        },
        {
          "indexed": false,
          "internalType": "bool",
          "name": "support",
          "type": "bool"
        },
        {
          "indexed": false,
          "internalType": "uint256",
          "name": "votes",
          "type": "uint256"
        }
      ],
      "name": "VoteCast",
      "type": "event"
    },
    {
      "constant": false,
      "inputs": [
        {
          "internalType": "uint256",
          "name": "proposalId",
          "type": "uint256"
        },
        {
          "internalType": "bool",
          "name": "support",
          "type": "bool"
        }
      ],
      "name": "castVote",
      "outputs": [],
      "payable": false,
      "stateMutability": "nonpayable",
      "type": "function"
    },
    {
      "constant": true,
      "inputs": [],
      "name": "getValidityStatus",
      "outputs": [
        {
          "internalType": "uint256",
          "name": "",
          "type": "uint256"
        },
        {
          "internalType": "uint256",
          "name": "",
          "type": "uint256"
        }
      ],
      "payable": false,
      "stateMutability": "view",
      "type": "function"
    },
    {
      "constant": true,
      "inputs": [],
      "name": "guardian",
      "outputs": [
        {
          "internalType": "address",
          "name": "",
          "type": "address"
        }
      ],
      "payable": false,
      "stateMutability": "view",
      "type": "function"
    },
    {
      "constant": true,
      "inputs": [
        {
          "internalType": "uint256",
          "name": "",
          "type": "uint256"
        }
      ],
      "name": "isProposalActive",
      "outputs": [
        {
          "internalType": "bool",
          "name": "",
          "type": "bool"
        }
      ],
      "payable": false,
      "stateMutability": "view",
      "type": "function"
    },
    {
      "constant": true,
      "inputs": [
        {
          "internalType": "address",
          "name": "",
          "type": "address"
        }
      ],
      "name": "latestProposalIds",
      "outputs": [
        {
          "internalType": "uint256",
          "name": "",
          "type": "uint256"
        }
      ],
      "payable": false,
      "stateMutability": "view",
      "type": "function"
    },
    {
      "constant": true,
      "inputs": [],
      "name": "name",
      "outputs": [
        {
          "internalType": "string",
          "name": "",
          "type": "string"
        }
      ],
      "payable": false,
      "stateMutability": "view",
      "type": "function"
    },
    {
      "constant": true,
      "inputs": [],
      "name": "proposalCount",
      "outputs": [
        {
          "internalType": "uint256",
          "name": "",
          "type": "uint256"
        }
      ],
      "payable": false,
      "stateMutability": "view",
      "type": "function"
    },
    {
      "constant": true,
      "inputs": [],
      "name": "proposalThreshold",
      "outputs": [
        {
          "internalType": "uint256",
          "name": "",
          "type": "uint256"
        }
      ],
      "payable": false,
      "stateMutability": "pure",
      "type": "function"
    },
    {
      "constant": true,
      "inputs": [
        {
          "internalType": "uint256",
          "name": "",
          "type": "uint256"
        }
      ],
      "name": "proposals",
      "outputs": [
        {
          "internalType": "uint256",
          "name": "id",
          "type": "uint256"
        },
        {
          "internalType": "address",
          "name": "proposer",
          "type": "address"
        },
        {
          "internalType": "uint256",
          "name": "eta",
          "type": "uint256"
        },
        {
          "internalType": "uint256",
          "name": "startBlock",
          "type": "uint256"
        },
        {
          "internalType": "uint256",
          "name": "endBlock",
          "type": "uint256"
        },
        {
          "internalType": "uint256",
          "name": "forVotes",
          "type": "uint256"
        },
        {
          "internalType": "uint256",
          "name": "againstVotes",
          "type": "uint256"
        },
        {
          "internalType": "bool",
          "name": "canceled",
          "type": "bool"
        },
        {
          "internalType": "bool",
          "name": "executed",
          "type": "bool"
        },
        {
          "components": [
            {
              "internalType": "string",
              "name": "title",
              "type": "string"
            },
            {
              "internalType": "string",
              "name": "typeOfAction",
              "type": "string"
            },
            {
              "internalType": "string",
              "name": "neighborhood",
              "type": "string"
            },
            {
              "internalType": "string",
              "name": "personInCharge",
              "type": "string"
            },
            {
              "internalType": "string",
              "name": "description",
              "type": "string"
            },
            {
              "internalType": "uint256",
              "name": "expiration",
              "type": "uint256"
            },
            {
              "internalType": "uint256",
              "name": "budget",
              "type": "uint256"
            },
            {
              "internalType": "uint256",
              "name": "requiredTaroToVote",
              "type": "uint256"
            }
          ],
          "internalType": "struct GovernorAlpha.UserInputFields",
          "name": "userInputFields",
          "type": "tuple"
        }
      ],
      "payable": false,
      "stateMutability": "view",
      "type": "function"
    },
    {
      "constant": false,
      "inputs": [
        {
          "components": [
            {
              "internalType": "string",
              "name": "title",
              "type": "string"
            },
            {
              "internalType": "string",
              "name": "typeOfAction",
              "type": "string"
            },
            {
              "internalType": "string",
              "name": "neighborhood",
              "type": "string"
            },
            {
              "internalType": "string",
              "name": "personInCharge",
              "type": "string"
            },
            {
              "internalType": "string",
              "name": "description",
              "type": "string"
            },
            {
              "internalType": "uint256",
              "name": "expiration",
              "type": "uint256"
            },
            {
              "internalType": "uint256",
              "name": "budget",
              "type": "uint256"
            },
            {
              "internalType": "uint256",
              "name": "requiredTaroToVote",
              "type": "uint256"
            }
          ],
          "internalType": "struct GovernorAlpha.UserInputFields",
          "name": "_userInputFields",
          "type": "tuple"
        }
      ],
      "name": "propose",
      "outputs": [
        {
          "internalType": "uint256",
          "name": "",
          "type": "uint256"
        }
      ],
      "payable": false,
      "stateMutability": "nonpayable",
      "type": "function"
    },
    {
      "constant": true,
      "inputs": [],
      "name": "taro",
      "outputs": [
        {
          "internalType": "contract TaroInterface",
          "name": "",
          "type": "address"
        }
      ],
      "payable": false,
      "stateMutability": "view",
      "type": "function"
    },
    {
      "constant": true,
      "inputs": [],
      "name": "timelock",
      "outputs": [
        {
          "internalType": "contract TimelockInterface",
          "name": "",
          "type": "address"
        }
      ],
      "payable": false,
      "stateMutability": "view",
      "type": "function"
    },
    {
      "constant": true,
      "inputs": [
        {
          "internalType": "address",
          "name": "",
          "type": "address"
        }
      ],
      "name": "userProposals",
      "outputs": [
        {
          "internalType": "uint256",
          "name": "count",
          "type": "uint256"
        }
      ],
      "payable": false,
      "stateMutability": "view",
      "type": "function"
    },
    {
      "constant": false,
      "inputs": [
        {
          "internalType": "uint256",
          "name": "_rewardedTokens",
          "type": "uint256"
        }
      ],
      "name": "validate",
      "outputs": [
        {
          "internalType": "uint256",
          "name": "",
          "type": "uint256"
        }
      ],
      "payable": false,
      "stateMutability": "nonpayable",
      "type": "function"
    },
    {
      "constant": true,
      "inputs": [
        {
          "internalType": "address",
          "name": "",
          "type": "address"
        }
      ],
      "name": "validations",
      "outputs": [
        {
          "internalType": "uint256",
          "name": "expirationTime",
          "type": "uint256"
        }
      ],
      "payable": false,
      "stateMutability": "view",
      "type": "function"
    },
    {
      "constant": true,
      "inputs": [],
      "name": "votingDelay",
      "outputs": [
        {
          "internalType": "uint256",
          "name": "",
          "type": "uint256"
        }
      ],
      "payable": false,
      "stateMutability": "pure",
      "type": "function"
    },
    {
      "constant": true,
      "inputs": [],
      "name": "votingPeriod",
      "outputs": [
        {
          "internalType": "uint256",
          "name": "",
          "type": "uint256"
        }
      ],
      "payable": false,
      "stateMutability": "pure",
      "type": "function"
    }
  ],
  "bytecode": "0x60806040523480156200001157600080fd5b50604051620022c7380380620022c7833981810160405262000037919081019062000119565b826000806101000a81548173ffffffffffffffffffffffffffffffffffffffff021916908373ffffffffffffffffffffffffffffffffffffffff16021790555081600160006101000a81548173ffffffffffffffffffffffffffffffffffffffff021916908373ffffffffffffffffffffffffffffffffffffffff16021790555080600260006101000a81548173ffffffffffffffffffffffffffffffffffffffff021916908373ffffffffffffffffffffffffffffffffffffffff160217905550505050620001bd565b6000815190506200011381620001a3565b92915050565b6000806000606084860312156200012f57600080fd5b60006200013f8682870162000102565b9350506020620001528682870162000102565b9250506040620001658682870162000102565b9150509250925092565b60006200017c8262000183565b9050919050565b600073ffffffffffffffffffffffffffffffffffffffff82169050919050565b620001ae816200016f565b8114620001ba57600080fd5b50565b6120fa80620001cd6000396000f3fe608060405234801561001057600080fd5b506004361061010b5760003560e01c80633932abb1116100a2578063b58131b011610071578063b58131b0146102da578063ce4d01a3146102f8578063d33219b414610328578063da35c66414610346578063f7155345146103645761010b565b80633932abb11461023e578063452a93201461025c578063ab0fbf161461027a578063b55643e1146102aa5761010b565b8063164b3d2f116100de578063164b3d2f146101a157806317977c61146101d157806331bfb4ca1461020157806337d4e386146102205761010b565b8063013cf08b1461011057806302a251a31461014957806306fdde031461016757806315373e3d14610185575b600080fd5b61012a6004803603610125919081019061178a565b610394565b6040516101409a99989796959493929190611db4565b60405180910390f35b610151610775565b60405161015e9190611d99565b60405180910390f35b61016f61077f565b60405161017c9190611cd7565b60405180910390f35b61019f600480360361019a91908101906117b3565b6107b8565b005b6101bb60048036036101b6919081019061178a565b6107c7565b6040516101c89190611c86565b60405180910390f35b6101eb60048036036101e691908101906116f7565b6107e7565b6040516101f89190611d99565b60405180910390f35b6102096107ff565b604051610217929190611e57565b60405180910390f35b61022861084e565b6040516102359190611ca1565b60405180910390f35b610246610874565b6040516102539190611d99565b60405180910390f35b61026461087d565b6040516102719190611b8f565b60405180910390f35b610294600480360361028f9190810190611749565b6108a3565b6040516102a19190611d99565b60405180910390f35b6102c460048036036102bf91908101906116f7565b610d95565b6040516102d19190611d99565b60405180910390f35b6102e2610db3565b6040516102ef9190611d99565b60405180910390f35b610312600480360361030d919081019061178a565b610dc5565b60405161031f9190611d99565b60405180910390f35b61033061102c565b60405161033d9190611cbc565b60405180910390f35b61034e611051565b60405161035b9190611d99565b60405180910390f35b61037e600480360361037991908101906116f7565b611057565b60405161038b9190611d99565b60405180910390f35b60046020528060005260406000206000915090508060000154908060010160009054906101000a900473ffffffffffffffffffffffffffffffffffffffff16908060020154908060030154908060040154908060050154908060060154908060070160009054906101000a900460ff16908060070160019054906101000a900460ff16908060080160405180610100016040529081600082018054600181600116156101000203166002900480601f0160208091040260200160405190810160405280929190818152602001828054600181600116156101000203166002900480156104c15780601f10610496576101008083540402835291602001916104c1565b820191906000526020600020905b8154815290600101906020018083116104a457829003601f168201915b50505050508152602001600182018054600181600116156101000203166002900480601f0160208091040260200160405190810160405280929190818152602001828054600181600116156101000203166002900480156105635780601f1061053857610100808354040283529160200191610563565b820191906000526020600020905b81548152906001019060200180831161054657829003601f168201915b50505050508152602001600282018054600181600116156101000203166002900480601f0160208091040260200160405190810160405280929190818152602001828054600181600116156101000203166002900480156106055780601f106105da57610100808354040283529160200191610605565b820191906000526020600020905b8154815290600101906020018083116105e857829003601f168201915b50505050508152602001600382018054600181600116156101000203166002900480601f0160208091040260200160405190810160405280929190818152602001828054600181600116156101000203166002900480156106a75780601f1061067c576101008083540402835291602001916106a7565b820191906000526020600020905b81548152906001019060200180831161068a57829003601f168201915b50505050508152602001600482018054600181600116156101000203166002900480601f0160208091040260200160405190810160405280929190818152602001828054600181600116156101000203166002900480156107495780601f1061071e57610100808354040283529160200191610749565b820191906000526020600020905b81548152906001019060200180831161072c57829003601f168201915b50505050508152602001600582015481526020016006820154815260200160078201548152505090508a565b6000614380905090565b6040518060400160405280601581526020017f566f5461726f20476f7665726e6f7220416c706861000000000000000000000081525081565b6107c3338383611075565b5050565b60066020528060005260406000206000915054906101000a900460ff1681565b60056020528060005260406000206000915090505481565b600080600760003373ffffffffffffffffffffffffffffffffffffffff1673ffffffffffffffffffffffffffffffffffffffff1681526020019081526020016000206000015442915091509091565b600160009054906101000a900473ffffffffffffffffffffffffffffffffffffffff1681565b60006001905090565b600260009054906101000a900473ffffffffffffffffffffffffffffffffffffffff1681565b60008042600760003373ffffffffffffffffffffffffffffffffffffffff1673ffffffffffffffffffffffffffffffffffffffff1681526020019081526020016000206000015411156108f957600190506108fe565b600090505b8061093e576040517f08c379a000000000000000000000000000000000000000000000000000000000815260040161093590611cf9565b60405180910390fd5b6005600860003373ffffffffffffffffffffffffffffffffffffffff1673ffffffffffffffffffffffffffffffffffffffff168152602001908152602001600020600001541015610ad3576000600160009054906101000a900473ffffffffffffffffffffffffffffffffffffffff1673ffffffffffffffffffffffffffffffffffffffff166323b872dd303360146040518463ffffffff1660e01b81526004016109eb93929190611baa565b602060405180830381600087803b158015610a0557600080fd5b505af1158015610a19573d6000803e3d6000fd5b505050506040513d601f19601f82011682018060405250610a3d9190810190611720565b905080610a7f576040517f08c379a0000000000000000000000000000000000000000000000000000000008152600401610a7690611d59565b60405180910390fd5b600860003373ffffffffffffffffffffffffffffffffffffffff1673ffffffffffffffffffffffffffffffffffffffff16815260200190815260200160002060000160008154809291906001019190505550505b6000610ae643610ae1610874565b61134a565b90506000610afb82610af6610775565b61134a565b9050600360008154809291906001019190505550610b1761139f565b60405180610140016040528060035481526020013373ffffffffffffffffffffffffffffffffffffffff1681526020016000815260200184815260200183815260200160008152602001600081526020016000151581526020016000151581526020018781525090508060046000836000015181526020019081526020016000206000820151816000015560208201518160010160006101000a81548173ffffffffffffffffffffffffffffffffffffffff021916908373ffffffffffffffffffffffffffffffffffffffff16021790555060408201518160020155606082015181600301556080820151816004015560a0820151816005015560c0820151816006015560e08201518160070160006101000a81548160ff0219169083151502179055506101008201518160070160016101000a81548160ff021916908315150217905550610120820151816008016000820151816000019080519060200190610c82929190611412565b506020820151816001019080519060200190610c9f929190611412565b506040820151816002019080519060200190610cbc929190611412565b506060820151816003019080519060200190610cd9929190611412565b506080820151816004019080519060200190610cf6929190611412565b5060a0820151816005015560c0820151816006015560e0820151816007015550509050506001600660008360000151815260200190815260200160002060006101000a81548160ff0219169083151502179055507fc2c021f5d73c63c481d336fbbafec58f694fc45095f00b02d2deb8cca59afe078160000151604051610d7d9190611d99565b60405180910390a18060000151945050505050919050565b60086020528060005260406000206000915090508060000154905081565b600069152d02c7e14af6800000905090565b600080600760003373ffffffffffffffffffffffffffffffffffffffff1673ffffffffffffffffffffffffffffffffffffffff168152602001908152602001600020600001541415610f7057604051806020016040528062f0c8a04201815250600760003373ffffffffffffffffffffffffffffffffffffffff1673ffffffffffffffffffffffffffffffffffffffff168152602001908152602001600020600082015181600001559050506000600160009054906101000a900473ffffffffffffffffffffffffffffffffffffffff1673ffffffffffffffffffffffffffffffffffffffff166323b872dd3033866040518463ffffffff1660e01b8152600401610ed293929190611be1565b602060405180830381600087803b158015610eec57600080fd5b505af1158015610f00573d6000803e3d6000fd5b505050506040513d601f19601f82011682018060405250610f249190810190611720565b905080610f66576040517f08c379a0000000000000000000000000000000000000000000000000000000008152600401610f5d90611d59565b60405180910390fd5b6000915050611027565b42600760003373ffffffffffffffffffffffffffffffffffffffff1673ffffffffffffffffffffffffffffffffffffffff1681526020019081526020016000206000015410610fc25760019050611027565b604051806020016040528062f0c8a04201815250600760003373ffffffffffffffffffffffffffffffffffffffff1673ffffffffffffffffffffffffffffffffffffffff16815260200190815260200160002060008201518160000155905050600290505b919050565b6000809054906101000a900473ffffffffffffffffffffffffffffffffffffffff1681565b60035481565b60076020528060005260406000206000915090508060000154905081565b600115156006600084815260200190815260200160002060009054906101000a900460ff161515146110dc576040517f08c379a00000000000000000000000000000000000000000000000000000000081526004016110d390611d79565b60405180910390fd5b600060046000848152602001908152602001600020905060008160100160008673ffffffffffffffffffffffffffffffffffffffff1673ffffffffffffffffffffffffffffffffffffffff1681526020019081526020016000209050600015158160000160009054906101000a900460ff16151514611190576040517f08c379a000000000000000000000000000000000000000000000000000000000815260040161118790611d19565b60405180910390fd5b6000600160009054906101000a900473ffffffffffffffffffffffffffffffffffffffff1673ffffffffffffffffffffffffffffffffffffffff1663782d6fe18785600301546040518363ffffffff1660e01b81526004016111f3929190611c18565b60206040518083038186803b15801561120b57600080fd5b505afa15801561121f573d6000803e3d6000fd5b505050506040513d601f19601f8201168201806040525061124391908101906117ef565b90508315611274576112678360050154826bffffffffffffffffffffffff1661134a565b8360050181905550611299565b6112908360060154826bffffffffffffffffffffffff1661134a565b83600601819055505b60018260000160006101000a81548160ff021916908315150217905550838260000160016101000a81548160ff021916908315150217905550808260000160026101000a8154816bffffffffffffffffffffffff02191690836bffffffffffffffffffffffff1602179055507f877856338e13f63d0c36822ff0ef736b80934cd90574a3a5bc9262c39d217c468686868460405161133a9493929190611c41565b60405180910390a1505050505050565b600080828401905083811015611395576040517f08c379a000000000000000000000000000000000000000000000000000000000815260040161138c90611d39565b60405180910390fd5b8091505092915050565b60405180610140016040528060008152602001600073ffffffffffffffffffffffffffffffffffffffff168152602001600081526020016000815260200160008152602001600081526020016000815260200160001515815260200160001515815260200161140c611492565b81525090565b828054600181600116156101000203166002900490600052602060002090601f016020900481019282601f1061145357805160ff1916838001178555611481565b82800160010185558215611481579182015b82811115611480578251825591602001919060010190611465565b5b50905061148e91906114d7565b5090565b60405180610100016040528060608152602001606081526020016060815260200160608152602001606081526020016000815260200160008152602001600081525090565b6114f991905b808211156114f55760008160009055506001016114dd565b5090565b90565b60008135905061150b8161205b565b92915050565b60008135905061152081612072565b92915050565b60008151905061153581612072565b92915050565b600082601f83011261154c57600080fd5b813561155f61155a82611ead565b611e80565b9150808252602083016020830185838301111561157b57600080fd5b611586838284612008565b50505092915050565b600061010082840312156115a257600080fd5b6115ad610100611e80565b9050600082013567ffffffffffffffff8111156115c957600080fd5b6115d58482850161153b565b600083015250602082013567ffffffffffffffff8111156115f557600080fd5b6116018482850161153b565b602083015250604082013567ffffffffffffffff81111561162157600080fd5b61162d8482850161153b565b604083015250606082013567ffffffffffffffff81111561164d57600080fd5b6116598482850161153b565b606083015250608082013567ffffffffffffffff81111561167957600080fd5b6116858482850161153b565b60808301525060a0611699848285016116cd565b60a08301525060c06116ad848285016116cd565b60c08301525060e06116c1848285016116cd565b60e08301525092915050565b6000813590506116dc81612089565b92915050565b6000815190506116f1816120a0565b92915050565b60006020828403121561170957600080fd5b6000611717848285016114fc565b91505092915050565b60006020828403121561173257600080fd5b600061174084828501611526565b91505092915050565b60006020828403121561175b57600080fd5b600082013567ffffffffffffffff81111561177557600080fd5b6117818482850161158f565b91505092915050565b60006020828403121561179c57600080fd5b60006117aa848285016116cd565b91505092915050565b600080604083850312156117c657600080fd5b60006117d4858286016116cd565b92505060206117e585828601611511565b9150509250929050565b60006020828403121561180157600080fd5b600061180f848285016116e2565b91505092915050565b61182181611f66565b82525050565b61183081611f06565b82525050565b61183f81611f18565b82525050565b61184e81611f78565b82525050565b61185d81611f9c565b82525050565b61186c81611fc0565b82525050565b600061187d82611ed9565b6118878185611ee4565b9350611897818560208601612017565b6118a08161204a565b840191505092915050565b60006118b682611ed9565b6118c08185611ef5565b93506118d0818560208601612017565b6118d98161204a565b840191505092915050565b60006118f1601f83611ef5565b91507f75736572206973206e6f742063757272656e746c792076616c696461746564006000830152602082019050919050565b6000611931602d83611ef5565b91507f476f7665726e6f72416c7068613a3a5f63617374566f74653a20766f7465722060008301527f616c726561647920766f746564000000000000000000000000000000000000006020830152604082019050919050565b6000611997601183611ef5565b91507f6164646974696f6e206f766572666c6f770000000000000000000000000000006000830152602082019050919050565b60006119d7602483611ef5565b91507f546f6b656e73206e6f74207472616e7366657272656420746f206d73672e736560008301527f6e646572000000000000000000000000000000000000000000000000000000006020830152604082019050919050565b6000611a3d602a83611ef5565b91507f476f7665726e6f72416c7068613a3a5f63617374566f74653a20766f74696e6760008301527f20697320636c6f736564000000000000000000000000000000000000000000006020830152604082019050919050565b6000610100830160008301518482036000860152611ab48282611872565b91505060208301518482036020860152611ace8282611872565b91505060408301518482036040860152611ae88282611872565b91505060608301518482036060860152611b028282611872565b91505060808301518482036080860152611b1c8282611872565b91505060a0830151611b3160a0860182611b62565b5060c0830151611b4460c0860182611b62565b5060e0830151611b5760e0860182611b62565b508091505092915050565b611b6b81611f44565b82525050565b611b7a81611f44565b82525050565b611b8981611ff6565b82525050565b6000602082019050611ba46000830184611827565b92915050565b6000606082019050611bbf6000830186611827565b611bcc6020830185611818565b611bd96040830184611863565b949350505050565b6000606082019050611bf66000830186611827565b611c036020830185611818565b611c106040830184611b71565b949350505050565b6000604082019050611c2d6000830185611827565b611c3a6020830184611b71565b9392505050565b6000608082019050611c566000830187611827565b611c636020830186611b71565b611c706040830185611836565b611c7d6060830184611b80565b95945050505050565b6000602082019050611c9b6000830184611836565b92915050565b6000602082019050611cb66000830184611845565b92915050565b6000602082019050611cd16000830184611854565b92915050565b60006020820190508181036000830152611cf181846118ab565b905092915050565b60006020820190508181036000830152611d12816118e4565b9050919050565b60006020820190508181036000830152611d3281611924565b9050919050565b60006020820190508181036000830152611d528161198a565b9050919050565b60006020820190508181036000830152611d72816119ca565b9050919050565b60006020820190508181036000830152611d9281611a30565b9050919050565b6000602082019050611dae6000830184611b71565b92915050565b600061014082019050611dca600083018d611b71565b611dd7602083018c611827565b611de4604083018b611b71565b611df1606083018a611b71565b611dfe6080830189611b71565b611e0b60a0830188611b71565b611e1860c0830187611b71565b611e2560e0830186611836565b611e33610100830185611836565b818103610120830152611e468184611a96565b90509b9a5050505050505050505050565b6000604082019050611e6c6000830185611b71565b611e796020830184611b71565b9392505050565b6000604051905081810181811067ffffffffffffffff82111715611ea357600080fd5b8060405250919050565b600067ffffffffffffffff821115611ec457600080fd5b601f19601f8301169050602081019050919050565b600081519050919050565b600082825260208201905092915050565b600082825260208201905092915050565b6000611f1182611f24565b9050919050565b60008115159050919050565b600073ffffffffffffffffffffffffffffffffffffffff82169050919050565b6000819050919050565b60006bffffffffffffffffffffffff82169050919050565b6000611f7182611fd2565b9050919050565b6000611f8382611f8a565b9050919050565b6000611f9582611f24565b9050919050565b6000611fa782611fae565b9050919050565b6000611fb982611f24565b9050919050565b6000611fcb82611f44565b9050919050565b6000611fdd82611fe4565b9050919050565b6000611fef82611f24565b9050919050565b600061200182611f4e565b9050919050565b82818337600083830152505050565b60005b8381101561203557808201518184015260208101905061201a565b83811115612044576000848401525b50505050565b6000601f19601f8301169050919050565b61206481611f06565b811461206f57600080fd5b50565b61207b81611f18565b811461208657600080fd5b50565b61209281611f44565b811461209d57600080fd5b50565b6120a981611f4e565b81146120b457600080fd5b5056fea365627a7a72315820e925d6ce108e24c3e559d9f179e174d84ad8cca14f8356b665a97306d73562246c6578706572696d656e74616cf564736f6c63430005100040",
  "linkReferences": {},
  "deployedLinkReferences": {}
}