{
  "_format": "hh-sol-artifact-1",
  "contractName": "GovernorAlpha",
  "sourceName": "contracts/GovernorAlpha.sol",
  "abi": [
    {
      "inputs": [
        {
          "internalType": "address",
          "name": "timelock_",
          "type": "address"
        },
        {
          "internalType": "address",
          "name": "taro_",
          "type": "address"
        },
        {
          "internalType": "address",
          "name": "guardian_",
          "type": "address"
        }
      ],
      "payable": false,
      "stateMutability": "nonpayable",
      "type": "constructor"
    },
    {
      "anonymous": false,
      "inputs": [
        {
          "indexed": false,
          "internalType": "uint256",
          "name": "id",
          "type": "uint256"
        }
      ],
      "name": "ProposalCreated",
      "type": "event"
    },
    {
      "anonymous": false,
      "inputs": [
        {
          "indexed": false,
          "internalType": "address",
          "name": "voter",
          "type": "address"
        },
        {
          "indexed": false,
          "internalType": "uint256",
          "name": "proposalId",
          "type": "uint256"
        },
        {
          "indexed": false,
          "internalType": "bool",
          "name": "support",
          "type": "bool"
        },
        {
          "indexed": false,
          "internalType": "uint256",
          "name": "votes",
          "type": "uint256"
        }
      ],
      "name": "VoteCast",
      "type": "event"
    },
    {
      "constant": false,
      "inputs": [
        {
          "internalType": "uint256",
          "name": "proposalId",
          "type": "uint256"
        },
        {
          "internalType": "bool",
          "name": "support",
          "type": "bool"
        }
      ],
      "name": "castVote",
      "outputs": [],
      "payable": false,
      "stateMutability": "nonpayable",
      "type": "function"
    },
    {
      "constant": true,
      "inputs": [
        {
          "internalType": "uint256",
          "name": "proposalId",
          "type": "uint256"
        },
        {
          "internalType": "address",
          "name": "voter",
          "type": "address"
        }
      ],
      "name": "getReceipt",
      "outputs": [
        {
          "components": [
            {
              "internalType": "bool",
              "name": "hasVoted",
              "type": "bool"
            },
            {
              "internalType": "bool",
              "name": "support",
              "type": "bool"
            },
            {
              "internalType": "uint96",
              "name": "votes",
              "type": "uint96"
            }
          ],
          "internalType": "struct GovernorAlpha.Receipt",
          "name": "",
          "type": "tuple"
        }
      ],
      "payable": false,
      "stateMutability": "view",
      "type": "function"
    },
    {
      "constant": true,
      "inputs": [],
      "name": "getValidityStatus",
      "outputs": [
        {
          "internalType": "uint256",
          "name": "",
          "type": "uint256"
        }
      ],
      "payable": false,
      "stateMutability": "view",
      "type": "function"
    },
    {
      "constant": true,
      "inputs": [],
      "name": "guardian",
      "outputs": [
        {
          "internalType": "address",
          "name": "",
          "type": "address"
        }
      ],
      "payable": false,
      "stateMutability": "view",
      "type": "function"
    },
    {
      "constant": true,
      "inputs": [
        {
          "internalType": "uint256",
          "name": "",
          "type": "uint256"
        }
      ],
      "name": "isProposalActive",
      "outputs": [
        {
          "internalType": "bool",
          "name": "",
          "type": "bool"
        }
      ],
      "payable": false,
      "stateMutability": "view",
      "type": "function"
    },
    {
      "constant": true,
      "inputs": [
        {
          "internalType": "address",
          "name": "",
          "type": "address"
        }
      ],
      "name": "latestProposalIds",
      "outputs": [
        {
          "internalType": "uint256",
          "name": "",
          "type": "uint256"
        }
      ],
      "payable": false,
      "stateMutability": "view",
      "type": "function"
    },
    {
      "constant": true,
      "inputs": [],
      "name": "name",
      "outputs": [
        {
          "internalType": "string",
          "name": "",
          "type": "string"
        }
      ],
      "payable": false,
      "stateMutability": "view",
      "type": "function"
    },
    {
      "constant": true,
      "inputs": [],
      "name": "proposalCount",
      "outputs": [
        {
          "internalType": "uint256",
          "name": "",
          "type": "uint256"
        }
      ],
      "payable": false,
      "stateMutability": "view",
      "type": "function"
    },
    {
      "constant": true,
      "inputs": [],
      "name": "proposalThreshold",
      "outputs": [
        {
          "internalType": "uint256",
          "name": "",
          "type": "uint256"
        }
      ],
      "payable": false,
      "stateMutability": "pure",
      "type": "function"
    },
    {
      "constant": true,
      "inputs": [
        {
          "internalType": "uint256",
          "name": "",
          "type": "uint256"
        }
      ],
      "name": "proposals",
      "outputs": [
        {
          "internalType": "uint256",
          "name": "id",
          "type": "uint256"
        },
        {
          "internalType": "address",
          "name": "proposer",
          "type": "address"
        },
        {
          "internalType": "uint256",
          "name": "eta",
          "type": "uint256"
        },
        {
          "internalType": "uint256",
          "name": "startBlock",
          "type": "uint256"
        },
        {
          "internalType": "uint256",
          "name": "endBlock",
          "type": "uint256"
        },
        {
          "internalType": "uint256",
          "name": "forVotes",
          "type": "uint256"
        },
        {
          "internalType": "uint256",
          "name": "againstVotes",
          "type": "uint256"
        },
        {
          "internalType": "bool",
          "name": "canceled",
          "type": "bool"
        },
        {
          "internalType": "bool",
          "name": "executed",
          "type": "bool"
        },
        {
          "components": [
            {
              "internalType": "string",
              "name": "title",
              "type": "string"
            },
            {
              "internalType": "string",
              "name": "typeOfAction",
              "type": "string"
            },
            {
              "internalType": "string",
              "name": "neighborhood",
              "type": "string"
            },
            {
              "internalType": "string",
              "name": "personInCharge",
              "type": "string"
            },
            {
              "internalType": "string",
              "name": "description",
              "type": "string"
            },
            {
              "internalType": "uint256",
              "name": "expiration",
              "type": "uint256"
            },
            {
              "internalType": "uint256",
              "name": "budget",
              "type": "uint256"
            },
            {
              "internalType": "uint256",
              "name": "requiredTaroToVote",
              "type": "uint256"
            }
          ],
          "internalType": "struct GovernorAlpha.UserInputFields",
          "name": "userInputFields",
          "type": "tuple"
        }
      ],
      "payable": false,
      "stateMutability": "view",
      "type": "function"
    },
    {
      "constant": false,
      "inputs": [
        {
          "components": [
            {
              "internalType": "string",
              "name": "title",
              "type": "string"
            },
            {
              "internalType": "string",
              "name": "typeOfAction",
              "type": "string"
            },
            {
              "internalType": "string",
              "name": "neighborhood",
              "type": "string"
            },
            {
              "internalType": "string",
              "name": "personInCharge",
              "type": "string"
            },
            {
              "internalType": "string",
              "name": "description",
              "type": "string"
            },
            {
              "internalType": "uint256",
              "name": "expiration",
              "type": "uint256"
            },
            {
              "internalType": "uint256",
              "name": "budget",
              "type": "uint256"
            },
            {
              "internalType": "uint256",
              "name": "requiredTaroToVote",
              "type": "uint256"
            }
          ],
          "internalType": "struct GovernorAlpha.UserInputFields",
          "name": "_userInputFields",
          "type": "tuple"
        }
      ],
      "name": "propose",
      "outputs": [
        {
          "internalType": "uint256",
          "name": "",
          "type": "uint256"
        }
      ],
      "payable": false,
      "stateMutability": "nonpayable",
      "type": "function"
    },
    {
      "constant": true,
      "inputs": [],
      "name": "taro",
      "outputs": [
        {
          "internalType": "contract TaroInterface",
          "name": "",
          "type": "address"
        }
      ],
      "payable": false,
      "stateMutability": "view",
      "type": "function"
    },
    {
      "constant": true,
      "inputs": [],
      "name": "timelock",
      "outputs": [
        {
          "internalType": "contract TimelockInterface",
          "name": "",
          "type": "address"
        }
      ],
      "payable": false,
      "stateMutability": "view",
      "type": "function"
    },
    {
      "constant": false,
      "inputs": [
        {
          "internalType": "uint256",
          "name": "_rewardedTokens",
          "type": "uint256"
        }
      ],
      "name": "validate",
      "outputs": [
        {
          "internalType": "uint256",
          "name": "",
          "type": "uint256"
        }
      ],
      "payable": false,
      "stateMutability": "nonpayable",
      "type": "function"
    },
    {
      "constant": true,
      "inputs": [
        {
          "internalType": "address",
          "name": "",
          "type": "address"
        }
      ],
      "name": "validations",
      "outputs": [
        {
          "internalType": "uint256",
          "name": "expirationTime",
          "type": "uint256"
        }
      ],
      "payable": false,
      "stateMutability": "view",
      "type": "function"
    },
    {
      "constant": true,
      "inputs": [],
      "name": "votingDelay",
      "outputs": [
        {
          "internalType": "uint256",
          "name": "",
          "type": "uint256"
        }
      ],
      "payable": false,
      "stateMutability": "pure",
      "type": "function"
    },
    {
      "constant": true,
      "inputs": [],
      "name": "votingPeriod",
      "outputs": [
        {
          "internalType": "uint256",
          "name": "",
          "type": "uint256"
        }
      ],
      "payable": false,
      "stateMutability": "pure",
      "type": "function"
    }
  ],
  "bytecode": "0x60806040523480156200001157600080fd5b506040516200230338038062002303833981810160405262000037919081019062000119565b826000806101000a81548173ffffffffffffffffffffffffffffffffffffffff021916908373ffffffffffffffffffffffffffffffffffffffff16021790555081600160006101000a81548173ffffffffffffffffffffffffffffffffffffffff021916908373ffffffffffffffffffffffffffffffffffffffff16021790555080600260006101000a81548173ffffffffffffffffffffffffffffffffffffffff021916908373ffffffffffffffffffffffffffffffffffffffff160217905550505050620001bd565b6000815190506200011381620001a3565b92915050565b6000806000606084860312156200012f57600080fd5b60006200013f8682870162000102565b9350506020620001528682870162000102565b9250506040620001658682870162000102565b9150509250925092565b60006200017c8262000183565b9050919050565b600073ffffffffffffffffffffffffffffffffffffffff82169050919050565b620001ae816200016f565b8114620001ba57600080fd5b50565b61213680620001cd6000396000f3fe608060405234801561001057600080fd5b506004361061010b5760003560e01c80633932abb1116100a2578063ce4d01a311610071578063ce4d01a3146102c7578063d33219b4146102f7578063da35c66414610315578063e23a9a5214610333578063f7155345146103635761010b565b80633932abb11461023d578063452a93201461025b578063ab0fbf1614610279578063b58131b0146102a95761010b565b8063164b3d2f116100de578063164b3d2f146101a157806317977c61146101d157806331bfb4ca1461020157806337d4e3861461021f5761010b565b8063013cf08b1461011057806302a251a31461014957806306fdde031461016757806315373e3d14610185575b600080fd5b61012a60048036036101259190810190611790565b610393565b6040516101409a99989796959493929190611e2b565b60405180910390f35b610151610774565b60405161015e9190611e10565b60405180910390f35b61016f61077e565b60405161017c9190611d33565b60405180910390f35b61019f600480360361019a91908101906117f5565b6107b7565b005b6101bb60048036036101b69190810190611790565b610861565b6040516101c89190611ce2565b60405180910390f35b6101eb60048036036101e691908101906116fd565b610881565b6040516101f89190611e10565b60405180910390f35b610209610899565b6040516102169190611e10565b60405180910390f35b6102276108f6565b6040516102349190611cfd565b60405180910390f35b61024561091c565b6040516102529190611e10565b60405180910390f35b610263610925565b6040516102709190611c22565b60405180910390f35b610293600480360361028e919081019061174f565b61094b565b6040516102a09190611e10565b60405180910390f35b6102b1610ca8565b6040516102be9190611e10565b60405180910390f35b6102e160048036036102dc9190810190611790565b610cba565b6040516102ee9190611e10565b60405180910390f35b6102ff610f1d565b60405161030c9190611d18565b60405180910390f35b61031d610f42565b60405161032a9190611e10565b60405180910390f35b61034d600480360361034891908101906117b9565b610f48565b60405161035a9190611df5565b60405180910390f35b61037d600480360361037891908101906116fd565b61102a565b60405161038a9190611e10565b60405180910390f35b60046020528060005260406000206000915090508060000154908060010160009054906101000a900473ffffffffffffffffffffffffffffffffffffffff16908060020154908060030154908060040154908060050154908060060154908060070160009054906101000a900460ff16908060070160019054906101000a900460ff16908060080160405180610100016040529081600082018054600181600116156101000203166002900480601f0160208091040260200160405190810160405280929190818152602001828054600181600116156101000203166002900480156104c05780601f10610495576101008083540402835291602001916104c0565b820191906000526020600020905b8154815290600101906020018083116104a357829003601f168201915b50505050508152602001600182018054600181600116156101000203166002900480601f0160208091040260200160405190810160405280929190818152602001828054600181600116156101000203166002900480156105625780601f1061053757610100808354040283529160200191610562565b820191906000526020600020905b81548152906001019060200180831161054557829003601f168201915b50505050508152602001600282018054600181600116156101000203166002900480601f0160208091040260200160405190810160405280929190818152602001828054600181600116156101000203166002900480156106045780601f106105d957610100808354040283529160200191610604565b820191906000526020600020905b8154815290600101906020018083116105e757829003601f168201915b50505050508152602001600382018054600181600116156101000203166002900480601f0160208091040260200160405190810160405280929190818152602001828054600181600116156101000203166002900480156106a65780601f1061067b576101008083540402835291602001916106a6565b820191906000526020600020905b81548152906001019060200180831161068957829003601f168201915b50505050508152602001600482018054600181600116156101000203166002900480601f0160208091040260200160405190810160405280929190818152602001828054600181600116156101000203166002900480156107485780601f1061071d57610100808354040283529160200191610748565b820191906000526020600020905b81548152906001019060200180831161072b57829003601f168201915b50505050508152602001600582015481526020016006820154815260200160078201548152505090508a565b6000614380905090565b6040518060400160405280601581526020017f566f5461726f20476f7665726e6f7220416c706861000000000000000000000081525081565b600042600760003373ffffffffffffffffffffffffffffffffffffffff1673ffffffffffffffffffffffffffffffffffffffff16815260200190815260200160002060000154111561080c5760019050610811565b600090505b80610851576040517f08c379a000000000000000000000000000000000000000000000000000000000815260040161084890611d55565b60405180910390fd5b61085c338484611048565b505050565b60066020528060005260406000206000915054906101000a900460ff1681565b60056020528060005260406000206000915090505481565b600042600760003373ffffffffffffffffffffffffffffffffffffffff1673ffffffffffffffffffffffffffffffffffffffff1681526020019081526020016000206000015411156108ee57600190506108f3565b600090505b90565b600160009054906101000a900473ffffffffffffffffffffffffffffffffffffffff1681565b60006001905090565b600260009054906101000a900473ffffffffffffffffffffffffffffffffffffffff1681565b60008042600760003373ffffffffffffffffffffffffffffffffffffffff1673ffffffffffffffffffffffffffffffffffffffff1681526020019081526020016000206000015411156109a157600190506109a6565b600090505b806109e6576040517f08c379a00000000000000000000000000000000000000000000000000000000081526004016109dd90611d55565b60405180910390fd5b60006109f9436109f461091c565b61131d565b90506000610a0e82610a09610774565b61131d565b9050600360008154809291906001019190505550610a2a611372565b60405180610140016040528060035481526020013373ffffffffffffffffffffffffffffffffffffffff1681526020016000815260200184815260200183815260200160008152602001600081526020016000151581526020016000151581526020018781525090508060046000836000015181526020019081526020016000206000820151816000015560208201518160010160006101000a81548173ffffffffffffffffffffffffffffffffffffffff021916908373ffffffffffffffffffffffffffffffffffffffff16021790555060408201518160020155606082015181600301556080820151816004015560a0820151816005015560c0820151816006015560e08201518160070160006101000a81548160ff0219169083151502179055506101008201518160070160016101000a81548160ff021916908315150217905550610120820151816008016000820151816000019080519060200190610b959291906113e5565b506020820151816001019080519060200190610bb29291906113e5565b506040820151816002019080519060200190610bcf9291906113e5565b506060820151816003019080519060200190610bec9291906113e5565b506080820151816004019080519060200190610c099291906113e5565b5060a0820151816005015560c0820151816006015560e0820151816007015550509050506001600660008360000151815260200190815260200160002060006101000a81548160ff0219169083151502179055507fc2c021f5d73c63c481d336fbbafec58f694fc45095f00b02d2deb8cca59afe078160000151604051610c909190611e10565b60405180910390a18060000151945050505050919050565b600069152d02c7e14af6800000905090565b600080600760003373ffffffffffffffffffffffffffffffffffffffff1673ffffffffffffffffffffffffffffffffffffffff168152602001908152602001600020600001541415610e63576040518060200160405280601e4201815250600760003373ffffffffffffffffffffffffffffffffffffffff1673ffffffffffffffffffffffffffffffffffffffff168152602001908152602001600020600082015181600001559050506000600160009054906101000a900473ffffffffffffffffffffffffffffffffffffffff1673ffffffffffffffffffffffffffffffffffffffff166323b872dd3033866040518463ffffffff1660e01b8152600401610dc593929190611c3d565b602060405180830381600087803b158015610ddf57600080fd5b505af1158015610df3573d6000803e3d6000fd5b505050506040513d601f19601f82011682018060405250610e179190810190611726565b905080610e59576040517f08c379a0000000000000000000000000000000000000000000000000000000008152600401610e5090611db5565b60405180910390fd5b6000915050610f18565b42600760003373ffffffffffffffffffffffffffffffffffffffff1673ffffffffffffffffffffffffffffffffffffffff1681526020019081526020016000206000015410610eb55760019050610f18565b6040518060200160405280601e4201815250600760003373ffffffffffffffffffffffffffffffffffffffff1673ffffffffffffffffffffffffffffffffffffffff16815260200190815260200160002060008201518160000155905050600290505b919050565b6000809054906101000a900473ffffffffffffffffffffffffffffffffffffffff1681565b60035481565b610f50611465565b6004600084815260200190815260200160002060100160008373ffffffffffffffffffffffffffffffffffffffff1673ffffffffffffffffffffffffffffffffffffffff1681526020019081526020016000206040518060600160405290816000820160009054906101000a900460ff161515151581526020016000820160019054906101000a900460ff161515151581526020016000820160029054906101000a90046bffffffffffffffffffffffff166bffffffffffffffffffffffff166bffffffffffffffffffffffff1681525050905092915050565b60076020528060005260406000206000915090508060000154905081565b600115156006600084815260200190815260200160002060009054906101000a900460ff161515146110af576040517f08c379a00000000000000000000000000000000000000000000000000000000081526004016110a690611dd5565b60405180910390fd5b600060046000848152602001908152602001600020905060008160100160008673ffffffffffffffffffffffffffffffffffffffff1673ffffffffffffffffffffffffffffffffffffffff1681526020019081526020016000209050600015158160000160009054906101000a900460ff16151514611163576040517f08c379a000000000000000000000000000000000000000000000000000000000815260040161115a90611d75565b60405180910390fd5b6000600160009054906101000a900473ffffffffffffffffffffffffffffffffffffffff1673ffffffffffffffffffffffffffffffffffffffff1663782d6fe18785600301546040518363ffffffff1660e01b81526004016111c6929190611c74565b60206040518083038186803b1580156111de57600080fd5b505afa1580156111f2573d6000803e3d6000fd5b505050506040513d601f19601f820116820180604052506112169190810190611831565b905083156112475761123a8360050154826bffffffffffffffffffffffff1661131d565b836005018190555061126c565b6112638360060154826bffffffffffffffffffffffff1661131d565b83600601819055505b60018260000160006101000a81548160ff021916908315150217905550838260000160016101000a81548160ff021916908315150217905550808260000160026101000a8154816bffffffffffffffffffffffff02191690836bffffffffffffffffffffffff1602179055507f877856338e13f63d0c36822ff0ef736b80934cd90574a3a5bc9262c39d217c468686868460405161130d9493929190611c9d565b60405180910390a1505050505050565b600080828401905083811015611368576040517f08c379a000000000000000000000000000000000000000000000000000000000815260040161135f90611d95565b60405180910390fd5b8091505092915050565b60405180610140016040528060008152602001600073ffffffffffffffffffffffffffffffffffffffff16815260200160008152602001600081526020016000815260200160008152602001600081526020016000151581526020016000151581526020016113df611498565b81525090565b828054600181600116156101000203166002900490600052602060002090601f016020900481019282601f1061142657805160ff1916838001178555611454565b82800160010185558215611454579182015b82811115611453578251825591602001919060010190611438565b5b50905061146191906114dd565b5090565b604051806060016040528060001515815260200160001515815260200160006bffffffffffffffffffffffff1681525090565b60405180610100016040528060608152602001606081526020016060815260200160608152602001606081526020016000815260200160008152602001600081525090565b6114ff91905b808211156114fb5760008160009055506001016114e3565b5090565b90565b60008135905061151181612097565b92915050565b600081359050611526816120ae565b92915050565b60008151905061153b816120ae565b92915050565b600082601f83011261155257600080fd5b813561156561156082611efb565b611ece565b9150808252602083016020830185838301111561158157600080fd5b61158c838284612044565b50505092915050565b600061010082840312156115a857600080fd5b6115b3610100611ece565b9050600082013567ffffffffffffffff8111156115cf57600080fd5b6115db84828501611541565b600083015250602082013567ffffffffffffffff8111156115fb57600080fd5b61160784828501611541565b602083015250604082013567ffffffffffffffff81111561162757600080fd5b61163384828501611541565b604083015250606082013567ffffffffffffffff81111561165357600080fd5b61165f84828501611541565b606083015250608082013567ffffffffffffffff81111561167f57600080fd5b61168b84828501611541565b60808301525060a061169f848285016116d3565b60a08301525060c06116b3848285016116d3565b60c08301525060e06116c7848285016116d3565b60e08301525092915050565b6000813590506116e2816120c5565b92915050565b6000815190506116f7816120dc565b92915050565b60006020828403121561170f57600080fd5b600061171d84828501611502565b91505092915050565b60006020828403121561173857600080fd5b60006117468482850161152c565b91505092915050565b60006020828403121561176157600080fd5b600082013567ffffffffffffffff81111561177b57600080fd5b61178784828501611595565b91505092915050565b6000602082840312156117a257600080fd5b60006117b0848285016116d3565b91505092915050565b600080604083850312156117cc57600080fd5b60006117da858286016116d3565b92505060206117eb85828601611502565b9150509250929050565b6000806040838503121561180857600080fd5b6000611816858286016116d3565b925050602061182785828601611517565b9150509250929050565b60006020828403121561184357600080fd5b6000611851848285016116e8565b91505092915050565b61186381611fb4565b82525050565b61187281611f54565b82525050565b61188181611f66565b82525050565b61189081611f66565b82525050565b61189f81611fc6565b82525050565b6118ae81611fea565b82525050565b60006118bf82611f27565b6118c98185611f32565b93506118d9818560208601612053565b6118e281612086565b840191505092915050565b60006118f882611f27565b6119028185611f43565b9350611912818560208601612053565b61191b81612086565b840191505092915050565b6000611933601f83611f43565b91507f75736572206973206e6f742063757272656e746c792076616c696461746564006000830152602082019050919050565b6000611973602d83611f43565b91507f476f7665726e6f72416c7068613a3a5f63617374566f74653a20766f7465722060008301527f616c726561647920766f746564000000000000000000000000000000000000006020830152604082019050919050565b60006119d9601183611f43565b91507f6164646974696f6e206f766572666c6f770000000000000000000000000000006000830152602082019050919050565b6000611a19602483611f43565b91507f546f6b656e73206e6f74207472616e7366657272656420746f206d73672e736560008301527f6e646572000000000000000000000000000000000000000000000000000000006020830152604082019050919050565b6000611a7f602a83611f43565b91507f476f7665726e6f72416c7068613a3a5f63617374566f74653a20766f74696e6760008301527f20697320636c6f736564000000000000000000000000000000000000000000006020830152604082019050919050565b606082016000820151611aee6000850182611878565b506020820151611b016020850182611878565b506040820151611b146040850182611c13565b50505050565b6000610100830160008301518482036000860152611b3882826118b4565b91505060208301518482036020860152611b5282826118b4565b91505060408301518482036040860152611b6c82826118b4565b91505060608301518482036060860152611b8682826118b4565b91505060808301518482036080860152611ba082826118b4565b91505060a0830151611bb560a0860182611be6565b5060c0830151611bc860c0860182611be6565b5060e0830151611bdb60e0860182611be6565b508091505092915050565b611bef81611f92565b82525050565b611bfe81611f92565b82525050565b611c0d81612032565b82525050565b611c1c81611f9c565b82525050565b6000602082019050611c376000830184611869565b92915050565b6000606082019050611c526000830186611869565b611c5f602083018561185a565b611c6c6040830184611bf5565b949350505050565b6000604082019050611c896000830185611869565b611c966020830184611bf5565b9392505050565b6000608082019050611cb26000830187611869565b611cbf6020830186611bf5565b611ccc6040830185611887565b611cd96060830184611c04565b95945050505050565b6000602082019050611cf76000830184611887565b92915050565b6000602082019050611d126000830184611896565b92915050565b6000602082019050611d2d60008301846118a5565b92915050565b60006020820190508181036000830152611d4d81846118ed565b905092915050565b60006020820190508181036000830152611d6e81611926565b9050919050565b60006020820190508181036000830152611d8e81611966565b9050919050565b60006020820190508181036000830152611dae816119cc565b9050919050565b60006020820190508181036000830152611dce81611a0c565b9050919050565b60006020820190508181036000830152611dee81611a72565b9050919050565b6000606082019050611e0a6000830184611ad8565b92915050565b6000602082019050611e256000830184611bf5565b92915050565b600061014082019050611e41600083018d611bf5565b611e4e602083018c611869565b611e5b604083018b611bf5565b611e68606083018a611bf5565b611e756080830189611bf5565b611e8260a0830188611bf5565b611e8f60c0830187611bf5565b611e9c60e0830186611887565b611eaa610100830185611887565b818103610120830152611ebd8184611b1a565b90509b9a5050505050505050505050565b6000604051905081810181811067ffffffffffffffff82111715611ef157600080fd5b8060405250919050565b600067ffffffffffffffff821115611f1257600080fd5b601f19601f8301169050602081019050919050565b600081519050919050565b600082825260208201905092915050565b600082825260208201905092915050565b6000611f5f82611f72565b9050919050565b60008115159050919050565b600073ffffffffffffffffffffffffffffffffffffffff82169050919050565b6000819050919050565b60006bffffffffffffffffffffffff82169050919050565b6000611fbf8261200e565b9050919050565b6000611fd182611fd8565b9050919050565b6000611fe382611f72565b9050919050565b6000611ff582611ffc565b9050919050565b600061200782611f72565b9050919050565b600061201982612020565b9050919050565b600061202b82611f72565b9050919050565b600061203d82611f9c565b9050919050565b82818337600083830152505050565b60005b83811015612071578082015181840152602081019050612056565b83811115612080576000848401525b50505050565b6000601f19601f8301169050919050565b6120a081611f54565b81146120ab57600080fd5b50565b6120b781611f66565b81146120c257600080fd5b50565b6120ce81611f92565b81146120d957600080fd5b50565b6120e581611f9c565b81146120f057600080fd5b5056fea365627a7a723158201ff168e0433a8859031623f5e392e87a026039649b6884e601528315e09260056c6578706572696d656e74616cf564736f6c63430005100040",
  "linkReferences": {},
  "deployedLinkReferences": {}
}