{
  "_format": "hh-sol-artifact-1",
  "contractName": "TaroSimple",
  "sourceName": "contracts/TaroSimple.sol",
  "abi": [
    {
      "anonymous": false,
      "inputs": [
        {
          "indexed": true,
          "internalType": "string",
          "name": "newTitle",
          "type": "string"
        },
        {
          "indexed": true,
          "internalType": "uint256",
          "name": "newBudget",
          "type": "uint256"
        }
      ],
      "name": "TitleAdded",
      "type": "event"
    },
    {
      "inputs": [
        {
          "internalType": "string",
          "name": "_title",
          "type": "string"
        },
        {
          "internalType": "uint256",
          "name": "_budget",
          "type": "uint256"
        }
      ],
      "name": "addUser",
      "outputs": [],
      "stateMutability": "nonpayable",
      "type": "function"
    },
    {
      "inputs": [],
      "name": "getUserBudget",
      "outputs": [
        {
          "internalType": "uint256",
          "name": "",
          "type": "uint256"
        }
      ],
      "stateMutability": "view",
      "type": "function"
    },
    {
      "inputs": [],
      "name": "getUserTitle",
      "outputs": [
        {
          "internalType": "string",
          "name": "",
          "type": "string"
        }
      ],
      "stateMutability": "view",
      "type": "function"
    },
    {
      "inputs": [
        {
          "internalType": "address",
          "name": "",
          "type": "address"
        }
      ],
      "name": "users",
      "outputs": [
        {
          "internalType": "string",
          "name": "title",
          "type": "string"
        },
        {
          "internalType": "uint256",
          "name": "budget",
          "type": "uint256"
        }
      ],
      "stateMutability": "view",
      "type": "function"
    }
  ],
  "bytecode": "0x608060405234801561001057600080fd5b50610902806100206000396000f3fe608060405234801561001057600080fd5b506004361061004c5760003560e01c80631c5220c214610051578063a81dd7ca1461006d578063a87430ba1461008b578063d1d8665f146100bc575b600080fd5b61006b60048036038101906100669190610543565b6100da565b005b61007561021f565b60405161008291906106c7565b60405180910390f35b6100a560048036038101906100a0919061051a565b610268565b6040516100b3929190610697565b60405180910390f35b6100c4610314565b6040516100d19190610675565b60405180910390f35b6040518060400160405280838152602001828152506000803373ffffffffffffffffffffffffffffffffffffffff1673ffffffffffffffffffffffffffffffffffffffff16815260200190815260200160002060008201518160000190805190602001906101499291906103e5565b50602082015181600101559050506000803373ffffffffffffffffffffffffffffffffffffffff1673ffffffffffffffffffffffffffffffffffffffff168152602001908152602001600020600101546000803373ffffffffffffffffffffffffffffffffffffffff1673ffffffffffffffffffffffffffffffffffffffff1681526020019081526020016000206000016040516101e7919061065e565b60405180910390207f2ae1357afbd1a4f1744199427171e49ea24330e2dfef7384d37975939f8835ad60405160405180910390a35050565b60008060003373ffffffffffffffffffffffffffffffffffffffff1673ffffffffffffffffffffffffffffffffffffffff16815260200190815260200160002060010154905090565b600060205280600052604060002060009150905080600001805461028b906107fd565b80601f01602080910402602001604051908101604052809291908181526020018280546102b7906107fd565b80156103045780601f106102d957610100808354040283529160200191610304565b820191906000526020600020905b8154815290600101906020018083116102e757829003601f168201915b5050505050908060010154905082565b60606000803373ffffffffffffffffffffffffffffffffffffffff1673ffffffffffffffffffffffffffffffffffffffff1681526020019081526020016000206000018054610362906107fd565b80601f016020809104026020016040519081016040528092919081815260200182805461038e906107fd565b80156103db5780601f106103b0576101008083540402835291602001916103db565b820191906000526020600020905b8154815290600101906020018083116103be57829003601f168201915b5050505050905090565b8280546103f1906107fd565b90600052602060002090601f016020900481019282610413576000855561045a565b82601f1061042c57805160ff191683800117855561045a565b8280016001018555821561045a579182015b8281111561045957825182559160200191906001019061043e565b5b509050610467919061046b565b5090565b5b8082111561048457600081600090555060010161046c565b5090565b600061049b61049684610713565b6106e2565b9050828152602081018484840111156104b357600080fd5b6104be8482856107bb565b509392505050565b6000813590506104d58161089e565b92915050565b600082601f8301126104ec57600080fd5b81356104fc848260208601610488565b91505092915050565b600081359050610514816108b5565b92915050565b60006020828403121561052c57600080fd5b600061053a848285016104c6565b91505092915050565b6000806040838503121561055657600080fd5b600083013567ffffffffffffffff81111561057057600080fd5b61057c858286016104db565b925050602061058d85828601610505565b9150509250929050565b60006105a282610758565b6105ac8185610763565b93506105bc8185602086016107ca565b6105c58161088d565b840191505092915050565b600081546105dd816107fd565b6105e78186610774565b94506001821660008114610602576001811461061357610646565b60ff19831686528186019350610646565b61061c85610743565b60005b8381101561063e5781548189015260018201915060208101905061061f565b838801955050505b50505092915050565b610658816107b1565b82525050565b600061066a82846105d0565b915081905092915050565b6000602082019050818103600083015261068f8184610597565b905092915050565b600060408201905081810360008301526106b18185610597565b90506106c0602083018461064f565b9392505050565b60006020820190506106dc600083018461064f565b92915050565b6000604051905081810181811067ffffffffffffffff821117156107095761070861085e565b5b8060405250919050565b600067ffffffffffffffff82111561072e5761072d61085e565b5b601f19601f8301169050602081019050919050565b60008190508160005260206000209050919050565b600081519050919050565b600082825260208201905092915050565b600081905092915050565b600061078a82610791565b9050919050565b600073ffffffffffffffffffffffffffffffffffffffff82169050919050565b6000819050919050565b82818337600083830152505050565b60005b838110156107e85780820151818401526020810190506107cd565b838111156107f7576000848401525b50505050565b6000600282049050600182168061081557607f821691505b602082108114156108295761082861082f565b5b50919050565b7f4e487b7100000000000000000000000000000000000000000000000000000000600052602260045260246000fd5b7f4e487b7100000000000000000000000000000000000000000000000000000000600052604160045260246000fd5b6000601f19601f8301169050919050565b6108a78161077f565b81146108b257600080fd5b50565b6108be816107b1565b81146108c957600080fd5b5056fea264697066735822122036634564a4dedef0201d320865db57e7cf65da86fa0efeeb65c147cd913202d364736f6c63430008000033",
  "linkReferences": {},
  "deployedLinkReferences": {}
}