{
  "_format": "hh-sol-artifact-1",
  "contractName": "GA",
  "sourceName": "contracts/GA.sol",
  "abi": [
    {
      "inputs": [
        {
          "internalType": "address",
          "name": "timelock_",
          "type": "address"
        },
        {
          "internalType": "address",
          "name": "comp_",
          "type": "address"
        },
        {
          "internalType": "address",
          "name": "guardian_",
          "type": "address"
        }
      ],
      "payable": false,
      "stateMutability": "nonpayable",
      "type": "constructor"
    },
    {
      "anonymous": false,
      "inputs": [
        {
          "indexed": false,
          "internalType": "uint256",
          "name": "id",
          "type": "uint256"
        }
      ],
      "name": "ProposalCanceled",
      "type": "event"
    },
    {
      "anonymous": false,
      "inputs": [
        {
          "indexed": false,
          "internalType": "uint256",
          "name": "id",
          "type": "uint256"
        },
        {
          "indexed": false,
          "internalType": "address",
          "name": "proposer",
          "type": "address"
        },
        {
          "indexed": false,
          "internalType": "address[]",
          "name": "targets",
          "type": "address[]"
        },
        {
          "indexed": false,
          "internalType": "uint256[]",
          "name": "values",
          "type": "uint256[]"
        },
        {
          "indexed": false,
          "internalType": "string[]",
          "name": "signatures",
          "type": "string[]"
        },
        {
          "indexed": false,
          "internalType": "bytes[]",
          "name": "calldatas",
          "type": "bytes[]"
        },
        {
          "indexed": false,
          "internalType": "uint256",
          "name": "startBlock",
          "type": "uint256"
        },
        {
          "indexed": false,
          "internalType": "uint256",
          "name": "endBlock",
          "type": "uint256"
        },
        {
          "indexed": false,
          "internalType": "string",
          "name": "description",
          "type": "string"
        }
      ],
      "name": "ProposalCreated",
      "type": "event"
    },
    {
      "anonymous": false,
      "inputs": [
        {
          "indexed": false,
          "internalType": "uint256",
          "name": "id",
          "type": "uint256"
        }
      ],
      "name": "ProposalExecuted",
      "type": "event"
    },
    {
      "anonymous": false,
      "inputs": [
        {
          "indexed": false,
          "internalType": "uint256",
          "name": "id",
          "type": "uint256"
        },
        {
          "indexed": false,
          "internalType": "uint256",
          "name": "eta",
          "type": "uint256"
        }
      ],
      "name": "ProposalQueued",
      "type": "event"
    },
    {
      "anonymous": false,
      "inputs": [
        {
          "indexed": false,
          "internalType": "address",
          "name": "voter",
          "type": "address"
        },
        {
          "indexed": false,
          "internalType": "uint256",
          "name": "proposalId",
          "type": "uint256"
        },
        {
          "indexed": false,
          "internalType": "bool",
          "name": "support",
          "type": "bool"
        },
        {
          "indexed": false,
          "internalType": "uint256",
          "name": "votes",
          "type": "uint256"
        }
      ],
      "name": "VoteCast",
      "type": "event"
    },
    {
      "constant": true,
      "inputs": [],
      "name": "BALLOT_TYPEHASH",
      "outputs": [
        {
          "internalType": "bytes32",
          "name": "",
          "type": "bytes32"
        }
      ],
      "payable": false,
      "stateMutability": "view",
      "type": "function"
    },
    {
      "constant": true,
      "inputs": [],
      "name": "DOMAIN_TYPEHASH",
      "outputs": [
        {
          "internalType": "bytes32",
          "name": "",
          "type": "bytes32"
        }
      ],
      "payable": false,
      "stateMutability": "view",
      "type": "function"
    },
    {
      "constant": false,
      "inputs": [],
      "name": "__abdicate",
      "outputs": [],
      "payable": false,
      "stateMutability": "nonpayable",
      "type": "function"
    },
    {
      "constant": false,
      "inputs": [],
      "name": "__acceptAdmin",
      "outputs": [],
      "payable": false,
      "stateMutability": "nonpayable",
      "type": "function"
    },
    {
      "constant": false,
      "inputs": [
        {
          "internalType": "address",
          "name": "newPendingAdmin",
          "type": "address"
        },
        {
          "internalType": "uint256",
          "name": "eta",
          "type": "uint256"
        }
      ],
      "name": "__executeSetTimelockPendingAdmin",
      "outputs": [],
      "payable": false,
      "stateMutability": "nonpayable",
      "type": "function"
    },
    {
      "constant": false,
      "inputs": [
        {
          "internalType": "address",
          "name": "newPendingAdmin",
          "type": "address"
        },
        {
          "internalType": "uint256",
          "name": "eta",
          "type": "uint256"
        }
      ],
      "name": "__queueSetTimelockPendingAdmin",
      "outputs": [],
      "payable": false,
      "stateMutability": "nonpayable",
      "type": "function"
    },
    {
      "constant": false,
      "inputs": [
        {
          "internalType": "uint256",
          "name": "proposalId",
          "type": "uint256"
        }
      ],
      "name": "cancel",
      "outputs": [],
      "payable": false,
      "stateMutability": "nonpayable",
      "type": "function"
    },
    {
      "constant": false,
      "inputs": [
        {
          "internalType": "uint256",
          "name": "proposalId",
          "type": "uint256"
        },
        {
          "internalType": "bool",
          "name": "support",
          "type": "bool"
        }
      ],
      "name": "castVote",
      "outputs": [],
      "payable": false,
      "stateMutability": "nonpayable",
      "type": "function"
    },
    {
      "constant": false,
      "inputs": [
        {
          "internalType": "uint256",
          "name": "proposalId",
          "type": "uint256"
        },
        {
          "internalType": "bool",
          "name": "support",
          "type": "bool"
        },
        {
          "internalType": "uint8",
          "name": "v",
          "type": "uint8"
        },
        {
          "internalType": "bytes32",
          "name": "r",
          "type": "bytes32"
        },
        {
          "internalType": "bytes32",
          "name": "s",
          "type": "bytes32"
        }
      ],
      "name": "castVoteBySig",
      "outputs": [],
      "payable": false,
      "stateMutability": "nonpayable",
      "type": "function"
    },
    {
      "constant": true,
      "inputs": [],
      "name": "comp",
      "outputs": [
        {
          "internalType": "contract CompInterface",
          "name": "",
          "type": "address"
        }
      ],
      "payable": false,
      "stateMutability": "view",
      "type": "function"
    },
    {
      "constant": false,
      "inputs": [
        {
          "internalType": "uint256",
          "name": "proposalId",
          "type": "uint256"
        }
      ],
      "name": "execute",
      "outputs": [],
      "payable": true,
      "stateMutability": "payable",
      "type": "function"
    },
    {
      "constant": true,
      "inputs": [
        {
          "internalType": "uint256",
          "name": "proposalId",
          "type": "uint256"
        }
      ],
      "name": "getActions",
      "outputs": [
        {
          "internalType": "address[]",
          "name": "targets",
          "type": "address[]"
        },
        {
          "internalType": "uint256[]",
          "name": "values",
          "type": "uint256[]"
        },
        {
          "internalType": "string[]",
          "name": "signatures",
          "type": "string[]"
        },
        {
          "internalType": "bytes[]",
          "name": "calldatas",
          "type": "bytes[]"
        }
      ],
      "payable": false,
      "stateMutability": "view",
      "type": "function"
    },
    {
      "constant": true,
      "inputs": [
        {
          "internalType": "uint256",
          "name": "proposalId",
          "type": "uint256"
        },
        {
          "internalType": "address",
          "name": "voter",
          "type": "address"
        }
      ],
      "name": "getReceipt",
      "outputs": [
        {
          "components": [
            {
              "internalType": "bool",
              "name": "hasVoted",
              "type": "bool"
            },
            {
              "internalType": "bool",
              "name": "support",
              "type": "bool"
            },
            {
              "internalType": "uint96",
              "name": "votes",
              "type": "uint96"
            }
          ],
          "internalType": "struct GA.Receipt",
          "name": "",
          "type": "tuple"
        }
      ],
      "payable": false,
      "stateMutability": "view",
      "type": "function"
    },
    {
      "constant": true,
      "inputs": [],
      "name": "getStoredNumber",
      "outputs": [
        {
          "internalType": "uint256",
          "name": "",
          "type": "uint256"
        }
      ],
      "payable": false,
      "stateMutability": "view",
      "type": "function"
    },
    {
      "constant": true,
      "inputs": [],
      "name": "guardian",
      "outputs": [
        {
          "internalType": "address",
          "name": "",
          "type": "address"
        }
      ],
      "payable": false,
      "stateMutability": "view",
      "type": "function"
    },
    {
      "constant": true,
      "inputs": [
        {
          "internalType": "address",
          "name": "",
          "type": "address"
        }
      ],
      "name": "latestProposalIds",
      "outputs": [
        {
          "internalType": "uint256",
          "name": "",
          "type": "uint256"
        }
      ],
      "payable": false,
      "stateMutability": "view",
      "type": "function"
    },
    {
      "constant": true,
      "inputs": [],
      "name": "name",
      "outputs": [
        {
          "internalType": "string",
          "name": "",
          "type": "string"
        }
      ],
      "payable": false,
      "stateMutability": "view",
      "type": "function"
    },
    {
      "constant": true,
      "inputs": [],
      "name": "proposalCount",
      "outputs": [
        {
          "internalType": "uint256",
          "name": "",
          "type": "uint256"
        }
      ],
      "payable": false,
      "stateMutability": "view",
      "type": "function"
    },
    {
      "constant": true,
      "inputs": [],
      "name": "proposalMaxOperations",
      "outputs": [
        {
          "internalType": "uint256",
          "name": "",
          "type": "uint256"
        }
      ],
      "payable": false,
      "stateMutability": "pure",
      "type": "function"
    },
    {
      "constant": true,
      "inputs": [],
      "name": "proposalThreshold",
      "outputs": [
        {
          "internalType": "uint256",
          "name": "",
          "type": "uint256"
        }
      ],
      "payable": false,
      "stateMutability": "pure",
      "type": "function"
    },
    {
      "constant": true,
      "inputs": [
        {
          "internalType": "uint256",
          "name": "",
          "type": "uint256"
        }
      ],
      "name": "proposals",
      "outputs": [
        {
          "internalType": "uint256",
          "name": "id",
          "type": "uint256"
        },
        {
          "internalType": "address",
          "name": "proposer",
          "type": "address"
        },
        {
          "internalType": "uint256",
          "name": "eta",
          "type": "uint256"
        },
        {
          "internalType": "uint256",
          "name": "startBlock",
          "type": "uint256"
        },
        {
          "internalType": "uint256",
          "name": "endBlock",
          "type": "uint256"
        },
        {
          "internalType": "uint256",
          "name": "forVotes",
          "type": "uint256"
        },
        {
          "internalType": "uint256",
          "name": "againstVotes",
          "type": "uint256"
        },
        {
          "internalType": "bool",
          "name": "canceled",
          "type": "bool"
        },
        {
          "internalType": "bool",
          "name": "executed",
          "type": "bool"
        }
      ],
      "payable": false,
      "stateMutability": "view",
      "type": "function"
    },
    {
      "constant": false,
      "inputs": [
        {
          "internalType": "address[]",
          "name": "targets",
          "type": "address[]"
        },
        {
          "internalType": "uint256[]",
          "name": "values",
          "type": "uint256[]"
        },
        {
          "internalType": "string[]",
          "name": "signatures",
          "type": "string[]"
        },
        {
          "internalType": "bytes[]",
          "name": "calldatas",
          "type": "bytes[]"
        },
        {
          "internalType": "string",
          "name": "description",
          "type": "string"
        }
      ],
      "name": "propose",
      "outputs": [
        {
          "internalType": "uint256",
          "name": "",
          "type": "uint256"
        }
      ],
      "payable": false,
      "stateMutability": "nonpayable",
      "type": "function"
    },
    {
      "constant": false,
      "inputs": [
        {
          "internalType": "uint256",
          "name": "proposalId",
          "type": "uint256"
        }
      ],
      "name": "queue",
      "outputs": [],
      "payable": false,
      "stateMutability": "nonpayable",
      "type": "function"
    },
    {
      "constant": true,
      "inputs": [],
      "name": "quorumVotes",
      "outputs": [
        {
          "internalType": "uint256",
          "name": "",
          "type": "uint256"
        }
      ],
      "payable": false,
      "stateMutability": "pure",
      "type": "function"
    },
    {
      "constant": false,
      "inputs": [
        {
          "internalType": "uint256",
          "name": "_num",
          "type": "uint256"
        }
      ],
      "name": "setStoredNumber",
      "outputs": [
        {
          "internalType": "uint256",
          "name": "",
          "type": "uint256"
        }
      ],
      "payable": false,
      "stateMutability": "nonpayable",
      "type": "function"
    },
    {
      "constant": true,
      "inputs": [
        {
          "internalType": "uint256",
          "name": "proposalId",
          "type": "uint256"
        }
      ],
      "name": "state",
      "outputs": [
        {
          "internalType": "enum GA.ProposalState",
          "name": "",
          "type": "uint8"
        }
      ],
      "payable": false,
      "stateMutability": "view",
      "type": "function"
    },
    {
      "constant": true,
      "inputs": [],
      "name": "storedNumber",
      "outputs": [
        {
          "internalType": "uint256",
          "name": "",
          "type": "uint256"
        }
      ],
      "payable": false,
      "stateMutability": "view",
      "type": "function"
    },
    {
      "constant": true,
      "inputs": [],
      "name": "timelock",
      "outputs": [
        {
          "internalType": "contract TimelockInterface",
          "name": "",
          "type": "address"
        }
      ],
      "payable": false,
      "stateMutability": "view",
      "type": "function"
    },
    {
      "constant": false,
      "inputs": [],
      "name": "validate",
      "outputs": [
        {
          "internalType": "uint256",
          "name": "",
          "type": "uint256"
        }
      ],
      "payable": false,
      "stateMutability": "nonpayable",
      "type": "function"
    },
    {
      "constant": true,
      "inputs": [],
      "name": "votingDelay",
      "outputs": [
        {
          "internalType": "uint256",
          "name": "",
          "type": "uint256"
        }
      ],
      "payable": false,
      "stateMutability": "pure",
      "type": "function"
    },
    {
      "constant": true,
      "inputs": [],
      "name": "votingPeriod",
      "outputs": [
        {
          "internalType": "uint256",
          "name": "",
          "type": "uint256"
        }
      ],
      "payable": false,
      "stateMutability": "pure",
      "type": "function"
    }
  ],
  "bytecode": "0x60806040523480156200001157600080fd5b50604051620057a4380380620057a483398181016040526200003791908101906200011a565b82600260006101000a81548173ffffffffffffffffffffffffffffffffffffffff021916908373ffffffffffffffffffffffffffffffffffffffff16021790555081600360006101000a81548173ffffffffffffffffffffffffffffffffffffffff021916908373ffffffffffffffffffffffffffffffffffffffff16021790555080600460006101000a81548173ffffffffffffffffffffffffffffffffffffffff021916908373ffffffffffffffffffffffffffffffffffffffff160217905550505050620001be565b6000815190506200011481620001a4565b92915050565b6000806000606084860312156200013057600080fd5b6000620001408682870162000103565b9350506020620001538682870162000103565b9250506040620001668682870162000103565b9150509250925092565b60006200017d8262000184565b9050919050565b600073ffffffffffffffffffffffffffffffffffffffff82169050919050565b620001af8162000170565b8114620001bb57600080fd5b50565b6155d680620001ce6000396000f3fe6080604052600436106101d85760003560e01c80634634c61f11610102578063d33219b411610095578063deaaa7cc11610064578063deaaa7cc146106a9578063e23a9a52146106d4578063fc412ba114610711578063fe0d94c11461073c576101d8565b8063d33219b4146105ed578063da35c66414610618578063da95691a14610643578063ddf0b00914610680576101d8565b806391500671116100d15780639150067114610545578063b58131b01461056e578063b92f9c0614610599578063b9a61961146105d6576101d8565b80634634c61f146104af5780636901f668146104d8578063760fbc13146105035780637bdbe4d01461051a576101d8565b806320606b701161017a5780633932abb1116101495780633932abb1146103f35780633e4f49e61461041e57806340e58ee51461045b578063452a932014610484576101d8565b806320606b701461033457806321f43e421461035f57806324bc1a6414610388578063328dd982146103b3576101d8565b806309ce9ccb116101b657806309ce9ccb14610278578063109d0af8146102a357806315373e3d146102ce57806317977c61146102f7576101d8565b8063013cf08b146101dd57806302a251a31461022257806306fdde031461024d575b600080fd5b3480156101e957600080fd5b5061020460048036036101ff91908101906136c9565b610758565b60405161021999989796959493929190614fa5565b60405180910390f35b34801561022e57600080fd5b506102376107e0565b6040516102449190614eda565b60405180910390f35b34801561025957600080fd5b506102626107ea565b60405161026f9190614bcd565b60405180910390f35b34801561028457600080fd5b5061028d610823565b60405161029a9190614eda565b60405180910390f35b3480156102af57600080fd5b506102b8610829565b6040516102c59190614b7c565b60405180910390f35b3480156102da57600080fd5b506102f560048036036102f09190810190613757565b61084f565b005b34801561030357600080fd5b5061031e600480360361031991908101906134e2565b6108d3565b60405161032b9190614eda565b60405180910390f35b34801561034057600080fd5b506103496108eb565b6040516103569190614aa0565b60405180910390f35b34801561036b57600080fd5b506103866004803603610381919081019061350b565b610902565b005b34801561039457600080fd5b5061039d610a91565b6040516103aa9190614eda565b60405180910390f35b3480156103bf57600080fd5b506103da60048036036103d591908101906136c9565b610aa1565b6040516103ea9493929190614a3f565b60405180910390f35b3480156103ff57600080fd5b50610408610d7e565b6040516104159190614eda565b60405180910390f35b34801561042a57600080fd5b50610445600480360361044091908101906136c9565b610d87565b6040516104529190614bb2565b60405180910390f35b34801561046757600080fd5b50610482600480360361047d91908101906136c9565b610f6c565b005b34801561049057600080fd5b50610499611309565b6040516104a69190614895565b60405180910390f35b3480156104bb57600080fd5b506104d660048036036104d19190810190613793565b61132f565b005b3480156104e457600080fd5b506104ed6114fe565b6040516104fa9190614eda565b60405180910390f35b34801561050f57600080fd5b50610518611669565b005b34801561052657600080fd5b5061052f61173d565b60405161053c9190614eda565b60405180910390f35b34801561055157600080fd5b5061056c6004803603610567919081019061350b565b611746565b005b34801561057a57600080fd5b506105836118d0565b6040516105909190614eda565b60405180910390f35b3480156105a557600080fd5b506105c060048036036105bb91908101906136c9565b6118e2565b6040516105cd9190614eda565b60405180910390f35b3480156105e257600080fd5b506105eb61198f565b005b3480156105f957600080fd5b50610602611aa3565b60405161060f9190614b97565b60405180910390f35b34801561062457600080fd5b5061062d611ac9565b60405161063a9190614eda565b60405180910390f35b34801561064f57600080fd5b5061066a60048036036106659190810190613547565b611acf565b6040516106779190614eda565b60405180910390f35b34801561068c57600080fd5b506106a760048036036106a291908101906136c9565b611f8f565b005b3480156106b557600080fd5b506106be6122df565b6040516106cb9190614aa0565b60405180910390f35b3480156106e057600080fd5b506106fb60048036036106f6919081019061371b565b6122f6565b6040516107089190614ebf565b60405180910390f35b34801561071d57600080fd5b506107266123d8565b6040516107339190614eda565b60405180910390f35b610756600480360361075191908101906136c9565b6123e1565b005b60066020528060005260406000206000915090508060000154908060010160009054906101000a900473ffffffffffffffffffffffffffffffffffffffff169080600201549080600701549080600801549080600901549080600a01549080600b0160009054906101000a900460ff169080600b0160019054906101000a900460ff16905089565b6000614380905090565b6040518060400160405280601781526020017f436f6d706f756e6420476f7665726e6f7220416c70686100000000000000000081525081565b60005481565b600360009054906101000a900473ffffffffffffffffffffffffffffffffffffffff1681565b6108c46040518060400160405280600a81526020017f70726f706f7365723a20000000000000000000000000000000000000000000008152506006600085815260200190815260200160002060010160009054906101000a900473ffffffffffffffffffffffffffffffffffffffff1661262f565b6108cf3383836126cb565b5050565b60076020528060005260406000206000915090505481565b6040516108f79061486b565b604051809103902081565b600460009054906101000a900473ffffffffffffffffffffffffffffffffffffffff1673ffffffffffffffffffffffffffffffffffffffff163373ffffffffffffffffffffffffffffffffffffffff1614610992576040517f08c379a000000000000000000000000000000000000000000000000000000000815260040161098990614c7f565b60405180910390fd5b600260009054906101000a900473ffffffffffffffffffffffffffffffffffffffff1673ffffffffffffffffffffffffffffffffffffffff16630825f38f600260009054906101000a900473ffffffffffffffffffffffffffffffffffffffff16600085604051602001610a069190614895565b604051602081830303815290604052856040518563ffffffff1660e01b8152600401610a3594939291906148b0565b600060405180830381600087803b158015610a4f57600080fd5b505af1158015610a63573d6000803e3d6000fd5b505050506040513d6000823e3d601f19601f82011682018060405250610a8c9190810190613688565b505050565b6000670de0b6b3a7640000905090565b60608060608060006006600087815260200190815260200160002090508060030181600401826005018360060183805480602002602001604051908101604052809291908181526020018280548015610b4f57602002820191906000526020600020905b8160009054906101000a900473ffffffffffffffffffffffffffffffffffffffff1673ffffffffffffffffffffffffffffffffffffffff1681526020019060010190808311610b05575b5050505050935082805480602002602001604051908101604052809291908181526020018280548015610ba157602002820191906000526020600020905b815481526020019060010190808311610b8d575b5050505050925081805480602002602001604051908101604052809291908181526020016000905b82821015610c85578382906000526020600020018054600181600116156101000203166002900480601f016020809104026020016040519081016040528092919081815260200182805460018160011615610100020316600290048015610c715780601f10610c4657610100808354040283529160200191610c71565b820191906000526020600020905b815481529060010190602001808311610c5457829003601f168201915b505050505081526020019060010190610bc9565b50505050915080805480602002602001604051908101604052809291908181526020016000905b82821015610d68578382906000526020600020018054600181600116156101000203166002900480601f016020809104026020016040519081016040528092919081815260200182805460018160011615610100020316600290048015610d545780601f10610d2957610100808354040283529160200191610d54565b820191906000526020600020905b815481529060010190602001808311610d3757829003601f168201915b505050505081526020019060010190610cac565b5050505090509450945094509450509193509193565b60006001905090565b60008160055410158015610d9b5750600082115b610dda576040517f08c379a0000000000000000000000000000000000000000000000000000000008152600401610dd190614c9f565b60405180910390fd5b600060066000848152602001908152602001600020905080600b0160009054906101000a900460ff1615610e12576002915050610f67565b80600701544311610e27576000915050610f67565b80600801544311610e3c576001915050610f67565b80600a01548160090154111580610e5d5750610e56610a91565b8160090154105b15610e6c576003915050610f67565b600081600201541415610e83576004915050610f67565b80600b0160019054906101000a900460ff1615610ea4576007915050610f67565b610f518160020154600260009054906101000a900473ffffffffffffffffffffffffffffffffffffffff1673ffffffffffffffffffffffffffffffffffffffff1663c1a287e26040518163ffffffff1660e01b815260040160206040518083038186803b158015610f1457600080fd5b505afa158015610f28573d6000803e3d6000fd5b505050506040513d601f19601f82011682018060405250610f4c91908101906136f2565b61299a565b4210610f61576006915050610f67565b60059150505b919050565b6000610f7782610d87565b9050600780811115610f8557fe5b816007811115610f9157fe5b1415610fd2576040517f08c379a0000000000000000000000000000000000000000000000000000000008152600401610fc990614e3f565b60405180910390fd5b6000600660008481526020019081526020016000209050600460009054906101000a900473ffffffffffffffffffffffffffffffffffffffff1673ffffffffffffffffffffffffffffffffffffffff163373ffffffffffffffffffffffffffffffffffffffff16148061113357506110486118d0565b600360009054906101000a900473ffffffffffffffffffffffffffffffffffffffff1673ffffffffffffffffffffffffffffffffffffffff1663782d6fe18360010160009054906101000a900473ffffffffffffffffffffffffffffffffffffffff166110b64360016129ef565b6040518363ffffffff1660e01b81526004016110d392919061490f565b60206040518083038186803b1580156110eb57600080fd5b505afa1580156110ff573d6000803e3d6000fd5b505050506040513d601f19601f82011682018060405250611123919081019061380a565b6bffffffffffffffffffffffff16105b611172576040517f08c379a000000000000000000000000000000000000000000000000000000000815260040161116990614d9f565b60405180910390fd5b600181600b0160006101000a81548160ff02191690831515021790555060008090505b81600301805490508110156112cc57600260009054906101000a900473ffffffffffffffffffffffffffffffffffffffff1673ffffffffffffffffffffffffffffffffffffffff1663591fcdfe8360030183815481106111f157fe5b9060005260206000200160009054906101000a900473ffffffffffffffffffffffffffffffffffffffff1684600401848154811061122b57fe5b906000526020600020015485600501858154811061124557fe5b9060005260206000200186600601868154811061125e57fe5b9060005260206000200187600201546040518663ffffffff1660e01b815260040161128d9594939291906149de565b600060405180830381600087803b1580156112a757600080fd5b505af11580156112bb573d6000803e3d6000fd5b505050508080600101915050611195565b507f789cf55be980739dad1d0699b93b58e806b51c9d96619bfa8fe0a28abaa7b30c836040516112fc9190614eda565b60405180910390a1505050565b600460009054906101000a900473ffffffffffffffffffffffffffffffffffffffff1681565b600060405161133d9061486b565b60405180910390206040518060400160405280601781526020017f436f6d706f756e6420476f7665726e6f7220416c7068610000000000000000008152508051906020012061138a612a3f565b3060405160200161139e9493929190614abb565b60405160208183030381529060405280519060200120905060006040516113c490614880565b604051809103902087876040516020016113e093929190614b00565b6040516020818303038152906040528051906020012090506000828260405160200161140d929190614834565b60405160208183030381529060405280519060200120905060006001828888886040516000815260200160405260405161144a9493929190614b37565b6020604051602081039080840390855afa15801561146c573d6000803e3d6000fd5b505050602060405103519050600073ffffffffffffffffffffffffffffffffffffffff168173ffffffffffffffffffffffffffffffffffffffff1614156114e8576040517f08c379a00000000000000000000000000000000000000000000000000000000081526004016114df90614dff565b60405180910390fd5b6114f3818a8a6126cb565b505050505050505050565b600080600160003373ffffffffffffffffffffffffffffffffffffffff1673ffffffffffffffffffffffffffffffffffffffff1681526020019081526020016000206000015414156115b1576040518060200160405280600f4201815250600160003373ffffffffffffffffffffffffffffffffffffffff1673ffffffffffffffffffffffffffffffffffffffff1681526020019081526020016000206000820151816000015590505060009050611666565b42600160003373ffffffffffffffffffffffffffffffffffffffff1673ffffffffffffffffffffffffffffffffffffffff16815260200190815260200160002060000154106116035760019050611666565b6040518060200160405280600a4201815250600160003373ffffffffffffffffffffffffffffffffffffffff1673ffffffffffffffffffffffffffffffffffffffff16815260200190815260200160002060008201518160000155905050600290505b90565b600460009054906101000a900473ffffffffffffffffffffffffffffffffffffffff1673ffffffffffffffffffffffffffffffffffffffff163373ffffffffffffffffffffffffffffffffffffffff16146116f9576040517f08c379a00000000000000000000000000000000000000000000000000000000081526004016116f090614e9f565b60405180910390fd5b6000600460006101000a81548173ffffffffffffffffffffffffffffffffffffffff021916908373ffffffffffffffffffffffffffffffffffffffff160217905550565b6000600a905090565b600460009054906101000a900473ffffffffffffffffffffffffffffffffffffffff1673ffffffffffffffffffffffffffffffffffffffff163373ffffffffffffffffffffffffffffffffffffffff16146117d6576040517f08c379a00000000000000000000000000000000000000000000000000000000081526004016117cd90614d1f565b60405180910390fd5b600260009054906101000a900473ffffffffffffffffffffffffffffffffffffffff1673ffffffffffffffffffffffffffffffffffffffff16633a66f901600260009054906101000a900473ffffffffffffffffffffffffffffffffffffffff1660008560405160200161184a9190614895565b604051602081830303815290604052856040518563ffffffff1660e01b815260040161187994939291906148b0565b602060405180830381600087803b15801561189357600080fd5b505af11580156118a7573d6000803e3d6000fd5b505050506040513d601f19601f820116820180604052506118cb919081019061365f565b505050565b600069152d02c7e14af6800000905090565b60008042600160003373ffffffffffffffffffffffffffffffffffffffff1673ffffffffffffffffffffffffffffffffffffffff168152602001908152602001600020600001541115611938576001905061193d565b600090505b8061197d576040517f08c379a000000000000000000000000000000000000000000000000000000000815260040161197490614cbf565b60405180910390fd5b82600081905550600054915050919050565b600460009054906101000a900473ffffffffffffffffffffffffffffffffffffffff1673ffffffffffffffffffffffffffffffffffffffff163373ffffffffffffffffffffffffffffffffffffffff1614611a1f576040517f08c379a0000000000000000000000000000000000000000000000000000000008152600401611a1690614c1f565b60405180910390fd5b600260009054906101000a900473ffffffffffffffffffffffffffffffffffffffff1673ffffffffffffffffffffffffffffffffffffffff16630e18b6816040518163ffffffff1660e01b8152600401600060405180830381600087803b158015611a8957600080fd5b505af1158015611a9d573d6000803e3d6000fd5b50505050565b600260009054906101000a900473ffffffffffffffffffffffffffffffffffffffff1681565b60055481565b600084518651148015611ae3575083518651145b8015611af0575082518651145b611b2f576040517f08c379a0000000000000000000000000000000000000000000000000000000008152600401611b2690614d7f565b60405180910390fd5b600086511415611b74576040517f08c379a0000000000000000000000000000000000000000000000000000000008152600401611b6b90614ddf565b60405180910390fd5b611b7c61173d565b86511115611bbf576040517f08c379a0000000000000000000000000000000000000000000000000000000008152600401611bb690614d3f565b60405180910390fd5b6000600760003373ffffffffffffffffffffffffffffffffffffffff1673ffffffffffffffffffffffffffffffffffffffff16815260200190815260200160002054905060008114611cce576000611c1682610d87565b905060016007811115611c2557fe5b816007811115611c3157fe5b1415611c72576040517f08c379a0000000000000000000000000000000000000000000000000000000008152600401611c6990614e1f565b60405180910390fd5b60006007811115611c7f57fe5b816007811115611c8b57fe5b1415611ccc576040517f08c379a0000000000000000000000000000000000000000000000000000000008152600401611cc390614cff565b60405180910390fd5b505b6000611ce143611cdc610d7e565b61299a565b90506000611cf682611cf16107e0565b61299a565b9050600560008154809291906001019190505550611d12612c4b565b604051806101a0016040528060055481526020013373ffffffffffffffffffffffffffffffffffffffff168152602001600081526020018b81526020018a815260200189815260200188815260200184815260200183815260200160008152602001600081526020016000151581526020016000151581525090508060066000836000015181526020019081526020016000206000820151816000015560208201518160010160006101000a81548173ffffffffffffffffffffffffffffffffffffffff021916908373ffffffffffffffffffffffffffffffffffffffff160217905550604082015181600201556060820151816003019080519060200190611e1c929190612ccd565b506080820151816004019080519060200190611e39929190612d57565b5060a0820151816005019080519060200190611e56929190612da4565b5060c0820151816006019080519060200190611e73929190612e04565b5060e082015181600701556101008201518160080155610120820151816009015561014082015181600a015561016082015181600b0160006101000a81548160ff02191690831515021790555061018082015181600b0160016101000a81548160ff021916908315150217905550905050806000015160076000836020015173ffffffffffffffffffffffffffffffffffffffff1673ffffffffffffffffffffffffffffffffffffffff168152602001908152602001600020819055507f7d84a6263ae0d98d3329bd7b46bb4e8d6f98cd35a7adb45c274c8b7fd5ebd5e08160000151338c8c8c8c89898e604051611f7399989796959493929190614ef5565b60405180910390a1806000015194505050505095945050505050565b60046007811115611f9c57fe5b611fa582610d87565b6007811115611fb057fe5b14611ff0576040517f08c379a0000000000000000000000000000000000000000000000000000000008152600401611fe790614c3f565b60405180910390fd5b600060066000838152602001908152602001600020905060006120b242600260009054906101000a900473ffffffffffffffffffffffffffffffffffffffff1673ffffffffffffffffffffffffffffffffffffffff16636a42b8f86040518163ffffffff1660e01b815260040160206040518083038186803b15801561207557600080fd5b505afa158015612089573d6000803e3d6000fd5b505050506040513d601f19601f820116820180604052506120ad91908101906136f2565b61299a565b905060008090505b82600301805490508110156122975761228a8360030182815481106120db57fe5b9060005260206000200160009054906101000a900473ffffffffffffffffffffffffffffffffffffffff1684600401838154811061211557fe5b906000526020600020015485600501848154811061212f57fe5b906000526020600020018054600181600116156101000203166002900480601f0160208091040260200160405190810160405280929190818152602001828054600181600116156101000203166002900480156121cd5780601f106121a2576101008083540402835291602001916121cd565b820191906000526020600020905b8154815290600101906020018083116121b057829003601f168201915b50505050508660060185815481106121e157fe5b906000526020600020018054600181600116156101000203166002900480601f01602080910402602001604051908101604052809291908181526020018280546001816001161561010002031660029004801561227f5780601f106122545761010080835404028352916020019161227f565b820191906000526020600020905b81548152906001019060200180831161226257829003601f168201915b505050505086612a4c565b80806001019150506120ba565b508082600201819055507f9a2e42fd6722813d69113e7d0079d3d940171428df7373df9c7f7617cfda289283826040516122d2929190615032565b60405180910390a1505050565b6040516122eb90614880565b604051809103902081565b6122fe612e64565b60066000848152602001908152602001600020600c0160008373ffffffffffffffffffffffffffffffffffffffff1673ffffffffffffffffffffffffffffffffffffffff1681526020019081526020016000206040518060600160405290816000820160009054906101000a900460ff161515151581526020016000820160019054906101000a900460ff161515151581526020016000820160029054906101000a90046bffffffffffffffffffffffff166bffffffffffffffffffffffff166bffffffffffffffffffffffff1681525050905092915050565b60008054905090565b600560078111156123ee57fe5b6123f782610d87565b600781111561240257fe5b14612442576040517f08c379a000000000000000000000000000000000000000000000000000000000815260040161243990614c5f565b60405180910390fd5b6000600660008381526020019081526020016000209050600181600b0160016101000a81548160ff02191690831515021790555060008090505b81600301805490508110156125f357600260009054906101000a900473ffffffffffffffffffffffffffffffffffffffff1673ffffffffffffffffffffffffffffffffffffffff16630825f38f8360040183815481106124d857fe5b90600052602060002001548460030184815481106124f257fe5b9060005260206000200160009054906101000a900473ffffffffffffffffffffffffffffffffffffffff1685600401858154811061252c57fe5b906000526020600020015486600501868154811061254657fe5b9060005260206000200187600601878154811061255f57fe5b9060005260206000200188600201546040518763ffffffff1660e01b815260040161258e9594939291906149de565b6000604051808303818588803b1580156125a757600080fd5b505af11580156125bb573d6000803e3d6000fd5b50505050506040513d6000823e3d601f19601f820116820180604052506125e59190810190613688565b50808060010191505061247c565b507f712ae1383f79ac853f8d882153778e0260ef8f03b504e2866e0593e04d2b291f826040516126239190614eda565b60405180910390a15050565b6126c78282604051602401612645929190614bef565b6040516020818303038152906040527f319af333000000000000000000000000000000000000000000000000000000007bffffffffffffffffffffffffffffffffffffffffffffffffffffffff19166020820180517bffffffffffffffffffffffffffffffffffffffffffffffffffffffff8381831617835250505050612c22565b5050565b600160078111156126d857fe5b6126e183610d87565b60078111156126ec57fe5b1461272c576040517f08c379a000000000000000000000000000000000000000000000000000000000815260040161272390614e5f565b60405180910390fd5b6000600660008481526020019081526020016000209050600081600c0160008673ffffffffffffffffffffffffffffffffffffffff1673ffffffffffffffffffffffffffffffffffffffff1681526020019081526020016000209050600015158160000160009054906101000a900460ff161515146127e0576040517f08c379a00000000000000000000000000000000000000000000000000000000081526004016127d790614cdf565b60405180910390fd5b6000600360009054906101000a900473ffffffffffffffffffffffffffffffffffffffff1673ffffffffffffffffffffffffffffffffffffffff1663782d6fe18785600701546040518363ffffffff1660e01b815260040161284392919061490f565b60206040518083038186803b15801561285b57600080fd5b505afa15801561286f573d6000803e3d6000fd5b505050506040513d601f19601f82011682018060405250612893919081019061380a565b905083156128c4576128b78360090154826bffffffffffffffffffffffff1661299a565b83600901819055506128e9565b6128e083600a0154826bffffffffffffffffffffffff1661299a565b83600a01819055505b60018260000160006101000a81548160ff021916908315150217905550838260000160016101000a81548160ff021916908315150217905550808260000160026101000a8154816bffffffffffffffffffffffff02191690836bffffffffffffffffffffffff1602179055507f877856338e13f63d0c36822ff0ef736b80934cd90574a3a5bc9262c39d217c468686868460405161298a9493929190614938565b60405180910390a1505050505050565b6000808284019050838110156129e5576040517f08c379a00000000000000000000000000000000000000000000000000000000081526004016129dc90614d5f565b60405180910390fd5b8091505092915050565b600082821115612a34576040517f08c379a0000000000000000000000000000000000000000000000000000000008152600401612a2b90614e7f565b60405180910390fd5b818303905092915050565b6000804690508091505090565b600260009054906101000a900473ffffffffffffffffffffffffffffffffffffffff1673ffffffffffffffffffffffffffffffffffffffff1663f2b065378686868686604051602001612aa395949392919061497d565b604051602081830303815290604052805190602001206040518263ffffffff1660e01b8152600401612ad59190614aa0565b60206040518083038186803b158015612aed57600080fd5b505afa158015612b01573d6000803e3d6000fd5b505050506040513d601f19601f82011682018060405250612b259190810190613636565b15612b65576040517f08c379a0000000000000000000000000000000000000000000000000000000008152600401612b5c90614dbf565b60405180910390fd5b600260009054906101000a900473ffffffffffffffffffffffffffffffffffffffff1673ffffffffffffffffffffffffffffffffffffffff16633a66f90186868686866040518663ffffffff1660e01b8152600401612bc895949392919061497d565b602060405180830381600087803b158015612be257600080fd5b505af1158015612bf6573d6000803e3d6000fd5b505050506040513d601f19601f82011682018060405250612c1a919081019061365f565b505050505050565b60008151905060006a636f6e736f6c652e6c6f679050602083016000808483855afa5050505050565b604051806101a0016040528060008152602001600073ffffffffffffffffffffffffffffffffffffffff1681526020016000815260200160608152602001606081526020016060815260200160608152602001600081526020016000815260200160008152602001600081526020016000151581526020016000151581525090565b828054828255906000526020600020908101928215612d46579160200282015b82811115612d455782518260006101000a81548173ffffffffffffffffffffffffffffffffffffffff021916908373ffffffffffffffffffffffffffffffffffffffff16021790555091602001919060010190612ced565b5b509050612d539190612e97565b5090565b828054828255906000526020600020908101928215612d93579160200282015b82811115612d92578251825591602001919060010190612d77565b5b509050612da09190612eda565b5090565b828054828255906000526020600020908101928215612df3579160200282015b82811115612df2578251829080519060200190612de2929190612eff565b5091602001919060010190612dc4565b5b509050612e009190612f7f565b5090565b828054828255906000526020600020908101928215612e53579160200282015b82811115612e52578251829080519060200190612e42929190612fab565b5091602001919060010190612e24565b5b509050612e60919061302b565b5090565b604051806060016040528060001515815260200160001515815260200160006bffffffffffffffffffffffff1681525090565b612ed791905b80821115612ed357600081816101000a81549073ffffffffffffffffffffffffffffffffffffffff021916905550600101612e9d565b5090565b90565b612efc91905b80821115612ef8576000816000905550600101612ee0565b5090565b90565b828054600181600116156101000203166002900490600052602060002090601f016020900481019282601f10612f4057805160ff1916838001178555612f6e565b82800160010185558215612f6e579182015b82811115612f6d578251825591602001919060010190612f52565b5b509050612f7b9190612eda565b5090565b612fa891905b80821115612fa45760008181612f9b9190613057565b50600101612f85565b5090565b90565b828054600181600116156101000203166002900490600052602060002090601f016020900481019282601f10612fec57805160ff191683800117855561301a565b8280016001018555821561301a579182015b82811115613019578251825591602001919060010190612ffe565b5b5090506130279190612eda565b5090565b61305491905b808211156130505760008181613047919061309f565b50600101613031565b5090565b90565b50805460018160011615610100020316600290046000825580601f1061307d575061309c565b601f01602090049060005260206000209081019061309b9190612eda565b5b50565b50805460018160011615610100020316600290046000825580601f106130c557506130e4565b601f0160209004906000526020600020908101906130e39190612eda565b5b50565b6000813590506130f681615509565b92915050565b600082601f83011261310d57600080fd5b813561312061311b82615088565b61505b565b9150818183526020840193506020810190508385602084028201111561314557600080fd5b60005b83811015613175578161315b88826130e7565b845260208401935060208301925050600181019050613148565b5050505092915050565b600082601f83011261319057600080fd5b81356131a361319e826150b0565b61505b565b9150818183526020840193506020810190508360005b838110156131e957813586016131cf888261333e565b8452602084019350602083019250506001810190506131b9565b5050505092915050565b600082601f83011261320457600080fd5b8135613217613212826150d8565b61505b565b9150818183526020840193506020810190508360005b8381101561325d578135860161324388826133e6565b84526020840193506020830192505060018101905061322d565b5050505092915050565b600082601f83011261327857600080fd5b813561328b61328682615100565b61505b565b915081818352602084019350602081019050838560208402820111156132b057600080fd5b60005b838110156132e057816132c6888261348e565b8452602084019350602083019250506001810190506132b3565b5050505092915050565b6000813590506132f981615520565b92915050565b60008151905061330e81615520565b92915050565b60008135905061332381615537565b92915050565b60008151905061333881615537565b92915050565b600082601f83011261334f57600080fd5b813561336261335d82615128565b61505b565b9150808252602083016020830185838301111561337e57600080fd5b61338983828461549f565b50505092915050565b600082601f8301126133a357600080fd5b81516133b66133b182615154565b61505b565b915080825260208301602083018583830111156133d257600080fd5b6133dd8382846154ae565b50505092915050565b600082601f8301126133f757600080fd5b813561340a61340582615180565b61505b565b9150808252602083016020830185838301111561342657600080fd5b61343183828461549f565b50505092915050565b600082601f83011261344b57600080fd5b813561345e613459826151ac565b61505b565b9150808252602083016020830185838301111561347a57600080fd5b61348583828461549f565b50505092915050565b60008135905061349d8161554e565b92915050565b6000815190506134b28161554e565b92915050565b6000813590506134c781615565565b92915050565b6000815190506134dc8161557c565b92915050565b6000602082840312156134f457600080fd5b6000613502848285016130e7565b91505092915050565b6000806040838503121561351e57600080fd5b600061352c858286016130e7565b925050602061353d8582860161348e565b9150509250929050565b600080600080600060a0868803121561355f57600080fd5b600086013567ffffffffffffffff81111561357957600080fd5b613585888289016130fc565b955050602086013567ffffffffffffffff8111156135a257600080fd5b6135ae88828901613267565b945050604086013567ffffffffffffffff8111156135cb57600080fd5b6135d7888289016131f3565b935050606086013567ffffffffffffffff8111156135f457600080fd5b6136008882890161317f565b925050608086013567ffffffffffffffff81111561361d57600080fd5b6136298882890161343a565b9150509295509295909350565b60006020828403121561364857600080fd5b6000613656848285016132ff565b91505092915050565b60006020828403121561367157600080fd5b600061367f84828501613329565b91505092915050565b60006020828403121561369a57600080fd5b600082015167ffffffffffffffff8111156136b457600080fd5b6136c084828501613392565b91505092915050565b6000602082840312156136db57600080fd5b60006136e98482850161348e565b91505092915050565b60006020828403121561370457600080fd5b6000613712848285016134a3565b91505092915050565b6000806040838503121561372e57600080fd5b600061373c8582860161348e565b925050602061374d858286016130e7565b9150509250929050565b6000806040838503121561376a57600080fd5b60006137788582860161348e565b9250506020613789858286016132ea565b9150509250929050565b600080600080600060a086880312156137ab57600080fd5b60006137b98882890161348e565b95505060206137ca888289016132ea565b94505060406137db888289016134b8565b93505060606137ec88828901613314565b92505060806137fd88828901613314565b9150509295509295909350565b60006020828403121561381c57600080fd5b600061382a848285016134cd565b91505092915050565b600061383f838361389a565b60208301905092915050565b60006138578383613adb565b905092915050565b600061386b8383613c18565b905092915050565b600061387f83836147e9565b60208301905092915050565b613894816153eb565b82525050565b6138a381615361565b82525050565b6138b281615361565b82525050565b60006138c382615242565b6138cd81856152ce565b93506138d8836151d8565b8060005b838110156139095781516138f08882613833565b97506138fb8361529a565b9250506001810190506138dc565b5085935050505092915050565b60006139218261524d565b61392b81856152df565b93508360208202850161393d856151e8565b8060005b85811015613979578484038952815161395a858261384b565b9450613965836152a7565b925060208a01995050600181019050613941565b50829750879550505050505092915050565b600061399682615258565b6139a081856152f0565b9350836020820285016139b2856151f8565b8060005b858110156139ee57848403895281516139cf858261385f565b94506139da836152b4565b925060208a019950506001810190506139b6565b50829750879550505050505092915050565b6000613a0b82615263565b613a158185615301565b9350613a2083615208565b8060005b83811015613a51578151613a388882613873565b9750613a43836152c1565b925050600181019050613a24565b5085935050505092915050565b613a6781615373565b82525050565b613a7681615373565b82525050565b613a858161537f565b82525050565b613a9c613a978261537f565b6154e1565b82525050565b6000613aad82615279565b613ab78185615323565b9350613ac78185602086016154ae565b613ad0816154eb565b840191505092915050565b6000613ae68261526e565b613af08185615312565b9350613b008185602086016154ae565b613b09816154eb565b840191505092915050565b600081546001811660008114613b315760018114613b5757613b9b565b607f6002830416613b428187615323565b955060ff198316865260208601935050613b9b565b60028204613b658187615323565b9550613b7085615218565b60005b82811015613b9257815481890152600182019150602081019050613b73565b80880195505050505b505092915050565b613bac816153fd565b82525050565b613bbb81615421565b82525050565b613bca81615445565b82525050565b613bd981615457565b82525050565b6000613bea8261528f565b613bf48185615345565b9350613c048185602086016154ae565b613c0d816154eb565b840191505092915050565b6000613c2382615284565b613c2d8185615334565b9350613c3d8185602086016154ae565b613c46816154eb565b840191505092915050565b6000613c5c82615284565b613c668185615345565b9350613c768185602086016154ae565b613c7f816154eb565b840191505092915050565b600081546001811660008114613ca75760018114613ccd57613d11565b607f6002830416613cb88187615345565b955060ff198316865260208601935050613d11565b60028204613cdb8187615345565b9550613ce68561522d565b60005b82811015613d0857815481890152600182019150602081019050613ce9565b80880195505050505b505092915050565b6000613d26603983615345565b91507f476f7665726e6f72416c7068613a3a5f5f61636365707441646d696e3a20736560008301527f6e646572206d75737420626520676f7620677561726469616e000000000000006020830152604082019050919050565b6000613d8c604483615345565b91507f476f7665726e6f72416c7068613a3a71756575653a2070726f706f73616c206360008301527f616e206f6e6c792062652071756575656420696620697420697320737563636560208301527f65646564000000000000000000000000000000000000000000000000000000006040830152606082019050919050565b6000613e18604583615345565b91507f476f7665726e6f72416c7068613a3a657865637574653a2070726f706f73616c60008301527f2063616e206f6e6c79206265206578656375746564206966206974206973207160208301527f75657565640000000000000000000000000000000000000000000000000000006040830152606082019050919050565b6000613ea4600283615356565b91507f19010000000000000000000000000000000000000000000000000000000000006000830152600282019050919050565b6000613ee4604c83615345565b91507f476f7665726e6f72416c7068613a3a5f5f6578656375746553657454696d656c60008301527f6f636b50656e64696e6741646d696e3a2073656e646572206d7573742062652060208301527f676f7620677561726469616e00000000000000000000000000000000000000006040830152606082019050919050565b6000613f70601883615345565b91507f73657450656e64696e6741646d696e28616464726573732900000000000000006000830152602082019050919050565b6000613fb0602983615345565b91507f476f7665726e6f72416c7068613a3a73746174653a20696e76616c696420707260008301527f6f706f73616c20696400000000000000000000000000000000000000000000006020830152604082019050919050565b6000614016601f83615345565b91507f75736572206973206e6f742063757272656e746c792076616c696461746564006000830152602082019050919050565b6000614056602d83615345565b91507f476f7665726e6f72416c7068613a3a5f63617374566f74653a20766f7465722060008301527f616c726561647920766f746564000000000000000000000000000000000000006020830152604082019050919050565b60006140bc605983615345565b91507f476f7665726e6f72416c7068613a3a70726f706f73653a206f6e65206c69766560008301527f2070726f706f73616c207065722070726f706f7365722c20666f756e6420616e60208301527f20616c72656164792070656e64696e672070726f706f73616c000000000000006040830152606082019050919050565b6000614148604a83615345565b91507f476f7665726e6f72416c7068613a3a5f5f717565756553657454696d656c6f6360008301527f6b50656e64696e6741646d696e3a2073656e646572206d75737420626520676f60208301527f7620677561726469616e000000000000000000000000000000000000000000006040830152606082019050919050565b60006141d4602883615345565b91507f476f7665726e6f72416c7068613a3a70726f706f73653a20746f6f206d616e7960008301527f20616374696f6e730000000000000000000000000000000000000000000000006020830152604082019050919050565b600061423a601183615345565b91507f6164646974696f6e206f766572666c6f770000000000000000000000000000006000830152602082019050919050565b600061427a604383615356565b91507f454950373132446f6d61696e28737472696e67206e616d652c75696e7432353660008301527f20636861696e49642c6164647265737320766572696679696e67436f6e74726160208301527f63742900000000000000000000000000000000000000000000000000000000006040830152604382019050919050565b6000614306602783615356565b91507f42616c6c6f742875696e743235362070726f706f73616c49642c626f6f6c207360008301527f7570706f727429000000000000000000000000000000000000000000000000006020830152602782019050919050565b600061436c604483615345565b91507f476f7665726e6f72416c7068613a3a70726f706f73653a2070726f706f73616c60008301527f2066756e6374696f6e20696e666f726d6174696f6e206172697479206d69736d60208301527f61746368000000000000000000000000000000000000000000000000000000006040830152606082019050919050565b60006143f8602f83615345565b91507f476f7665726e6f72416c7068613a3a63616e63656c3a2070726f706f7365722060008301527f61626f7665207468726573686f6c6400000000000000000000000000000000006020830152604082019050919050565b600061445e604483615345565b91507f476f7665726e6f72416c7068613a3a5f71756575654f725265766572743a207060008301527f726f706f73616c20616374696f6e20616c72656164792071756575656420617460208301527f20657461000000000000000000000000000000000000000000000000000000006040830152606082019050919050565b60006144ea602c83615345565b91507f476f7665726e6f72416c7068613a3a70726f706f73653a206d7573742070726f60008301527f7669646520616374696f6e7300000000000000000000000000000000000000006020830152604082019050919050565b6000614550602f83615345565b91507f476f7665726e6f72416c7068613a3a63617374566f746542795369673a20696e60008301527f76616c6964207369676e617475726500000000000000000000000000000000006020830152604082019050919050565b60006145b6605883615345565b91507f476f7665726e6f72416c7068613a3a70726f706f73653a206f6e65206c69766560008301527f2070726f706f73616c207065722070726f706f7365722c20666f756e6420616e60208301527f20616c7265616479206163746976652070726f706f73616c00000000000000006040830152606082019050919050565b6000614642603683615345565b91507f476f7665726e6f72416c7068613a3a63616e63656c3a2063616e6e6f7420636160008301527f6e63656c2065786563757465642070726f706f73616c000000000000000000006020830152604082019050919050565b60006146a8602a83615345565b91507f476f7665726e6f72416c7068613a3a5f63617374566f74653a20766f74696e6760008301527f20697320636c6f736564000000000000000000000000000000000000000000006020830152604082019050919050565b600061470e601583615345565b91507f7375627472616374696f6e20756e646572666c6f7700000000000000000000006000830152602082019050919050565b600061474e603683615345565b91507f476f7665726e6f72416c7068613a3a5f5f61626469636174653a2073656e646560008301527f72206d75737420626520676f7620677561726469616e000000000000000000006020830152604082019050919050565b6060820160008201516147bd6000850182613a5e565b5060208201516147d06020850182613a5e565b5060408201516147e36040850182614825565b50505050565b6147f2816153bc565b82525050565b614801816153bc565b82525050565b614810816153c6565b82525050565b61481f8161548d565b82525050565b61482e816153d3565b82525050565b600061483f82613e97565b915061484b8285613a8b565b60208201915061485b8284613a8b565b6020820191508190509392505050565b60006148768261426d565b9150819050919050565b600061488b826142f9565b9150819050919050565b60006020820190506148aa60008301846138a9565b92915050565b600060a0820190506148c560008301876138a9565b6148d26020830186613bd0565b81810360408301526148e381613f63565b905081810360608301526148f78185613aa2565b905061490660808301846147f8565b95945050505050565b600060408201905061492460008301856138a9565b61493160208301846147f8565b9392505050565b600060808201905061494d60008301876138a9565b61495a60208301866147f8565b6149676040830185613a6d565b6149746060830184614816565b95945050505050565b600060a08201905061499260008301886138a9565b61499f60208301876147f8565b81810360408301526149b18186613bdf565b905081810360608301526149c58185613aa2565b90506149d460808301846147f8565b9695505050505050565b600060a0820190506149f360008301886138a9565b614a0060208301876147f8565b8181036040830152614a128186613c8a565b90508181036060830152614a268185613b14565b9050614a3560808301846147f8565b9695505050505050565b60006080820190508181036000830152614a5981876138b8565b90508181036020830152614a6d8186613a00565b90508181036040830152614a81818561398b565b90508181036060830152614a958184613916565b905095945050505050565b6000602082019050614ab56000830184613a7c565b92915050565b6000608082019050614ad06000830187613a7c565b614add6020830186613a7c565b614aea60408301856147f8565b614af760608301846138a9565b95945050505050565b6000606082019050614b156000830186613a7c565b614b2260208301856147f8565b614b2f6040830184613a6d565b949350505050565b6000608082019050614b4c6000830187613a7c565b614b596020830186614807565b614b666040830185613a7c565b614b736060830184613a7c565b95945050505050565b6000602082019050614b916000830184613ba3565b92915050565b6000602082019050614bac6000830184613bb2565b92915050565b6000602082019050614bc76000830184613bc1565b92915050565b60006020820190508181036000830152614be78184613c51565b905092915050565b60006040820190508181036000830152614c098185613bdf565b9050614c1860208301846138a9565b9392505050565b60006020820190508181036000830152614c3881613d19565b9050919050565b60006020820190508181036000830152614c5881613d7f565b9050919050565b60006020820190508181036000830152614c7881613e0b565b9050919050565b60006020820190508181036000830152614c9881613ed7565b9050919050565b60006020820190508181036000830152614cb881613fa3565b9050919050565b60006020820190508181036000830152614cd881614009565b9050919050565b60006020820190508181036000830152614cf881614049565b9050919050565b60006020820190508181036000830152614d18816140af565b9050919050565b60006020820190508181036000830152614d388161413b565b9050919050565b60006020820190508181036000830152614d58816141c7565b9050919050565b60006020820190508181036000830152614d788161422d565b9050919050565b60006020820190508181036000830152614d988161435f565b9050919050565b60006020820190508181036000830152614db8816143eb565b9050919050565b60006020820190508181036000830152614dd881614451565b9050919050565b60006020820190508181036000830152614df8816144dd565b9050919050565b60006020820190508181036000830152614e1881614543565b9050919050565b60006020820190508181036000830152614e38816145a9565b9050919050565b60006020820190508181036000830152614e5881614635565b9050919050565b60006020820190508181036000830152614e788161469b565b9050919050565b60006020820190508181036000830152614e9881614701565b9050919050565b60006020820190508181036000830152614eb881614741565b9050919050565b6000606082019050614ed460008301846147a7565b92915050565b6000602082019050614eef60008301846147f8565b92915050565b600061012082019050614f0b600083018c6147f8565b614f18602083018b61388b565b8181036040830152614f2a818a6138b8565b90508181036060830152614f3e8189613a00565b90508181036080830152614f52818861398b565b905081810360a0830152614f668187613916565b9050614f7560c08301866147f8565b614f8260e08301856147f8565b818103610100830152614f958184613bdf565b90509a9950505050505050505050565b600061012082019050614fbb600083018c6147f8565b614fc8602083018b6138a9565b614fd5604083018a6147f8565b614fe260608301896147f8565b614fef60808301886147f8565b614ffc60a08301876147f8565b61500960c08301866147f8565b61501660e0830185613a6d565b615024610100830184613a6d565b9a9950505050505050505050565b600060408201905061504760008301856147f8565b61505460208301846147f8565b9392505050565b6000604051905081810181811067ffffffffffffffff8211171561507e57600080fd5b8060405250919050565b600067ffffffffffffffff82111561509f57600080fd5b602082029050602081019050919050565b600067ffffffffffffffff8211156150c757600080fd5b602082029050602081019050919050565b600067ffffffffffffffff8211156150ef57600080fd5b602082029050602081019050919050565b600067ffffffffffffffff82111561511757600080fd5b602082029050602081019050919050565b600067ffffffffffffffff82111561513f57600080fd5b601f19601f8301169050602081019050919050565b600067ffffffffffffffff82111561516b57600080fd5b601f19601f8301169050602081019050919050565b600067ffffffffffffffff82111561519757600080fd5b601f19601f8301169050602081019050919050565b600067ffffffffffffffff8211156151c357600080fd5b601f19601f8301169050602081019050919050565b6000819050602082019050919050565b6000819050602082019050919050565b6000819050602082019050919050565b6000819050602082019050919050565b60008190508160005260206000209050919050565b60008190508160005260206000209050919050565b600081519050919050565b600081519050919050565b600081519050919050565b600081519050919050565b600081519050919050565b600081519050919050565b600081519050919050565b600081519050919050565b6000602082019050919050565b6000602082019050919050565b6000602082019050919050565b6000602082019050919050565b600082825260208201905092915050565b600082825260208201905092915050565b600082825260208201905092915050565b600082825260208201905092915050565b600082825260208201905092915050565b600082825260208201905092915050565b600082825260208201905092915050565b600082825260208201905092915050565b600081905092915050565b600061536c8261539c565b9050919050565b60008115159050919050565b6000819050919050565b6000819050615397826154fc565b919050565b600073ffffffffffffffffffffffffffffffffffffffff82169050919050565b6000819050919050565b600060ff82169050919050565b60006bffffffffffffffffffffffff82169050919050565b60006153f682615469565b9050919050565b60006154088261540f565b9050919050565b600061541a8261539c565b9050919050565b600061542c82615433565b9050919050565b600061543e8261539c565b9050919050565b600061545082615389565b9050919050565b6000615462826153bc565b9050919050565b60006154748261547b565b9050919050565b60006154868261539c565b9050919050565b6000615498826153d3565b9050919050565b82818337600083830152505050565b60005b838110156154cc5780820151818401526020810190506154b1565b838111156154db576000848401525b50505050565b6000819050919050565b6000601f19601f8301169050919050565b6008811061550657fe5b50565b61551281615361565b811461551d57600080fd5b50565b61552981615373565b811461553457600080fd5b50565b6155408161537f565b811461554b57600080fd5b50565b615557816153bc565b811461556257600080fd5b50565b61556e816153c6565b811461557957600080fd5b50565b615585816153d3565b811461559057600080fd5b5056fea365627a7a7231582036836b715dbf54322a620c412bccb23b63783bde751eda0ce117f4902b262daa6c6578706572696d656e74616cf564736f6c63430005100040",
  "linkReferences": {},
  "deployedLinkReferences": {}
}