{
  "_format": "hh-sol-artifact-1",
  "contractName": "GovernorBravoDelegateStorageV1",
  "sourceName": "contracts/GovernorBravoInterfaces.sol",
  "abi": [
    {
      "constant": true,
      "inputs": [],
      "name": "admin",
      "outputs": [
        {
          "internalType": "address",
          "name": "",
          "type": "address"
        }
      ],
      "payable": false,
      "stateMutability": "view",
      "type": "function"
    },
    {
      "constant": true,
      "inputs": [],
      "name": "comp",
      "outputs": [
        {
          "internalType": "contract CompInterface",
          "name": "",
          "type": "address"
        }
      ],
      "payable": false,
      "stateMutability": "view",
      "type": "function"
    },
    {
      "constant": true,
      "inputs": [],
      "name": "implementation",
      "outputs": [
        {
          "internalType": "address",
          "name": "",
          "type": "address"
        }
      ],
      "payable": false,
      "stateMutability": "view",
      "type": "function"
    },
    {
      "constant": true,
      "inputs": [],
      "name": "initialProposalId",
      "outputs": [
        {
          "internalType": "uint256",
          "name": "",
          "type": "uint256"
        }
      ],
      "payable": false,
      "stateMutability": "view",
      "type": "function"
    },
    {
      "constant": true,
      "inputs": [
        {
          "internalType": "address",
          "name": "",
          "type": "address"
        }
      ],
      "name": "latestProposalIds",
      "outputs": [
        {
          "internalType": "uint256",
          "name": "",
          "type": "uint256"
        }
      ],
      "payable": false,
      "stateMutability": "view",
      "type": "function"
    },
    {
      "constant": true,
      "inputs": [],
      "name": "pendingAdmin",
      "outputs": [
        {
          "internalType": "address",
          "name": "",
          "type": "address"
        }
      ],
      "payable": false,
      "stateMutability": "view",
      "type": "function"
    },
    {
      "constant": true,
      "inputs": [],
      "name": "proposalCount",
      "outputs": [
        {
          "internalType": "uint256",
          "name": "",
          "type": "uint256"
        }
      ],
      "payable": false,
      "stateMutability": "view",
      "type": "function"
    },
    {
      "constant": true,
      "inputs": [],
      "name": "proposalThreshold",
      "outputs": [
        {
          "internalType": "uint256",
          "name": "",
          "type": "uint256"
        }
      ],
      "payable": false,
      "stateMutability": "view",
      "type": "function"
    },
    {
      "constant": true,
      "inputs": [
        {
          "internalType": "uint256",
          "name": "",
          "type": "uint256"
        }
      ],
      "name": "proposals",
      "outputs": [
        {
          "internalType": "uint256",
          "name": "id",
          "type": "uint256"
        },
        {
          "internalType": "address",
          "name": "proposer",
          "type": "address"
        },
        {
          "internalType": "uint256",
          "name": "eta",
          "type": "uint256"
        },
        {
          "internalType": "uint256",
          "name": "startBlock",
          "type": "uint256"
        },
        {
          "internalType": "uint256",
          "name": "endBlock",
          "type": "uint256"
        },
        {
          "internalType": "uint256",
          "name": "forVotes",
          "type": "uint256"
        },
        {
          "internalType": "uint256",
          "name": "againstVotes",
          "type": "uint256"
        },
        {
          "internalType": "uint256",
          "name": "abstainVotes",
          "type": "uint256"
        },
        {
          "internalType": "bool",
          "name": "canceled",
          "type": "bool"
        },
        {
          "internalType": "bool",
          "name": "executed",
          "type": "bool"
        }
      ],
      "payable": false,
      "stateMutability": "view",
      "type": "function"
    },
    {
      "constant": true,
      "inputs": [],
      "name": "timelock",
      "outputs": [
        {
          "internalType": "contract TimelockInterface",
          "name": "",
          "type": "address"
        }
      ],
      "payable": false,
      "stateMutability": "view",
      "type": "function"
    },
    {
      "constant": true,
      "inputs": [],
      "name": "votingDelay",
      "outputs": [
        {
          "internalType": "uint256",
          "name": "",
          "type": "uint256"
        }
      ],
      "payable": false,
      "stateMutability": "view",
      "type": "function"
    },
    {
      "constant": true,
      "inputs": [],
      "name": "votingPeriod",
      "outputs": [
        {
          "internalType": "uint256",
          "name": "",
          "type": "uint256"
        }
      ],
      "payable": false,
      "stateMutability": "view",
      "type": "function"
    }
  ],
  "bytecode": "0x608060405234801561001057600080fd5b5061069f806100206000396000f3fe608060405234801561001057600080fd5b50600436106100b45760003560e01c80635c60da1b116100715780635c60da1b1461019a578063b58131b0146101b8578063d33219b4146101d6578063da35c664146101f4578063f851a44014610212578063fc4eee4214610230576100b4565b8063013cf08b146100b957806302a251a3146100f2578063109d0af81461011057806317977c611461012e578063267822471461015e5780633932abb11461017c575b600080fd5b6100d360048036036100ce9190810190610422565b61024e565b6040516100e99a99989796959493929190610502565b60405180910390f35b6100fa6102dc565b60405161010791906104e7565b60405180910390f35b6101186102e2565b60405161012591906104b1565b60405180910390f35b610148600480360361014391908101906103f9565b610308565b60405161015591906104e7565b60405180910390f35b610166610320565b6040516101739190610496565b60405180910390f35b610184610346565b60405161019191906104e7565b60405180910390f35b6101a261034c565b6040516101af9190610496565b60405180910390f35b6101c0610372565b6040516101cd91906104e7565b60405180910390f35b6101de610378565b6040516101eb91906104cc565b60405180910390f35b6101fc61039e565b60405161020991906104e7565b60405180910390f35b61021a6103a4565b6040516102279190610496565b60405180910390f35b6102386103c9565b60405161024591906104e7565b60405180910390f35b600a6020528060005260406000206000915090508060000154908060010160009054906101000a900473ffffffffffffffffffffffffffffffffffffffff169080600201549080600701549080600801549080600901549080600a01549080600b01549080600c0160009054906101000a900460ff169080600c0160019054906101000a900460ff1690508a565b60045481565b600960009054906101000a900473ffffffffffffffffffffffffffffffffffffffff1681565b600b6020528060005260406000206000915090505481565b600160009054906101000a900473ffffffffffffffffffffffffffffffffffffffff1681565b60035481565b600260009054906101000a900473ffffffffffffffffffffffffffffffffffffffff1681565b60055481565b600860009054906101000a900473ffffffffffffffffffffffffffffffffffffffff1681565b60075481565b6000809054906101000a900473ffffffffffffffffffffffffffffffffffffffff1681565b60065481565b6000813590506103de8161062e565b92915050565b6000813590506103f381610645565b92915050565b60006020828403121561040b57600080fd5b6000610419848285016103cf565b91505092915050565b60006020828403121561043457600080fd5b6000610442848285016103e4565b91505092915050565b6104548161059e565b82525050565b610463816105b0565b82525050565b610472816105e6565b82525050565b6104818161060a565b82525050565b610490816105dc565b82525050565b60006020820190506104ab600083018461044b565b92915050565b60006020820190506104c66000830184610469565b92915050565b60006020820190506104e16000830184610478565b92915050565b60006020820190506104fc6000830184610487565b92915050565b600061014082019050610518600083018d610487565b610525602083018c61044b565b610532604083018b610487565b61053f606083018a610487565b61054c6080830189610487565b61055960a0830188610487565b61056660c0830187610487565b61057360e0830186610487565b61058161010083018561045a565b61058f61012083018461045a565b9b9a5050505050505050505050565b60006105a9826105bc565b9050919050565b60008115159050919050565b600073ffffffffffffffffffffffffffffffffffffffff82169050919050565b6000819050919050565b60006105f1826105f8565b9050919050565b6000610603826105bc565b9050919050565b60006106158261061c565b9050919050565b6000610627826105bc565b9050919050565b6106378161059e565b811461064257600080fd5b50565b61064e816105dc565b811461065957600080fd5b5056fea365627a7a7231582051aed80be2af15012b3295974f20c5cfafe2f064239bb4890e213a1001ada3fc6c6578706572696d656e74616cf564736f6c63430005100040",
  "linkReferences": {},
  "deployedLinkReferences": {}
}