{
  "_format": "hh-sol-artifact-1",
  "contractName": "GovernorBravoDelegate",
  "sourceName": "contracts/GovernorBravoDelegate.sol",
  "abi": [
    {
      "anonymous": false,
      "inputs": [
        {
          "indexed": false,
          "internalType": "address",
          "name": "oldAdmin",
          "type": "address"
        },
        {
          "indexed": false,
          "internalType": "address",
          "name": "newAdmin",
          "type": "address"
        }
      ],
      "name": "NewAdmin",
      "type": "event"
    },
    {
      "anonymous": false,
      "inputs": [
        {
          "indexed": false,
          "internalType": "address",
          "name": "oldImplementation",
          "type": "address"
        },
        {
          "indexed": false,
          "internalType": "address",
          "name": "newImplementation",
          "type": "address"
        }
      ],
      "name": "NewImplementation",
      "type": "event"
    },
    {
      "anonymous": false,
      "inputs": [
        {
          "indexed": false,
          "internalType": "address",
          "name": "oldPendingAdmin",
          "type": "address"
        },
        {
          "indexed": false,
          "internalType": "address",
          "name": "newPendingAdmin",
          "type": "address"
        }
      ],
      "name": "NewPendingAdmin",
      "type": "event"
    },
    {
      "anonymous": false,
      "inputs": [
        {
          "indexed": false,
          "internalType": "uint256",
          "name": "id",
          "type": "uint256"
        }
      ],
      "name": "ProposalCanceled",
      "type": "event"
    },
    {
      "anonymous": false,
      "inputs": [
        {
          "indexed": false,
          "internalType": "uint256",
          "name": "id",
          "type": "uint256"
        },
        {
          "indexed": false,
          "internalType": "address",
          "name": "proposer",
          "type": "address"
        },
        {
          "indexed": false,
          "internalType": "address[]",
          "name": "targets",
          "type": "address[]"
        },
        {
          "indexed": false,
          "internalType": "uint256[]",
          "name": "values",
          "type": "uint256[]"
        },
        {
          "indexed": false,
          "internalType": "string[]",
          "name": "signatures",
          "type": "string[]"
        },
        {
          "indexed": false,
          "internalType": "bytes[]",
          "name": "calldatas",
          "type": "bytes[]"
        },
        {
          "indexed": false,
          "internalType": "uint256",
          "name": "startBlock",
          "type": "uint256"
        },
        {
          "indexed": false,
          "internalType": "uint256",
          "name": "endBlock",
          "type": "uint256"
        },
        {
          "indexed": false,
          "internalType": "string",
          "name": "description",
          "type": "string"
        }
      ],
      "name": "ProposalCreated",
      "type": "event"
    },
    {
      "anonymous": false,
      "inputs": [
        {
          "indexed": false,
          "internalType": "uint256",
          "name": "id",
          "type": "uint256"
        }
      ],
      "name": "ProposalExecuted",
      "type": "event"
    },
    {
      "anonymous": false,
      "inputs": [
        {
          "indexed": false,
          "internalType": "uint256",
          "name": "id",
          "type": "uint256"
        },
        {
          "indexed": false,
          "internalType": "uint256",
          "name": "eta",
          "type": "uint256"
        }
      ],
      "name": "ProposalQueued",
      "type": "event"
    },
    {
      "anonymous": false,
      "inputs": [
        {
          "indexed": false,
          "internalType": "uint256",
          "name": "oldProposalThreshold",
          "type": "uint256"
        },
        {
          "indexed": false,
          "internalType": "uint256",
          "name": "newProposalThreshold",
          "type": "uint256"
        }
      ],
      "name": "ProposalThresholdSet",
      "type": "event"
    },
    {
      "anonymous": false,
      "inputs": [
        {
          "indexed": true,
          "internalType": "address",
          "name": "voter",
          "type": "address"
        },
        {
          "indexed": false,
          "internalType": "uint256",
          "name": "proposalId",
          "type": "uint256"
        },
        {
          "indexed": false,
          "internalType": "uint8",
          "name": "support",
          "type": "uint8"
        },
        {
          "indexed": false,
          "internalType": "uint256",
          "name": "votes",
          "type": "uint256"
        },
        {
          "indexed": false,
          "internalType": "string",
          "name": "reason",
          "type": "string"
        }
      ],
      "name": "VoteCast",
      "type": "event"
    },
    {
      "anonymous": false,
      "inputs": [
        {
          "indexed": false,
          "internalType": "uint256",
          "name": "oldVotingDelay",
          "type": "uint256"
        },
        {
          "indexed": false,
          "internalType": "uint256",
          "name": "newVotingDelay",
          "type": "uint256"
        }
      ],
      "name": "VotingDelaySet",
      "type": "event"
    },
    {
      "anonymous": false,
      "inputs": [
        {
          "indexed": false,
          "internalType": "uint256",
          "name": "oldVotingPeriod",
          "type": "uint256"
        },
        {
          "indexed": false,
          "internalType": "uint256",
          "name": "newVotingPeriod",
          "type": "uint256"
        }
      ],
      "name": "VotingPeriodSet",
      "type": "event"
    },
    {
      "constant": true,
      "inputs": [],
      "name": "BALLOT_TYPEHASH",
      "outputs": [
        {
          "internalType": "bytes32",
          "name": "",
          "type": "bytes32"
        }
      ],
      "payable": false,
      "stateMutability": "view",
      "type": "function"
    },
    {
      "constant": true,
      "inputs": [],
      "name": "DOMAIN_TYPEHASH",
      "outputs": [
        {
          "internalType": "bytes32",
          "name": "",
          "type": "bytes32"
        }
      ],
      "payable": false,
      "stateMutability": "view",
      "type": "function"
    },
    {
      "constant": true,
      "inputs": [],
      "name": "MAX_PROPOSAL_THRESHOLD",
      "outputs": [
        {
          "internalType": "uint256",
          "name": "",
          "type": "uint256"
        }
      ],
      "payable": false,
      "stateMutability": "view",
      "type": "function"
    },
    {
      "constant": true,
      "inputs": [],
      "name": "MAX_VOTING_DELAY",
      "outputs": [
        {
          "internalType": "uint256",
          "name": "",
          "type": "uint256"
        }
      ],
      "payable": false,
      "stateMutability": "view",
      "type": "function"
    },
    {
      "constant": true,
      "inputs": [],
      "name": "MAX_VOTING_PERIOD",
      "outputs": [
        {
          "internalType": "uint256",
          "name": "",
          "type": "uint256"
        }
      ],
      "payable": false,
      "stateMutability": "view",
      "type": "function"
    },
    {
      "constant": true,
      "inputs": [],
      "name": "MIN_PROPOSAL_THRESHOLD",
      "outputs": [
        {
          "internalType": "uint256",
          "name": "",
          "type": "uint256"
        }
      ],
      "payable": false,
      "stateMutability": "view",
      "type": "function"
    },
    {
      "constant": true,
      "inputs": [],
      "name": "MIN_VOTING_DELAY",
      "outputs": [
        {
          "internalType": "uint256",
          "name": "",
          "type": "uint256"
        }
      ],
      "payable": false,
      "stateMutability": "view",
      "type": "function"
    },
    {
      "constant": true,
      "inputs": [],
      "name": "MIN_VOTING_PERIOD",
      "outputs": [
        {
          "internalType": "uint256",
          "name": "",
          "type": "uint256"
        }
      ],
      "payable": false,
      "stateMutability": "view",
      "type": "function"
    },
    {
      "constant": false,
      "inputs": [],
      "name": "_acceptAdmin",
      "outputs": [],
      "payable": false,
      "stateMutability": "nonpayable",
      "type": "function"
    },
    {
      "constant": false,
      "inputs": [
        {
          "internalType": "address",
          "name": "newPendingAdmin",
          "type": "address"
        }
      ],
      "name": "_setPendingAdmin",
      "outputs": [],
      "payable": false,
      "stateMutability": "nonpayable",
      "type": "function"
    },
    {
      "constant": false,
      "inputs": [
        {
          "internalType": "uint256",
          "name": "newProposalThreshold",
          "type": "uint256"
        }
      ],
      "name": "_setProposalThreshold",
      "outputs": [],
      "payable": false,
      "stateMutability": "nonpayable",
      "type": "function"
    },
    {
      "constant": false,
      "inputs": [
        {
          "internalType": "uint256",
          "name": "newVotingDelay",
          "type": "uint256"
        }
      ],
      "name": "_setVotingDelay",
      "outputs": [],
      "payable": false,
      "stateMutability": "nonpayable",
      "type": "function"
    },
    {
      "constant": false,
      "inputs": [
        {
          "internalType": "uint256",
          "name": "newVotingPeriod",
          "type": "uint256"
        }
      ],
      "name": "_setVotingPeriod",
      "outputs": [],
      "payable": false,
      "stateMutability": "nonpayable",
      "type": "function"
    },
    {
      "constant": true,
      "inputs": [],
      "name": "admin",
      "outputs": [
        {
          "internalType": "address",
          "name": "",
          "type": "address"
        }
      ],
      "payable": false,
      "stateMutability": "view",
      "type": "function"
    },
    {
      "constant": false,
      "inputs": [
        {
          "internalType": "uint256",
          "name": "proposalId",
          "type": "uint256"
        }
      ],
      "name": "cancel",
      "outputs": [],
      "payable": false,
      "stateMutability": "nonpayable",
      "type": "function"
    },
    {
      "constant": false,
      "inputs": [
        {
          "internalType": "uint256",
          "name": "proposalId",
          "type": "uint256"
        },
        {
          "internalType": "uint8",
          "name": "support",
          "type": "uint8"
        }
      ],
      "name": "castVote",
      "outputs": [],
      "payable": false,
      "stateMutability": "nonpayable",
      "type": "function"
    },
    {
      "constant": false,
      "inputs": [
        {
          "internalType": "uint256",
          "name": "proposalId",
          "type": "uint256"
        },
        {
          "internalType": "uint8",
          "name": "support",
          "type": "uint8"
        },
        {
          "internalType": "uint8",
          "name": "v",
          "type": "uint8"
        },
        {
          "internalType": "bytes32",
          "name": "r",
          "type": "bytes32"
        },
        {
          "internalType": "bytes32",
          "name": "s",
          "type": "bytes32"
        }
      ],
      "name": "castVoteBySig",
      "outputs": [],
      "payable": false,
      "stateMutability": "nonpayable",
      "type": "function"
    },
    {
      "constant": false,
      "inputs": [
        {
          "internalType": "uint256",
          "name": "proposalId",
          "type": "uint256"
        },
        {
          "internalType": "uint8",
          "name": "support",
          "type": "uint8"
        },
        {
          "internalType": "string",
          "name": "reason",
          "type": "string"
        }
      ],
      "name": "castVoteWithReason",
      "outputs": [],
      "payable": false,
      "stateMutability": "nonpayable",
      "type": "function"
    },
    {
      "constant": true,
      "inputs": [],
      "name": "comp",
      "outputs": [
        {
          "internalType": "contract CompInterface",
          "name": "",
          "type": "address"
        }
      ],
      "payable": false,
      "stateMutability": "view",
      "type": "function"
    },
    {
      "constant": false,
      "inputs": [
        {
          "internalType": "uint256",
          "name": "proposalId",
          "type": "uint256"
        }
      ],
      "name": "execute",
      "outputs": [],
      "payable": true,
      "stateMutability": "payable",
      "type": "function"
    },
    {
      "constant": true,
      "inputs": [
        {
          "internalType": "uint256",
          "name": "proposalId",
          "type": "uint256"
        }
      ],
      "name": "getActions",
      "outputs": [
        {
          "internalType": "address[]",
          "name": "targets",
          "type": "address[]"
        },
        {
          "internalType": "uint256[]",
          "name": "values",
          "type": "uint256[]"
        },
        {
          "internalType": "string[]",
          "name": "signatures",
          "type": "string[]"
        },
        {
          "internalType": "bytes[]",
          "name": "calldatas",
          "type": "bytes[]"
        }
      ],
      "payable": false,
      "stateMutability": "view",
      "type": "function"
    },
    {
      "constant": true,
      "inputs": [
        {
          "internalType": "uint256",
          "name": "proposalId",
          "type": "uint256"
        },
        {
          "internalType": "address",
          "name": "voter",
          "type": "address"
        }
      ],
      "name": "getReceipt",
      "outputs": [
        {
          "components": [
            {
              "internalType": "bool",
              "name": "hasVoted",
              "type": "bool"
            },
            {
              "internalType": "uint8",
              "name": "support",
              "type": "uint8"
            },
            {
              "internalType": "uint96",
              "name": "votes",
              "type": "uint96"
            }
          ],
          "internalType": "struct GovernorBravoDelegateStorageV1.Receipt",
          "name": "",
          "type": "tuple"
        }
      ],
      "payable": false,
      "stateMutability": "view",
      "type": "function"
    },
    {
      "constant": true,
      "inputs": [],
      "name": "implementation",
      "outputs": [
        {
          "internalType": "address",
          "name": "",
          "type": "address"
        }
      ],
      "payable": false,
      "stateMutability": "view",
      "type": "function"
    },
    {
      "constant": true,
      "inputs": [],
      "name": "initialProposalId",
      "outputs": [
        {
          "internalType": "uint256",
          "name": "",
          "type": "uint256"
        }
      ],
      "payable": false,
      "stateMutability": "view",
      "type": "function"
    },
    {
      "constant": false,
      "inputs": [
        {
          "internalType": "address",
          "name": "timelock_",
          "type": "address"
        },
        {
          "internalType": "address",
          "name": "comp_",
          "type": "address"
        },
        {
          "internalType": "uint256",
          "name": "votingPeriod_",
          "type": "uint256"
        },
        {
          "internalType": "uint256",
          "name": "votingDelay_",
          "type": "uint256"
        },
        {
          "internalType": "uint256",
          "name": "proposalThreshold_",
          "type": "uint256"
        }
      ],
      "name": "initialize",
      "outputs": [],
      "payable": false,
      "stateMutability": "nonpayable",
      "type": "function"
    },
    {
      "constant": true,
      "inputs": [
        {
          "internalType": "address",
          "name": "",
          "type": "address"
        }
      ],
      "name": "latestProposalIds",
      "outputs": [
        {
          "internalType": "uint256",
          "name": "",
          "type": "uint256"
        }
      ],
      "payable": false,
      "stateMutability": "view",
      "type": "function"
    },
    {
      "constant": true,
      "inputs": [],
      "name": "name",
      "outputs": [
        {
          "internalType": "string",
          "name": "",
          "type": "string"
        }
      ],
      "payable": false,
      "stateMutability": "view",
      "type": "function"
    },
    {
      "constant": true,
      "inputs": [],
      "name": "pendingAdmin",
      "outputs": [
        {
          "internalType": "address",
          "name": "",
          "type": "address"
        }
      ],
      "payable": false,
      "stateMutability": "view",
      "type": "function"
    },
    {
      "constant": true,
      "inputs": [],
      "name": "proposalCount",
      "outputs": [
        {
          "internalType": "uint256",
          "name": "",
          "type": "uint256"
        }
      ],
      "payable": false,
      "stateMutability": "view",
      "type": "function"
    },
    {
      "constant": true,
      "inputs": [],
      "name": "proposalMaxOperations",
      "outputs": [
        {
          "internalType": "uint256",
          "name": "",
          "type": "uint256"
        }
      ],
      "payable": false,
      "stateMutability": "view",
      "type": "function"
    },
    {
      "constant": true,
      "inputs": [],
      "name": "proposalThreshold",
      "outputs": [
        {
          "internalType": "uint256",
          "name": "",
          "type": "uint256"
        }
      ],
      "payable": false,
      "stateMutability": "view",
      "type": "function"
    },
    {
      "constant": true,
      "inputs": [
        {
          "internalType": "uint256",
          "name": "",
          "type": "uint256"
        }
      ],
      "name": "proposals",
      "outputs": [
        {
          "internalType": "uint256",
          "name": "id",
          "type": "uint256"
        },
        {
          "internalType": "address",
          "name": "proposer",
          "type": "address"
        },
        {
          "internalType": "uint256",
          "name": "eta",
          "type": "uint256"
        },
        {
          "internalType": "uint256",
          "name": "startBlock",
          "type": "uint256"
        },
        {
          "internalType": "uint256",
          "name": "endBlock",
          "type": "uint256"
        },
        {
          "internalType": "uint256",
          "name": "forVotes",
          "type": "uint256"
        },
        {
          "internalType": "uint256",
          "name": "againstVotes",
          "type": "uint256"
        },
        {
          "internalType": "uint256",
          "name": "abstainVotes",
          "type": "uint256"
        },
        {
          "internalType": "bool",
          "name": "canceled",
          "type": "bool"
        },
        {
          "internalType": "bool",
          "name": "executed",
          "type": "bool"
        }
      ],
      "payable": false,
      "stateMutability": "view",
      "type": "function"
    },
    {
      "constant": false,
      "inputs": [
        {
          "internalType": "address[]",
          "name": "targets",
          "type": "address[]"
        },
        {
          "internalType": "uint256[]",
          "name": "values",
          "type": "uint256[]"
        },
        {
          "internalType": "string[]",
          "name": "signatures",
          "type": "string[]"
        },
        {
          "internalType": "bytes[]",
          "name": "calldatas",
          "type": "bytes[]"
        },
        {
          "internalType": "string",
          "name": "description",
          "type": "string"
        }
      ],
      "name": "propose",
      "outputs": [
        {
          "internalType": "uint256",
          "name": "",
          "type": "uint256"
        }
      ],
      "payable": false,
      "stateMutability": "nonpayable",
      "type": "function"
    },
    {
      "constant": false,
      "inputs": [
        {
          "internalType": "uint256",
          "name": "proposalId",
          "type": "uint256"
        }
      ],
      "name": "queue",
      "outputs": [],
      "payable": false,
      "stateMutability": "nonpayable",
      "type": "function"
    },
    {
      "constant": true,
      "inputs": [],
      "name": "quorumVotes",
      "outputs": [
        {
          "internalType": "uint256",
          "name": "",
          "type": "uint256"
        }
      ],
      "payable": false,
      "stateMutability": "view",
      "type": "function"
    },
    {
      "constant": true,
      "inputs": [
        {
          "internalType": "uint256",
          "name": "proposalId",
          "type": "uint256"
        }
      ],
      "name": "state",
      "outputs": [
        {
          "internalType": "enum GovernorBravoDelegateStorageV1.ProposalState",
          "name": "",
          "type": "uint8"
        }
      ],
      "payable": false,
      "stateMutability": "view",
      "type": "function"
    },
    {
      "constant": true,
      "inputs": [],
      "name": "timelock",
      "outputs": [
        {
          "internalType": "contract TimelockInterface",
          "name": "",
          "type": "address"
        }
      ],
      "payable": false,
      "stateMutability": "view",
      "type": "function"
    },
    {
      "constant": true,
      "inputs": [],
      "name": "votingDelay",
      "outputs": [
        {
          "internalType": "uint256",
          "name": "",
          "type": "uint256"
        }
      ],
      "payable": false,
      "stateMutability": "view",
      "type": "function"
    },
    {
      "constant": true,
      "inputs": [],
      "name": "votingPeriod",
      "outputs": [
        {
          "internalType": "uint256",
          "name": "",
          "type": "uint256"
        }
      ],
      "payable": false,
      "stateMutability": "view",
      "type": "function"
    }
  ],
  "bytecode": "0x608060405234801561001057600080fd5b506164d180620000216000396000f3fe6080604052600436106102305760003560e01c80635c60da1b1161012e578063da35c664116100ab578063e48083fe1161006f578063e48083fe1461084f578063e9c714f21461087a578063f851a44014610891578063fc4eee42146108bc578063fe0d94c1146108e757610230565b8063da35c66414610756578063da95691a14610781578063ddf0b009146107be578063deaaa7cc146107e7578063e23a9a521461081257610230565b8063b1126263116100f2578063b112626314610683578063b58131b0146106ae578063b71d1a0c146106d9578063d13f90b414610702578063d33219b41461072b57610230565b80635c60da1b146105ae578063791f5d23146105d95780637b3c71d3146106045780637bdbe4d01461062d578063a64e024a1461065857610230565b8063215809ca116101bc5780633932abb1116101805780633932abb1146104cb5780633bccf4fd146104f65780633e4f49e61461051f57806340e58ee51461055c578063567813881461058557610230565b8063215809ca146103df57806324bc1a641461040a57806325fd935a146104355780632678224714610460578063328dd9821461048b57610230565b8063109d0af811610203578063109d0af8146102fa57806317977c611461032557806317ba1b8b146103625780631dfb1b5a1461038b57806320606b70146103b457610230565b8063013cf08b1461023557806302a251a31461027b57806306fdde03146102a65780630ea2d98c146102d1575b600080fd5b34801561024157600080fd5b5061025c60048036036102579190810190613e96565b610903565b6040516102729a99989796959493929190615e0b565b60405180910390f35b34801561028757600080fd5b50610290610991565b60405161029d9190615d40565b60405180910390f35b3480156102b257600080fd5b506102bb610997565b6040516102c891906158c3565b60405180910390f35b3480156102dd57600080fd5b506102f860048036036102f39190810190613e96565b6109d0565b005b34801561030657600080fd5b5061030f610b00565b60405161031c9190615872565b60405180910390f35b34801561033157600080fd5b5061034c60048036036103479190810190613c74565b610b26565b6040516103599190615d40565b60405180910390f35b34801561036e57600080fd5b5061038960048036036103849190810190613e96565b610b3e565b005b34801561039757600080fd5b506103b260048036036103ad9190810190613e96565b610c7d565b005b3480156103c057600080fd5b506103c9610dab565b6040516103d69190615796565b60405180910390f35b3480156103eb57600080fd5b506103f4610dc2565b6040516104019190615d40565b60405180910390f35b34801561041657600080fd5b5061041f610dc8565b60405161042c9190615d40565b60405180910390f35b34801561044157600080fd5b5061044a610dd6565b6040516104579190615d40565b60405180910390f35b34801561046c57600080fd5b50610475610de4565b60405161048291906155dd565b60405180910390f35b34801561049757600080fd5b506104b260048036036104ad9190810190613e96565b610e0a565b6040516104c29493929190615735565b60405180910390f35b3480156104d757600080fd5b506104e06110e7565b6040516104ed9190615d40565b60405180910390f35b34801561050257600080fd5b5061051d60048036036105189190810190613fcc565b6110ed565b005b34801561052b57600080fd5b5061054660048036036105419190810190613e96565b61130d565b60405161055391906158a8565b60405180910390f35b34801561056857600080fd5b50610583600480360361057e9190810190613e96565b6114f6565b005b34801561059157600080fd5b506105ac60048036036105a79190810190613f24565b61188a565b005b3480156105ba57600080fd5b506105c36118ea565b6040516105d091906155dd565b60405180910390f35b3480156105e557600080fd5b506105ee611910565b6040516105fb9190615d40565b60405180910390f35b34801561061057600080fd5b5061062b60048036036106269190810190613f60565b61191e565b005b34801561063957600080fd5b50610642611984565b60405161064f9190615d40565b60405180910390f35b34801561066457600080fd5b5061066d611989565b60405161067a9190615d40565b60405180910390f35b34801561068f57600080fd5b50610698611990565b6040516106a59190615d40565b60405180910390f35b3480156106ba57600080fd5b506106c3611996565b6040516106d09190615d40565b60405180910390f35b3480156106e557600080fd5b5061070060048036036106fb9190810190613c74565b61199c565b005b34801561070e57600080fd5b5061072960048036036107249190810190613c9d565b611ad0565b005b34801561073757600080fd5b50610740611e77565b60405161074d919061588d565b60405180910390f35b34801561076257600080fd5b5061076b611e9d565b6040516107789190615d40565b60405180910390f35b34801561078d57600080fd5b506107a860048036036107a39190810190613d14565b611ea3565b6040516107b59190615d40565b60405180910390f35b3480156107ca57600080fd5b506107e560048036036107e09190810190613e96565b6124b2565b005b3480156107f357600080fd5b506107fc612802565b6040516108099190615796565b60405180910390f35b34801561081e57600080fd5b5061083960048036036108349190810190613ee8565b612819565b6040516108469190615d25565b60405180910390f35b34801561085b57600080fd5b506108646128fd565b6040516108719190615d40565b60405180910390f35b34801561088657600080fd5b5061088f612902565b005b34801561089d57600080fd5b506108a6612b75565b6040516108b391906155dd565b60405180910390f35b3480156108c857600080fd5b506108d1612b9a565b6040516108de9190615d40565b60405180910390f35b61090160048036036108fc9190810190613e96565b612ba0565b005b600a6020528060005260406000206000915090508060000154908060010160009054906101000a900473ffffffffffffffffffffffffffffffffffffffff169080600201549080600701549080600801549080600901549080600a01549080600b01549080600c0160009054906101000a900460ff169080600c0160019054906101000a900460ff1690508a565b60045481565b6040518060400160405280601781526020017f436f6d706f756e6420476f7665726e6f7220427261766f00000000000000000081525081565b6000809054906101000a900473ffffffffffffffffffffffffffffffffffffffff1673ffffffffffffffffffffffffffffffffffffffff163373ffffffffffffffffffffffffffffffffffffffff1614610a5f576040517f08c379a0000000000000000000000000000000000000000000000000000000008152600401610a5690615965565b60405180910390fd5b6116808110158015610a74575062013b008111155b610ab3576040517f08c379a0000000000000000000000000000000000000000000000000000000008152600401610aaa906159e5565b60405180910390fd5b60006004549050816004819055507f7e3f7f0708a84de9203036abaa450dccc85ad5ff52f78c170f3edb55cf5e882881600454604051610af4929190615ea7565b60405180910390a15050565b600960009054906101000a900473ffffffffffffffffffffffffffffffffffffffff1681565b600b6020528060005260406000206000915090505481565b6000809054906101000a900473ffffffffffffffffffffffffffffffffffffffff1673ffffffffffffffffffffffffffffffffffffffff163373ffffffffffffffffffffffffffffffffffffffff1614610bcd576040517f08c379a0000000000000000000000000000000000000000000000000000000008152600401610bc490615ca5565b60405180910390fd5b690a968163f0a57b4000008110158015610bf1575069152d02c7e14af68000008111155b610c30576040517f08c379a0000000000000000000000000000000000000000000000000000000008152600401610c2790615b25565b60405180910390fd5b60006005549050816005819055507fccb45da8d5717e6c4544694297c4ba5cf151d455c9bb0ed4fc7a38411bc0546181600554604051610c71929190615ea7565b60405180910390a15050565b6000809054906101000a900473ffffffffffffffffffffffffffffffffffffffff1673ffffffffffffffffffffffffffffffffffffffff163373ffffffffffffffffffffffffffffffffffffffff1614610d0c576040517f08c379a0000000000000000000000000000000000000000000000000000000008152600401610d03906159a5565b60405180910390fd5b60018110158015610d1f5750619d808111155b610d5e576040517f08c379a0000000000000000000000000000000000000000000000000000000008152600401610d5590615a45565b60405180910390fd5b60006003549050816003819055507fc565b045403dc03c2eea82b81a0465edad9e2e7fc4d97e11421c209da93d7a9381600354604051610d9f929190615ea7565b60405180910390a15050565b604051610db7906155c8565b604051809103902081565b61168081565b6954b40b1f852bda00000081565b69152d02c7e14af680000081565b600160009054906101000a900473ffffffffffffffffffffffffffffffffffffffff1681565b6060806060806000600a600087815260200190815260200160002090508060030181600401826005018360060183805480602002602001604051908101604052809291908181526020018280548015610eb857602002820191906000526020600020905b8160009054906101000a900473ffffffffffffffffffffffffffffffffffffffff1673ffffffffffffffffffffffffffffffffffffffff1681526020019060010190808311610e6e575b5050505050935082805480602002602001604051908101604052809291908181526020018280548015610f0a57602002820191906000526020600020905b815481526020019060010190808311610ef6575b5050505050925081805480602002602001604051908101604052809291908181526020016000905b82821015610fee578382906000526020600020018054600181600116156101000203166002900480601f016020809104026020016040519081016040528092919081815260200182805460018160011615610100020316600290048015610fda5780601f10610faf57610100808354040283529160200191610fda565b820191906000526020600020905b815481529060010190602001808311610fbd57829003601f168201915b505050505081526020019060010190610f32565b50505050915080805480602002602001604051908101604052809291908181526020016000905b828210156110d1578382906000526020600020018054600181600116156101000203166002900480601f0160208091040260200160405190810160405280929190818152602001828054600181600116156101000203166002900480156110bd5780601f10611092576101008083540402835291602001916110bd565b820191906000526020600020905b8154815290600101906020018083116110a057829003601f168201915b505050505081526020019060010190611015565b5050505090509450945094509450509193509193565b60035481565b60006040516110fb906155c8565b60405180910390206040518060400160405280601781526020017f436f6d706f756e6420476f7665726e6f7220427261766f00000000000000000081525080519060200120611148612dee565b3060405160200161115c94939291906157b1565b60405160208183030381529060405280519060200120905060006040516111829061557c565b6040518091039020878760405160200161119e939291906157f6565b604051602081830303815290604052805190602001209050600082826040516020016111cb929190615591565b604051602081830303815290604052805190602001209050600060018288888860405160008152602001604052604051611208949392919061582d565b6020604051602081039080840390855afa15801561122a573d6000803e3d6000fd5b505050602060405103519050600073ffffffffffffffffffffffffffffffffffffffff168173ffffffffffffffffffffffffffffffffffffffff1614156112a6576040517f08c379a000000000000000000000000000000000000000000000000000000000815260040161129d90615aa5565b60405180910390fd5b8073ffffffffffffffffffffffffffffffffffffffff167fb8e138887d0aa13bab447e82de9d5c1777041ecd21ca36ba824ff1e6c07ddda48a8a6112eb858e8e612dfb565b6040516112fa93929190615f1e565b60405180910390a2505050505050505050565b60008160075410158015611322575060065482115b611361576040517f08c379a000000000000000000000000000000000000000000000000000000000815260040161135890615cc5565b60405180910390fd5b6000600a6000848152602001908152602001600020905080600c0160009054906101000a900460ff16156113995760029150506114f1565b806007015443116113ae5760009150506114f1565b806008015443116113c35760019150506114f1565b80600a015481600901541115806113e757506954b40b1f852bda0000008160090154105b156113f65760039150506114f1565b60008160020154141561140d5760049150506114f1565b80600c0160019054906101000a900460ff161561142e5760079150506114f1565b6114db8160020154600860009054906101000a900473ffffffffffffffffffffffffffffffffffffffff1673ffffffffffffffffffffffffffffffffffffffff1663c1a287e26040518163ffffffff1660e01b815260040160206040518083038186803b15801561149e57600080fd5b505afa1580156114b2573d6000803e3d6000fd5b505050506040513d601f19601f820116820180604052506114d69190810190613ebf565b613125565b42106114eb5760069150506114f1565b60059150505b919050565b60078081111561150257fe5b61150b8261130d565b600781111561151657fe5b1415611557576040517f08c379a000000000000000000000000000000000000000000000000000000000815260040161154e90615c85565b60405180910390fd5b6000600a600083815260200190815260200160002090508060010160009054906101000a900473ffffffffffffffffffffffffffffffffffffffff1673ffffffffffffffffffffffffffffffffffffffff163373ffffffffffffffffffffffffffffffffffffffff1614806116b55750600554600960009054906101000a900473ffffffffffffffffffffffffffffffffffffffff1673ffffffffffffffffffffffffffffffffffffffff1663782d6fe18360010160009054906101000a900473ffffffffffffffffffffffffffffffffffffffff1661163843600161317a565b6040518363ffffffff1660e01b815260040161165592919061564a565b60206040518083038186803b15801561166d57600080fd5b505afa158015611681573d6000803e3d6000fd5b505050506040513d601f19601f820116820180604052506116a59190810190614043565b6bffffffffffffffffffffffff16105b6116f4576040517f08c379a00000000000000000000000000000000000000000000000000000000081526004016116eb90615be5565b60405180910390fd5b600181600c0160006101000a81548160ff02191690831515021790555060008090505b816003018054905081101561184e57600860009054906101000a900473ffffffffffffffffffffffffffffffffffffffff1673ffffffffffffffffffffffffffffffffffffffff1663591fcdfe83600301838154811061177357fe5b9060005260206000200160009054906101000a900473ffffffffffffffffffffffffffffffffffffffff168460040184815481106117ad57fe5b90600052602060002001548560050185815481106117c757fe5b906000526020600020018660060186815481106117e057fe5b9060005260206000200187600201546040518663ffffffff1660e01b815260040161180f9594939291906156d4565b600060405180830381600087803b15801561182957600080fd5b505af115801561183d573d6000803e3d6000fd5b505050508080600101915050611717565b507f789cf55be980739dad1d0699b93b58e806b51c9d96619bfa8fe0a28abaa7b30c8260405161187e9190615d40565b60405180910390a15050565b3373ffffffffffffffffffffffffffffffffffffffff167fb8e138887d0aa13bab447e82de9d5c1777041ecd21ca36ba824ff1e6c07ddda483836118cf338787612dfb565b6040516118de93929190615f1e565b60405180910390a25050565b600260009054906101000a900473ffffffffffffffffffffffffffffffffffffffff1681565b690a968163f0a57b40000081565b3373ffffffffffffffffffffffffffffffffffffffff167fb8e138887d0aa13bab447e82de9d5c1777041ecd21ca36ba824ff1e6c07ddda48585611963338989612dfb565b8686604051611976959493929190615ed0565b60405180910390a250505050565b600a81565b62013b0081565b619d8081565b60055481565b6000809054906101000a900473ffffffffffffffffffffffffffffffffffffffff1673ffffffffffffffffffffffffffffffffffffffff163373ffffffffffffffffffffffffffffffffffffffff1614611a2b576040517f08c379a0000000000000000000000000000000000000000000000000000000008152600401611a2290615925565b60405180910390fd5b6000600160009054906101000a900473ffffffffffffffffffffffffffffffffffffffff16905081600160006101000a81548173ffffffffffffffffffffffffffffffffffffffff021916908373ffffffffffffffffffffffffffffffffffffffff1602179055507fca4f2f25d0898edd99413412fb94012f9e54ec8142f9b093e7720646a95b16a98183604051611ac4929190615621565b60405180910390a15050565b600073ffffffffffffffffffffffffffffffffffffffff16600860009054906101000a900473ffffffffffffffffffffffffffffffffffffffff1673ffffffffffffffffffffffffffffffffffffffff1614611b61576040517f08c379a0000000000000000000000000000000000000000000000000000000008152600401611b5890615905565b60405180910390fd5b6000809054906101000a900473ffffffffffffffffffffffffffffffffffffffff1673ffffffffffffffffffffffffffffffffffffffff163373ffffffffffffffffffffffffffffffffffffffff1614611bf0576040517f08c379a0000000000000000000000000000000000000000000000000000000008152600401611be790615b05565b60405180910390fd5b600073ffffffffffffffffffffffffffffffffffffffff168573ffffffffffffffffffffffffffffffffffffffff161415611c60576040517f08c379a0000000000000000000000000000000000000000000000000000000008152600401611c5790615985565b60405180910390fd5b600073ffffffffffffffffffffffffffffffffffffffff168473ffffffffffffffffffffffffffffffffffffffff161415611cd0576040517f08c379a0000000000000000000000000000000000000000000000000000000008152600401611cc790615bc5565b60405180910390fd5b6116808310158015611ce5575062013b008311155b611d24576040517f08c379a0000000000000000000000000000000000000000000000000000000008152600401611d1b90615ce5565b60405180910390fd5b60018210158015611d375750619d808211155b611d76576040517f08c379a0000000000000000000000000000000000000000000000000000000008152600401611d6d90615ac5565b60405180910390fd5b690a968163f0a57b4000008110158015611d9a575069152d02c7e14af68000008111155b611dd9576040517f08c379a0000000000000000000000000000000000000000000000000000000008152600401611dd090615a65565b60405180910390fd5b84600860006101000a81548173ffffffffffffffffffffffffffffffffffffffff021916908373ffffffffffffffffffffffffffffffffffffffff16021790555083600960006101000a81548173ffffffffffffffffffffffffffffffffffffffff021916908373ffffffffffffffffffffffffffffffffffffffff1602179055508260048190555081600381905550806005819055505050505050565b600860009054906101000a900473ffffffffffffffffffffffffffffffffffffffff1681565b60075481565b6000806006541415611eea576040517f08c379a0000000000000000000000000000000000000000000000000000000008152600401611ee1906159c5565b60405180910390fd5b600554600960009054906101000a900473ffffffffffffffffffffffffffffffffffffffff1673ffffffffffffffffffffffffffffffffffffffff1663782d6fe133611f3743600161317a565b6040518363ffffffff1660e01b8152600401611f549291906155f8565b60206040518083038186803b158015611f6c57600080fd5b505afa158015611f80573d6000803e3d6000fd5b505050506040513d601f19601f82011682018060405250611fa49190810190614043565b6bffffffffffffffffffffffff1611611ff2576040517f08c379a0000000000000000000000000000000000000000000000000000000008152600401611fe990615c65565b60405180910390fd5b84518651148015612004575083518651145b8015612011575082518651145b612050576040517f08c379a000000000000000000000000000000000000000000000000000000000815260040161204790615ae5565b60405180910390fd5b600086511415612095576040517f08c379a000000000000000000000000000000000000000000000000000000000815260040161208c90615b85565b60405180910390fd5b600a865111156120da576040517f08c379a00000000000000000000000000000000000000000000000000000000081526004016120d190615c05565b60405180910390fd5b6000600b60003373ffffffffffffffffffffffffffffffffffffffff1673ffffffffffffffffffffffffffffffffffffffff168152602001908152602001600020549050600081146121e95760006121318261130d565b90506001600781111561214057fe5b81600781111561214c57fe5b141561218d576040517f08c379a000000000000000000000000000000000000000000000000000000000815260040161218490615c45565b60405180910390fd5b6000600781111561219a57fe5b8160078111156121a657fe5b14156121e7576040517f08c379a00000000000000000000000000000000000000000000000000000000081526004016121de90615c25565b60405180910390fd5b505b60006121f743600354613125565b9050600061220782600454613125565b90506007600081548092919060010191905055506122236133a0565b604051806101c0016040528060075481526020013373ffffffffffffffffffffffffffffffffffffffff168152602001600081526020018b81526020018a815260200189815260200188815260200184815260200183815260200160008152602001600081526020016000815260200160001515815260200160001515815250905080600a6000836000015181526020019081526020016000206000820151816000015560208201518160010160006101000a81548173ffffffffffffffffffffffffffffffffffffffff021916908373ffffffffffffffffffffffffffffffffffffffff160217905550604082015181600201556060820151816003019080519060200190612334929190613429565b5060808201518160040190805190602001906123519291906134b3565b5060a082015181600501908051906020019061236e929190613500565b5060c082015181600601908051906020019061238b929190613560565b5060e082015181600701556101008201518160080155610120820151816009015561014082015181600a015561016082015181600b015561018082015181600c0160006101000a81548160ff0219169083151502179055506101a082015181600c0160016101000a81548160ff0219169083151502179055509050508060000151600b6000836020015173ffffffffffffffffffffffffffffffffffffffff1673ffffffffffffffffffffffffffffffffffffffff168152602001908152602001600020819055507f7d84a6263ae0d98d3329bd7b46bb4e8d6f98cd35a7adb45c274c8b7fd5ebd5e08160000151338c8c8c8c89898e60405161249699989796959493929190615d5b565b60405180910390a1806000015194505050505095945050505050565b600460078111156124bf57fe5b6124c88261130d565b60078111156124d357fe5b14612513576040517f08c379a000000000000000000000000000000000000000000000000000000000815260040161250a90615b45565b60405180910390fd5b6000600a6000838152602001908152602001600020905060006125d542600860009054906101000a900473ffffffffffffffffffffffffffffffffffffffff1673ffffffffffffffffffffffffffffffffffffffff16636a42b8f86040518163ffffffff1660e01b815260040160206040518083038186803b15801561259857600080fd5b505afa1580156125ac573d6000803e3d6000fd5b505050506040513d601f19601f820116820180604052506125d09190810190613ebf565b613125565b905060008090505b82600301805490508110156127ba576127ad8360030182815481106125fe57fe5b9060005260206000200160009054906101000a900473ffffffffffffffffffffffffffffffffffffffff1684600401838154811061263857fe5b906000526020600020015485600501848154811061265257fe5b906000526020600020018054600181600116156101000203166002900480601f0160208091040260200160405190810160405280929190818152602001828054600181600116156101000203166002900480156126f05780601f106126c5576101008083540402835291602001916126f0565b820191906000526020600020905b8154815290600101906020018083116126d357829003601f168201915b505050505086600601858154811061270457fe5b906000526020600020018054600181600116156101000203166002900480601f0160208091040260200160405190810160405280929190818152602001828054600181600116156101000203166002900480156127a25780601f10612777576101008083540402835291602001916127a2565b820191906000526020600020905b81548152906001019060200180831161278557829003601f168201915b5050505050866131ca565b80806001019150506125dd565b508082600201819055507f9a2e42fd6722813d69113e7d0079d3d940171428df7373df9c7f7617cfda289283826040516127f5929190615ea7565b60405180910390a1505050565b60405161280e9061557c565b604051809103902081565b6128216135c0565b600a6000848152602001908152602001600020600d0160008373ffffffffffffffffffffffffffffffffffffffff1673ffffffffffffffffffffffffffffffffffffffff1681526020019081526020016000206040518060600160405290816000820160009054906101000a900460ff161515151581526020016000820160019054906101000a900460ff1660ff1660ff1681526020016000820160029054906101000a90046bffffffffffffffffffffffff166bffffffffffffffffffffffff166bffffffffffffffffffffffff1681525050905092915050565b600181565b600160009054906101000a900473ffffffffffffffffffffffffffffffffffffffff1673ffffffffffffffffffffffffffffffffffffffff163373ffffffffffffffffffffffffffffffffffffffff1614801561298c5750600073ffffffffffffffffffffffffffffffffffffffff163373ffffffffffffffffffffffffffffffffffffffff1614155b6129cb576040517f08c379a00000000000000000000000000000000000000000000000000000000081526004016129c290615ba5565b60405180910390fd5b60008060009054906101000a900473ffffffffffffffffffffffffffffffffffffffff1690506000600160009054906101000a900473ffffffffffffffffffffffffffffffffffffffff169050600160009054906101000a900473ffffffffffffffffffffffffffffffffffffffff166000806101000a81548173ffffffffffffffffffffffffffffffffffffffff021916908373ffffffffffffffffffffffffffffffffffffffff1602179055506000600160006101000a81548173ffffffffffffffffffffffffffffffffffffffff021916908373ffffffffffffffffffffffffffffffffffffffff1602179055507ff9ffabca9c8276e99321725bcb43fb076a6c66a54b7f21c4e8146d8519b417dc826000809054906101000a900473ffffffffffffffffffffffffffffffffffffffff16604051612b0e929190615621565b60405180910390a17fca4f2f25d0898edd99413412fb94012f9e54ec8142f9b093e7720646a95b16a981600160009054906101000a900473ffffffffffffffffffffffffffffffffffffffff16604051612b69929190615621565b60405180910390a15050565b6000809054906101000a900473ffffffffffffffffffffffffffffffffffffffff1681565b60065481565b60056007811115612bad57fe5b612bb68261130d565b6007811115612bc157fe5b14612c01576040517f08c379a0000000000000000000000000000000000000000000000000000000008152600401612bf890615a85565b60405180910390fd5b6000600a60008381526020019081526020016000209050600181600c0160016101000a81548160ff02191690831515021790555060008090505b8160030180549050811015612db257600860009054906101000a900473ffffffffffffffffffffffffffffffffffffffff1673ffffffffffffffffffffffffffffffffffffffff16630825f38f836004018381548110612c9757fe5b9060005260206000200154846003018481548110612cb157fe5b9060005260206000200160009054906101000a900473ffffffffffffffffffffffffffffffffffffffff16856004018581548110612ceb57fe5b9060005260206000200154866005018681548110612d0557fe5b90600052602060002001876006018781548110612d1e57fe5b9060005260206000200188600201546040518763ffffffff1660e01b8152600401612d4d9594939291906156d4565b6000604051808303818588803b158015612d6657600080fd5b505af1158015612d7a573d6000803e3d6000fd5b50505050506040513d6000823e3d601f19601f82011682018060405250612da49190810190613e55565b508080600101915050612c3b565b507f712ae1383f79ac853f8d882153778e0260ef8f03b504e2866e0593e04d2b291f82604051612de29190615d40565b60405180910390a15050565b6000804690508091505090565b600060016007811115612e0a57fe5b612e138461130d565b6007811115612e1e57fe5b14612e5e576040517f08c379a0000000000000000000000000000000000000000000000000000000008152600401612e5590615a05565b60405180910390fd5b60028260ff161115612ea5576040517f08c379a0000000000000000000000000000000000000000000000000000000008152600401612e9c906158e5565b60405180910390fd5b6000600a60008581526020019081526020016000209050600081600d0160008773ffffffffffffffffffffffffffffffffffffffff1673ffffffffffffffffffffffffffffffffffffffff1681526020019081526020016000209050600015158160000160009054906101000a900460ff16151514612f59576040517f08c379a0000000000000000000000000000000000000000000000000000000008152600401612f5090615a25565b60405180910390fd5b6000600960009054906101000a900473ffffffffffffffffffffffffffffffffffffffff1673ffffffffffffffffffffffffffffffffffffffff1663782d6fe18885600701546040518363ffffffff1660e01b8152600401612fbc92919061564a565b60206040518083038186803b158015612fd457600080fd5b505afa158015612fe8573d6000803e3d6000fd5b505050506040513d601f19601f8201168201806040525061300c9190810190614043565b905060008560ff1614156130435761303683600a0154826bffffffffffffffffffffffff16613125565b83600a01819055506130ab565b60018560ff1614156130785761306b8360090154826bffffffffffffffffffffffff16613125565b83600901819055506130aa565b60028560ff1614156130a9576130a083600b0154826bffffffffffffffffffffffff16613125565b83600b01819055505b5b5b60018260000160006101000a81548160ff021916908315150217905550848260000160016101000a81548160ff021916908360ff160217905550808260000160026101000a8154816bffffffffffffffffffffffff02191690836bffffffffffffffffffffffff1602179055508093505050509392505050565b600080828401905083811015613170576040517f08c379a000000000000000000000000000000000000000000000000000000000815260040161316790615b65565b60405180910390fd5b8091505092915050565b6000828211156131bf576040517f08c379a00000000000000000000000000000000000000000000000000000000081526004016131b690615d05565b60405180910390fd5b818303905092915050565b600860009054906101000a900473ffffffffffffffffffffffffffffffffffffffff1673ffffffffffffffffffffffffffffffffffffffff1663f2b065378686868686604051602001613221959493929190615673565b604051602081830303815290604052805190602001206040518263ffffffff1660e01b81526004016132539190615796565b60206040518083038186803b15801561326b57600080fd5b505afa15801561327f573d6000803e3d6000fd5b505050506040513d601f19601f820116820180604052506132a39190810190613e03565b156132e3576040517f08c379a00000000000000000000000000000000000000000000000000000000081526004016132da90615945565b60405180910390fd5b600860009054906101000a900473ffffffffffffffffffffffffffffffffffffffff1673ffffffffffffffffffffffffffffffffffffffff16633a66f90186868686866040518663ffffffff1660e01b8152600401613346959493929190615673565b602060405180830381600087803b15801561336057600080fd5b505af1158015613374573d6000803e3d6000fd5b505050506040513d601f19601f820116820180604052506133989190810190613e2c565b505050505050565b604051806101c0016040528060008152602001600073ffffffffffffffffffffffffffffffffffffffff168152602001600081526020016060815260200160608152602001606081526020016060815260200160008152602001600081526020016000815260200160008152602001600081526020016000151581526020016000151581525090565b8280548282559060005260206000209081019282156134a2579160200282015b828111156134a15782518260006101000a81548173ffffffffffffffffffffffffffffffffffffffff021916908373ffffffffffffffffffffffffffffffffffffffff16021790555091602001919060010190613449565b5b5090506134af91906135f4565b5090565b8280548282559060005260206000209081019282156134ef579160200282015b828111156134ee5782518255916020019190600101906134d3565b5b5090506134fc9190613637565b5090565b82805482825590600052602060002090810192821561354f579160200282015b8281111561354e57825182908051906020019061353e92919061365c565b5091602001919060010190613520565b5b50905061355c91906136dc565b5090565b8280548282559060005260206000209081019282156135af579160200282015b828111156135ae57825182908051906020019061359e929190613708565b5091602001919060010190613580565b5b5090506135bc9190613788565b5090565b6040518060600160405280600015158152602001600060ff16815260200160006bffffffffffffffffffffffff1681525090565b61363491905b8082111561363057600081816101000a81549073ffffffffffffffffffffffffffffffffffffffff0219169055506001016135fa565b5090565b90565b61365991905b8082111561365557600081600090555060010161363d565b5090565b90565b828054600181600116156101000203166002900490600052602060002090601f016020900481019282601f1061369d57805160ff19168380011785556136cb565b828001600101855582156136cb579182015b828111156136ca5782518255916020019190600101906136af565b5b5090506136d89190613637565b5090565b61370591905b8082111561370157600081816136f891906137b4565b506001016136e2565b5090565b90565b828054600181600116156101000203166002900490600052602060002090601f016020900481019282601f1061374957805160ff1916838001178555613777565b82800160010185558215613777579182015b8281111561377657825182559160200191906001019061375b565b5b5090506137849190613637565b5090565b6137b191905b808211156137ad57600081816137a491906137fc565b5060010161378e565b5090565b90565b50805460018160011615610100020316600290046000825580601f106137da57506137f9565b601f0160209004906000526020600020908101906137f89190613637565b5b50565b50805460018160011615610100020316600290046000825580601f106138225750613841565b601f0160209004906000526020600020908101906138409190613637565b5b50565b60008135905061385381616404565b92915050565b600082601f83011261386a57600080fd5b813561387d61387882615f95565b615f68565b915081818352602084019350602081019050838560208402820111156138a257600080fd5b60005b838110156138d257816138b88882613844565b8452602084019350602083019250506001810190506138a5565b5050505092915050565b600082601f8301126138ed57600080fd5b81356139006138fb82615fbd565b615f68565b9150818183526020840193506020810190508360005b83811015613946578135860161392c8882613a86565b845260208401935060208301925050600181019050613916565b5050505092915050565b600082601f83011261396157600080fd5b813561397461396f82615fe5565b615f68565b9150818183526020840193506020810190508360005b838110156139ba57813586016139a08882613b78565b84526020840193506020830192505060018101905061398a565b5050505092915050565b600082601f8301126139d557600080fd5b81356139e86139e38261600d565b615f68565b91508181835260208401935060208101905083856020840282011115613a0d57600080fd5b60005b83811015613a3d5781613a238882613c20565b845260208401935060208301925050600181019050613a10565b5050505092915050565b600081519050613a568161641b565b92915050565b600081359050613a6b81616432565b92915050565b600081519050613a8081616432565b92915050565b600082601f830112613a9757600080fd5b8135613aaa613aa582616035565b615f68565b91508082526020830160208301858383011115613ac657600080fd5b613ad183828461639a565b50505092915050565b600082601f830112613aeb57600080fd5b8151613afe613af982616061565b615f68565b91508082526020830160208301858383011115613b1a57600080fd5b613b258382846163a9565b50505092915050565b60008083601f840112613b4057600080fd5b8235905067ffffffffffffffff811115613b5957600080fd5b602083019150836001820283011115613b7157600080fd5b9250929050565b600082601f830112613b8957600080fd5b8135613b9c613b978261608d565b615f68565b91508082526020830160208301858383011115613bb857600080fd5b613bc383828461639a565b50505092915050565b600082601f830112613bdd57600080fd5b8135613bf0613beb826160b9565b615f68565b91508082526020830160208301858383011115613c0c57600080fd5b613c1783828461639a565b50505092915050565b600081359050613c2f81616449565b92915050565b600081519050613c4481616449565b92915050565b600081359050613c5981616460565b92915050565b600081519050613c6e81616477565b92915050565b600060208284031215613c8657600080fd5b6000613c9484828501613844565b91505092915050565b600080600080600060a08688031215613cb557600080fd5b6000613cc388828901613844565b9550506020613cd488828901613844565b9450506040613ce588828901613c20565b9350506060613cf688828901613c20565b9250506080613d0788828901613c20565b9150509295509295909350565b600080600080600060a08688031215613d2c57600080fd5b600086013567ffffffffffffffff811115613d4657600080fd5b613d5288828901613859565b955050602086013567ffffffffffffffff811115613d6f57600080fd5b613d7b888289016139c4565b945050604086013567ffffffffffffffff811115613d9857600080fd5b613da488828901613950565b935050606086013567ffffffffffffffff811115613dc157600080fd5b613dcd888289016138dc565b925050608086013567ffffffffffffffff811115613dea57600080fd5b613df688828901613bcc565b9150509295509295909350565b600060208284031215613e1557600080fd5b6000613e2384828501613a47565b91505092915050565b600060208284031215613e3e57600080fd5b6000613e4c84828501613a71565b91505092915050565b600060208284031215613e6757600080fd5b600082015167ffffffffffffffff811115613e8157600080fd5b613e8d84828501613ada565b91505092915050565b600060208284031215613ea857600080fd5b6000613eb684828501613c20565b91505092915050565b600060208284031215613ed157600080fd5b6000613edf84828501613c35565b91505092915050565b60008060408385031215613efb57600080fd5b6000613f0985828601613c20565b9250506020613f1a85828601613844565b9150509250929050565b60008060408385031215613f3757600080fd5b6000613f4585828601613c20565b9250506020613f5685828601613c4a565b9150509250929050565b60008060008060608587031215613f7657600080fd5b6000613f8487828801613c20565b9450506020613f9587828801613c4a565b935050604085013567ffffffffffffffff811115613fb257600080fd5b613fbe87828801613b2e565b925092505092959194509250565b600080600080600060a08688031215613fe457600080fd5b6000613ff288828901613c20565b955050602061400388828901613c4a565b945050604061401488828901613c4a565b935050606061402588828901613a5c565b925050608061403688828901613a5c565b9150509295509295909350565b60006020828403121561405557600080fd5b600061406384828501613c5f565b91505092915050565b600061407883836140d3565b60208301905092915050565b60006140908383614314565b905092915050565b60006140a4838361446f565b905092915050565b60006140b88383615522565b60208301905092915050565b6140cd816162f8565b82525050565b6140dc8161626e565b82525050565b6140eb8161626e565b82525050565b60006140fc8261614f565b61410681856161db565b9350614111836160e5565b8060005b83811015614142578151614129888261406c565b9750614134836161a7565b925050600181019050614115565b5085935050505092915050565b600061415a8261615a565b61416481856161ec565b935083602082028501614176856160f5565b8060005b858110156141b257848403895281516141938582614084565b945061419e836161b4565b925060208a0199505060018101905061417a565b50829750879550505050505092915050565b60006141cf82616165565b6141d981856161fd565b9350836020820285016141eb85616105565b8060005b8581101561422757848403895281516142088582614098565b9450614213836161c1565b925060208a019950506001810190506141ef565b50829750879550505050505092915050565b600061424482616170565b61424e818561620e565b935061425983616115565b8060005b8381101561428a57815161427188826140ac565b975061427c836161ce565b92505060018101905061425d565b5085935050505092915050565b6142a081616280565b82525050565b6142af81616280565b82525050565b6142be8161628c565b82525050565b6142d56142d08261628c565b6163dc565b82525050565b60006142e682616186565b6142f08185616230565b93506143008185602086016163a9565b614309816163e6565b840191505092915050565b600061431f8261617b565b614329818561621f565b93506143398185602086016163a9565b614342816163e6565b840191505092915050565b60008154600181166000811461436a5760018114614390576143d4565b607f600283041661437b8187616230565b955060ff1983168652602086019350506143d4565b6002820461439e8187616230565b95506143a985616125565b60005b828110156143cb578154818901526001820191506020810190506143ac565b80880195505050505b505092915050565b6143e58161630a565b82525050565b6143f48161632e565b82525050565b61440381616352565b82525050565b60006144158385616252565b935061442283858461639a565b61442b836163e6565b840190509392505050565b60006144418261619c565b61444b8185616252565b935061445b8185602086016163a9565b614464816163e6565b840191505092915050565b600061447a82616191565b6144848185616241565b93506144948185602086016163a9565b61449d816163e6565b840191505092915050565b60006144b382616191565b6144bd8185616252565b93506144cd8185602086016163a9565b6144d6816163e6565b840191505092915050565b6000815460018116600081146144fe576001811461452457614568565b607f600283041661450f8187616252565b955060ff198316865260208601935050614568565b600282046145328187616252565b955061453d8561613a565b60005b8281101561455f57815481890152600182019150602081019050614540565b80880195505050505b505092915050565b600061457d603283616252565b91507f476f7665726e6f72427261766f3a3a63617374566f7465496e7465726e616c3a60008301527f20696e76616c696420766f7465207479706500000000000000000000000000006020830152604082019050919050565b60006145e3602883616263565b91507f42616c6c6f742875696e743235362070726f706f73616c49642c75696e74382060008301527f737570706f7274290000000000000000000000000000000000000000000000006020830152602882019050919050565b6000614649603383616252565b91507f476f7665726e6f72427261766f3a3a696e697469616c697a653a2063616e206f60008301527f6e6c7920696e697469616c697a65206f6e6365000000000000000000000000006020830152604082019050919050565b60006146af602a83616252565b91507f476f7665726e6f72427261766f3a5f73657450656e64696e6741646d696e3a2060008301527f61646d696e206f6e6c79000000000000000000000000000000000000000000006020830152604082019050919050565b6000614715605583616252565b91507f476f7665726e6f72427261766f3a3a71756575654f72526576657274496e746560008301527f726e616c3a206964656e746963616c2070726f706f73616c20616374696f6e2060208301527f616c7265616479207175657565642061742065746100000000000000000000006040830152606082019050919050565b60006147a1602b83616252565b91507f476f7665726e6f72427261766f3a3a5f736574566f74696e67506572696f643a60008301527f2061646d696e206f6e6c790000000000000000000000000000000000000000006020830152604082019050919050565b6000614807603383616252565b91507f476f7665726e6f72427261766f3a3a696e697469616c697a653a20696e76616c60008301527f69642074696d656c6f636b2061646472657373000000000000000000000000006020830152604082019050919050565b600061486d602a83616252565b91507f476f7665726e6f72427261766f3a3a5f736574566f74696e6744656c61793a2060008301527f61646d696e206f6e6c79000000000000000000000000000000000000000000006020830152604082019050919050565b60006148d3603183616252565b91507f476f7665726e6f72427261766f3a3a70726f706f73653a20476f7665726e6f7260008301527f20427261766f206e6f74206163746976650000000000000000000000000000006020830152604082019050919050565b6000614939600283616263565b91507f19010000000000000000000000000000000000000000000000000000000000006000830152600282019050919050565b6000614979603683616252565b91507f476f7665726e6f72427261766f3a3a5f736574566f74696e67506572696f643a60008301527f20696e76616c696420766f74696e6720706572696f64000000000000000000006020830152604082019050919050565b60006149df603183616252565b91507f476f7665726e6f72427261766f3a3a63617374566f7465496e7465726e616c3a60008301527f20766f74696e6720697320636c6f7365640000000000000000000000000000006020830152604082019050919050565b6000614a45603483616252565b91507f476f7665726e6f72427261766f3a3a63617374566f7465496e7465726e616c3a60008301527f20766f74657220616c726561647920766f7465640000000000000000000000006020830152604082019050919050565b6000614aab603483616252565b91507f476f7665726e6f72427261766f3a3a5f736574566f74696e6744656c61793a2060008301527f696e76616c696420766f74696e672064656c61790000000000000000000000006020830152604082019050919050565b6000614b11603583616252565b91507f476f7665726e6f72427261766f3a3a696e697469616c697a653a20696e76616c60008301527f69642070726f706f73616c207468726573686f6c6400000000000000000000006020830152604082019050919050565b6000614b77604583616252565b91507f476f7665726e6f72427261766f3a3a657865637574653a2070726f706f73616c60008301527f2063616e206f6e6c79206265206578656375746564206966206974206973207160208301527f75657565640000000000000000000000000000000000000000000000000000006040830152606082019050919050565b6000614c03602f83616252565b91507f476f7665726e6f72427261766f3a3a63617374566f746542795369673a20696e60008301527f76616c6964207369676e617475726500000000000000000000000000000000006020830152604082019050919050565b6000614c69602f83616252565b91507f476f7665726e6f72427261766f3a3a696e697469616c697a653a20696e76616c60008301527f696420766f74696e672064656c617900000000000000000000000000000000006020830152604082019050919050565b6000614ccf604483616252565b91507f476f7665726e6f72427261766f3a3a70726f706f73653a2070726f706f73616c60008301527f2066756e6374696f6e20696e666f726d6174696f6e206172697479206d69736d60208301527f61746368000000000000000000000000000000000000000000000000000000006040830152606082019050919050565b6000614d5b602583616252565b91507f476f7665726e6f72427261766f3a3a696e697469616c697a653a2061646d696e60008301527f206f6e6c790000000000000000000000000000000000000000000000000000006020830152604082019050919050565b6000614dc1604083616252565b91507f476f7665726e6f72427261766f3a3a5f73657450726f706f73616c546872657360008301527f686f6c643a20696e76616c69642070726f706f73616c207468726573686f6c646020830152604082019050919050565b6000614e27604483616252565b91507f476f7665726e6f72427261766f3a3a71756575653a2070726f706f73616c206360008301527f616e206f6e6c792062652071756575656420696620697420697320737563636560208301527f65646564000000000000000000000000000000000000000000000000000000006040830152606082019050919050565b6000614eb3601183616252565b91507f6164646974696f6e206f766572666c6f770000000000000000000000000000006000830152602082019050919050565b6000614ef3604383616263565b91507f454950373132446f6d61696e28737472696e67206e616d652c75696e7432353660008301527f20636861696e49642c6164647265737320766572696679696e67436f6e74726160208301527f63742900000000000000000000000000000000000000000000000000000000006040830152604382019050919050565b6000614f7f602c83616252565b91507f476f7665726e6f72427261766f3a3a70726f706f73653a206d7573742070726f60008301527f7669646520616374696f6e7300000000000000000000000000000000000000006020830152604082019050919050565b6000614fe5602e83616252565b91507f476f7665726e6f72427261766f3a5f61636365707441646d696e3a2070656e6460008301527f696e672061646d696e206f6e6c790000000000000000000000000000000000006020830152604082019050919050565b600061504b602f83616252565b91507f476f7665726e6f72427261766f3a3a696e697469616c697a653a20696e76616c60008301527f696420636f6d70206164647265737300000000000000000000000000000000006020830152604082019050919050565b60006150b1602f83616252565b91507f476f7665726e6f72427261766f3a3a63616e63656c3a2070726f706f7365722060008301527f61626f7665207468726573686f6c6400000000000000000000000000000000006020830152604082019050919050565b6000615117602883616252565b91507f476f7665726e6f72427261766f3a3a70726f706f73653a20746f6f206d616e7960008301527f20616374696f6e730000000000000000000000000000000000000000000000006020830152604082019050919050565b600061517d605983616252565b91507f476f7665726e6f72427261766f3a3a70726f706f73653a206f6e65206c69766560008301527f2070726f706f73616c207065722070726f706f7365722c20666f756e6420616e60208301527f20616c72656164792070656e64696e672070726f706f73616c000000000000006040830152606082019050919050565b6000615209605883616252565b91507f476f7665726e6f72427261766f3a3a70726f706f73653a206f6e65206c69766560008301527f2070726f706f73616c207065722070726f706f7365722c20666f756e6420616e60208301527f20616c7265616479206163746976652070726f706f73616c00000000000000006040830152606082019050919050565b6000615295600083616252565b9150600082019050919050565b60006152af603f83616252565b91507f476f7665726e6f72427261766f3a3a70726f706f73653a2070726f706f73657260008301527f20766f7465732062656c6f772070726f706f73616c207468726573686f6c64006020830152604082019050919050565b6000615315603683616252565b91507f476f7665726e6f72427261766f3a3a63616e63656c3a2063616e6e6f7420636160008301527f6e63656c2065786563757465642070726f706f73616c000000000000000000006020830152604082019050919050565b600061537b603083616252565b91507f476f7665726e6f72427261766f3a3a5f73657450726f706f73616c546872657360008301527f686f6c643a2061646d696e206f6e6c79000000000000000000000000000000006020830152604082019050919050565b60006153e1602983616252565b91507f476f7665726e6f72427261766f3a3a73746174653a20696e76616c696420707260008301527f6f706f73616c20696400000000000000000000000000000000000000000000006020830152604082019050919050565b6000615447603083616252565b91507f476f7665726e6f72427261766f3a3a696e697469616c697a653a20696e76616c60008301527f696420766f74696e6720706572696f64000000000000000000000000000000006020830152604082019050919050565b60006154ad601583616252565b91507f7375627472616374696f6e20756e646572666c6f7700000000000000000000006000830152602082019050919050565b6060820160008201516154f66000850182614297565b5060208201516155096020850182615540565b50604082015161551c604085018261556d565b50505050565b61552b816162c9565b82525050565b61553a816162c9565b82525050565b615549816162d3565b82525050565b615558816162d3565b82525050565b61556781616388565b82525050565b615576816162e0565b82525050565b6000615587826145d6565b9150819050919050565b600061559c8261492c565b91506155a882856142c4565b6020820191506155b882846142c4565b6020820191508190509392505050565b60006155d382614ee6565b9150819050919050565b60006020820190506155f260008301846140e2565b92915050565b600060408201905061560d60008301856140c4565b61561a6020830184615531565b9392505050565b600060408201905061563660008301856140e2565b61564360208301846140e2565b9392505050565b600060408201905061565f60008301856140e2565b61566c6020830184615531565b9392505050565b600060a08201905061568860008301886140e2565b6156956020830187615531565b81810360408301526156a78186614436565b905081810360608301526156bb81856142db565b90506156ca6080830184615531565b9695505050505050565b600060a0820190506156e960008301886140e2565b6156f66020830187615531565b818103604083015261570881866144e1565b9050818103606083015261571c818561434d565b905061572b6080830184615531565b9695505050505050565b6000608082019050818103600083015261574f81876140f1565b905081810360208301526157638186614239565b9050818103604083015261577781856141c4565b9050818103606083015261578b818461414f565b905095945050505050565b60006020820190506157ab60008301846142b5565b92915050565b60006080820190506157c660008301876142b5565b6157d360208301866142b5565b6157e06040830185615531565b6157ed60608301846140e2565b95945050505050565b600060608201905061580b60008301866142b5565b6158186020830185615531565b615825604083018461554f565b949350505050565b600060808201905061584260008301876142b5565b61584f602083018661554f565b61585c60408301856142b5565b61586960608301846142b5565b95945050505050565b600060208201905061588760008301846143dc565b92915050565b60006020820190506158a260008301846143eb565b92915050565b60006020820190506158bd60008301846143fa565b92915050565b600060208201905081810360008301526158dd81846144a8565b905092915050565b600060208201905081810360008301526158fe81614570565b9050919050565b6000602082019050818103600083015261591e8161463c565b9050919050565b6000602082019050818103600083015261593e816146a2565b9050919050565b6000602082019050818103600083015261595e81614708565b9050919050565b6000602082019050818103600083015261597e81614794565b9050919050565b6000602082019050818103600083015261599e816147fa565b9050919050565b600060208201905081810360008301526159be81614860565b9050919050565b600060208201905081810360008301526159de816148c6565b9050919050565b600060208201905081810360008301526159fe8161496c565b9050919050565b60006020820190508181036000830152615a1e816149d2565b9050919050565b60006020820190508181036000830152615a3e81614a38565b9050919050565b60006020820190508181036000830152615a5e81614a9e565b9050919050565b60006020820190508181036000830152615a7e81614b04565b9050919050565b60006020820190508181036000830152615a9e81614b6a565b9050919050565b60006020820190508181036000830152615abe81614bf6565b9050919050565b60006020820190508181036000830152615ade81614c5c565b9050919050565b60006020820190508181036000830152615afe81614cc2565b9050919050565b60006020820190508181036000830152615b1e81614d4e565b9050919050565b60006020820190508181036000830152615b3e81614db4565b9050919050565b60006020820190508181036000830152615b5e81614e1a565b9050919050565b60006020820190508181036000830152615b7e81614ea6565b9050919050565b60006020820190508181036000830152615b9e81614f72565b9050919050565b60006020820190508181036000830152615bbe81614fd8565b9050919050565b60006020820190508181036000830152615bde8161503e565b9050919050565b60006020820190508181036000830152615bfe816150a4565b9050919050565b60006020820190508181036000830152615c1e8161510a565b9050919050565b60006020820190508181036000830152615c3e81615170565b9050919050565b60006020820190508181036000830152615c5e816151fc565b9050919050565b60006020820190508181036000830152615c7e816152a2565b9050919050565b60006020820190508181036000830152615c9e81615308565b9050919050565b60006020820190508181036000830152615cbe8161536e565b9050919050565b60006020820190508181036000830152615cde816153d4565b9050919050565b60006020820190508181036000830152615cfe8161543a565b9050919050565b60006020820190508181036000830152615d1e816154a0565b9050919050565b6000606082019050615d3a60008301846154e0565b92915050565b6000602082019050615d556000830184615531565b92915050565b600061012082019050615d71600083018c615531565b615d7e602083018b6140c4565b8181036040830152615d90818a6140f1565b90508181036060830152615da48189614239565b90508181036080830152615db881886141c4565b905081810360a0830152615dcc818761414f565b9050615ddb60c0830186615531565b615de860e0830185615531565b818103610100830152615dfb8184614436565b90509a9950505050505050505050565b600061014082019050615e21600083018d615531565b615e2e602083018c6140e2565b615e3b604083018b615531565b615e48606083018a615531565b615e556080830189615531565b615e6260a0830188615531565b615e6f60c0830187615531565b615e7c60e0830186615531565b615e8a6101008301856142a6565b615e986101208301846142a6565b9b9a5050505050505050505050565b6000604082019050615ebc6000830185615531565b615ec96020830184615531565b9392505050565b6000608082019050615ee56000830188615531565b615ef2602083018761554f565b615eff604083018661555e565b8181036060830152615f12818486614409565b90509695505050505050565b6000608082019050615f336000830186615531565b615f40602083018561554f565b615f4d604083018461555e565b8181036060830152615f5e81615288565b9050949350505050565b6000604051905081810181811067ffffffffffffffff82111715615f8b57600080fd5b8060405250919050565b600067ffffffffffffffff821115615fac57600080fd5b602082029050602081019050919050565b600067ffffffffffffffff821115615fd457600080fd5b602082029050602081019050919050565b600067ffffffffffffffff821115615ffc57600080fd5b602082029050602081019050919050565b600067ffffffffffffffff82111561602457600080fd5b602082029050602081019050919050565b600067ffffffffffffffff82111561604c57600080fd5b601f19601f8301169050602081019050919050565b600067ffffffffffffffff82111561607857600080fd5b601f19601f8301169050602081019050919050565b600067ffffffffffffffff8211156160a457600080fd5b601f19601f8301169050602081019050919050565b600067ffffffffffffffff8211156160d057600080fd5b601f19601f8301169050602081019050919050565b6000819050602082019050919050565b6000819050602082019050919050565b6000819050602082019050919050565b6000819050602082019050919050565b60008190508160005260206000209050919050565b60008190508160005260206000209050919050565b600081519050919050565b600081519050919050565b600081519050919050565b600081519050919050565b600081519050919050565b600081519050919050565b600081519050919050565b600081519050919050565b6000602082019050919050565b6000602082019050919050565b6000602082019050919050565b6000602082019050919050565b600082825260208201905092915050565b600082825260208201905092915050565b600082825260208201905092915050565b600082825260208201905092915050565b600082825260208201905092915050565b600082825260208201905092915050565b600082825260208201905092915050565b600082825260208201905092915050565b600081905092915050565b6000616279826162a9565b9050919050565b60008115159050919050565b6000819050919050565b60008190506162a4826163f7565b919050565b600073ffffffffffffffffffffffffffffffffffffffff82169050919050565b6000819050919050565b600060ff82169050919050565b60006bffffffffffffffffffffffff82169050919050565b600061630382616364565b9050919050565b60006163158261631c565b9050919050565b6000616327826162a9565b9050919050565b600061633982616340565b9050919050565b600061634b826162a9565b9050919050565b600061635d82616296565b9050919050565b600061636f82616376565b9050919050565b6000616381826162a9565b9050919050565b6000616393826162e0565b9050919050565b82818337600083830152505050565b60005b838110156163c75780820151818401526020810190506163ac565b838111156163d6576000848401525b50505050565b6000819050919050565b6000601f19601f8301169050919050565b6008811061640157fe5b50565b61640d8161626e565b811461641857600080fd5b50565b61642481616280565b811461642f57600080fd5b50565b61643b8161628c565b811461644657600080fd5b50565b616452816162c9565b811461645d57600080fd5b50565b616469816162d3565b811461647457600080fd5b50565b616480816162e0565b811461648b57600080fd5b5056fea365627a7a72315820ca660487bffccea000f046b81ecf83b0d5cacfad18c266aaa5ac9062b0bc35e06c6578706572696d656e74616cf564736f6c63430005100040",
  "linkReferences": {},
  "deployedLinkReferences": {}
}